:020000040800F2
:10000000000008205D3300089D0800089F080008D4
:10001000A1080008A3080008A508000800000000C7
:10002000000000000000000000000000A708000819
:10003000A908000800000000AB080008AD0800088F
:10004000AD330008AD330008AD330008AD33000810
:10005000AD330008AD330008AD330008AD33000800
:10006000AD330008AD330008AD330008AD330008F0
:10007000AD330008AD330008AD330008AD330008E0
:10008000AD330008AD330008AD330008AD330008D0
:10009000AD330008AD330008AD330008AD330008C0
:1000A000AD330008AD330008AD330008AD330008B0
:1000B000AD330008AD330008AD330008AD330008A0
:1000C000AD330008AD330008AD330008AD33000890
:1000D000AD330008AD330008AD330008AD33000880
:1000E000AD330008AD330008AD330008AD33000870
:1000F000AD330008AD330008AD330008AD33000860
:10010000AD330008AD330008AD330008AD3300084F
:10011000AD330008AD330008AD330008AD3300083F
:10012000AD330008AD330008AD330008AD3300082F
:10013000AD330008AD330008AD330008AD3300081F
:10014000AD330008AD330008AD330008AD3300080F
:10015000AD330008AD330008AD330008AD330008FF
:10016000AD330008AD330008AD330008AD330008EF
:10017000AD330008AD330008AD33000800000000C7
:10018000AD330008AD330008AD330008AD330008CF
:10019000AD330008AD330008AD330008AD330008BF
:1001A000AD330008AD330008AD330008AD330008AF
:1001B000AD330008AD330008AD330008AD3300089F
:1001C000AD330008AD33000800000000AD33000877
:1001D000AD330008AD330008AD330008AD3300087F
:1001E000AD330008AD330008AD330008AD3300086F
:0801F000AD330008AD33000837
:1002000010B5054C237833B9044B13B10448AFF350
:1002100000800123237010BD70000020000000004A
:10022000F03C000808B5034B1BB103490348AFF38A
:10023000008008BD0000000074000020F03C0008B1
:10024000034613F8012B002AFBD1181A0138704716
:1002500001F0FF01102A2BDB10F0070F08D010F877
:10026000013B013A8B422DD010F0070F42B3F6D17B
:10027000F0B441EA012141EA014122F007047FF094
:1002800000070023F0E80256083C85EA010586EAEB
:10029000010685FA47F5A3FA87F586FA47F6A5FA27
:1002A00087F68EB9EED1F0BC01F0FF0102F0070233
:1002B00032B110F8013B013A83EA010313B1F8D1DE
:1002C0000020704701387047002D06BF35460338BF
:1002D000073815F0010F07D1013015F4807F02BFF8
:1002E000013015F4C03F0130F0BC0138704700BF49
:1002F00053B94AB9002908BF00281CBF4FF0FF318D
:100300004FF0FF3000F074B9ADF1080C6DE904CE88
:1003100000F006F8DDF804E0DDE9022304B07047E0
:100320002DE9F047089D04468E46002B4DD18A42A8
:10033000944669D9B2FA82F252B101FA02F3C2F1DB
:10034000200120FA01F10CFA02FC41EA030E94406C
:100350004FEA1C48210CBEFBF8F61FFA8CF708FB8D
:1003600016E341EA034306FB07F199420AD91CEB65
:10037000030306F1FF3080F01F81994240F21C8197
:10038000023E63445B1AA4B2B3FBF8F008FB1033DF
:1003900044EA034400FB07F7A7420AD91CEB040414
:1003A00000F1FF3380F00A81A74240F207816444E4
:1003B000023840EA0640E41B00261DB1D440002369
:1003C000C5E900433146BDE8F0878B4209D9002DCD
:1003D00000F0EF800026C5E9000130463146BDE857
:1003E000F087B3FA83F6002E4AD18B4202D38242C1
:1003F00000F2F980841A61EB030301209E46002D70
:10040000E0D0C5E9004EDDE702B9FFDEB2FA82F2C4
:10041000002A40F09280A1EB0C014FEA1C471FFA22
:100420008CFE0126200CB1FBF7F307FB131140EA09
:1004300001410EFB03F0884208D91CEB010103F1D6
:10044000FF3802D2884200F2CB804346091AA4B298
:10045000B1FBF7F007FB101144EA01440EFB00FE6C
:10046000A64508D91CEB040400F1FF3102D2A645D1
:1004700000F2BB800846A4EB0E0440EA03409CE770
:10048000C6F12007B34022FA07FC4CEA030C20FA1D
:1004900007F401FA06F31C43F9404FEA1C4900FA3D
:1004A00006F3B1FBF9F8200C1FFA8CFE09FB1811BA
:1004B00040EA014108FB0EF0884202FA06F20BD92D
:1004C0001CEB010108F1FF3A80F08880884240F27D
:1004D0008580A8F102086144091AA4B2B1FBF9F0C1
:1004E00009FB101144EA014100FB0EFE8E4508D9BC
:1004F0001CEB010100F1FF346CD28E456AD9023841
:10050000614440EA0840A0FB0294A1EB0E01A14225
:10051000C846A64656D353D05DB1B3EB080261EB93
:100520000E0101FA07F722FA06F3F1401F43C5E96D
:10053000007100263146BDE8F087C2F12003D840A3
:100540000CFA02FC21FA03F3914001434FEA1C47E5
:100550001FFA8CFEB3FBF7F007FB10360B0C43EAD7
:10056000064300FB0EF69E4204FA02F408D91CEB87
:10057000030300F1FF382FD29E422DD90238634485
:100580009B1B89B2B3FBF7F607FB163341EA034125
:1005900006FB0EF38B4208D91CEB010106F1FF3874
:1005A00016D28B4214D9023E6144C91A46EA00466B
:1005B00038E72E46284605E70646E3E61846F8E6FD
:1005C0004B45A9D2B9EB020864EB0C0E0138A3E746
:1005D0004646EAE7204694E74046D1E7D0467BE727
:1005E000023B614432E7304609E76444023842E79F
:1005F000704700BF70B588B000240394049405943C
:10060000069407941D4B1A6B42F001021A631A6B91
:1006100002F001020092009A1A6B42F002021A6381
:100620001A6B02F002020192019A1A6B42F0080260
:100630001A631B6B03F008030293029B104D2246C2
:100640004FF48141284600F0B7FD012603960223AE
:1006500004930594032306930823079303A90948E9
:1006600000F0AEFC4FF48143039304960594069486
:1006700003A9284600F0A4FC08B070BD0038024071
:10068000000402400000024008B51248124B03600B
:100690000023436083600122C26003614361836180
:1006A000C361036200F0B6FF50B90021094801F0B0
:1006B00053FB40B90021074801F07CFB30B908BD6D
:1006C00000F07BF8F1E700F078F8F3E700F075F858
:1006D000F5E700BF8C0000200054004010B5ACB01E
:1006E000044600212791289129912A912B9190224B
:1006F00003A802F087FE2268184B9A4201D02CB062
:1007000010BD4FF48043039303A801F0CFFE10BB4C
:10071000134C236B43F002032363236B03F00203A8
:100720000193019B4FF41073279312232893012305
:10073000299303232A9304232B9327A9094800F024
:100740003FFC236C43F400132364236C03F4001375
:100750000293029BD3E700F030F8D9E70054004041
:10076000003802400004024010B584B00024009418
:1007700001940294039400F0D9FB01238DF800301A
:100780008DF8014001941F228DF8082087228DF8F2
:1007900009208DF80A408DF80B408DF80C308DF84B
:1007A0000D308DF80E408DF80F40684600F0DCFBF0
:1007B000042000F0C9FB04B010BD72B6FEE70000D3
:1007C00000B595B03422002107A802F01BFE0023DB
:1007D000029303930493059306931A4A116C41F014
:1007E00080511164126C02F080520092009A1649F6
:1007F0000A6822F4404242F480420A600A6802F425
:1008000040420192019A0222079201220A9210228A
:100810000B920D9307A801F0F9FA78B90F23029310
:100820000021039104914FF4E0530593069102A82F
:1008300001F060FD20B915B05DF804FBFFF7BDFFC6
:10084000FFF7BBFF003802400070004008B5FFF71B
:100850008BFF00F0DDFAFFF7B3FFFFF7CBFEFFF7EA
:1008600013FF00F055F802F0AFFCFEE782B00A4B30
:100870001A6C42F080521A641A6C02F08052009294
:10088000009A5A6C42F480425A645B6C03F48043D1
:100890000193019B02B0704700380240FEE7FEE77B
:1008A000FEE7FEE7FEE770477047704708B500F0C7
:1008B000BBFA08BD10B503460C4A0D490D48006847
:1008C00040B10C4800680344521A934206D8094AC2
:1008D000136010BD0748084C0460F2E702F068FDA1
:1008E0000C2303604FF0FF30F3E700BF0000082047
:1008F00000040000E000002098010020034AD2F824
:10090000883043F47003C2F88830704700ED00E08F
:1009100008B50B480B4B03604FF4E13343600023F1
:100920008360C3600361082242618361C361036223
:10093000436202F0FDFB00B908BDFFF73EFFFBE795
:10094000E40000200048004010B5ACB0044600218F
:100950002791289129912A912B91902203A802F0A6
:1009600051FD2268194B9A4201D02CB010BD4FF4B2
:10097000807303931023169303A801F097FD10BB17
:10098000134B1A6C42F480221A641A6C02F480220F
:100990000192019A1A6B42F008021A631B6B03F072
:1009A00008030293029B4FF440732793022328937A
:1009B0000023299303232A9307232B9327A9054870
:1009C00000F0FEFAD1E7FFF7F8FED9E70048004053
:1009D00000380240000C02408446FF2000220EE056
:1009E0004000C0B2013BDBB23BB110F0800FF7D04A
:1009F000400080F03100C0B2F4E7013292B28A4286
:100A000004D21CF8023058400823EDE7704710B5B7
:100A10001446FFF7E1FFA04201D1002010BD4FF0C6
:100A2000FF30FBE710B48446054C0FCCACE80F0058
:100A300094E803008CE8030000205DF8044B704745
:100A4000203D000810B582B08DF807100DF10703A6
:100A50000122FF2100F062F904460A2000F0ADF9FE
:100A600014B9204602B010BD4FF0FF34F9E7000082
:100A700070B582B0044616461D46FFF7E3FFB8BBCB
:100A800000230093ADF804306B460622FF21204678
:100A900000F0CEF878BB9DF8022002216846FFF7EF
:100AA000B6FF58BB9DF8052002210DF10300FFF7AA
:100AB000AEFF30BB9DF800309DF801C04CEA032C1E
:100AC0009DF803209DF8041041EA022145F273537A
:100AD00003FB0CFC0C4B03EB6C33336043F6095205
:100AE00001FB02F2094B03EB62322A6002B070BDD7
:100AF0004FF0FF30FAE74FF0FF30F7E74FF0FF30ED
:100B0000F4E74FF0FF30F1E73850FFFF90E8FFFFC8
:100B100030B583B005460C4600230093ADF8043091
:100B20008921FFF78FFFB0F1FF3F24D06B460622EB
:100B3000FF21284600F07CF8F8B99DF80220022138
:100B40006846FFF764FFD8B99DF8052002210DF132
:100B50000300FFF75CFFB0B99DF800209DF801305D
:100B60001B0443EA02639DF8032043EA02239DF835
:100B700004201343236003B030BD4FF0FF30FAE789
:100B80004FF0FF30F7E74FF0FF30F4E710B582B0D9
:100B900094238DF807300DF107030122FF2100F0A7
:100BA000BDF830B904460A2000F007F9204602B02B
:100BB00010BD4FF0FF34F9E710B582B004460023B2
:100BC0000193FFF7E3FF40B901A92046FFF7A0FF1B
:100BD00030B9019B3BB102B010BD4FF0FF30FAE7D6
:100BE0004FF0FF30F7E74FF0FF30F4E730B585B056
:100BF0009DF82050BDF8244045B9029401930A9B0A
:100C00000093012300F0D0FF05B030BD00940A9A94
:100C100000F036FEF8E710B584B0BDF81840029435
:100C20000193079B0093012300F0E8FE04B010BD80
:100C30002DE9F04184B004460F46164698464378A5
:100C400033B3022B64D1437913F0010F03D1012A8E
:100C500001D0002019E0012E04D913F0040F01D0B7
:100C600047F0800721796379C3F340034900CDF849
:100C70000880228A0192009333463A4601F0FE0131
:100C80006069FFF7B3FF002845D104B0BDE8F081EB
:100C9000437913F0010003D1012A01D000252DE092
:100CA000012E04D913F0040F01D047F080072179F9
:100CB0006379C3F340034900CDF80880228A01928A
:100CC000009333463A4601F0FE016069FFF78EFF5C
:100CD000D9E721796379C3F34003EA19490008EBA6
:100CE00005000290208A01900093012392B201F046
:100CF000FE016069FFF77AFF0135ADB2B5422CBF46
:100D000000230123002818BF0023002BE1D1BAE7FC
:100D10004FF0FF30B9E74FF0FF30B6E72DE9F04173
:100D200082B0044616461F4643787BB1022B3ED163
:100D30000179438A009313463A464900406900F01E
:100D4000CDFC002836D102B0BDE8F081884640795C
:100D500010F0010003D1012A01D000251DE0217906
:100D600049000197638A00933346424601F0FE0131
:100D70006069FFF750FFE4E7217905EB08024900BD
:100D80007B190193638A0093012392B201F0FE0163
:100D90006069FFF740FF0135ADB2B5422CBF0023BB
:100DA0000123002818BF0023002BE5D1C9E74FF02D
:100DB000FF30C8E74FF0FF30C5E708B500F046F850
:100DC00008BD000010B504460E4B18784FF47A7336
:100DD000B3FBF0F30C4A1068B0FBF3F000F092F8AC
:100DE00068B90F2C01D901200AE0002221464FF0FA
:100DF000FF3000F051F8054B1C60002000E001209E
:100E000010BD00BF040000200000002008000020EA
:100E100008B5032000F02EF80F20FFF7D3FFFFF7EF
:100E200025FD002008BD0000034A1168034B1B7814
:100E30000B441360704700BF6C01002004000020C9
:100E4000014B1868704700BF6C01002038B504469C
:100E5000FFF7F6FF0546B4F1FF3F02D0044B1B78C5
:100E60001C44FFF7EDFF401BA042FAD338BD00BF82
:100E7000040000200649CB6823F4E0631B041B0C2C
:100E8000000200F4E0600343024A1A43CA6070475C
:100E900000ED00E00000FA0500B5174BDB68C3F376
:100EA0000223C3F1070CBCF1040F28BF4FF0040C60
:100EB00003F1040EBEF1060F14D9033B4FF0FF3EC1
:100EC0000EFA0CFC21EA0C0199400EFA03F322EA17
:100ED00003031943002807DB0901C9B2074B195462
:100EE0005DF804FB0023E9E700F00F000901C9B237
:100EF000034B1954F4E700BF00ED00E000E400E00C
:100F000014ED00E00138B0F1807F0BD24FF0E02308
:100F10005861054AF02182F82310002098610722C9
:100F20001A6170470120704700ED00E0BFF35F8F4A
:100F3000044B5A6A22F480325A620022C3F8942089
:100F4000704700BF00ED00E040F00100054BC3F822
:100F500094005A6A42F480325A62BFF34F8FBFF353
:100F60006F8F704700ED00E04378144AC2F8983064
:100F7000D2F8A03023F00103C2F8A0304368C2F8D1
:100F80009C30017BC37A1B0643EA0173817A43EAF2
:100F9000C143417B43EA8143817B43EA4143C17BB7
:100FA00043EA0143417A43EA0123017A43EA4103D8
:100FB00001780B43C2F8A030704700BF00ED00E09D
:100FC00000230F2B00F2EF8070B582B061E08568DE
:100FD0005E000324B44025EA0405CC68B4402C43E9
:100FE0008460456825EA02054C68C4F300129A4003
:100FF0002A4342605BE0DC08083450F8246003F0C8
:10100000070295000F22AA4026EA020E0A69AA40AA
:1010100042EA0E0240F824205DE0092200E00022AE
:1010200002FA0EF22A4302345F4D45F824205F4A4B
:1010300094686FEA0C0224EA0C054E6816F4801FCF
:1010400001D04CEA0405594CA560E46802EA0405A5
:101050004E6816F4001F01D04CEA0405534CE560BD
:10106000646802EA04054E6816F4003F01D04CEAB9
:1010700004054E4C6560246822404D6815F4803F9D
:1010800001D04CEA0402494C226001330F2B00F2DC
:10109000888001229A400C6804EA020C32EA0404B7
:1010A000F3D14C6804F00304013C012C8FD94A6849
:1010B00002F00302032A09D0C4685D000322AA409B
:1010C00024EA02048A68AA402243C2604A6802F005
:1010D0000302022A8FD004684FEA430E032202FA69
:1010E0000EF224EA02044A6802F0030202FA0EF247
:1010F000224302604A6812F4403FC6D02C4A546C26
:1011000044F480445464526C02F480420192019A87
:101110009C08A51C244A52F8255003F003024FEA0C
:10112000820E0F2202FA0EF225EA0205214A9042AF
:101130003FF475AF02F58062904222D002F58062E2
:10114000904220D002F5806290421ED002F580626B
:1011500090421CD002F5806290421AD002F5806263
:10116000904218D002F58062904216D002F580625B
:10117000904214D002F5806290423FF44EAF0A22B2
:101180004EE701224CE702224AE7032248E7042205
:1011900046E7052244E7062242E7072240E7082205
:1011A0003EE702B070BD704700380140003C01408E
:1011B00000380240000002400AB181617047090412
:1011C0008161704703689A6912F0020F01D0002212
:1011D0009A6203689A6912F0010F03D19A6942F08A
:1011E00001029A61704710B4019CC1F3090141EA00
:1011F00002411943214321F0004102685368640D04
:1012000004F4806444F07F7444F4583444F47F74EC
:1012100044F0030423EA0404214351605DF8044BC5
:1012200070472DE9F041044603689E6916F01006E8
:101230007ED00D4690461022DA610026374623689C
:10124000986910F0200F32D18FBBB5F1FF3FF6D077
:10125000FFF7F6FDA0EB0800A84201D8002DEED163
:1012600021684A6802F4804294F84230DBB288690F
:1012700010F4004F04D0203B18BF012302B973B90A
:1012800023689B6913F0200FD9D1FFF7D9FDA0EB9C
:1012900008001928F4D946F020060127CFE74B684B
:1012A00043F480434B60FFF7CBFD8046E8E70FB97E
:1012B0002022DA6146F0040601252268936913F4BE
:1012C000807F05D046F001064FF48071D161012581
:1012D00013F4806F06D046F0080622684FF4806150
:1012E000D161012513F4007F24D046F00206236863
:1012F0004FF40072DA6101252046FFF763FF226890
:10130000536823F0FF7323F48B3323F4FF7323F02C
:1013100001035360636C1E436664202384F84130EC
:10132000002384F8423084F840302846BDE8F0813C
:101330000025C2E7002DF8D0DEE770B504460D4663
:10134000164623689B6913F0020F22D132462946C4
:101350002046FFF766FFF0B9B5F1FF3FF1D0FFF788
:101360006FFD801BA84201D8002DEAD123689B693C
:1013700013F0020FE5D1636C43F020036364202374
:1013800084F84130002384F8423084F84030012052
:1013900000E0002070BD0120FCE72DE9F04104468B
:1013A0000F4616461D46DDF8188023689B6937EA0C
:1013B00003030CBF01230023B34227D14246294631
:1013C0002046FFF72EFF20BBB5F1FF3FEDD0FFF722
:1013D00037FDA0EB0800A84201D8002DE5D1236815
:1013E0009B6937EA03030CBF01230023B342DCD11E
:1013F000636C43F020036364202384F841300023AE
:1014000084F8423084F84030012000E00020BDE83C
:10141000F0810120FBE700002DE9F04182B0044695
:1014200090461D46089E099F194B00934FF080730C
:10143000EAB2FFF7D8FE3A4631462046FFF77DFF75
:10144000F8B9012D0ED123685FFA88F29A620097ED
:101450003346002280212046FFF79FFFA8B902B043
:10146000BDE8F08123684FEA18229A623A46314675
:101470002046FFF762FF30B923685FFA88F29A626C
:10148000E5E70120EBE70120E9E70120E7E700BFFE
:10149000002000802DE9F04182B0044690461D46B0
:1014A000089E099F184B00930023EAB2FFF79BFEAA
:1014B0003A4631462046FFF740FFF8B9012D0ED1DC
:1014C00023685FFA88F29A6200973346002240212F
:1014D0002046FFF762FFA8B902B0BDE8F08123689B
:1014E0004FEA18229A623A4631462046FFF725FF16
:1014F00030B923685FFA88F29A62E5E70120EBE7EA
:101500000120E9E70120E7E70020008070B50446EC
:101510000D46164604E023689B6913F0200F12D095
:1015200023689B6913F0200F1BD1324629462046C1
:10153000FFF777FEB8B9FFF783FC801BA842EAD813
:10154000002DEDD1E7E7636C43F0200363642023B3
:1015500084F84130002384F8423084F84030012080
:1015600000E0002070BD0120FCE7F8B504460E46FF
:101570001746002518E000236364FFF761FCC01BD9
:10158000B04200D886B97DB923689B6913F0040F77
:101590000AD1636C43F020036364202384F8413054
:1015A000002384F84030012523689B6913F0040F61
:1015B0002ED16DBB3A4631462046FFF732FE00B1D0
:1015C000012523689A6912F0200FD6D0002DD4D1BE
:1015D0009A699A6912F0100FCDD01022DA610423B3
:1015E000636423682022DA6121684B6823F0FF736B
:1015F00023F48B3323F4FF7323F001034B6084F84F
:101600004120002384F8423084F840300125B4E7BB
:101610002846F8BD00285DD010B5044690F841304A
:10162000002B46D0242384F841302268136823F02D
:10163000010313606368226823F0706313612268FA
:10164000936823F400439360E368012B36D0A368CA
:10165000226843F404439360E368022B34D0226889
:10166000536823F400635360226851681A4B0B439C
:1016700053602268D36823F40043D360236962690E
:101680001343A169226843EA0123D360E369216A15
:1016900022680B4313602268136843F00103136050
:1016A00000206064202384F84130206384F84200E5
:1016B00010BD80F84030FFF711F8B3E7A368226847
:1016C00043F400439360C7E72268536843F4006320
:1016D0005360C9E701207047008000022DE9F04700
:1016E00082B00F460A9E90F84110C9B2202940F0FE
:1016F000B78004469046994690F84030012B00F0A0
:10170000B3804FF0010A80F840A0FFF799FB05462F
:101710000090192352464FF400412046FFF73DFE4A
:10172000002840F0A380212384F84130102384F85E
:10173000423000236364C4F82480A4F82A906363D1
:10174000638D9BB2FF2B1ED9FF2323854FF080733F
:10175000228DEAB1226898F800109162626A013223
:101760006262628D92B2013A92B26285228D013A32
:1017700092B22285013241490091D2B239462046C7
:10178000FFF731FD18E0638D23854FF00073DFE72D
:101790003A490091D2B239462046FFF724FD0BE0CA
:1017A000628D92B22285002300934FF00073D2B273
:1017B00039462046FFF717FD638D9BB2002B33D0CF
:1017C0002A4631462046FFF7B8FD002850D1626A0C
:1017D000236812789A62636A01336362638D9BB2F5
:1017E000013B9BB26385238D013B9BB22385628DB8
:1017F00092B2002AE0D0002BDED1009533460022C1
:1018000080212046FFF7C9FDA0BB638D9BB2FF2B53
:10181000C6D9FF222285002300934FF080733946FA
:101820002046FFF7E0FCC7E72A4631462046FFF78F
:101830006DFE08BB23682022DA6121684B6823F023
:10184000FF7323F48B3323F4FF7323F001034B6006
:1018500084F84120002384F8423084F8403000E0CE
:10186000022002B0BDE8F0870220FAE70120F8E785
:101870000120F6E70120F4E70120F2E700200080D4
:101880002DE9F04782B00F460A9E90F84110C9B288
:10189000202940F0A38004469046994690F84030B5
:1018A000012B00F09F804FF0010A80F840A0FFF765
:1018B000C7FA05460090192352464FF400412046CE
:1018C000FFF76BFD002840F08F80222384F8413021
:1018D000102384F8423000236364C4F82480A4F801
:1018E0002A906363638D9BB2FF2B0BD95246A4F8F9
:1018F00028A0414B00934FF0807339462046FFF7F4
:1019000072FC18E0628D92B222853B4B00934FF03F
:101910000073D2B239462046FFF765FC0BE0628DBA
:1019200092B22285002300934FF00073D2B2394661
:101930002046FFF758FC638D9BB2002B32D02A461D
:1019400031462046FFF711FE00284FD123685A6A1E
:10195000636A1A70636A01336362228D013A92B23C
:101960002285638D9BB2013B9BB26385638D9BB2E5
:10197000002BE0D0002ADED100953346802120469E
:10198000FFF70BFDA0BB638D9BB2FF2BC7D9FF22D6
:101990002285002300934FF0807339462046FFF7DD
:1019A00022FCC8E72A4631462046FFF7AFFD08BBB8
:1019B00023682022DA6121684B6823F0FF7323F447
:1019C0008B3323F4FF7323F001034B6084F8412031
:1019D000002384F8423084F8403000E0022002B056
:1019E000BDE8F0870220FAE70120F8E70120F6E7DA
:1019F0000120F4E70120F2E7002400802DE9F04FF8
:101A000083B00D46BDF834A00E9F90F84110C9B2C6
:101A1000202940F0BC800446904699460C9BBAF1C0
:101A2000000F18BF002B16D090F84030012B00F0AB
:101A3000B2804FF0010B80F840B0FFF701FA064684
:101A4000009019235A464FF400412046FFF7A5FCA9
:101A500030B101209CE04FF400734364012097E013
:101A6000212384F84130402384F84230002363640A
:101A70000C9A6262A4F82AA06363019600974B4611
:101A8000424629462046FFF7C7FC70B9638D9BB2DA
:101A9000FF2B0FD9FF222285002300934FF0807384
:101AA00029462046FFF79FFB21E0002384F84030C1
:101AB00058466DE0628D92B22285002300934FF06C
:101AC0000073D2B229462046FFF78DFB0FE0628DEE
:101AD00092B22285002300934FF00073D2B22946C0
:101AE0002046FFF780FB638D9BB2002B33D032463C
:101AF00039462046FFF721FC00284ED1626A236850
:101B000012789A62636A01336362638D9BB2013B10
:101B10009BB26385238D013B9BB22385628D92B27C
:101B2000002AE0D0002BDED100963B460022802127
:101B30002046FFF732FC90BB638D9BB2FF2BC6D9CA
:101B4000FF222285002300934FF080732946204610
:101B5000FFF749FBC7E7324639462046FFF7D6FC78
:101B6000F8B923682022DA6121684B6823F0FF73FB
:101B700023F48B3323F4FF7323F001034B6084F8C9
:101B80004120002384F8423084F8403000E00220F5
:101B900003B0BDE8F08F0220FAE70120F8E701204A
:101BA000F6E70120F4E700002DE9F04F83B00D4681
:101BB000BDF834A00E9F90F84110C9B2202940F022
:101BC000BD800446904699460C9BBAF1000F18BFA1
:101BD000002B16D090F84030012B00F0B3804FF06E
:101BE000010B80F840B0FFF72BF90646009019234F
:101BF0005A464FF400412046FFF7CFFB30B1012099
:101C00009DE04FF400734364012098E0222384F8A0
:101C10004130402384F84230002363640C9A6262AE
:101C2000A4F82AA06363019600974B4642462946D2
:101C30002046FFF72FFC70B9638D9BB2FF2B0FD9A5
:101C400001222285434B00934FF0807329462046A2
:101C5000FFF7C9FA21E0002384F8403058466EE0CF
:101C6000628D92B222853B4B00934FF00073D2B24B
:101C700029462046FFF7B7FA0FE0628D92B222851F
:101C8000002300934FF00073D2B229462046FFF79D
:101C9000AAFA638D9BB2002B34D000963B460022FB
:101CA00004212046FFF779FB00284DD123685A6AAA
:101CB000636A1A70636A01336362228D013A92B2D9
:101CC0002285638D9BB2013B9BB26385638D9BB282
:101CD000002BDED0002ADCD100963B468021204636
:101CE000FFF75BFB90BB638D9BB2FF2BC5D9012235
:101CF0002285002300934FF0807329462046FFF78A
:101D000072FAC6E7324639462046FFF7FFFBF8B9BC
:101D100023682022DA6121684B6823F0FF7323F4E3
:101D20008B3323F4FF7323F001034B6084F84120CD
:101D3000002384F8423084F8403000E0022003B0F1
:101D4000BDE8F08F0220FAE70120F8E70120F6E76E
:101D50000120F4E70024008090F84130DBB2202B12
:101D600024D190F84030012B22D0012380F840305C
:101D7000242380F841300268136823F001031360C4
:101D80000268136823F480531360026813681943D0
:101D900011600268136843F001031360202380F888
:101DA0004130002380F840301846704702207047C9
:101DB0000220704790F84130DBB2202B22D190F8FE
:101DC0004030012B20D0012380F84030242380F8BC
:101DD00041300268136823F001031360026813683E
:101DE00023F4706343EA012111600268136843F031
:101DF00001031360202380F84130002380F8403035
:101E0000184670470220704702207047002800F0F3
:101E1000068270B582B00446036813F0010F29D022
:101E2000954B9B6803F00C03042B1AD0924B9B68D4
:101E300003F00C03082B0FD06368B3F5803F40D04C
:101E4000002B54D18C4B1A6822F480321A601A6825
:101E500022F480221A6039E0874B5B6813F4800F0C
:101E6000EAD0854B1B6813F4003F03D06368002B56
:101E700000F0D781236813F0020F74D07E4B9B686B
:101E800013F00C0F5ED07C4B9B6803F00C03082B07
:101E900053D0E368002B00F08980774A136843F041
:101EA00001031360FEF7CCFF0546734B1B6813F06C
:101EB000020F72D1FEF7C4FF401B0228F5D90320A0
:101EC000B4E16D4A136843F48033136063682BB345
:101ED000FEF7B6FF0546684B1B6813F4003FC9D1F7
:101EE000FEF7AEFF401B6428F5D903209EE1B3F551
:101EF000A02F09D0604B1A6822F480321A601A6849
:101F000022F480221A60E1E75B4B1A6842F48022D7
:101F10001A601A6842F480321A60D7E7FEF790FF21
:101F20000546554B1B6813F4003FA3D0FEF788FF0E
:101F3000401B6428F5D9032078E14F4B5B6813F40C
:101F4000800FA6D14C4B1B6813F0020F03D0E3683F
:101F5000012B40F06881484A136823F0F803216997
:101F600043EAC1031360236813F0080F46D0636986
:101F700083B3414A536F43F001035367FEF760FF99
:101F800005463D4B5B6F13F0020F37D1FEF758FF4C
:101F9000401B0228F5D9032048E1374A136823F093
:101FA000F803216943EAC1031360DCE7324A13688E
:101FB00023F001031360FEF743FF05462E4B1B6819
:101FC00013F0020FCFD0FEF73BFF401B0228F5D9DC
:101FD00003202BE1284A536F23F001035367FEF7D8
:101FE0002FFF0546244B5B6F13F0020F06D0FEF760
:101FF00027FF401B0228F5D9032017E1236813F0BF
:10200000040F7DD01C4B1B6C13F0805F1ED11A4B4C
:102010001A6C42F080521A641B6C03F080530193D7
:10202000019B0125154B1B6813F4807F10D0A3681A
:10203000012B25D0002B3BD10F4B1A6F22F0010250
:102040001A671A6F22F004021A671EE00025E9E7FA
:102050000A4A136843F480731360FEF7F1FE0646E4
:10206000064B1B6813F4807FE1D1FEF7E9FE801B6D
:102070006428F5D90320D9E0003802400070004000
:10208000724A136F43F001031367A36833B3FEF77B
:10209000D7FE06466D4B1B6F13F0020F2FD1FEF7D4
:1020A000CFFE801B41F288339842F3D90320BDE074
:1020B000052B09D0654B1A6F22F001021A671A6FBF
:1020C00022F004021A67E0E7604B1A6F42F0040244
:1020D0001A671A6F42F001021A67D6E7FEF7B0FEE0
:1020E00006465A4B1B6F13F0020F08D0FEF7A8FEEE
:1020F000801B41F288339842F3D9032096E0FDB962
:10210000A369002B00F09180504A926802F00C0203
:10211000082A59D0022B19D04C4A136823F0807337
:102120001360FEF78DFE0446484B1B6813F0007FDA
:1021300048D0FEF785FE001B0228F5D9032075E084
:10214000424A136C23F080531364D9E73F4A136863
:1021500023F080731360FEF773FE05463B4B1B684C
:1021600013F0007F06D0FEF76BFE401B0228F5D966
:1021700003205BE0E369226A1343626A43EA821345
:10218000A26A5208013A43EA0243E26A43EA02635E
:10219000226B43EA02732D4A5360136843F0807345
:1021A0001360FEF74DFE0446284B1B6813F0007FBA
:1021B00006D1FEF745FE001B0228F5D9032035E0C5
:1021C000002033E0002031E0204A5268012B2FD05C
:1021D00002F48003E1698B422CD102F03F03216AB3
:1021E0008B4229D1616A47F6C0731340B3EB811F5C
:1021F00024D102F44031A36A5B08013BB1EB034FE9
:102200001ED102F07063E16AB3EB016F1AD102F0E4
:10221000E042236BB2EB037F16D1002006E00120E1
:102220007047012002E0012000E0002002B070BDF4
:102230000120FBE70120F9E70120F7E70120F5E79E
:102240000120F3E70120F1E70120EFE70038024029
:1022500008B5254B9B6803F00C03042B3FD0082BDB
:102260003FD1214B5A6802F03F025B6813F4800FA4
:1022700012D01D4B5968C1F388111C480023A1FBE3
:102280000001FEF735F8184B5B68C3F301430133D7
:102290005B00B0FBF3F025E0134B5968C1F3881CD9
:1022A0004FEA4C11B1EB0C006EEB0E0E4FEA8E13A1
:1022B00043EA90638101091A63EB0E03DB0043EAF2
:1022C0005173C90011EB0C0C43F100039902002378
:1022D0004FEA8C2041EA9C51FEF70AF8D3E7034805
:1022E00000E0034808BD00BF0038024040787D018F
:1022F0000024F400002800F0A08070B50D460446CC
:10230000524B1B6803F00F038B420BD24F4A1368EA
:1023100023F00F030B431360136803F00F038B428A
:1023200040F08D80236813F0020F17D013F0040FD4
:1023300004D0474A936843F4E0539360236813F052
:10234000080F04D0424A936843F460439360404AC4
:10235000936823F0F003A1680B439360236813F0A4
:10236000010F31D06368012B20D0022B25D0384AD1
:10237000126812F0020F64D035498A6822F0030215
:1023800013438B60FEF75CFD0646314B9B6803F000
:102390000C036268B3EB820F16D0FEF751FD801B71
:1023A00041F288339842F0D9032045E0284A126868
:1023B00012F4003FE0D101203EE0254A126812F0FD
:1023C000007FD9D1012037E0204B1B6803F00F03B9
:1023D000AB420AD91D4A136823F00F032B43136045
:1023E000136803F00F03AB422DD1236813F0040FE1
:1023F00006D0174A936823F4E053E1680B439360D7
:10240000236813F0080F07D0114A936823F4604340
:10241000216943EAC1039360FFF71AFF0C4B9B68E5
:10242000C3F303130B4AD35CD8400B4B18600B4B20
:102430001868FEF7C7FC002070BD0120704701201E
:10244000FAE70120F8E70120F6E700BF003C024070
:1024500000380240083D000800000020080000206D
:10246000014B1868704700BF0000002008B5FFF757
:10247000F7FF044B9B68C3F38223034AD35CD84025
:1024800008BD00BF00380240183D000808B5FFF73E
:10249000E7FF044B9B68C3F34233034AD35CD84045
:1024A00008BD00BF00380240183D0008F0B583B0F9
:1024B0000446066816F001060DD0B54B9A6822F462
:1024C00000029A609A68416B0A439A60436B002B42
:1024D00000F067810026256815F4002511D0AC4A6C
:1024E000D2F88C3023F44013E16B0B43C2F88C30EC
:1024F000E36BB3F5801F00F05681002B00F055818F
:102500000025236813F4801F0FD0A14AD2F88C3025
:1025100023F44003216C0B43C2F88C30236CB3F5D9
:10252000800F00F0448103B90125236813F0807FF8
:1025300000D0012613F0200F40F03B81236813F0F8
:10254000100F0CD0924BD3F88C2022F08072C3F87D
:102550008C20D3F88C20A16B0A43C3F88C2023680D
:1025600013F4804F08D08A4AD2F8903023F44033D5
:10257000616E0B43C2F89030236813F4004F08D00B
:10258000834AD2F8903023F44023A16E0B43C2F863
:102590009030236813F4803F08D07D4AD2F8903001
:1025A00023F44013E16E0B43C2F89030236813F418
:1025B000003F08D0764AD2F8903023F44003216FD0
:1025C0000B43C2F89030236813F0400F08D0704AD4
:1025D000D2F8903023F00303616C0B43C2F89030C3
:1025E000236813F0800F08D0694AD2F8903023F0A6
:1025F0000C03A16C0B43C2F89030236813F4807F66
:1026000008D0634AD2F8903023F03003E16C0B43DA
:10261000C2F89030236813F4007F08D05C4AD2F8E7
:10262000903023F0C003216D0B43C2F89030236833
:1026300013F4806F08D0564AD2F8903023F44073D8
:10264000616D0B43C2F89030236813F4006F08D01B
:102650004F4AD2F8903023F44063A16D0B43C2F887
:102660009030236813F4805F08D0494AD2F8903044
:1026700023F44053E16D0B43C2F89030236813F408
:10268000005F08D0424AD2F8903023F44043216ED4
:102690000B43C2F89030236813F4800F08D03C4AF3
:1026A000D2F8903023F08063A16F0B43C2F89030D2
:1026B000236813F4001F0DD0354AD2F8903023F070
:1026C0000063E16F0B43C2F89030E36FB3F1006F2A
:1026D00000F0D580236813F0080F00D0012513F413
:1026E000802F08D02A4AD2F8903023F04073616FCF
:1026F0000B43C2F89030236813F4000F09D0244A2A
:10270000D2F8903023F08053D4F880100B43C2F8F5
:102710009030236813F0806F09D01D4AD2F89030B2
:1027200023F00053D4F884100B43C2F89030236890
:1027300013F0006F09D0164AD2F88C3023F00073E2
:10274000D4F888100B43C2F88C30236813F0805FF4
:1027500009D00F4AD2F88C3023F08063D4F88C1063
:102760000B43C2F88C3026B9236813F0007F00F0C9
:102770000681074A136823F080631360FEF760FB4D
:102780000646034B1B6813F0006F7AD002E000BFCF
:1027900000380240FEF754FB801B6428F1D9032067
:1027A000F0E0012697E60126A7E60125A9E6012625
:1027B000B9E67F4B1A6C42F080521A641B6C03F02E
:1027C00080530193019B7B4A136843F48073136029
:1027D000FEF736FB0746774B1B6813F4807F06D164
:1027E000FEF72EFBC01B6428F5D90320CAE0704B0E
:1027F0001B6F13F4407315D0226B02F440729A429F
:1028000010D06B4B1A6F22F44072196F41F4803173
:102810001967196F21F4803119671A671B6F13F05C
:10282000010F12D1236B03F44072B2F5407F1DD02B
:102830005F4A936823F4F81393605D490B6F226B32
:10284000C2F30B0213430B6778E6FEF7F9FA07466B
:10285000574B1B6F13F0020FE4D1FEF7F1FAC01BC8
:1028600041F288339842F3D903208BE050488268C4
:1028700022F4F812504919400A438260DDE701252D
:1028800028E7236813F0010F13D0636B8BB9484A14
:10289000D2F88430D2F88410606803F4403343EAFD
:1028A000801301F070610B43A16843EA0173C2F821
:1028B0008430236813F4002F03D0E26BB2F5801F3D
:1028C00006D013F4801F1ED0236CB3F5800F1AD1ED
:1028D000374AD2F88430D2F88410606803F4403369
:1028E00043EA8013E06843EA006301F0E0410B43F0
:1028F000C2F88430D2F88C3023F01F03616A0139AA
:102900000B43C2F88C30236813F0807F11D0284A23
:10291000D2F88400D2F88410666823691B0443EA65
:10292000861300F07060034301F0E0410B43C2F8EE
:102930008430236813F0007F0DD0626823691B0484
:1029400043EA8213E26843EA0263A26843EA02733D
:10295000174AC2F88430164A136843F08063136044
:10296000FEF76EFA0646124B1B6813F0006F06D195
:10297000FEF766FA801B6428F5D9032002E0012DDA
:1029800002D0002003B0F0BD094A136823F0805341
:102990001360FEF755FA0546054B1B6813F0005F00
:1029A0000CD0FEF74DFA401B6428F5D90320E9E767
:1029B0000038024000700040FFFCFF0F236813F452
:1029C000002F01D0E26B22B113F4801F1DD0236CC5
:1029D000DBB9354AD2F88830D2F88810606903F440
:1029E000403343EA8013A06943EA006301F0E04109
:1029F0000B43C2F88830D2F88C3023F4F853A16A24
:102A0000013943EA0123C2F88C30236813F4001F14
:102A100003D0E36FB3F1006F31D0236813F0080FD8
:102A200019D0214AD2F88810D2F88830606903F4AE
:102A3000403343EA801301F070610B43E16943EADC
:102A40000173C2F88830D2F88C3023F44033E16A45
:102A50000B43C2F88C30144A136843F08053136060
:102A6000FEF7EEF90446104B1B6813F0005F19D116
:102A7000FEF7E6F9001B6428F5D9032082E70A4A2D
:102A8000D2F88800D2F888106569236A1B0443EAEB
:102A9000851300F07060034301F0E0410B43C2F87E
:102AA0008830BAE700206DE700380240026852E83B
:102AB000003F23F4907342E800310029F6D1026808
:102AC00002F1080353E8003F23F00103083242E813
:102AD00000310029F3D1036E012B06D02023C0F86A
:102AE00080300023036683667047026852E8003F27
:102AF00023F0100342E800310029F6D1EEE7000090
:102B000010B5044683680269134342691343C269DE
:102B1000134301680868934A024013430B6022681C
:102B2000536823F44053E1680B435360A269236A5E
:102B30001A4321688B6823F4306313438B60236846
:102B4000894A934219D0894A934229D0884A9342AC
:102B50003ED0884A934262D0874A934271D0874AD6
:102B6000934200F08380864A934200F09480854A25
:102B7000934200F0A58010233AE0834BD3F89030C5
:102B800003F00303032B09D8DFE803F00204AE06C9
:102B900001232DE004232BE0082329E0102327E064
:102BA000794BD3F8903003F00C030C2B0ED8DFE8F0
:102BB00003F0070D0D0D090D0D0D9D0D0D0D0B00F5
:102BC000002315E0042313E0082311E010230FE095
:102BD0006D4BD3F8903003F03003202B00F0888049
:102BE00019D8002B00F08680102B40F0858004233C
:102BF000E069B0F5004F00F0AB80082B00F20C81CB
:102C0000DFE813F0E800FB00E6000A01FE000A011D
:102C10000A010A010101302B70D10823E8E75A4B61
:102C2000D3F8903003F0C003802B69D005D8002B77
:102C300068D0402B68D10423DAE7C02B66D1082383
:102C4000D6E7514BD3F8903003F44073B3F5007FCF
:102C50005ED006D8002B5DD0B3F5807F5CD1042315
:102C6000C6E7B3F5407F59D10823C1E7464BD3F8F7
:102C7000903003F44063B3F5006F51D006D8002BB9
:102C800050D0B3F5806F4FD10423B1E7B3F5406F57
:102C90004CD10823ACE73C4BD3F8903003F44053BD
:102CA000B3F5005F44D006D8002B43D0B3F5805F66
:102CB00042D104239CE7B3F5405F3FD1082397E757
:102CC000314BD3F8903003F44043B3F5004F37D085
:102CD00005D8BBB3B3F5804F36D1042388E7B3F5ED
:102CE000404F33D1082383E7022381E702237FE7A4
:102CF00002237DE700237BE7102379E7102377E7A2
:102D0000022375E7002373E7102371E710236FE7B1
:102D100002236DE700236BE7102369E7102367E7C1
:102D2000022365E7012363E7102361E710235FE7D0
:102D300002235DE700235BE7102359E7102357E7E1
:102D4000022355E7002353E7102351E710234FE7F1
:102D5000082B5BD8DFE803F01A343A5A375A5A5A2C
:102D60001E0000BFF369FFEF001001400044004067
:102D700000480040004C004000500040001401405A
:102D800000780040007C004000380240FFF76EFBF6
:102D900000283DD06268530803EB4000B0FBF2F01E
:102DA000A0F110024FF6EF739A4233D883B223F0AA
:102DB0000F03C0F3420018432368D860002030E0BE
:102DC000FFF764FBE4E7FFF743FAE1E71748E1E7C1
:102DD000164802E0FFF74AFB00B3636800EB5300BC
:102DE000B0FBF3F0A0F110024FF6EF739A4217D840
:102DF000236880B2D860002013E0FFF747FBEBE7C1
:102E0000FFF726FAE8E74FF40040E6E7012008E084
:102E1000002006E0012004E0012002E0002000E0A4
:102E200001200023A366E36610BD00BF0024F40068
:102E3000436A13F0080F06D00268536823F4004376
:102E4000416B0B435360436A13F0010F06D00268D5
:102E5000536823F40033816A0B435360436A13F0D1
:102E6000020F06D00268536823F48033C16A0B4313
:102E70005360436A13F0040F06D00268536823F4CA
:102E80008023016B0B435360436A13F0100F06D08D
:102E90000268936823F48053816B0B439360436A09
:102EA00013F0200F06D00268936823F40053C16B1F
:102EB0000B439360436A13F0400F0AD002685368D3
:102EC00023F48013016C0B435360036CB3F5801F34
:102ED0000BD0436A13F0800F06D00268536823F4C6
:102EE0000023816C0B43536070470268536823F4DE
:102EF000C003416C0B435360EBE72DE9F8430546F3
:102F00000E4617469946DDF820802C68E46936EABB
:102F100004030CBF4FF0010C4FF0000CBC453AD13C
:102F2000B8F1FF3FF1D0FDF78BFFA0EB0900404562
:102F300034D8B8F1000F33D02B681A6812F0040FA0
:102F4000E3D0B6F1400218BF0122802EDDD0002A66
:102F5000DBD0DA6912F0080F11D1DA6912F4006FD0
:102F6000D3D04FF400621A622846FFF79FFD20235A
:102F7000C5F88430002385F8783003200CE008245D
:102F80001C622846FFF792FDC5F88440002385F8AF
:102F90007830012000E00020BDE8F8830320FBE743
:102FA0000320F9E72DE9F04182B01E46C36F202BC4
:102FB00057D104460D469046002A18BF002901D17A
:102FC00001204FE00023C0F884302123C367FDF7C0
:102FD00037FF0746A4F85080A4F85280A368B3F5E1
:102FE000805F02D04FF0000815E023693BB34FF03B
:102FF000000810E02023E367032033E038F8023BA9
:103000002268C3F308039362B4F8522092B2013AE3
:1030100092B2A4F85220B4F852309BB293B1009609
:103020003B46002280212046FFF767FF0028E1D1C0
:10303000002DE3D015F8012B23689A62E4E7A84637
:103040000025E8E700963B46002240212046FFF796
:1030500054FF10B92023E36704E02023E367032033
:1030600000E0022002B0BDE8F08130B583B0044634
:103070000023C0F88430FDF7E3FE0546226812689D
:1030800012F0080F0FD123681B6813F0040F26D12C
:103090002023E367C4F8803000202066606684F84F
:1030A000780003B030BD6FF07E43009303460022EA
:1030B0004FF400112046FFF720FF0028E3D02268DC
:1030C00052E8003F23F0800342E800310029F6D1A6
:1030D0002023E367002384F878300320E1E76FF0D2
:1030E0007E4300932B4600224FF480012046FFF7D9
:1030F00004FF0028CCD0226852E8003F23F49073EC
:1031000042E800310029F6D1226802F1080353E8B1
:10311000003F23F00103083242E800310029F3D1D7
:103120002023C4F88030002384F878300320B8E7E7
:1031300068B310B50446C36F03B32423E367226862
:10314000136823F001031360636AE3B92046FFF7B5
:10315000D7FC012811D02268536823F490435360B0
:103160002268936823F02A0393602268136843F06F
:10317000010313602046FFF778FF10BD80F8783018
:10318000FDF7E2FBD9E72046FFF752FEDEE701201C
:103190007047000038B50446FDF752F8064D0A2383
:1031A00082B221462846FFF7FDFE0A230222034988
:1031B0002846FFF7F7FE38BDE4000020383D000840
:1031C0000B7803707047000010B588B007A800F0B6
:1031D0005FF81A4C2046FFF7DDFF2046FFF7DAFFC5
:1031E0002046FFF7D7FF2046FFF7D4FF2046FFF722
:1031F000D1FF07A800F04EF80A23009304A802901C
:10320000039005238DF81F300DF11F01FFF7D8FF44
:10321000039B013303934FF4FA70FDF717FE4FF051
:10322000FF33092206490748FFF7BCFE07A800F054
:1032300055F807A800F072F8EDE700BFC43D00089C
:103240003C3D0008E400002038B50446FCF7F8FFD8
:10325000064D0A2382B221462846FFF7A3FE0A2321
:10326000022203492846FFF79DFE38BDE4000020F6
:10327000383D000810B50446FCF7E2FF0A2382B28D
:1032800021460248FFF78EFE10BD00BFE40000207B
:103290007047000010B50D4C2046FDF7C3FB02231C
:1032A00063700B4B63613220FDF7D0FD2046FDF7C4
:1032B00083FC30B10748FFF7C7FF0520FDF7C6FDC7
:1032C000FEE70548FFF7C0FF012010BD7001002098
:1032D0008C000020483D0008743D000800B587B010
:1032E0000022059205ABFD210948FDF7C1FB18B18D
:1032F000059807B05DF804FB059A0649684600F09A
:1033000089F86846FFF7B6FF0348FFF7B3FFEFE71A
:1033100070010020A03D0008B03D000800B587B056
:103320000023059305AAFD210948FDF7A1FB18B16B
:10333000059807B05DF804FB059A0649684600F059
:1033400069F86846FFF796FF0348FFF77DFFEFE750
:1033500070010020B43D0008C43D0008DFF834D0FF
:10336000FDF7CCFA0C480D490D4A002302E0D45871
:10337000C4500433C4188C42F9D30A4A0A4C0023BF
:1033800001E013600432A242FBD300F017F8FDF70E
:103390005DFA704700000820000000207000002047
:1033A000083E00087000002098010020FEE70000A1
:1033B000014B1868704700BF0C00002070B50D4D20
:1033C0000D4C641BA4100026A64209D10B4D0C4CD9
:1033D00000F08EFC641BA4100026A64205D170BD2F
:1033E00055F8043B98470136EEE755F8043B9847FB
:1033F0000136F2E7003E0008003E0008003E0008EB
:10340000043E000802440346934200D1704703F88B
:10341000011BF9E70EB400B59CB01DAB02900690FD
:103420006FF00041094807910491094953F8042BB2
:1034300005910068019302A900F068F8029B002240
:103440001A701CB05DF804EB03B070470C0000204C
:103450000802FFFF2DE9F0478E689E4282460C4627
:1034600090461F4638D88A8912F4906F32D025686A
:103470000969A5EB0109656905EB450505EBD575FE
:1034800001334B446D109D4238BF1D46530531D565
:10349000294600F063FB064650B90C23CAF80030F9
:1034A000A38943F04003A3814FF0FF30BDE8F087CC
:1034B00021694A4600F0BEFAA38923F4906343F0E1
:1034C0008003A381266165614E44A5EB0905266052
:1034D000A5603E46BE4200D93E462068324641467F
:1034E00000F0B6FAA3689B1BA360236833442360F3
:1034F0000020DBE72A4600F0A5FB06460028E1D1C4
:103500002169504600F0BEFAC7E700002DE9F04FF0
:1035100098468B891B069DB007460D4614460ED56E
:103520000B6963B9402100F019FB2860286120B9BC
:103530000C233B604FF0FF30D1E040236B61002350
:10354000099320238DF82930CDF80C803023DFF843
:10355000A8818DF82A304FF0010923469A4613F8C6
:10356000012B0AB1252AF9D1BAEB040B0BD05B462B
:10357000224629463846FFF76DFF013000F0AA8049
:10358000099A5A4409929AF80030002B00F0A28060
:1035900000234FF0FF32CDE905230AF1010A04931D
:1035A00007938DF853301A935446052214F8011BE3
:1035B0005148FCF74DFE049AD8B9D00644BF2023E9
:1035C0008DF85330110744BF2B238DF853309AF8F0
:1035D00000302A2B15D0079A544600204FF00A0CD1
:1035E000214611F8013B303B092B4ED9B0B107926F
:1035F00014E0A0EB080309FA03F313430493A24673
:10360000D2E7039B191D1B680391002BBBBF5B42D4
:1036100042F0020207930793B8BF049223782E2B3F
:103620000CD163782A2B35D1039B1A1D1B6803929A
:10363000002BB8BF4FF0FF3302340593DFF8C8A06A
:10364000217803225046FCF703FE40B14023A0EB53
:103650000A0003FA00F0049B03430134049314F8B6
:10366000011B26488DF828100622FCF7F1FD0028E2
:1036700038D0234B1BBB039B073323F007030833CE
:103680000393099B3344099367E70CFB02320C4612
:103690000120A5E700230134059319464FF00A0CD9
:1036A000204610F8012B303A092A03D9002BC5D047
:1036B0000591C3E70CFB012104460123F0E703ABAE
:1036C00000932A460F4B04A93846AFF30080421CF2
:1036D0000646D6D1AB895B063FF52CAF09981DB0E5
:1036E000BDE8F08F03AB00932A46064B04A9384689
:1036F00000F07AF8EBE700BFC53D0008CF3D0008B9
:103700000000000055340008CB3D00082DE9F047CB
:10371000164699468A680B69DDF820809342B8BF47
:103720001346336091F8432007460C460AB1013333
:1037300033602368990642BF3368023333602568DB
:1037400015F0060506D104F1190AE36832689B1AE0
:10375000AB4226DC94F84320131E226818BF0123D5
:1037600092062BD404F1430249463846C047013043
:103770001ED02368E568326803F00603042B08BFF7
:10378000AD1AA36822690CBF25EAE57500259342AE
:10379000C4BF9B1AED1800261A34B5421AD1002076
:1037A00008E00123524649463846C047013003D15C
:1037B0004FF0FF30BDE8F0870135C6E7E1185A1C2D
:1037C000302081F84300224494F8451082F84310D9
:1037D0000233C7E70123224649463846C047013035
:1037E000E6D00136D9E700002DE9FF470F7E0C9D9A
:1037F000782F914680460C469A4601F1430207D83D
:10380000622F0AD8002F00F0D880582F00F0A38034
:1038100004F1420584F842703AE0A7F16303152BE6
:10382000F6D801A151F823F0813800089538000836
:103830001138000811380008113800081138000844
:1038400095380008113800081138000811380008B0
:1038500011380008A1390008C5380008833900086C
:103860001138000811380008C33900081138000861
:10387000C538000811380008113800088B390008D5
:103880002B681A1D1B682A6004F1420584F8423037
:103890000123A3E020682968060601F104030AD584
:1038A0000E682B60002E03DA2D23764284F8433015
:1038B0005E480A2319E00E682B6010F0400F18BF15
:1038C00036B2EFE72B682068191D2960010601D583
:1038D0001E6802E04606FBD51E8854486F2F0CBFB9
:1038E00008230A23002184F843106568A560002D91
:1038F000A2BF216821F0040121600EB9002D4DD036
:103900001546B6FBF3F103FB1167C75D05F8017DB2
:103910003746BB420E46F4D9082B0BD12368DE078D
:1039200008D5236961689942DEBF302305F8013C60
:1039300005F1FF35521B2261CDF800A04B4603AACA
:1039400021464046FFF7E2FE01304CD14FF0FF30F8
:1039500004B0BDE8F087354881F8457029682368D0
:1039600051F8046B29601D0614D5DF0744BF43F0EE
:10397000200323601EB9236823F020032360102353
:10398000B0E7236843F0200323607823284884F8B5
:103990004530E3E7590648BFB6B2E6E71546BBE750
:1039A0002B6826686169181D286035061B6801D5DB
:1039B000196002E07006FBD51980002323611546CB
:1039C000BAE72B681A1D2A601D6862680021284624
:1039D000FCF73EFC08B1401B606063682361002374
:1039E00084F84330A8E723692A4649464046D04731
:1039F0000130ABD023689B0713D4E068039B984247
:103A0000B8BF1846A4E70123324649464046D0478E
:103A100001309BD00135E36803995B1AAB42F2DCBD
:103A2000EBE7002504F11906F5E700BFD63D0008D5
:103A3000E73D00080A44914200F1FF3300D170478E
:103A400010B511F8014B03F8014F9142F9D110BDA7
:103A5000884210B501EB020402D98442234607D8FC
:103A6000431EA14208D011F8012B03F8012FF8E7FB
:103A7000024401468A4200D110BD13F8014D02F8FC
:103A8000014DF7E737B5002944D051F8043C0190C7
:103A9000002BA1F10404B8BFE41800F013F91E4A8A
:103AA0000198136833B96360146003B0BDE8304017
:103AB00000F00EB9A34208D9256861198B4201BFF5
:103AC00019685B6849192160EDE71A465B680BB11C
:103AD000A342FAD911685518A5420BD12468214494
:103AE0005418A3421160E0D11C685B685360214404
:103AF0001160DAE702D90C230360D6E72568611963
:103B00008B4204BF19685B68636004BF4919216078
:103B10005460CAE703B030BD8801002070B50E4E76
:103B20000C463168054611B900F0BCF830602146FA
:103B3000284600F0B7F8431C0AD0C41C24F0030444
:103B4000A04207D0211A284600F0ACF8013001D17C
:103B50004FF0FF34204670BD8C0100202DE9F0416C
:103B6000CD1C25F0030508350C2D38BF0C25002D84
:103B7000074601DBA94205D90C233B6000263046ED
:103B8000BDE8F0812E4E00F09DF833681C4634BB32
:103B900029463846FFF7C2FF431C04464DD134681E
:103BA0002646002E40D123683146384604EB0308F0
:103BB00000F078F880453AD1216803356D1A25F078
:103BC000030508350C2D38BF0C2529463846FFF76C
:103BD000A5FF01302BD023682B4423600EE0226820
:103BE000521B1ED40B2A16D96119A342256018BF97
:103BF0005960636808BF316062514B60384604F118
:103C00000B0600F065F826F00706231DF21AB6D061
:103C10009B1BA350B3E76268A3420CBF32605A609B
:103C2000ECE723466468B2E734467668B9E70C23CC
:103C30003B60384600F04CF8A1E72560DEE700BFA6
:103C4000880100202DE9F041804614460E4621B936
:103C5000BDE8F0411146FFF781BF2AB9FFF712FF17
:103C600025462846BDE8F08100F038F88442074632
:103C700002D8B4EB500F12D821464046FFF76EFF32
:103C800005460028EDD0BC422246314628BF3A46C0
:103C9000FFF7D0FE31464046FFF7F4FEE1E7354638
:103CA000DFE7000038B5064D0023044608462B60C8
:103CB000FCF700FE431C02D12B6803B1236038BD22
:103CC00090010020014800F011B800BF94010020CD
:103CD000014800F00CB800BF9401002051F8043CEA
:103CE000181F002BBCBF0B58C01870477047704797
:103CF000F8B500BFF8BC08BC9E467047F8B500BFD9
:083D0000F8BC08BC9E467047A8
:103D08000000000000000000010203040607080983
:103D18000000000001020304000200004407000044
:103D28000000000000000000E803E80300000000B5
:103D38000D0A000074657374696E670A0D0000004F
:103D48002A2A2A2A20484944535F4D554C54495041
:103D58004C455845525F496E6974206572726F729E
:103D68002E2053544F50202A2A2A2A002A2A2A2A47
:103D78002057455F697353656E736F72496E74653A
:103D88007266616365526561647928293A204F4BF0
:103D9800202A2A2A2A00000068756D6964697479E6
:103DA8003A20256C690000002C00000074656D70D5
:103DB800657261747572653A20256C6900232D302F
:103DC8002B2000686C4C006566674546470030311B
:103DD800323334353637383941424344454600306A
:103DE8003132333435363738396162636465660099
:083DF80028C5FF7F0100000057
:043E0000250200088F
:043E040001020008AF
:103E08000024F40001000000100000001000002051
:103E1800000000000000000000000000000000009A
:103E2800000000000000000000000000000000008A
:103E3800000000000000000000000000000000007A
:103E4800000000000000000000000000000000006A
:103E5800000000000000000000000000000000005A
:103E6800000000000000000000000000000000004A
:040000050800335D5F
:00000001FF
