:020000040800F2
:100000000090002005C90008890C00088F0C00082A
:1000100000000000000000000000000000000000E0
:1000200000000000000000000000000085960008AD
:100030000000000000000000A1970008E9970008F8
:1000400055C900080000000055C9000855C900083E
:1000500055C9000855C90008950C0008AB0C0008EC
:100060000000000055C9000855C9000855C900081E
:1000700055C9000855C9000855C90008000000000E
:10008000C10C0008D90C0008F10C0008090D00088B
:1000900055C90008210D0008390D0008510D000850
:1000A000810D0008B10D000855C9000855C90008A8
:0800B00055C90008C90D000844
:1000C00010B5064C2378002B07D1054B002B02D02E
:1000D000044800E000BF0123237010BD740000201D
:1000E00000000000D4DF0008044B10B5002B03D043
:1000F0000349044800E000BF10BDC04600000000F6
:1001000078000020D4DF00080023C25C0133002AFD
:10011000FBD1581E7047000003B4714649084000E7
:100120004900095E49008E4403BC70470022430821
:100130008B4274D303098B425FD3030A8B4244D3AF
:10014000030B8B4228D3030C8B420DD3FF220902F1
:1001500012BA030C8B4202D31212090265D0030BB0
:100160008B4219D300E0090AC30B8B4201D3CB03A6
:10017000C01A5241830B8B4201D38B03C01A5241E8
:10018000430B8B4201D34B03C01A5241030B8B42EA
:1001900001D30B03C01A5241C30A8B4201D3CB02D5
:1001A000C01A5241830A8B4201D38B02C01A5241BA
:1001B000430A8B4201D34B02C01A5241030A8B42BD
:1001C00001D30B02C01A5241CDD2C3098B4201D3D5
:1001D000CB01C01A524183098B4201D38B01C01A53
:1001E000524143098B4201D34B01C01A52410309CA
:1001F0008B4201D30B01C01A5241C3088B4201D379
:10020000CB00C01A524183088B4201D38B00C01A25
:10021000524143088B4201D34B00C01A5241411A4C
:1002200000D20146524110467047FFE701B5002059
:1002300000F006F802BDC0460029F7D076E7704707
:100240007047C04680B584B000AF3B1D18000C233A
:100250001A0000210DF081F92D4B2E4A1A602C4B0B
:100260008022D2025A602A4B00229A60284B002238
:10027000DA60274B00221A61254B04225A61244B75
:1002800000221A76224B00225A76214B00229A76BF
:100290001F4B0122DA611E4B2022002199541C4B76
:1002A00000225A621A4B00229A62194B2C2200211A
:1002B0009954174B00221A63154B00225A63144BB2
:1002C00000229A63124B3C2200219954104B0022C9
:1002D000DA640F4B180001F0F7FB031E01D000F0A9
:1002E00023FB3B1D0C4A1A603B1D00225A603B1D3C
:1002F00000229A603A1D064B1100180001F08CFD97
:10030000031E01D000F010FBC046BD4604B080BD06
:1003100090000020002401400004002890B591B016
:1003200000AF78602C23FB18180014231A0000215A
:100330000DF013F910243B1918001C231A0000219A
:100340000DF00BF97B681B681F4A934238D13B19AB
:100350008022D2011A603B1900225A613B19180011
:1003600004F086FF031E01D000F0DEFA174B1A6C72
:10037000164B802149030A431A64144B1A6C8023DC
:100380005B031340FB60FB68104B5A6B0F4B022161
:100390000A435A630D4B5B6B02221340BB60BB6880
:1003A0002C217B1804221A607B1803225A607B18C8
:1003B00000229A607B18064A1900100002F08AF8A1
:1003C000C046BD4611B090BD00240140001002405F
:1003D0000004005090B587B000AF3B1D084A13CA17
:1003E00013C303CA03C33B1D0021180009F023F8FF
:1003F0000200044B1A60C046BD4607B090BDC0461F
:10040000F8DF0008F400002080B582B000AF78600B
:10041000012009F038F8FBE790B58BB000AF142449
:100420003B19180014231A0000210DF096F85A4BBE
:100430005A6B594B04210A435A63574B5B6B042296
:1004400013403B613B69544B5A6B534B01210A43A8
:100450005A63514B5B6B01221340FB60FB684E4BB0
:100460005A6B4D4B02210A435A634B4B5B6B022282
:100470001340BB60BB68484B5A6B474B08210A438B
:100480005A63454B5B6B082213407B607B68434B90
:1004900000220121180002F081F9C6239B00404888
:1004A0000022190002F07AF93D4B01228021180048
:1004B00002F074F93B1938221A603B198422920326
:1004C0005A603B1900229A603A19A023DB051100FB
:1004D000180001F0FFFF3B1901221A603B190122AD
:1004E0005A603B1900229A603B190022DA603B19DE
:1004F0002A4A1900100001F0EDFF21007B180422A8
:100500001A607B18C42292035A607B1800229A60FA
:100510000C007B18214A1900100001F0DBFF2100BC
:100520007B18E22292001A600C003B1901225A60EB
:100530003B1900229A603B190222DA603B19184AE3
:100540001900100001F0C6FF21007B1810221A606C
:100550007B1801225A607B1800229A607B180022C7
:10056000DA607B180E4A1900100001F0B3FF002278
:100570000321062001F0B0FE062001F0C2FE002299
:100580000321072001F0A8FE072001F0BAFEC046B3
:10059000BD460BB090BDC04600100240000C00509C
:1005A0000004005080B500AF1B4B1C4A1A601A4B68
:1005B0001B4A5A60184B00229A60174B0122DA60DE
:1005C000154B00221A61144B00225A61124B002273
:1005D0009A61114B0022DA610F4B00221A620E4B16
:1005E000180002F037F9031E01D000F09DF90A4B04
:1005F0000021180004F074F8031E01D000F094F9F3
:10060000054B0021180004F0B7F8031E01D000F0DC
:100610008BF9C046BD4680BDF80000200054004064
:10062000885D801080B500AF1B4B1C4A1A601A4BC6
:100630001B4A5A60184B00229A60174B0122DA605D
:10064000154B00221A61144B00225A61124B0022F2
:100650009A61114B0022DA610F4B00221A620E4B95
:10066000180002F0F7F8031E01D000F05DF90A4B04
:100670000021180004F034F8031E01D000F054F9F2
:10068000054B0021180004F077F8031E01D000F09C
:100690004BF9C046BD4680BD4C01002000580040CB
:1006A000885D801090B593B000AF78603423FB185C
:1006B000180014231A0000210CF04FFF18243B19D6
:1006C00018001C231A0000210CF047FF7B681B68F0
:1006D000474A934248D13B1920221A603B19002215
:1006E000DA603B19180004F0C3FD031E01D000F0CE
:1006F0001BF9404B5A6B3F4B01210A435A633D4B58
:100700005B6B012213407B617B6934217B18C02223
:10071000D2001A607B1812225A607B1800229A605D
:100720007B180022DA607B1806221A617A18A0234F
:10073000DB051100180001F0CDFE2E4BDA6B2D4BBE
:10074000802189030A43DA632A4BDA6B80239B03F7
:1007500013403B613B6900220321172001F0BCFDDF
:10076000172001F0CEFD3EE07B681B68224A9342D1
:1007700039D1204B5A6B1F4B01210A435A631D4B41
:100780005B6B01221340FB60FB6834217B18C022A5
:1007900052011A607B1812225A607B1800229A605C
:1007A0007B180022DA607B1806221A617A18A023CF
:1007B000DB051100180001F08DFE0E4BDA6B0D4BBE
:1007C0008021C9030A43DA630A4BDA6B8023DB0317
:1007D0001340BB60BB6800220321182001F07CFDA0
:1007E000182001F08EFDC046BD4613B090BDC04636
:1007F00000540040001002400058004080B500AF97
:1008000001F004F800F021F8FFF706FE00F0FEF812
:10081000FFF718FDFFF7C6FEFFF704FF00F08AF8A8
:1008200000F03CFB00F006FC00F09EFC00F0ECFC4D
:1008300000F070FD00F062FF00F05AFC0BF080F950
:10084000FFF7C8FD08F0EFFDFEE790B593B000AFED
:1008500014243B19180034231A0000210CF07DFEEB
:100860003B1D180010231A0000210CF076FE802397
:100870009B00180003F0CCFF3B190A221A603B19B9
:1008800080225200DA6021007B1800221A617B1856
:1008900040225A617B1801229A617B180222DA6198
:1008A0007B1802221A627B1800225A627B180C22E3
:1008B0009A627B18E0221203DA627B18C022D2050A
:1008C0001A637B18180003F0EFFF031E01D000F03D
:1008D0002BF83B1D07221A603B1D02225A603B1D6C
:1008E00000229A603B1D0022DA603B1D01211800A6
:1008F00004F0EAFA031E01D000F016F8C046BD4627
:1009000013B090BD80B582B000AF78607B681B6883
:10091000044A934201D100F099FFC046BD4602B09F
:1009200080BDC0460014004080B500AF72B6C0461E
:10093000FEE7000080B500AF134B144A1A60124B5B
:1009400000229A60104B7F22DA600F4BFF221A615F
:100950000D4B00225A610C4B00229A610A4B002277
:10096000DA61094B8022D2051A62074B00225A62D3
:10097000054B180004F0B0FD031E01D0FFF7D4FFB3
:10098000C046BD4680BDC046A001002000280040F2
:1009900090B58BB000AF78600C243B1918001C2375
:1009A0001A0000210CF0D9FD7B681B68154A9342A0
:1009B00024D13B19802292021A603B1980229200B6
:1009C0009A613B19180004F053FC031E01D0FFF795
:1009D000ABFF0D4BDA6D0C4B802109020A43DA653F
:1009E000094BDA6B084B8021C9000A43DA63064BD6
:1009F000DA6B8023DB001340BB60BB68C046BD469A
:100A00000BB090BD002800400010024080B500AF40
:100A10001B4B1C4A1A601A4B822252005A60184B18
:100A200000229A60164BE022D200DA60144B0022BA
:100A30001A61134B00225A61114B802292009A6175
:100A40000F4B1822DA610E4B00221A620C4B002267
:100A50005A620B4B00229A62094B0722DA62084B5A
:100A600000221A63064B08225A63054B180004F053
:100A700081FE031E01D0FFF757FFC046BD4680BD73
:100A8000CC0100200030014090B58BB000AF786001
:100A900014243B19180014231A0000210CF05DFDEA
:100AA0007B681B681F4A934238D11F4B1A6C1E4B40
:100AB000802149010A431A641B4B1A6C80235B0195
:100AC00013403B613B69184B5A6B174B01210A439A
:100AD0005A63154B5B6B01221340FB60FB682100DE
:100AE0007B1806221A607B1802225A607B180022AB
:100AF0009A607B180022DA607B1800221A617A184B
:100B0000A023DB051100180001F0E4FC0022032102
:100B1000192001F0E1FB192001F0F3FBC046BD46AE
:100B20000BB090BD003001400010024080B582B093
:100B300000AF124B1A6C114B01210A431A640F4B80
:100B40001B6C012213407B607B680C4BDA6B0B4BF8
:100B5000802149050A43DA63084BDA6B80235B0581
:100B600013403B603B6802235B42002203211800D4
:100B700001F0B2FBC046BD4602B080BD001002408D
:100B8000B0B58CB000AF78602B23FB1800221A7030
:100B9000374BDA6B364B20210A43DA63344BDB6B7D
:100BA00020221340BB60BB680C23FA1810243B19A9
:100BB0001100180004F032FB3B19DB687B627B6A92
:100BC000002B04D104F014FB0300FB6204E004F0EA
:100BD0000FFB03005B00FB62FB6A26491800FFF76E
:100BE000A5FA0300013B3B62234B244A1A60224BC7
:100BF000234ADA60204B3A6A5A601F4B00221A617E
:100C00001D4B00229A601C4B00229A612B257C19F7
:100C1000194B180005F0EAFD030023707B191B78BF
:100C2000002B1ED17C19144B180005F037FE030071
:100C300023707B191B78002B13D1122001F061FB6C
:100C40007B68032B09D87B6800221900122001F071
:100C500043FB0C4B7A681A6003E02B23FB1801223C
:100C60001A702B23FB181B781800BD460CB0B0BDC2
:100C70000010024040420F003002002000140040EB
:100C8000E70300000400002080B500AFFEE780B558
:100C900000AFFEE780B500AF042001F09DFD082005
:100CA00001F09AFDC046BD4680BD80B500AF102062
:100CB00001F092FD202001F08FFDC046BD4680BDB1
:100CC00080B500AF034B180005F056FFC046BD4687
:100CD00080BDC046CC02002080B500AF034B180099
:100CE00005F04AFFC046BD4680BDC046180300203F
:100CF00080B500AF034B180005F03EFFC046BD466F
:100D000080BDC0463002002080B500AF034B180004
:100D100005F032FFC046BD4680BDC04664030020DA
:100D200080B500AF034B180005F026FFC046BD4656
:100D300080BDC046B003002080B500AF034B180053
:100D400005F01AFFC046BD4680BDC046FC0300202A
:100D500080B500AF094B1B689A69E023DB001340A4
:100D600004D0064B180002F0C9FA03E0034B180048
:100D700002F0AAFAC046BD4680BDC046F800002079
:100D800080B500AF094B1B689A69E023DB00134074
:100D900004D0064B180002F0B1FA03E0034B180030
:100DA00002F092FAC046BD4680BDC0464C0100200C
:100DB00080B500AF034B180005F028FAC046BD46C9
:100DC00080BDC046CC01002080B500AF034B1800A9
:100DD00007F0F2F9C046BD4680BDC0464804002079
:100DE00080B500AF01231800BD4680BD80B582B03C
:100DF00000AF786039600CF07BFB030016221A60AC
:100E000001235B421800BD4602B080BD80B582B0B0
:100E100000AF786001235A427B6811001800FFF789
:100E2000E5FFFEE780B586B000AF7860144A154B49
:100E3000D31A7B617B693B61134B1B68002B02D18A
:100E4000114B124A1A60104B1A687B68D3183A6922
:100E50009A4207D20CF04CFB03000C221A600123CB
:100E60005B4209E0084B1B68FB60074B1A687B6814
:100E7000D218054B1A60FB681800BD4606B080BD4D
:100E800000900020000400007C0200203057002069
:100E900080B500AFC046BD4680BD000080B59CB0A7
:100EA00000AF6023FB18180010231A0000210CF07B
:100EB00054FB5423FB1818000C231A0000210CF0DB
:100EC0004CFB3823FB1818001C231A0000210CF0DF
:100ED00044FB3B1D180034231A0000210CF03DFB9D
:100EE000514B524A1A60504B00225A604E4B00221E
:100EF0009A604D4B4E4ADA604B4B00221A614A4BC6
:100F000000225A61484B00229A61474B180005F0B5
:100F10006DFC031E01D0FFF707FD60217B188022C6
:100F200052011A607A18404B1100180006F030F98F
:100F3000031E01D0FFF7F8FC3B4B180005F004FD41
:100F4000031E01D0FFF7F0FC54217B1800221A6029
:100F50007B1800225A607B1800229A607A18324B64
:100F60001100180006F00EFF031E01D0FFF7DCFC95
:100F700038217B1830221A607B1800225A607B18B7
:100F800002229A607B180022DA607B1800221A6124
:100F90007B1800225A617B1800229A617918224B33
:100FA0000822180005F0F0FE031E01D0FFF7BCFC7C
:100FB0003B1D00221A603B1D00225A603B1D00228F
:100FC0009A603B1D0022DA603B1D00221A613B1D26
:100FD000802292015A613B1D00229A613B1D002232
:100FE000DA613B1D00221A623B1D802292045A6284
:100FF0003B1D00229A623B1D0022DA623B1D00224B
:101000001A633A1D084B1100180006F023FF031E57
:1010100001D0FFF789FC044B180000F0DDFAC04650
:10102000BD461CB080BDC04680020020002C01409F
:10103000FFFF000080B588B000AF1423FB18180034
:101040000C231A0000210CF088FA3B1D1800102315
:101050001A0000210CF081FA224B234A1A60214B1E
:1010600000225A601F4B00229A601E4B1F4ADA6012
:101070001C4B00221A611B4B80229A61194B1800ED
:1010800005F022FD031E01D0FFF74EFC14217B1852
:1010900000221A607B1800229A607A18114B110006
:1010A000180006F06FFE031E01D0FFF73DFC3B1D4C
:1010B00000221A603B1D01225A603B1D00229A60EB
:1010C0003B1D0022DA60391D064B0822180005F08E
:1010D000BBFE031E01D0FFF727FCC046BD4608B08B
:1010E00080BDC046CC02002000040040FFFF00008D
:1010F00080B584B000AF3B1D18000C231A000021FE
:101100000CF02BFA154B164A1A60144B00225A6049
:10111000124B00229A60114B124ADA600F4B0022E8
:101120009A610E4B180005F061FB031E01D0FFF71A
:10113000FBFB3B1D00221A603B1D00229A603A1DFA
:10114000064B1100180006F01DFE031E01D0FFF72C
:10115000EBFBC046BD4604B080BDC046180300206E
:1011600000100040FFFF000080B588B000AF3B1DBD
:1011700018001C231A0000210CF0EFF91F4B204A25
:101180001A601E4B00225A601C4B00229A601B4BB7
:101190001C4ADA60194B00221A61184B00229A612E
:1011A000164B180005F022FB031E01D0FFF7BCFB15
:1011B000124B180005F028FC031E01D0FFF7B4FB0A
:1011C0003B1D60221A603B1D00225A603B1D00221D
:1011D0009A603B1D00221A61391D084B002218003D
:1011E00005F0D6FE031E01D0FFF79EFB034B18004F
:1011F00000F0F2F9C046BD4608B080BD640300208F
:1012000000200040FFFF000080B594B000AF342301
:10121000FB1818001C231A0000210CF09EF93B005B
:10122000180034231A0000210CF097F9374B384A84
:101230001A60364B00225A60344B00229A60334BBE
:101240000122DA60314B00221A61304B00225A61D0
:101250002E4B00229A612D4B180005F0C7FA031E91
:1012600001D0FFF761FB294B180005F0CDFB031EF1
:1012700001D0FFF759FB34217B1860221A607B18DC
:1012800000225A607B1800229A607B180022DA60E4
:101290007B1800221A617B1800225A617B180022F9
:1012A0009A617918194B0022180005F071FE031E8F
:1012B00001D0FFF739FB3B0000221A603B000022FF
:1012C0005A603B0000229A603B000022DA603B003B
:1012D00000221A613B00802292015A613B000022E9
:1012E0009A613B0000221A633A00084B1100180073
:1012F00006F0B0FD031E01D0FFF716FB034B1800EC
:1013000000F06AF9C046BD4614B080BDB0030020AD
:101310000044014080B584B000AF3B0018001023AA
:101320001A0000210CF019F91F4B204A1A601E4BBD
:1013300000225A601C4B00229A601B4B1C4ADA6048
:10134000194B00221A61184B00225A61164B802259
:101350009A61154B180005F049FA031E01D0FFF7FA
:10136000E3FA114B180005F0AFFB031E01D0FFF7A5
:10137000DBFA3B0000221A603B0001225A603B006E
:1013800000229A603B000022DA603900064B0022FE
:10139000180005F059FD031E01D0FFF7C5FAC0463D
:1013A000BD4604B080BDC046FC030020004801409B
:1013B000FFFF000080B58EB000AF78602423FB18DB
:1013C000180014231A0000210CF0C7F87B681B6872
:1013D000524A93420ED1524B1A6C514B8021090153
:1013E0000A431A644E4B1A6C80231B0113403B6264
:1013F0003B6A8FE07B681B684A4A934214D1484B92
:10140000DA6B474B10210A43DA63454BDB6B102242
:101410001340FB61FB6900220321112000F05CFFF7
:10142000112000F06EFF75E07B681B683E4A934216
:1014300016D13B4B1A6C3A4B802109020A431A64BD
:10144000374B1A6C80231B021340BB61BB6900221F
:101450000321132000F040FF132000F052FF59E059
:101460007B681B68314A934216D12D4B1A6C2C4B6A
:10147000802189020A431A64294B1A6C80239B023B
:1014800013407B617B6900220321152000F024FFBB
:10149000152000F036FF3DE07B681B68244A93422C
:1014A00038D11F4B1A6C1E4B8021C9020A431A64A3
:1014B0001B4B1A6C8023DB0213403B613B69184BCA
:1014C0005A6B174B01210A435A63154B5B6B012280
:1014D0001340FB60FB6824217B1880221A607B1874
:1014E00002225A607B1800229A607B180022DA6080
:1014F0007B1805221A617A18A023DB051100180059
:1015000000F0E8FF00220321162000F0E5FE16207F
:1015100000F0F7FEC046BD460EB080BD002C014075
:101520000010024000100040002000400044014034
:101530000048014090B58BB000AF786014243B198F
:10154000180014231A0000210CF007F87B681B68B0
:101550001E4A934235D11E4BDA6B1D4B02210A43C2
:10156000DA631B4BDB6B022213403B613B69184B78
:101570005A6B174B02210A435A63154B5B6B0222CD
:101580001340FB60FB6821007B1801221A607B1866
:1015900002225A607B1800229A607B180022DA60CF
:1015A0007B1801221A617B180A4A1900100000F00A
:1015B00091FF00220321102000F08EFE102000F089
:1015C000A0FEC046BD460BB090BDC0460004004022
:1015D000001002400004005090B58BB000AF78605E
:1015E00014243B19180014231A0000210BF0B5FF36
:1015F0007B681B683C4A934222D13C4B5A6B3B4B65
:1016000002210A435A63394B5B6B022213403B6150
:101610003B6921007B1840221A607B1802225A6025
:101620007B1800229A607B180022DA607B18012266
:101630001A617B182E4A1900100000F04BFF4FE092
:101640007B681B682B4A934222D1284B5A6B274B4D
:1016500002210A435A63254B5B6B02221340FB6055
:10166000FB6814217B1802221A607B1802225A6040
:101670007B1800229A607B180022DA607B18002217
:101680001A617B181A4A1900100000F023FF27E0A6
:101690007B681B68184A934222D1144B5A6B134B38
:1016A00001210A435A63114B5B6B01221340BB605B
:1016B000BB6814217B1840221A607B1802225A60F2
:1016C0007B1800229A607B180022DA607B180522C2
:1016D0001A617A18A023DB051100180000F0FAFE49
:1016E000C046BD460BB090BD002C0140001002402A
:1016F00000040050002000400044014080B500AFCD
:10170000164B174A1A60154BE12212035A60134B0D
:1017100000229A60114B0022DA60104B00221A61FD
:101720000E4B0C225A610D4B00229A610B4B00228A
:10173000DA610A4B00221A62084B00225A62074BF8
:1017400000229A62054B180006F038FC031E01D0F7
:10175000FFF7EAF8C046BD4680BDC04648040020F9
:101760000048004090B58BB000AF786014243B195E
:10177000180014231A0000210BF0EFFE7B681B6891
:101780001F4A934238D11F4BDA6B1E4B8021C9028E
:101790000A43DA631B4BDA6B8023DB0213403B61A5
:1017A0003B69184B5A6B174B02210A435A63154B7E
:1017B0005B6B02221340FB60FB683B19C0221201E5
:1017C0001A6021007B1802225A607B1800229A605E
:1017D0007B180022DA607B1804221A617B180A4AFF
:1017E0001900100000F076FE002203211D2000F0F9
:1017F00073FD1D2000F085FDC046BD460BB090BDB9
:1018000000480040001002400004005080B582B043
:1018100000AFFB1D00221A700B4B1A680A4B802187
:1018200049000A431A600320FFF7AAF9031E03D0F8
:10183000FB1D01221A7001E0FFF778F9FB1D1B78F0
:101840001800BD4602B080BD0020024080B500AF48
:10185000054B1B781A00054B1B68D218034B1A6006
:10186000C046BD4680BDC04608000020DC04002004
:1018700080B500AF024B1B681800BD4680BDC04656
:10188000DC04002080B584B000AF7860FFF7F0FF83
:101890000300BB607B68FB60FB68013305D00A4B2B
:1018A0001B781A00FB689B18FB60C046FFF7E0FF3F
:1018B0000200BB68D31AFA689A42F7D8C046C046FD
:1018C000BD4604B080BDC0460800002080B582B08F
:1018D00000AF786039607B681B68054A1A403B6836
:1018E0001A437B681A60C046BD4602B080BDC04640
:1018F000FFFF3FFE80B582B000AF78607B681A685A
:10190000E0235B0413401800BD4602B080BD80B5E3
:1019100084B000AFF860B9607A60FB685B69BA6850
:1019200004210A40072191400A00D2431A40BB68B3
:1019300004210B40796899400B001A43FB685A61F7
:10194000C046BD4604B080BD80B582B000AF7860AF
:1019500039607B685B693A6804210A40072191403D
:101960000A001A403B6804210B40DA4013001800BB
:10197000BD4602B080BD80B584B000AFF860B960EC
:101980007A60FB689B6ABA681F210A400F21914068
:101990000A00D2431A407B689B0E0F211940BB6896
:1019A0001F20034099400B001A43FB689A62C0460F
:1019B000BD4604B080BD80B582B000AF78603960AC
:1019C0007B689A6A3B685B035B0B1A437B689A628D
:1019D000C046BD4602B080BD80B582B000AF786021
:1019E00039607B689B6A3A685203520BD2431A40B3
:1019F0007B689A62C046BD4602B080BD80B584B0A7
:101A000000AFF860B9607A60FB685B69BA6812027F
:101A1000D2431A40BB681B0279680B4004490B4053
:101A20001A43FB685A61C046BD4604B080BDC0463B
:101A300000FFFF0780B582B000AF78607B689B68CD
:101A4000054A1340802252051A437B689A60C046BB
:101A5000BD4602B080BDC046E8FFFF6F80B582B0D2
:101A600000AF78607B689A6880235B051A4080230A
:101A70005B059A4201D1012300E000231800BD4616
:101A800002B080BD80B582B000AF78607B689B6893
:101A900001221340012B01D1012300E00023180093
:101AA000BD4602B080BD80B582B000AF78607B6873
:101AB0009B6804221340042B01D1012300E0002382
:101AC0001800BD4602B080BD80B588B000AF786018
:101AD0001F23FB1800221A700023BB6100237B61C7
:101AE0000023FB607B68002B01D101237FE17B6831
:101AF0009B6D002B0AD17B681800FEF70FFC7B68FA
:101B00000022DA657B685422002199547B681B68A7
:101B10001800FFF7A3FF031E15D17B681B68180090
:101B2000FFF788FFB44B1B68B4491800FEF7FEFAB4
:101B3000030001335B00FB6002E0FB68013BFB60DC
:101B4000FB68002BF9D17B681B681800FFF786FF44
:101B5000031E0FD17B689B6D10221A437B689A6528
:101B60007B68DB6D01221A437B68DA651F23FB1853
:101B700001221A707B681B681800FFF794FF0300AE
:101B80003B617B689B6D1022134000D022E13B69D2
:101B9000002B00D01EE17B689B6D994A1340022206
:101BA0001A437B689A657B681B681800FFF76AFF19
:101BB000031E00D0ADE07B689A687B681B7E9B03A8
:101BC0001A437B685B7EDB031A437B689B7E5B0367
:101BD0001A437B681B6B002B02D080235B0100E063
:101BE00000231A437B68DB681A437B681B69002B60
:101BF00004DA7B681B695B005B0801E080239B03C0
:101C00001A437B682C215B5C5B001343BA69134366
:101C1000BB617B6820229B5C012B15D17B689B7E7E
:101C2000002B05D1BB69802252021343BB610BE03C
:101C30007B689B6D20221A437B689A657B68DB6D0D
:101C400001221A437B68DA657B685B6A002B0AD045
:101C50007B685A6AE0235B001A407B689B6A1343E7
:101C6000BA691343BB617B681B68DB68654A134034
:101C700019007B681B68BA690A43DA607B685B6895
:101C80009B0F9A077B68DB6C13437A6913437B6174
:101C90007B683C229B5C012B11D17B685B689B0FAE
:101CA0009A077B681B6C1A437B685B6C1A437B68E2
:101CB0009B6C1A437B691343012213437B617B684E
:101CC0001B681B69504A134019007B681B687A69BE
:101CD0000A431A617B685A68C0231B069A4218D0CF
:101CE0007B685A688023DB059A4212D07B685A6869
:101CF00080231B069A420CD0444B1B68444A134075
:101D000019007B685A68F0239B031A403F4B0A4333
:101D10001A607B6818687B685B6B1A000021FFF70C
:101D2000F6FD7B6818687B689B6B3A491A00FFF7E1
:101D3000EEFD7B681B69002B09D17B681B689A6AE2
:101D40007B681B68102149420A439A6218E07B684D
:101D50001A6980239B039A4212D17B681B689B6A95
:101D60007B68DB69013B9B001C221340102252421E
:101D70009A4011007B681A6E7B681B680A439A625E
:101D80007B681B6800211800FFF7DEFD02007B68FE
:101D90005B6B9A420BD17B680022DA657B689B6D96
:101DA0000322934301221A437B689A651CE07B68F7
:101DB0009B6D1222934310221A437B689A657B68BD
:101DC000DB6D01221A437B68DA651F23FB180122B1
:101DD0001A7009E07B689B6D10221A437B689A6534
:101DE0001F23FB1801221A701F23FB181B781800F1
:101DF000BD4608B080BDC04600000020400D030075
:101E0000FDFEFFFF0102DEFF02FCFF1F082701406D
:101E1000FFFFC3FF04FFFF0780B586B000AF786007
:101E200039601723FB1800221A700023FB607B68BF
:101E300054229B5C012B01D10223C0E17B68542218
:101E4000012199547B681B681800FFF72CFE031EC4
:101E500000D0A3E13B685B68022B00D143E17B68C3
:101E60001A6980231B069A4204D07B681B69C14A09
:101E7000934208D17B681A683B681B681900100000
:101E8000FFF799FDC9E07B681A6E3B685B681F210C
:101E90000B400F2199400B00DB43134019003B68B6
:101EA0001B685B035B0B05D13B681B689B0E1F2205
:101EB000134098E03B681B680122134000D091E07A
:101EC0003B681B680222134000D089E03B681B6816
:101ED0000422134000D081E03B681B6808221340B5
:101EE00000D079E03B681B681022134000D071E0FD
:101EF0003B681B682022134000D069E03B681B68E8
:101F00004022134000D061E03B681B6880221340F0
:101F100000D059E03B681A6880235B00134051D120
:101F20003B681A6880239B00134049D13B681A68BC
:101F30008023DB00134041D13B681A6880231B01DA
:101F4000134039D13B681A6880235B01134031D1BB
:101F50003B681A6880239B01134029D13B681A68AB
:101F60008023DB01134021D13B681A6880231B02C8
:101F7000134019D13B681A6880235B02134011D1CA
:101F80003B681A6880239B02134009D13B681A689A
:101F90008023DB02134001D0122324E0002322E03F
:101FA000112320E010231EE00F231CE00E231AE073
:101FB0000D2318E00C2316E00B2314E00A2312E093
:101FC000092310E008230EE007230CE006230AE0B3
:101FD000052308E0042306E0032304E0022302E0D3
:101FE000012300E000233A6852681F20024093401A
:101FF0000A001A437B681A663B685B689B085A1C98
:102000007B68DB699A4208D87B6818683B68596826
:102010003B681B681A00FFF7AEFC7B6818683B68DA
:1020200019683B689B681A00FFF7E8FC3B681B686F
:10203000002B00DBBCE0504B1800FFF75BFC0300FB
:102040003B613B681B684D4A934222D13A69802329
:102050001B0413401DD13B69802212041343464ADE
:1020600019001000FFF732FC454B1B68454918006A
:10207000FEF75CF803005A1C13005B009B189B00E2
:10208000FB6002E0FB68013BFB60FB68002BF9D1C1
:102090008EE03B681B683C4A93420ED13A6980232C
:1020A0005B04134009D13B69802252041343324A36
:1020B00019001000FFF70AFC7AE03B681B68334AFE
:1020C000934200D074E03A698023DB03134000D0D0
:1020D0006EE03B698022D2031343274A19001000A7
:1020E000FFF7F4FB64E07B681A6980231B069A42C1
:1020F00004D07B681B691F4A934207D17B681A682A
:102100003B681B6819001000FFF766FC3B681B6802
:10211000002B4DDA184B1800FFF7ECFB03003B6176
:102120003B681B68154A934208D13B69184A134023
:10213000114A19001000FFF7C9FB39E03B681B6822
:10214000114A934208D13B69124A13400A4A1900C6
:102150001000FFF7BBFB2BE03B681B680B4A934268
:1021600026D13B690C4A1340034A19001000FFF7BF
:10217000ADFB1DE00400008008270140001000B006
:1021800000000020400D0300004000B8002000B413
:10219000FFFF7FFFFFFFFFFEFFFFBFFF7B689B6D21
:1021A00020221A437B689A651723FB1801221A70B4
:1021B0007B685422002199541723FB181B781800C0
:1021C000BD4606B080BDC04680B582B000AF0200FB
:1021D000FB1D1A70FB1D1B787F2B09D8FB1D1B787C
:1021E0001A001F231A40044B012191400A001A6073
:1021F000C046BD4602B080BD00E100E090B583B0AE
:1022000000AF02003960FB1D1A70FB1D1B787F2B8D
:1022100028D82F4AFB1D1B785BB29B08C0339B005C
:102220009B58FA1D1278110003220A40D200FF21A8
:1022300091400A00D2431A4011003B689B01FF22E3
:102240001A40FB1D1B78180003230340DB009A4053
:102250001F48FB1D1B785BB29B080A43C0339B00E1
:102260001A5031E01B4AFB1D1B7819000F230B404D
:10227000083B9B0806339B00D31804331B68FA1DE8
:102280001278110003220A40D200FF2191400A0077
:10229000D2431A4011003B689B01FF221A40FB1DEC
:1022A0001B78180003230340DB009A400948FB1DFC
:1022B0001B781C000F232340083B9B080A4306336E
:1022C0009B00C31804331A60C046BD4603B090BDDE
:1022D00000E100E000ED00E080B584B000AFB9603F
:1022E0007A600F217B18021C1A70BA687B181B7861
:1022F0005BB211001800FFF781FFC046BD4604B075
:1023000080BD80B582B000AF0200FB1D1A70FB1DBE
:102310001B785BB21800FFF757FFC046BD4602B0FE
:1023200080BD000080B582B000AF78607B68002B74
:1023300001D1012350E07B6825229B5CDBB2022B9C
:1023400008D07B680422DA637B6824220021995438
:10235000012341E07B681B681A687B681B680E21BB
:102360008A431A607B685B6C1A687B685B6C1C49EB
:102370000A401A607B681B681A687B681B68012129
:102380008A431A60174B59687B681B6C1C221340E8
:1023900001229A40134B0A435A607B689B6C7A680F
:1023A000D26C5A607B681B6D002B0CD07B681B6D58
:1023B0001A687B681B6D0A490A401A607B685B6D6E
:1023C0007A68926D5A607B682522012199547B6856
:1023D00024220021995400231800BD4602B080BD7C
:1023E000FFFEFFFF0000024080B584B000AF7860C0
:1023F0000F217B1800221A707B6825229B5CDBB2C0
:10240000022B06D07B680422DA637B1801221A7043
:1024100049E07B681B681A687B681B680E218A4349
:102420001A607B681B681A687B681B6801218A43F5
:102430001A607B685B6C1A687B685B6C1D490A409C
:102440001A601D4B59687B681B6C1C2213400122CB
:102450009A40194B0A435A607B689B6C7A68D26C2D
:102460005A607B681B6D002B0CD07B681B6D1A6853
:102470007B681B6D0F490A401A607B685B6D7A6848
:10248000926D5A607B682522012199547B68242231
:10249000002199547B689B6B002B04D07B689B6B5D
:1024A0007A68100098470F23FB181B781800BD4668
:1024B00004B080BDFFFEFFFF0000024080B582B087
:1024C00000AF78607B6825229B5CDBB21800BD46BC
:1024D00002B080BD80B586B000AF7860396000235F
:1024E0007B6147E13B681B6801217A6991400A00E2
:1024F0001340FB60FB68002B00D138E13B685B6850
:1025000003221340012B05D03B685B680322134074
:10251000022B30D17B689B683B617B695B000322A7
:102520009A401300DA433B6913403B613B68DA6829
:102530007B695B009A4013003A6913433B617B68F7
:102540003A699A607B685B683B6101227B699A40CB
:102550001300DA433B6913403B613B685B681B092E
:1025600001221A407B699A4013003A6913433B6188
:102570007B683A695A603B685B6803221340032B0F
:1025800017D07B68DB683B617B695B0003229A4064
:102590001300DA433B6913403B613B689A687B69EF
:1025A0005B009A4013003A6913433B617B683A69C8
:1025B000DA603B685B6803221340022B23D17B69FE
:1025C000DA087B6808329200D3583B617B690722A6
:1025D00013409B000F229A401300DA433B691340DB
:1025E0003B613B681A697B6907210B409B009A405D
:1025F00013003A6913433B617B69DA087B68083250
:1026000092003969D1507B681B683B617B695B0034
:1026100003229A401300DA433B6913403B613B6855
:102620005B6803221A407B695B009A4013003A6999
:1026300013433B617B683A691A603B685A68C02360
:102640009B02134000D192E0504A7B699B081833EB
:102650009B009B583B617B6903221340DB000F22E8
:102660009A401300DA433B6913403B617A68A02328
:10267000DB059A4213D07B68454A93420DD07B68B4
:10268000444A934207D07B68434A934201D10323D3
:1026900006E0052304E0022302E0012300E000231A
:1026A0007A6903210A40D20093403A6913433B619F
:1026B00036497B699B0818339B003A695A50334B63
:1026C0001B683B61FB68DA433B6913403B613B6835
:1026D0005A6880235B03134003D03A69FB681343B5
:1026E0003B612A4B3A691A60284B5B683B61FB6887
:1026F000DA433B6913403B613B685A6880239B0384
:10270000134003D03A69FB6813433B611F4B3A699E
:102710005A601E4A8423D3583B61FB68DA433B6905
:1027200013403B613B685A6880239B02134003D0EF
:102730003A69FB6813433B61144984223B698B501F
:10274000124A8023D3583B61FB68DA433B6913404C
:102750003B613B685A6880235B02134003D03A69AF
:10276000FB6813433B61094980223B698B507B69BD
:1027700001337B613B681A687B69DA40131E00D025
:10278000B0E6C046C046BD4606B080BD0018024057
:102790000004005000080050000C005080B582B0CA
:1027A00000AF786008001100BB1C021C1A807B1C63
:1027B0000A1C1A707B1C1B78002B04D0BB1C1A88C7
:1027C0007B689A6103E0BB1C1A887B689A62C046EA
:1027D000BD4602B080BD000080B582B000AF0200EF
:1027E000BB1D1A80104BDB68BA1D1288134008D03D
:1027F0000D4BBA1D1288DA60BB1D1B88180000F053
:1028000015F8094B1B69BA1D1288134008D0064BF6
:10281000BA1D12881A61BB1D1B88180000F010F841
:10282000C046BD4602B080BD0018024080B582B0EF
:1028300000AF0200BB1D1A80C046BD4602B080BD7D
:1028400080B582B000AF0200BB1D1A80C046BD46F5
:1028500002B080BD80B582B000AF78607B68002B8D
:1028600001D101238FE07B6841229B5CDBB2002B0E
:1028700007D17B684022002199547B681800FDF73E
:1028800011FF7B684122242199547B681B681A68D8
:102890007B681B6801218A431A607B685A687B68E1
:1028A0001B683B490A401A617B681B689A687B6811
:1028B0001B6838490A409A607B68DB68012B08D1A5
:1028C0007B689A687B681B68802109020A439A60CA
:1028D00007E07B689A687B681B68842109020A43C9
:1028E0009A607B68DB68022B09D17B681B685A6899
:1028F0007B681B68802109010A435A6007E07B68F6
:102900001B685A687B681B6823490A405A607B68C9
:102910001B685A687B681B6820490A435A607B68B9
:102920001B68DA687B681B681A490A40DA607B68B2
:102930001A697B685B691A4311007B689B691A02FC
:102940007B681B680A43DA607B68D9697B681A6A0E
:102950007B681B680A431A607B681B681A687B687F
:102960001B6801210A431A607B6800225A647B6855
:102970004122202199547B6800221A637B684222FD
:102980000021995400231800BD4602B080BDC04606
:10299000FFFFFFF0FF7FFFFFFFF7FFFF0080000258
:1029A00090B589B002AFF86008007A6019000A2378
:1029B000FB18021C1A800823FB180A1C1A80FB68EB
:1029C00041229B5CDBB2202B00D00AE1FB68402255
:1029D0009B5C012B01D1022304E1FB684022012111
:1029E0009954FEF745FF03003B6180231902F86804
:1029F0003B6900931923012201F054FB031E01D00F
:102A00000123EFE0FB68412221219954FB68422217
:102A100010219954FB6800225A64FB687A685A6254
:102A2000FB680822BA1812885A85FB6800225A638C
:102A3000FB685B8D9BB2FF2B06D9FB68FF221A85D2
:102A400080235B047B6107E0FB685B8D9AB2FB68C7
:102A50001A8580239B047B61FB681B8D002B27D08C
:102A6000FB685B6A1A78FB681B689A62FB685B6AA2
:102A70005A1CFB685A62FB685B8D9BB2013B9AB2A1
:102A8000FB685A85FB681B8D013B9AB2FB681A856F
:102A9000FB681B8DDBB20133DAB27C690A23FB18B9
:102AA0001988F868514B0093230001F07BFD6FE01B
:102AB000FB681B8DDAB27C690A23FB181988F86859
:102AC0004A4B0093230001F06DFD61E03A69B96A59
:102AD000FB68180001F03EFB031E01D0012381E0DA
:102AE000FB685B6A1A78FB681B689A62FB685B6A22
:102AF0005A1CFB685A62FB685B8D9BB2013B9AB221
:102B0000FB685A85FB681B8D013B9AB2FB681A85EE
:102B1000FB685B8D9BB2002B3AD0FB681B8D002BB2
:102B200036D1BA6AF8683B6900931300002280210D
:102B300001F0B8FA031E01D0012353E0FB685B8D5E
:102B40009BB2FF2B11D9FB68FF221A85FB681B8DF6
:102B5000DAB280235C040A23FB181988F868002382
:102B60000093230001F01EFD12E0FB685B8D9AB21A
:102B7000FB681A85FB681B8DDAB280239C040A234C
:102B8000FB181988F86800230093230001F00AFD60
:102B9000FB685B8D9BB2002B98D13A69B96AFB68E0
:102BA000180001F01DFB031E01D001231AE0FB6891
:102BB0001B682022DA61FB681B685A68FB681B6887
:102BC0000B490A405A60FB68412220219954FB6856
:102BD000422200219954FB6840220021995400238D
:102BE00000E002231800BD4607B090BD0020008021
:102BF00000E800FE90B589B002AFF86008007A6086
:102C000019000A23FB18021C1A800823FB180A1C4F
:102C10001A80FB6841229B5CDBB2202B00D0E8E0ED
:102C2000FB6840229B5C012B01D10223E2E0FB68A0
:102C3000402201219954FEF71BFE03007B61802393
:102C40001902F8687B6900931923012201F02AFA1E
:102C5000031E01D00123CDE0FB68412222219954BB
:102C6000FB68422210219954FB6800225A64FB68D9
:102C70007A685A62FB680822BA1812885A85FB687B
:102C800000225A63FB685B8D9BB2FF2B11D9FB6856
:102C9000FF221A85FB681B8DDAB280235C040A23AD
:102CA000FB181988F868554B0093230001F07AFC53
:102CB00076E0FB685B8D9AB2FB681A85FB681B8D1A
:102CC000DAB280239C040A23FB181988F8684B4B5E
:102CD0000093230001F066FC62E07A69B96AFB6840
:102CE000180001F0C1FA031E01D0012382E0FB6845
:102CF0001B685A6AFB685B6AD2B21A70FB685B6A2F
:102D00005A1CFB685A62FB681B8D013B9AB2FB6838
:102D10001A85FB685B8D9BB2013B9AB2FB685A85B2
:102D2000FB685B8D9BB2002B3AD0FB681B8D002BA0
:102D300036D1BA6AF8687B690093130000228021BB
:102D400001F0B0F9031E01D0012353E0FB685B8D55
:102D50009BB2FF2B11D9FB68FF221A85FB681B8DE4
:102D6000DAB280235C040A23FB181988F868002370
:102D70000093230001F016FC12E0FB685B8D9AB211
:102D8000FB681A85FB681B8DDAB280239C040A233A
:102D9000FB181988F86800230093230001F002FC57
:102DA000FB685B8D9BB2002B97D17A69B96AFB688F
:102DB000180001F015FA031E01D001231AE0FB6888
:102DC0001B682022DA61FB681B685A68FB681B6875
:102DD0000B490A405A60FB68412220219954FB6844
:102DE000422200219954FB6840220021995400237B
:102DF00000E002231800BD4607B090BD002400800B
:102E000000E800FE90B589B002AFF8600C00100039
:102E100019000A23FB18221C1A800823FB18021C25
:102E20001A80BB1D0A1C1A80FB6841229B5CDBB226
:102E3000202B00D00CE1BB6A002B04D02C23FB1804
:102E40001B88002B05D1FB68802292005A64012365
:102E5000FFE0FB6840229B5C012B01D10223F8E0DC
:102E6000FB68402201219954FEF702FD03007B61BB
:102E700080231902F8687B6900931923012201F06D
:102E800011F9031E01D00123E3E0FB684122212157
:102E90009954FB68422240219954FB6800225A64ED
:102EA000FB68BA6A5A62FB682C22BA1812885A85E3
:102EB000FB6800225A63BB1D1C880823FB181A8874
:102EC0000A23FB181988F8687B6901933B6B009310
:102ED000230000F0C1FB031E05D0FB684022002147
:102EE00099540123B5E0FB685B8D9BB2FF2B11D990
:102EF000FB68FF221A85FB681B8DDAB280235C0415
:102F00000A23FB181988F86800230093230001F0B6
:102F100049FB12E0FB685B8D9AB2FB681A85FB687F
:102F20001B8DDAB280239C040A23FB181988F868E9
:102F300000230093230001F035FB7A69396BFB68AD
:102F4000180001F007F9031E01D0012381E0FB689E
:102F50005B6A1A78FB681B689A62FB685B6A5A1C9A
:102F6000FB685A62FB685B8D9BB2013B9AB2FB68BF
:102F70005A85FB681B8D013B9AB2FB681A85FB687A
:102F80005B8D9BB2002B3AD0FB681B8D002B36D19A
:102F90003A6BF8687B69009313000022802101F0EE
:102FA00081F8031E01D0012353E0FB685B8D9BB2C7
:102FB000FF2B11D9FB68FF221A85FB681B8DDAB243
:102FC00080235C040A23FB181988F8680023009307
:102FD000230001F0E7FA12E0FB685B8D9AB2FB6810
:102FE0001A85FB681B8DDAB280239C040A23FB1828
:102FF0001988F86800230093230001F0D3FAFB68D6
:103000005B8D9BB2002B98D17A69396BFB681800F5
:1030100001F0E6F8031E01D001231AE0FB681B68EB
:103020002022DA61FB681B685A68FB681B680B4941
:103030000A405A60FB68412220219954FB684222D1
:1030400000219954FB68402200219954002300E09C
:1030500002231800BD4607B090BDC04600E800FE40
:1030600090B589B002AFF8600C00100019000A2377
:10307000FB18221C1A800823FB18021C1A80BB1D97
:103080000A1C1A80FB6841229B5CDBB2202B00D01B
:1030900010E1BB6A002B04D02C23FB181B88002BEB
:1030A00005D1FB68802292005A64012303E1FB688A
:1030B00040229B5C012B01D10223FCE0FB684022F3
:1030C00001219954FEF7D4FB03007B618023190290
:1030D000F8687B6900931923012200F0E3FF031EC7
:1030E00001D00123E7E0FB68412222219954FB68CB
:1030F000422240219954FB6800225A64FB68BA6A54
:103100005A62FB682C22BA1812885A85FB68002282
:103110005A63BB1D1C880823FB181A880A23FB1856
:103120001988F8687B6901933B6B0093230000F0DA
:10313000F7FA031E05D0FB684022002199540123B1
:10314000B9E0FB685B8D9BB2FF2B11D9FB68FF22B6
:103150001A85FB681B8DDAB280235C040A23FB18F6
:103160001988F868564B0093230001F01BFA12E00F
:10317000FB685B8D9AB2FB681A85FB681B8DDAB21F
:1031800080239C040A23FB181988F8684C4B009391
:10319000230001F007FA3A6BF8687B69009313008B
:1031A0000022042100F07EFF031E01D0012382E0F3
:1031B000FB681B685A6AFB685B6AD2B21A70FB68CC
:1031C0005B6A5A1CFB685A62FB681B8D013B9AB212
:1031D000FB681A85FB685B8D9BB2013B9AB2FB686A
:1031E0005A85FB685B8D9BB2002B3AD0FB681B8D28
:1031F000002B36D13A6BF8687B69009313000022EC
:10320000802100F04FFF031E01D0012353E0FB6833
:103210005B8D9BB2FF2B11D9FB68FF221A85FB68DF
:103220001B8DDAB280235C040A23FB181988F86826
:1032300000230093230001F0B5F912E0FB685B8DD9
:103240009AB2FB681A85FB681B8DDAB280239C0456
:103250000A23FB181988F86800230093230001F063
:10326000A1F9FB685B8D9BB2002B94D17A69396B15
:10327000FB68180000F0B4FF031E01D001231AE020
:10328000FB681B682022DA61FB681B685A68FB68D0
:103290001B680C490A405A60FB684122202199545E
:1032A000FB68422200219954FB6840220021995476
:1032B000002300E002231800BD4607B090BDC046C1
:1032C0000024008000E800FE80B584B000AF786084
:1032D0007B681B689B69FB607B681B681B68BB6025
:1032E0007B685B6B002B05D07B685B6BBA68F96809
:1032F00078689847C046BD4604B080BD80B586B0AA
:1033000000AF78607B681B689B697B617B681B688A
:103310001B683B617B691B0A1A000123134010D014
:103320003B69DB091A00012313400AD07B685B6C00
:1033300001221A437B685A647B681B688022520012
:10334000DA617B699B0A1A000123134010D03B69A4
:10335000DB091A00012313400AD07B685B6C08224A
:103360001A437B685A647B681B688022D200DA614A
:103370007B695B0A1A000123134010D03B69DB090B
:103380001A00012313400AD07B685B6C02221A43A7
:103390007B685A647B681B6880229200DA617B68D4
:1033A0005B6CFB60FB680B22134005D0FA687B68FE
:1033B0001100180000F00AFDC046BD4606B080BDF1
:1033C00080B582B000AF7860C046BD4602B080BD17
:1033D00080B582B000AF7860C046BD4602B080BD07
:1033E00080B582B000AF786008001100FB1C021CA1
:1033F0001A703B000A1C1A80C046BD4602B080BD50
:1034000080B582B000AF7860C046BD4602B080BDD6
:1034100080B582B000AF7860C046BD4602B080BDC6
:1034200080B582B000AF7860C046BD4602B080BDB6
:1034300080B586B000AFF860B9607A60FB68DB6A7F
:103440007B61BB683B61FB6840229B5C012B01D127
:103450000223FBE0FB684022012199543B695B0990
:103460001A00012313400CD07B685B091A0001236A
:10347000134006D03A69FB681100180000F0BCFA4E
:10348000DFE03B691B091A000123134054D07B681D
:103490001B091A00012313404ED0FB685B8D9BB2C1
:1034A000002B2DD1FB6841229B5CDBB2282B0BD17A
:1034B0007A6980239B049A4206D13A69FB6811001D
:1034C000180000F029FC36E0FB6841229B5CDBB26F
:1034D000292B10D17B695F4A93420CD0FB681B6893
:1034E0001022DA61FB68180000F09BFDFB681800F1
:1034F00000F01CFA1FE0FB681B681022DA619DE0F7
:10350000FB681B681022DA61FB685B6C04221A43BB
:10351000FB685A647B69002B05D07A6980235B04C1
:103520009A4200D08AE0FB685A6CFB6811001800D0
:1035300000F04CFC82E081E03B699B081A0001230B
:10354000134031D07B689B081A00012313402BD015
:10355000FB685B8D9BB2002B18D0FB681B685A6A16
:10356000FB685B6AD2B21A70FB685B6A5A1CFB6824
:103570005A62FB681B8D013B9AB2FB681A85FB6897
:103580005B8D9BB2013B9AB2FB685A85FB685B8DF1
:103590009BB2002B54D17B692E4A934250D0FB68DA
:1035A000180000F0C3F94BE03B69DB081A00012367
:1035B00013400CD07B68DB081A000123134006D0AF
:1035C0003A69FB681100180000F00CF939E03B691A
:1035D0005B081A000123134033D07B685B081A0094
:1035E000012313402DD0FB685B8D9BB2002B18D0BC
:1035F000FB685B6A1A78FB681B689A62FB685B6A07
:103600005A1CFB685A62FB685B8D9BB2013B9AB205
:10361000FB685A85FB681B8D013B9AB2FB681A85D3
:103620000FE07A6980235B049A4202D07B69002B09
:1036300007D1FB68180000F079F902E0C04600E00D
:10364000C046FB6840220021995400231800BD4663
:1036500006B080BD0000FFFFB0B586B002AFF860D5
:103660000C00100019000A257B19221C1A8008235F
:10367000FB18021C1A80BB1D0A1C1A80BB1D1B886C
:10368000DAB280235C047B191988F868234B009315
:10369000230000F087FF7A6A396AFB68180000F09F
:1036A00059FD031E01D0012333E0BB1D1B88012BF4
:1036B00007D10823FB181B88DAB2FB681B689A62E3
:1036C00019E00823FB181B881B0A9BB2DAB2FB68BF
:1036D0001B689A627A6A396AFB68180000F03AFD42
:1036E000031E01D0012314E00823FB181B88DAB263
:1036F000FB681B689A623A6AF8687B6A0093130059
:103700000022802100F0CEFC031E01D0012300E046
:1037100000231800BD4604B0B0BDC04600200080A4
:10372000B0B586B002AFF8600C00100019000A2591
:103730007B19221C1A800823FB18021C1A80BB1D4F
:103740000A1C1A80BB1D1B88DAB27B191988F8681D
:10375000234B0093002300F025FF7A6A396AFB6847
:10376000180000F0F7FC031E01D0012333E0BB1D5D
:103770001B88012B07D10823FB181B88DAB2FB68D2
:103780001B689A6219E00823FB181B881B0A9BB26E
:10379000DAB2FB681B689A627A6A396AFB681800B9
:1037A00000F0D8FC031E01D0012314E00823FB180D
:1037B0001B88DAB2FB681B689A623A6AF8687B6A0F
:1037C000009313000022402100F06CFC031E01D086
:1037D000012300E000231800BD4604B0B0BDC04680
:1037E00000200080B0B584B000AF786039607B689D
:1037F00041229B5CDBB21A0028231340282B00D007
:1038000088E07B681B689B691B0CDAB20F257B196B
:1038100001210A401A707B681B689B691B0C9AB2D5
:103820000C203B18FE210A401A807B681B689B68AD
:103830009AB20A243B199205920D1A807B681B6884
:10384000DB689AB20823FB18FE210A401A807B68C5
:10385000DB68022B48D121007B181B88DB099AB258
:103860003B181B8853409BB21A000623134020D1FB
:103870003B187A1812881A807B689B6C5A1C7B68EC
:103880009A647B689B6C022B4CD17B6800229A6403
:103890007B681B680822DA617B684022002199540A
:1038A0003B181A887B1919787B681800FFF798FD78
:1038B00038E00C243B190822BA1812881A80802399
:1038C0001A027B681100180000F0A6FE7B684022F7
:1038D000002199543B191A880F23FB1819787B682B
:1038E0001800FFF77DFD1DE080231A027B681100A0
:1038F000180000F091FE7B684022002199540C23AF
:10390000FB181A880F23FB1819787B681800FFF73B
:1039100067FD07E07B681B680822DA617B6840224C
:1039200000219954C046BD4604B0B0BD80B584B0F6
:1039300000AF78607B681B681B68FB607B68422275
:1039400000219954FB689B0B1A000123134008D0F7
:103950007B681B681A687B681B6825490A401A60E7
:103960000DE0FB68DB0B1A000123134007D07B68D6
:103970001B681A687B681B681E490A401A607B68CE
:1039800041229B5CDBB2292B14D17B684122282188
:1039900099547B6821221A637B680121180000F08A
:1039A0003BFE7B684022002199547B681800FFF79A
:1039B00007FD19E07B6841229B5CDBB22A2B13D107
:1039C0007B684122282199547B6822221A637B68F4
:1039D0000221180000F020FE7B684022002199544B
:1039E0007B681800FFF7F4FCC046BD4604B080BDFC
:1039F000FFBFFFFFFF7FFFFF80B586B000AF78609D
:103A000039607B681B681B683B613B687B617B6836
:103A1000DB6AFB600B203B187A684121525C1A700C
:103A20007B681B682022DA613B181B78212B03D0AE
:103A30003B181B78292B09D1B04A7B68110018006C
:103A400000F0EAFD7B6821221A6320E00B22BB18FC
:103A50001B78222B03D0BB181B782A2B09D1A84A2C
:103A60007B681100180000F0D7FD7B6822221A63E2
:103A70000DE00B23FB181B78282B08D1A14A7B688B
:103A80001100180000F0C8FD7B6800221A637B68F3
:103A90001B685A687B681B68802109020A435A60C8
:103AA0007B681B685A687B681B6897490A405A60A4
:103AB0007B68180000F0B5FA3B699B0B1A000123E4
:103AC000134013D07B681B681A687B681B688F499A
:103AD0000A401A607B689B6B002B20D07B689B6B35
:103AE0001B685B689AB27B685A8518E03B69DB0B00
:103AF0001A000123134012D07B681B681A687B6888
:103B00001B6883490A401A607B68DB6B002B06D078
:103B10007B68DB6B1B685B689AB27B685A857B6944
:103B20009B081A000123134020D07B690422934391
:103B30007B617B681B685A6A7B685B6AD2B21A70C9
:103B40007B685B6A5A1C7B685A627B681B8D002B02
:103B50000CD07B681B8D013B9AB27B681A857B6811
:103B60005B8D9BB2013B9AB27B685A857B685B8D0B
:103B70009BB2002B05D07B685B6C04221A437B68E8
:103B80005A647B691B091A000123134051D03B6919
:103B90001B091A00012313404BD07B685B8D9BB23D
:103BA000002B2DD17B6841229B5CDBB2282B0BD1F3
:103BB000FA6880239B049A4206D17A697B681100D7
:103BC000180000F0A9F834E07B6841229B5CDBB26E
:103BD000292B10D1FB684F4A93420CD07B681B689D
:103BE0001022DA617B68180000F01BFA7B6818006D
:103BF000FFF79CFE1DE07B681B681022DA6118E06D
:103C00007B681B681022DA617B685B6C04221A43B4
:103C10007B685A64FB68002B04D0FA6880235B043D
:103C20009A4206D17B685A6C7B681100180000F03C
:103C3000CDF87B684222002199547B6800225A63A8
:103C40007B685B6C002B13D07B685A6C7B6811001F
:103C5000180000F0BBF87B6841229B5CDBB2282B8C
:103C600047D17A697B681100180000F055F840E0F0
:103C70007B68DB6A274A934216D07B681800FFF7FF
:103C800055FE7B68234ADA627B68412220219954E1
:103C90007B6800221A637B684022002199547B686C
:103CA0001800FFF7ADFB24E07B6841229B5CDBB290
:103CB000222B0FD17B684122202199547B6800225E
:103CC0001A637B684022002199547B681800FFF733
:103CD0007FFB0EE07B684122202199547B68002203
:103CE0001A637B684022002199547B681800FFF713
:103CF00067FBC046BD4606B080BDC04601800000DF
:103D0000028000000380000000E800FEFFBFFFFF0C
:103D1000FF7FFFFF0000FFFF80B582B000AF78603B
:103D200039607B68274ADA627B6800221A637B6805
:103D30004122202199547B684222002199547B68BA
:103D400000225A633B689B081A000123134022D0CB
:103D50007B681B685A6A7B685B6AD2B21A707B68A0
:103D60005B6A5A1C7B685A627B681B8D002B12D0E1
:103D70007B681B8D013B9AB27B681A857B685B8DE3
:103D80009BB2013B9AB27B685A857B685B6C0422CC
:103D90001A437B685A640C4A7B681100180000F0D3
:103DA0003BFC7B681B681022DA617B6840220021A3
:103DB00099547B681800FFF723FBC046BD4602B04C
:103DC00080BDC0460000FFFF0380000080B584B0C6
:103DD00000AF786039600F203B187A684121525C4F
:103DE0001A707B684222002199547B68724ADA6219
:103DF0007B6800225A857B685A6C3B681A437B6853
:103E00005A643B181B78282B07D03B181B78292BAA
:103E100003D03B181B782A2B0CD17B680321180098
:103E200000F0FAFB7B684122282199547B68634AA1
:103E30005A6332E0624A7B681100180000F0ECFB24
:103E40007B68180000F0EDF87B6841229B5CDBB2D8
:103E5000602B1FD07B684122202199547B681B680E
:103E60009B6920221340202B14D17B681B689B691F
:103E700010221340102B09D17B681B681022DA61D5
:103E80007B685B6C04221A437B685A647B681B68FE
:103E90002022DA617B6800225A637B681B6BBB605F
:103EA0007B689B6B002B3BD0BB68112B02D0BB689F
:103EB000212B35D17B681B681A688023DB011A40EF
:103EC0008023DB019A4207D17B681B681A687B68F4
:103ED0001B683C490A401A607B689B6B1800FEF720
:103EE000EDFA0300012B16D07B689B6B364A9A6370
:103EF0007B684022002199547B689B6B1800FEF779
:103F000073FA031E51D07B689B6B9A6B7B689B6B2B
:103F10001800904749E07B68180000F059F844E029
:103F20007B68DB6B002B3BD0BB68122B02D0BB68DD
:103F3000222B35D17B681B681A6880231B021A402C
:103F400080231B029A4207D17B681B681A687B6832
:103F50001B681E490A401A607B68DB6B1800FEF77D
:103F6000ADFA0300012B16D07B68DB6B164A9A630F
:103F70007B684022002199547B68DB6B1800FEF7B8
:103F800033FA031E13D07B68DB6B9A6B7B68DB6BA9
:103F9000180090470BE07B68180000F019F806E065
:103FA0007B68180000F014F802E0C04600E0C0464C
:103FB000C046BD4604B080BD0000FFFF313400089C
:103FC00003800000FFBFFFFF67400008FF7FFFFF87
:103FD00080B582B000AF78607B6841229B5CDBB229
:103FE000602B0FD17B684122202199547B680022ED
:103FF0001A637B684022002199547B681800FFF700
:104000000FFA0AE07B6800221A637B6840220021D5
:1040100099547B681800FFF7FBF9C046BD4602B013
:1040200080BD80B582B000AF78607B681B689B69FB
:1040300002221340022B03D17B681B6800229A6284
:104040007B681B689B6901221340012B07D07B68AA
:104050001B689A697B681B6801210A439A61C04604
:10406000BD4602B080BD80B584B000AF78607B688B
:104070009B6AFB60FB689B6B002B03D0FB689B6B10
:1040800000229A63FB68DB6B002B03D0FB68DB6BC1
:1040900000229A63FB681800FFF79AFFC046BD46EE
:1040A00004B080BD80B584B000AFF860B9603B60FB
:1040B000FB1D1A703AE0BA693968FB68180000F015
:1040C00071F9031E01D0012340E03B6801332DD07C
:1040D000FDF7CEFB0200BB69D31A3A689A4202D3BD
:1040E0003B68002B22D1FB681B689B69BA681340B0
:1040F000BA68D31A5A425341DBB21A00FB1D1B782F
:104100009A4213D1FB685B6C20221A43FB685A6405
:10411000FB68412220219954FB68422200219954D6
:10412000FB6840220021995401230FE0FB681B68C3
:104130009B69BA681340BA68D31A5A425341DBB23A
:104140001A00FB1D1B789A42B5D000231800BD460B
:1041500004B080BD80B584B000AFF860B9607A600B
:1041600032E07A68B968FB68180000F01BF9031E9A
:1041700001D0012330E0BB68013325D0FDF778FB87
:1041800002007B68D31ABA689A4202D3BB68002B3C
:104190001AD1FB681B689B6902221340022B13D0C3
:1041A000FB685B6C20221A43FB685A64FB6841225F
:1041B00020219954FB68422200219954FB68402237
:1041C00000219954012307E0FB681B689B690222C8
:1041D0001340022BC5D100231800BD4604B080BD9A
:1041E00080B584B000AFF860B9607A602FE07A687B
:1041F000B968FB68180000F0D5F8031E01D0012350
:104200002DE0FDF735FB02007B68D31ABA689A42AD
:1042100002D3BB68002B1AD1FB681B689B69202264
:104220001340202B13D0FB685B6C20221A43FB68E1
:104230005A64FB68412220219954FB6842220021E4
:104240009954FB68402200219954012307E0FB6840
:104250001B689B6920221340202BC8D10023180023
:10426000BD4604B080BD000080B586B000AFF860E8
:10427000B9607A601723FB1800221A707BE07A6815
:10428000B968FB68180000F08DF8031E03D01723EF
:10429000FB1801221A70FB681B689B6920221340DF
:1042A000202B40D117217B181B78002B3BD1FB68BA
:1042B0001B689B6904221340042B06D1FB681B8DED
:1042C000002B02D07B1800221A70FB681B689B69C8
:1042D00010221340102B23D1FB681B681022DA61D7
:1042E000FB6804225A64FB681B682022DA61FB68C1
:1042F0001B685A68FB681B6829490A405A60FB68BA
:10430000412220219954FB68422200219954FB68E4
:104310004022002199541723FB1801221A7002E051
:10432000FB6800225A64FDF7A3FA02007B68D31AE7
:10433000BA689A4202D3BB68002B1CD117203B18E5
:104340001B78002B17D1FB681B689B690422134064
:10435000042B10D0FB685B6C20221A43FB685A6464
:10436000FB68412220219954FB6840220021995486
:104370003B1801221A70FB681B689B6904221340DA
:10438000042B05D01723FB181B78002B00D176E7F0
:104390001723FB181B781800BD4606B080BDC04629
:1043A00000E800FE90B58BB000AFF860B9607A60AD
:1043B0002723FB1800221A70FB681B689B69BB61EE
:1043C00000233B627B68FB61BB691022134000D174
:1043D00082E0FB681B681022DA6160E027243B1949
:1043E0003A1912781A70BB68013358D0FDF740FAB9
:1043F0000200FB69D31ABA689A4206D33B193A19EC
:1044000012781A70BB68002B49D1FB681B685A6888
:104410008023DB0113407B6113203B18FA684221A3
:10442000525C1A70FB681B689A6980231B021A4051
:1044300080231B029A4226D17A698023DB019A42AB
:1044400021D03B181B78202B1DD0FB681B685A68B5
:10445000FB681B688021C9010A435A60FDF708FA0E
:104460000300FB610FE0FDF703FA0200FB69D31ABA
:10447000192B08D93B6A202213433B622723FB18E0
:1044800001221A700BE0FB681B689B692022134015
:1044900027217A18791809781170202BE3D1FB684D
:1044A0001B689B6920221340202B04D02723FB1874
:1044B0001B78002B92D02723FB181B78002B03D1ED
:1044C000FB681B682022DA613B6A042213433B62CB
:1044D0002723FB1801221A70FB681B689B69BB61CC
:1044E000BA6980235B0013400CD03B6A012213435E
:1044F0003B62FB681B6880225200DA612723FB18AD
:1045000001221A70BA698023DB0013400CD03B6A89
:10451000082213433B62FB681B688022D200DA61E9
:104520002723FB1801221A70BA6980239B001340CD
:104530000CD03B6A022213433B62FB681B6880225B
:104540009200DA612723FB1801221A702723FB1837
:104550001B78002B1DD0FB681800FFF762FDFB687D
:104560001B685A68FB681B680D490A405A60FB6863
:104570005A6C3B6A1A43FB685A64FB68412220214B
:104580009954FB68422200219954FB684022002183
:1045900099542723FB181B781800BD460BB090BD1B
:1045A00000E800FE90B587B000AFF8600800110089
:1045B0007B600A243B19021C1A8009203B180A1C44
:1045C0001A703B191B889B059A0D3B181B78190420
:1045D000FF231B040B401A437B681A43BB6A134337
:1045E0005B005B087B61FB681B685B68BA6A510D06
:1045F0008022D2000A4007490A43D2431A401100E0
:10460000FB681B687A690A435A60C046BD4607B01A
:1046100090BDC046FF63FF0380B584B000AF7860F3
:104620000A00BB1C1A800023FB60BB1C1B880122F4
:10463000134010D0FB6842221343FB607B68412289
:104640009B5CDBB21A0028231340282B03D0FB68A5
:10465000B0221343FB60BB1C1B880222134010D006
:10466000FB6844221343FB607B6841229B5CDBB206
:104670001A0028231340282B03D0FB68B0221343D1
:10468000FB60BB1C00229B5E002B03DAFB68B82298
:104690001343FB60BB1C1B88102B03D1FB689022CB
:1046A0001343FB60BB1C1B88202B03D1FB6820221B
:1046B0001343FB60BB1C1B88402B03D1FB684022CB
:1046C0001343FB607B681B681A68FB68D9437B68EF
:1046D0001B680A401A60C046BD4604B080BD000099
:1046E00080B582B000AF786039607B6841229B5C06
:1046F000DBB2202B38D17B6840229B5C012B01D19F
:10470000022332E07B684022012199547B684122D8
:10471000242199547B681B681A687B681B680121F7
:104720008A431A607B681B681A687B681B6811499A
:104730000A401A607B681B6819687B681B683A68C6
:104740000A431A607B681B681A687B681B68012132
:104750000A431A607B684122202199547B684022D9
:1047600000219954002300E002231800BD4602B046
:1047700080BDC046FFEFFFFF80B584B000AF78601A
:1047800039607B6841229B5CDBB2202B39D17B688E
:1047900040229B5C012B01D1022333E07B68402245
:1047A000012199547B684122242199547B681B681C
:1047B0001A687B681B6801218A431A607B681B6842
:1047C0001B68FB60FB68114A1340FB603B681B02DF
:1047D000FA681343FB607B681B68FA681A607B68A1
:1047E0001B681A687B681B6801210A431A607B6892
:1047F0004122202199547B684022002199540023B2
:1048000000E002231800BD4604B080BDFFF0FFFFAA
:1048100080B584B000AF7860194B1B68194A13400B
:104820001900174B7A680A431A607A6880239B0044
:104830009A421FD1144B1A6813005B009B185B004F
:1048400012491800FBF772FC03000133FB6008E01B
:10485000FB68002B03D0FB68013BFB6001E00323F6
:1048600009E0074B5A698023DB001A408023DB00F4
:104870009A42EDD000231800BD4604B080BDC0466A
:1048800000700040FFF9FFFF0000002040420F00D1
:1048900080B500AF034B9A68E023DB01134018009A
:1048A000BD4680BD0010024080B588B000AF786082
:1048B0007B68002B01D10123F3E27B681B68012296
:1048C000134000D17CE0C34B9B6838221340BB618E
:1048D000C04BDB68032213407B61BB69102B02D104
:1048E0007B69032B02D0BB69082B0BD1B94B1A682B
:1048F00080239B02134062D07B685B68002B5ED1F3
:104900000123CEE27B685A6880235B029A4207D17A
:10491000B04B1A68AF4B802149020A431A6020E06D
:104920007B685A68A023DB029A420ED1A94B1A6811
:10493000A84B8021C9020A431A60A64B1A68A54BEE
:10494000802149020A431A600BE0A24B1A68A14B6E
:10495000A1490A401A609F4B1A689E4B9F490A4022
:104960001A607B685B68002B14D0FCF781FF0300A2
:104970003B6108E0FCF77CFF02003B69D31A642B23
:1049800001D903238DE2934B1A6880239B021340C5
:10499000F0D015E0FCF76CFF03003B6108E0FCF78A
:1049A00067FF02003B69D31A642B01D9032378E225
:1049B000884B1A6880239B021340F0D100E0C04668
:1049C0007B681B680222134000D199E0814B9B68F1
:1049D00038221340BB617F4BDB68032213407B61AD
:1049E000BB69102B02D17B69022B02D0BB69002B63
:1049F00035D1784B1A688023DB00134005D07B68E3
:104A0000DB68002B01D101234BE2724B5B68744AD7
:104A1000134019007B685B691A026E4B0A435A60A7
:104A2000BB69002B12D16B4B1B686E4A13401900F7
:104A30007B681A69674B0A431A60664B1B68DB0A7E
:104A400007221340684ADA40684B1A60684B1B68BB
:104A50001800FCF795F8031E51D0012321E27B6872
:104A6000DB68002B30D05B4B1B685E4A134019009B
:104A70007B681A69574B0A431A60564B1A68554BA4
:104A8000802149000A431A60FCF7F2FE03003B61F3
:104A900008E0FCF7EDFE02003B69D31A022B01D9B6
:104AA0000323FEE14B4B1A688023DB001340F0D058
:104AB000484B5B684A4A134019007B685B691A02DD
:104AC000444B0A435A601BE0424B1A68414B494928
:104AD0000A401A60FCF7CCFE03003B6108E0FCF7DB
:104AE000C7FE02003B69D31A022B01D90323D8E188
:104AF000384B1A688023DB001340F0D100E0C04639
:104B00007B681B680822134047D0324B9B683822D1
:104B10001340182B0AD12F4B1B6E022213403CD09E
:104B20007B689B69002B38D10123BAE17B689B69C4
:104B3000002B19D0274B1A6E264B01210A431A6607
:104B4000FCF796FE03003B6108E0FCF791FE0200D3
:104B50003B69D31A022B01D90323A2E11D4B1B6E23
:104B600002221340F1D018E01A4B1A6E194B0121A2
:104B70008A431A66FCF77CFE03003B6108E0FCF701
:104B800077FE02003B69D31A022B01D9032388E187
:104B9000104B1B6E02221340F1D17B681B6804226C
:104BA000134000D1C6E01F23FB1800221A70094BE6
:104BB0009B6838221340202B1ED1064BDB6D02224E
:104BC000134000D1B6E07B689B68002B00D0B1E0B9
:104BD000012366E100100240FFFFFEFFFFFFFBFF25
:104BE000FF80FFFFFFC7FFFF0024F400000000204C
:104BF00004000020FFFEFFFFAC4BDA6B80235B0557
:104C0000134001D1012300E00023002B11D0A74B5A
:104C1000DA6BA64B802149050A43DA63A34BDA6BB2
:104C200080235B051340FB60FB681F23FB180122F8
:104C30001A709F4B1A6880235B0013401AD19C4B5B
:104C40001A689B4B802149000A431A60FCF710FE4A
:104C500003003B6108E0FCF70BFE02003B69D31A3E
:104C6000022B01D903231CE1914B1A6880235B00BE
:104C70001340F0D07B689B68012B06D18B4BDA6D1B
:104C80008A4B01210A43DA651CE07B689B68052B8F
:104C90000CD1864BDA6D854B04210A43DA65834BD0
:104CA000DA6D824B01210A43DA650BE07F4BDA6D46
:104CB0007E4B01218A43DA657C4BDA6D7B4B042104
:104CC0008A43DA657B689B68002B14D0FCF7D0FD23
:104CD00003003B6109E0FCF7CBFD02003B69D31AFE
:104CE000744A934201D90323DBE0704BDB6D02224F
:104CF0001340F0D013E0FCF7BBFD03003B6109E07B
:104D0000FCF7B6FD02003B69D31A6A4A934201D907
:104D10000323C6E0654BDB6D02221340F0D11F2355
:104D2000FB181B78012B05D1604BDA6B5F4B624996
:104D30000A40DA637B68DB69002B00D1B0E05B4B93
:104D40009B6838221340102B00D178E07B68DB6928
:104D5000022B53D1554B1A68544B58490A401A60DC
:104D6000FCF786FD03003B6108E0FCF781FD0200D3
:104D70003B69D31A022B01D9032392E04B4B1A68EB
:104D800080239B041340F0D1484BDB684C4A13400E
:104D900019007B681A6A7B685B6A1A437B689B6AA6
:104DA0001B021A437B68DB6A1A437B681B6B1A433E
:104DB0003E4B0A43DA603D4B1A683C4B8021490464
:104DC0000A431A60394BDA68384B802149050A4397
:104DD000DA60FCF74DFD03003B6108E0FCF748FD9D
:104DE00002003B69D31A022B01D9032359E02F4B50
:104DF0001A6880239B041340F0D051E02B4B1A68B3
:104E00002A4B2E490A401A60FCF732FD03003B6131
:104E100008E0FCF72DFD02003B69D31A022B01D9F3
:104E200003233EE0214B1A6880239B041340F0D1FA
:104E30001E4BDA681D4B23490A40DA6030E07B687C
:104E4000DB69012B01D101232BE0184BDB687B616F
:104E50007B6903221A407B681B6A9A421ED17B69D8
:104E600070221A407B685B6A9A4217D17A69FE23E6
:104E7000DB011A407B689B6A1B029A420ED17A6959
:104E8000F8239B031A407B68DB6A9A4206D17B6950
:104E90005B0F5A077B681B6B9A4201D0012300E02D
:104EA00000231800BD4608B080BDC0460010024077
:104EB0000070004088130000FFFFFFEFFFFFFFFEC0
:104EC0008C80C11FFCFFFEEF80B584B000AF78601E
:104ED00039607B68002B01D10123E9E0764B1B6828
:104EE000072213403A689A421ED9734B1B68072267
:104EF00093431900704B3A680A431A60FCF7B8FCF8
:104F00000300FB6009E0FCF7B3FC0200FB68D31A66
:104F10006A4A934201D90323CAE0674B1B68072200
:104F200013403A689A42EED17B681B680222134014
:104F300015D07B681B680422134006D0604B9A682A
:104F40005F4BE021C9010A439A605D4B9B685D4A53
:104F5000134019007B689A68594B0A439A607B6832
:104F60001B680122134057D07B685B68012B07D177
:104F7000534B1A6880239B0213402BD1012397E0E7
:104F80007B685B68022B07D14D4B1A6880239B041A
:104F900013401FD101238BE07B685B68002B07D196
:104FA000474B1A688023DB00134013D101237FE0B5
:104FB0007B685B68032B06D1414B1B6E02221340BA
:104FC00008D1012374E03E4BDB6D0222134001D176
:104FD00001236DE03A4B9B680722934319007B68DD
:104FE0005A68374B0A439A60FCF742FC0300FB60A7
:104FF00009E0FCF73DFC0200FB68D31A2F4A9342FC
:1050000001D9032354E02E4B9B6838221A407B6859
:105010005B68DB009A42ECD1274B1B6807221340E8
:105020003A689A421ED2244B1B6807229343190008
:10503000214B3A680A431A60FCF71AFC0300FB6034
:1050400009E0FCF715FC0200FB68D31A1B4A9342E7
:1050500001D903232CE0184B1B68072213403A6840
:105060009A42EED17B681B680422134009D0144B8E
:105070009B68154A134019007B68DA68104B0A4395
:105080009A6000F029F801000D4B9B681B0A0F2263
:105090001A400E4B9200D3581F2213400A00DA40E8
:1050A0000B4B1A600B4B1B681800FBF769FD0300E4
:1050B0001800BD4604B080BD0020024088130000E7
:1050C00000100240FFF0FFFFFF8FFFFFDCE0000851
:1050D000000000200400002080B586B000AF3C4BEB
:1050E0009B68382213400FD1394B1B68DB0A07221B
:1050F000134001229A4013003B6039683548FBF7A2
:1051000015F803003B615DE0314B9B68382213408A
:10511000082B02D1304B3B6154E02D4B9B68382269
:105120001340102B38D12A4BDB6803221340FB605D
:10513000274BDB681B09072213400133BB60FB6868
:10514000032B0DD1B9682448FAF7F0FF03001900CA
:105150001F4BDB681B0A7F2213404B437B610DE032
:10516000B9681C48FAF7E2FF03001900184BDB6826
:105170001B0A7F2213404B437B61C046144BDB6804
:105180005B0F0722134001337B6079687869FAF777
:10519000CDFF03003B6115E00D4B9B6838221340A7
:1051A000202B03D180231B023B610BE0084B9B6843
:1051B00038221340182B03D1FA23DB013B6101E0B5
:1051C00000233B613B691800BD4606B080BDC04668
:1051D000001002400024F40000127A0080B500AFF5
:1051E000024B1B681800BD4680BDC0460000002071
:1051F000B0B500AFFFF7F2FF0400FFF749FB030073
:105200001A0B054B9200D3581F221340DC40230099
:105210001800BD46B0BDC0461CE1000880B582B094
:1052200000AF786039607B6807221A600E4B9B687C
:1052300007221A407B685A600B4B9A68F0231B01C7
:105240001A407B689A60084B9A68E023DB011A4099
:105250007B68DA60054B1B6807221A403B681A60BE
:10526000C046BD4602B080BD001002400020024092
:1052700080B586B000AF78601323FB1800221A7047
:105280001223FB1800221A707B681A6880239B0285
:10529000134000D1A3E011203B1800221A70864B66
:1052A000DA6B80235B05134010D1834BDA6B824BA2
:1052B000802149050A43DA637F4BDA6B80235B0563
:1052C0001340BB60BB683B1801221A707B4B1A6805
:1052D0007A4B802149000A431A60FCF7C9FA03009F
:1052E000FB600BE0FCF7C4FA0200FB68D31A022B48
:1052F00004D91323FB1803221A7005E06F4B1A68B8
:1053000080235B001340EDD01323FB181B78002B88
:1053100054D1694BDA6DC0239B0013407B617B69DC
:10532000002B19D07B689B697A699A4214D0624B32
:10533000DB6D634A13407B615F4BDA6D5E4B80210E
:1053400049020A43DA655C4BDA6D5B4B5D490A4002
:10535000DA65594B7A69DA657B690122134016D008
:10536000FCF786FA0300FB600CE0FCF781FA020010
:10537000FB68D31A544A934204D91323FB1803221F
:105380001A7004E04C4BDB6D02221340EDD0132366
:10539000FB181B78002B0AD1474BDB6D484A1340A2
:1053A00019007B689A69444B0A43DA650CE01223C2
:1053B000FB181322BA1812781A7005E01223FB1892
:1053C0001322BA1812781A701123FB181B78012BBC
:1053D00005D1394BDA6B384B3C490A40DA637B68BC
:1053E0001B680122134009D0334B5B6D03229343AA
:1053F00019007B685A68304B0A435A657B681B6802
:105400000222134009D02C4B5B6D0C2293431900F0
:105410007B689A68284B0A435A657B681B68202280
:10542000134009D0244B5B6D294A134019007B6857
:10543000DA68214B0A435A657B681A688023DB01CE
:10544000134015D01C4B5B6D9B0099087B685A6913
:10545000194B0A435A657B685A698023DB059A42D7
:1054600006D1154BDA68144B802149020A43DA60F1
:105470007B681A6880231B01134016D00E4B5B6DAE
:10548000144A134019007B681A690B4B0A435A658A
:105490007B681A698023DB019A4206D1064BDA68E1
:1054A000054B802149020A43DA601223FB181B785E
:1054B0001800BD4606B080BD0010024000700040DC
:1054C000FFFCFFFFFFFFFEFF88130000FFFFFFEF61
:1054D000FFCFFFFFFF3FFFFFB0B584B000AF7860A4
:1054E0000F23FB1801221A707B68002B00D18CE07F
:1054F0007B6829229B5CDBB2002B0BD17B682822C6
:10550000002199547B68882212025A607B68180037
:10551000FBF73EFA7B682922022199547B681B68BD
:10552000DB6810221340102B62D07B681B68CA22F4
:105530005A627B681B6853225A620F257C197B686C
:10554000180000F091F80300237028003B181B7826
:10555000002B2CD17B681B689A697B681B682E49DD
:105560000A409A617B681B6899697B689A687B68C6
:105570005B691A437B68DB691A437B681B680A43D3
:105580009A617B681B687A6812691A617B681B687C
:1055900019697B68DB681A047B681B680A431A6117
:1055A0003C187B68180000F0A1F8030023700F235B
:1055B000FB181B78002B16D17B681B689A697B68E7
:1055C0001B68D200D2089A617B681B6899697B6866
:1055D0005A6A7B681B6A1A437B689B691A437B681B
:1055E0001B680A439A617B681B68FF225A6203E0CA
:1055F0000F23FB1800221A700F23FB181B78002BB7
:1056000003D17B682922012199540F23FB181B78B1
:105610001800BD4604B0B0BDBFFF8FFB80B584B09D
:1056200000AF78607B681B680E4ADA60FCF720F9EF
:105630000300FB600AE0FCF71BF90200FB68D21ACA
:10564000FA239B009A4201D9032306E07B681B687A
:10565000DB6820221340EED000231800BD4604B0C2
:1056600080BDC0465F00010080B584B000AF7860A7
:105670000F23FB1800221A707B681B68DB6840222E
:1056800013402CD17B681B68DA687B681B6880211B
:105690000A43DA60FCF7ECF80300BB6014E0FCF7A7
:1056A000E7F80200BB68D21A0F203B1839180978B6
:1056B0001970FA239B009A4206D93B1803221A70EC
:1056C0007B682922032199547B681B68DB68402290
:1056D000134004D10F23FB181B78032BDFD10F23BA
:1056E000FB181B781800BD4604B080BD90B585B08E
:1056F00000AF78600F243B1900221A701C4BDA6847
:105700001B4B80218A43DA60194B9B69202213408E
:105710000DD17B681800FFF781FF031E21D07B6845
:105720002922032199543B1903221A7019E0104BC6
:105730009A690F4B20218A439A617B681800FFF712
:105740006DFF031E07D07B682922032199540F2384
:10575000FB1803221A70064B9A69054B20210A4355
:105760009A610F23FB181B781800BD4605B090BD49
:105770000028004080B584B000AF78607B68002BC3
:1057800001D10123A8E07B685B6A002B09D17B680B
:105790005A6882235B009A4209D07B680022DA6152
:1057A00005E07B6800221A617B6800225A617B68F1
:1057B00000229A627B685D229B5CDBB2002B07D1E2
:1057C0007B685C22002199547B681800FBF75CF928
:1057D0007B685D22022199547B681B681A687B688C
:1057E0001B6840218A431A607B68DA68E023DB008B
:1057F0009A4202D90023FB6002E080235B01FB6038
:105800007B68DA68F0231B019A4208D07B68DA686B
:10581000E023DB009A4202D07B6800229A627B6818
:105820005A6882235B001A407B68996884231B02B4
:105830000B401A437B681B6902210B401A437B68AB
:105840005B6901210B401A437B68996980239B00A7
:105850000B401A437B68DB6938210B401A437B6895
:105860001B6A80210B401A4311007B689A6A8023CF
:105870009B011A407B681B680A431A607B689B691E
:105880001B0C04221A407B685B6A10210B401A43F0
:105890007B685B6B08210B401A437B68D968F02357
:1058A0001B010B401A431100FA6880235B011A4068
:1058B0007B681B680A435A607B681B68DA697B68EF
:1058C0001B6807490A40DA617B6800221A667B6818
:1058D0005D220121995400231800BD4604B080BD0B
:1058E000FFF7FFFF80B588B000AFF860B9603B609C
:1058F000BB1D1A801F23FB1800221A70FB685C2254
:105900009B5C012B01D1022347E1FB685C22012152
:105910009954FBF7ADFF0300BB611623FB18BA1DBA
:1059200012881A80FB685D229B5CDBB2012B04D0DD
:105930001F23FB1802221A7028E1BB68002B03D03A
:10594000BB1D1B88002B04D11F23FB1801221A70DA
:105950001CE1FB685D2203219954FB6800221A6652
:10596000FB68BA689A63FB68BA1D12889A87FB685D
:10597000BA1D1288DA87FB6800221A64FB68442289
:1059800000219952FB68462200219952FB680022AF
:105990001A65FB680022DA64FB689A6880231B02A0
:1059A0009A4210D1FB681B681A68FB681B6840218B
:1059B0008A431A60FB681B681A68FB681B688021B1
:1059C000C9010A431A60FB681B681B684022134028
:1059D000402B07D0FB681B681A68FB681B684021D6
:1059E0000A431A60FB68DA68E023DB009A4252D966
:1059F000FB685B68002B04D01623FB181B88012B67
:105A000043D1FB689B6B1A88FB681B68DA60FB68F4
:105A10009B6B9A1CFB689A63FB68DB8F9BB2013B14
:105A20009AB2FB68DA8730E0FB681B689B68022249
:105A30001340022B12D1FB689B6B1A88FB681B6812
:105A4000DA60FB689B6B9A1CFB689A63FB68DB8FD0
:105A50009BB2013B9AB2FB68DA8716E0FBF708FFBE
:105A60000200BB69D31A3A689A4202D83B680133F4
:105A700002D13B68002B08D11F23FB1803221A70A8
:105A8000FB685D220121995480E0FB68DB8F9BB2AB
:105A9000002BC9D153E0FB685B68002B04D01623B0
:105AA000FB181B88012B45D1FB689A6BFB681B68B0
:105AB0000C3312781A70FB689B6B5A1CFB689A6354
:105AC000FB68DB8F9BB2013B9AB2FB68DA8731E05F
:105AD000FB681B689B6802221340022B13D1FB68F2
