:020000040800F2
:1000000000900020E15C00086D0900086F090008FD
:1000100000000000000000000000000000000000E0
:10002000000000000000000000000000054800087B
:10003000000000000000000071480008B5480008FA
:10004000315D000800000000315D0008315D0008EE
:10005000315D0008315D0008710900088109000860
:1000600000000000315D000891090008315D0008C2
:10007000315D0008315D0008315D000800000000BE
:10008000A1090008B1090008315D0008C109000894
:10009000D1090008E1090008F1090008010A000877
:1000A000250A0008490A0008315D0008315D000892
:0800B000315D0008590A000847
:1000C00010B5064C2378002B07D1054B002B02D02E
:1000D000044800E000BF0123237010BD1000002081
:1000E00000000000A05D0008044B10B5002B03D0F9
:1000F0000349044800E000BF10BDC04600000000F6
:1001000014000020A05D0008002243088B4274D335
:1001100003098B425FD3030A8B4244D3030B8B4208
:1001200028D3030C8B420DD3FF22090212BA030C11
:100130008B4202D31212090265D0030B8B4219D3F2
:1001400000E0090AC30B8B4201D3CB03C01A524112
:10015000830B8B4201D38B03C01A5241430B8B425A
:1001600001D34B03C01A5241030B8B4201D30B0343
:10017000C01A5241C30A8B4201D3CB02C01A52416A
:10018000830A8B4201D38B02C01A5241430A8B422D
:1001900001D34B02C01A5241030A8B4201D30B0216
:1001A000C01A5241CDD2C3098B4201D3CB01C01A30
:1001B000524183098B4201D38B01C01A524143093A
:1001C0008B4201D34B01C01A524103098B4201D328
:1001D0000B01C01A5241C3088B4201D3CB00C01A95
:1001E000524183088B4201D38B00C01A524143080D
:1001F0008B4201D34B00C01A5241411A00D2014632
:10020000524110467047FFE701B5002000F006F8A4
:1002100002BDC0460029F7D076E770477047C04658
:1002200000B585B00C22002101A805F0B0FD1A48E8
:100230001A4B03608023DB02436000238360C360AA
:10024000036104224261037643768376033AC261F6
:100250001F328354436283620C32835403634363CB
:10026000836310328354C36400F076FF00280CD1FE
:100270000B4B019300230293039301A9064801F05D
:100280008DF8002804D105B000BD00F0CBF9EFE7F0
:1002900000F0C8F9F7E7C0462C0000200024014018
:1002A0000004002810B58EB004001422002109A813
:1002B00005F06DFD1C22002102A805F068FD2268F2
:1002C000164B9A4201D00EB010BD8023DB01029381
:1002D00002A802F087FC00281CD1114B196C802069
:1002E0004003014319641A6C02400092009A596B52
:1002F0000222114359635B6B1A400192019B042354
:100300000993013B0A9300230B9309A9054801F0C7
:1003100043FBD8E700F086F9DFE7C0460024014040
:10032000001002400004005000B583B0094A916BF0
:10033000012319439163926B13400193019B0022A7
:1003400003210A2001F07AF90A2001F0A7F903B08D
:1003500000BDC04600100240F0B5C64600B58AB0E8
:100360001422002105A805F012FD394B5A6B042711
:100370003A435A635A6B3A400092009A596B2022D2
:1003800011435963596B0A400192019A5A6B012635
:1003900032435A635A6B32400292029A5A6B0221DC
:1003A00088460A435A635A6B0A400392039A596B70
:1003B0000822114359635B6B1A400492049BC621C7
:1003C000244D00228900280001F0A2FB0122802197
:1003D000280001F09DFB3823059384239B0306939B
:1003E00000240794A02005A9C00501F0D5FA0597BF
:1003F000C4239B030693079405A9174801F0CCFA80
:10040000E2239B000593069607944346089305A9AB
:10041000280001F0C1FA102305930696079408946A
:1004200005A9280001F0B8FA00220321062001F0F6
:1004300005F9062001F032F900220321072001F01E
:10044000FDF8072001F02AF90AB080BCB846F0BDDB
:100450000010024000040050000C005010B5144879
:10046000144B0360144B4360002383600122C2607D
:10047000036143618361C361036201F0AFFB002844
:100480000CD100210A4801F07BFF002809D100218E
:10049000074801F0A1FF002806D110BD00F0C2F806
:1004A000EFE700F0BFF8F2E700F0BCF8F5E7C04670
:1004B0009000002000540040885D801010B5144862
:1004C000144B0360144B4360002383600122C2601D
:1004D000036143618361C361036201F07FFB002814
:1004E0000CD100210A4801F04BFF002809D100215E
:1004F000074801F071FF002806D110BD00F092F806
:10050000EFE700F08FF8F2E700F08CF8F5E7C0466F
:10051000E400002000580040885D801010B590B0C5
:100520000400142200210BA805F031FC1C2200213C
:1005300004A805F02CFC2368314A934204D0314AC8
:10054000934235D010B010BD2023049304A802F0CC
:1005500049FB002829D12C4C626B01231A436263AA
:10056000626B13400093009BC023DB000B931223AC
:100570000C9300230D930E9306330F93A0200BA929
:10058000C00501F009FAE26B802189030A43E263A6
:10059000E36B0B400193019B00220321172001F024
:1005A0004DF8172001F07AF8CCE700F03BF8D2E7DD
:1005B000154C626B01231A436263626B1340029312
:1005C000029BC0235B010B9312230C930C3B0F93F4
:1005D000A0200BA9C00501F0DFF9E26B8021C9035F
:1005E0000A43E263E36B0B400393039B0022032166
:1005F000182001F023F8182001F050F8A2E7C046B7
:1006000000540040005800400010024010B502683D
:10061000034B9A4200D010BD00F08CFDFBE7C046B2
:100620000040014072B6FEE700B593B034220021CD
:1006300005A805F0ACFB1022002101A805F0A7FBDE
:100640008020800001F0FCFE01F0F0FE1849CB6D27
:1006500018229343CB650523059380235B02069301
:100660000123079301330C9301330D9300230E9361
:100670000F92E0231B031093C023DB05119305A801
:1006800001F008FF00280ED107230193053B0293D8
:10069000002303930493012101A802F0A9F9002883
:1006A00003D113B000BDFFF7BDFFFFF7BBFFC0468E
:1006B0000010024010B500F029FDFFF7B5FFFFF76D
:1006C0004BFEFFF731FE00F067F8FFF7A9FDFFF7DB
:1006D000C5FEFFF7F3FE00F011F800F08BFB00F011
:1006E000C5F900F00BFC00F045FC00F02DFA00F01D
:1006F00097FC00F0FDF900F0F1FCFEE710B50C48A6
:100700000C4B0360002383607F22C2608032026151
:1007100043618361C3618022D2050262436202F0B9
:100720008FFB002800D110BDFFF77CFFFBE7C04620
:10073000380100200028004010B588B004001C22B9
:10074000002101A805F023FB2268114B9A4201D039
:1007500008B010BD80239B02019380235B000793A8
:1007600001A802F03FFA00280FD10A4BD96D802270
:1007700012020A43DA65DA6B8021C9000A43DA63A0
:10078000DB6B0B400093009BE2E7FFF74BFFECE7CE
:10079000002800400010024010B51148114B0360C2
:1007A00082235B00436000238360E022D200C260AA
:1007B00003614361802292008261E93AFF3AC2619B
:1007C000036243628362113AC26203630833436384
:1007D00002F092FB002800D110BDFFF723FFFBE7DA
:1007E000C00100200030014030B589B0040014225F
:1007F000002103A805F0CBFA214B22689A4201D0D0
:1008000009B030BD1F4B1A6C80256D012A431A6454
:100810001A6C2A400192019A596B012211435963C3
:100820005B6B1A400292029B06230393043B0493E2
:10083000A02003A9C00501F0AFF81348134B0360D3
:1008400011234360013B83600023C3608022026167
:1008500043618361C361056200F05CFF00280BD136
:10086000094B63659C6200220321192000F0E6FE1B
:10087000192000F013FFC3E7FFF7D4FEF0E7C046EE
:1008800000300140001002406401002030000240AE
:1008900000B583B00C4B196C012211431964196C1B
:1008A0000A400092009ADA6B802149050A43DA6314
:1008B000DB6B0B400193019B02200022032140428D
:1008C00000F0BCFE03B000BD0010024030B587B0A0
:1008D0000500204A116C8020400201431164136C12
:1008E00003400093009B01A902A802F061F9059B57
:1008F000002B16D102F048F91749FFF705FC431EFB
:100900001648174A0260174AC26043600023036119
:100910008360836102F014FF041E06D0200007B03C
:1009200030BD02F031F94000E6E70C4802F0CAFDA4
:10093000041EF3D1142000F0B1FE032D01D90124CF
:10094000ECE700222900142000F078FE064B1D6021
:10095000E4E7C0460010024040420F00240200209D
:1009600000400140E703000008000020FEE7FEE72A
:1009700010B5042001F0D4F8082001F0D1F810BD22
:1009800010B5102001F0CCF8202001F0C9F810BDFE
:1009900010B5024800F096FF10BDC046640100206B
:1009A00010B5024802F0CCFD10BDC046A0030020E7
:1009B00010B5024802F0C4FD10BDC046EC03002093
:1009C00010B5024802F0BCFD10BDC046BC020020BC
:1009D00010B5024802F0B4FD10BDC046240200204C
:1009E00010B5024802F0ACFD10BDC046080300205F
:1009F00010B5024802F0A4FD10BDC046540300200B
:100A000010B5074B1B689A69E023DB001A4203D03C
:100A1000034801F077FC10BD014801F04DF9FAE7F9
:100A20009000002010B5074B1B689A69E023DB009B
:100A30001A4203D0034801F065FC10BD014801F0E3
:100A40003BF9FAE7E400002010B5024802F0D8FABA
:100A500010BDC046C001002010B5024803F064FA82
:100A600010BDC046380400207047000000B589B0B2
:100A70000C22002105A805F08AF91022002101A806
:100A800005F085F91748184B036000234360836025
:100A9000164AC26003618033836102F0E1FE0028E0
:100AA00017D100230593079305A90E4803F046F9D3
:100AB000002811D100230193012202920393049391
:100AC000073201A9074803F043F8002807D109B00D
:100AD00000BDFFF7A7FDE4E7FFF7A4FDEAE7FFF796
:100AE000A1FDF4E7A003002000040040FFFF000088
:100AF00000B585B00C22002101A805F048F90F4887
:100B00000F4B03600023436083600E4AC260836121
:100B100002F016FE00280AD100230193039301A9D5
:100B2000064803F00BF9002804D105B000BDFFF71B
:100B300079FDF1E7FFF776FDF7E7C046EC0300200B
:100B400000100040FFFF000000B585B0102200211A
:100B5000684605F01CF91648164B036000234360F5
:100B60008360154AC260036143618033836102F090
:100B7000E7FD002813D10E4802F072FE002811D1C3
:100B800000230093012201920293039300226946FD
:100B9000074802F0DDFF002807D105B000BDFFF7D0
:100BA00041FDE8E7FFF73EFDEAE7FFF73BFDF4E72D
:100BB0005403002000480140FFFF000010B58CB036
:100BC00004001422002107A805F0E1F823683D4A3B
:100BD00093420DD03C4A934215D03C4A934224D0D4
:100BE0003B4A934234D03B4A934244D00CB010BDB0
:100BF000394A116C8020000101431164136C0340D9
:100C00000193019BF2E7344AD16B10231943D1635E
:100C1000D26B13400293029B00220321112000F0AB
:100C20000DFD112000F03AFDE0E72B4A116C802009
:100C3000000201431164136C03400393039B0022E1
:100C40000321132000F0FAFC132000F027FDCDE76C
:100C5000214A116C8020800201431164136C03400F
:100C60000493049B00220321152000F0E7FC1520CB
:100C700000F014FDBAE7184B196C8020C002014344
:100C800019641A6C02400592059A596B01221143AE
:100C900059635B6B1A400692069B802307937E3B49
:100CA000089303330B93A02007A9C00500F074FE3E
:100CB00000220321162000F0C1FC162000F0EEFCFB
:100CC00094E7C046002C0140001000400020004086
:100CD00000440140004801400010024010B588B0B7
:100CE00004001422002103A805F051F82268134BD8
:100CF0009A4201D008B010BD114BD96B02221143AA
:100D0000D963D96B114001910199596B1143596312
:100D10005B6B13400293029B01230393049207939E
:100D200003A9084800F038FE00220321102000F03B
:100D300085FC102000F0B2FCDCE7C0460004004057
:100D4000001002400004005010B588B004001422C6
:100D5000002103A805F01BF82368214A934207D01D
:100D6000204A934217D0204A934224D008B010BDA5
:100D70001E4A516B022319435163526B1A40009271
:100D8000009A402203920493013B079303A9184859
:100D900000F002FEEAE7154A516B02231943516342
:100DA000526B1A400192019A0393049303A91048CD
:100DB00000F0F2FDDAE70D4A516B0123194351634C
:100DC000526B13400293029B402303933E3B0493D8
:100DD00003330793A02003A9C00500F0DDFDC5E79C
:100DE000002C01400020004000440140001002405F
:100DF0000004005000B59DB01022002118A804F096
:100E0000C6FF0C22002115A804F0C1FF1C220021FE
:100E10000EA804F0BCFF3422002101A804F0B7FFA3
:100E20003348344B0360002343608360324AC2601E
:100E300003614361836102F083FC002845D1802374
:100E40005B01189318A92A4802F0F4FE00283FD14C
:100E5000274802F0A5FC00283DD1002315931693E6
:100E6000179315A9224802F069FF002836D13023D4
:100E70000E9300230F930222109211931293139357
:100E8000149306320EA91A4802F05EFD002828D1FC
:100E9000002301930293039304930593802292010C
:100EA0000692079308930993802292040A920B9367
:100EB0000C930D9301A90E4802F07CFF002813D17A
:100EC0000B48FFF741FF1DB000BDFFF7ABFBB6E7D6
:100ED000FFF7A8FBBCE7FFF7A5FBBEE7FFF7A2FB08
:100EE000C5E7FFF79FFBD3E7FFF79CFBE8E7C046AA
:100EF00070020020002C0140FFFF000000B589B007
:100F00001C22002101A804F042FF1748174B036080
:100F1000002343608360164AC2600361836102F06C
:100F20000FFC002816D1104802F06AFC002814D1EA
:100F3000602301930023029303930593002201A9E8
:100F4000094802F037FD00280AD10748FFF7FCFEE8
:100F500009B000BDFFF766FBE5E7FFF763FBE7E7D6
:100F6000FFF760FBF1E7C046BC0200200020004014
:100F7000FFFF000000B595B01C2200210DA804F071
:100F800006FF34220021684604F001FF2248234B6B
:100F900003600023436083600122C26003614361F8
:100FA000836102F0CDFB00282AD11B4802F028FC07
:100FB000002828D160230D9300230E930F931093E4
:100FC00011931293139300220DA9134802F0F2FC1F
:100FD00000281BD1002300930193029303930493F1
:100FE00080229201059206930C9369460A4802F00A
:100FF000E1FE00280DD10848FFF7A6FE15B000BDA0
:10100000FFF710FBD1E7FFF70DFBD3E7FFF70AFB74
:10101000E0E7FFF707FBEEE708030020004401408C
:1010200010B50C480C4B0360E1231B034360002305
:101030008360C36003610C2242618361C361036208
:101040004362836203F022FB002800D110BDFFF74A
:10105000E9FAFBE7380400200048004010B588B0EA
:1010600004001422002103A804F091FE2268154B0D
:101070009A4201D008B010BD134BD96B8020C0023A
:101080000143D963DA6B02400192019A596B022243
:10109000114359635B6B13400293029BC0231B01F6
:1010A000039304920423079303A9084800F074FCF7
:1010B000002203211D2000F0C1FA1D2000F0EEFAED
:1010C000D8E7C0460048004000100240000400502D
:1010D00010B5FA20800004F0B7FAFAE700B583B043
:1010E000074B019301230093002380220549064802
:1010F00004F03CF904F06AF9002003B000BDC046DA
:10110000CC040020185E0008D110000810B5084A71
:10111000116880235B000B4313600320FFF7D6FBAD
:10112000041E02D00124200010BDFFF7B1FBFAE736
:1011300000200240034B1B78034A11685B181360C0
:101140007047C04604000020D0040020014B1868FE
:101150007047C046D004002030B583B0040000239F
:101160000193002800D106E1836D002B13D0236882
:101170009A68D2001CD49A68804911408022520596
:101180000A439A607E4B18687E49FEF7BDFF013026
:101190004000019009E0FFF785F80023E365542241
:1011A000A354E4E7019B013B0193019B002BF9D180
:1011B00023689A68D20000D59DE0A26D10210A43F1
:1011C000A265E26D0F390A43E26501209A680421A5
:1011D0000D001540114200D00125A26DD20600D5A8
:1011E000C2E0002D00D0BFE0A26D67490A40063181
:1011F000FF310A43A2659A68D20752D4227E920335
:10120000A1680A43617EC9030A43A57E69030A43B4
:10121000216B002901D0802149010A43E1680A437A
:101220002169002969DB802189030A432C21615C43
:1012300049000A432021615C012961D0616A0029CB
:1012400005D0E0256D002940A56A29430A43D968E5
:101250004E4D29400A43DA6063689B0F9B07E26C9E
:101260001A433C21615C012959D021680B69484D22
:101270002B4013430B616368C0221206934210D0C7
:101280008022D20593420CD080221206934208D0CD
:1012900040490A68404D2A40F025AD032B401343D6
:1012A0000B602268536907218B43616B0B435361C9
:1012B00021684B6970229343A26B120113434B6167
:1012C0002369002B35D12268916A103B0B4393624E
:1012D00023685A6907231340626B9A423BD0A36D7F
:1012E00012229343023A1343A365E36D0F3A13436B
:1012F000E36501203DE0002068E74900490894E7E4
:10130000002D03D1802149020A4397E7A16D2025D2
:101310002943A165E16D1F3D2943E1658EE7216CFD
:101320000B43616C0B43A16C0B43134301221A4323
:101330009BE7802292039342CAD121688B6AE369BA
:10134000013B9B001C221A4010235B429340226EFB
:1013500013438B62BCE70023E365A36D0322934331
:10136000023A1343A36504E0A36D10221343A3655F
:10137000012003B030BD0120FBE7C046E8FFFF6F4E
:1013800000000020400D0300FDFEFFFF0102DEFF14
:1013900002FCFF1F08270140FFFFC3FFF0B583B029
:1013A00004000023019305695433C35C012B00D171
:1013B00030E154230122C2540068836803321600CE
:1013C0001E401A4209D0A36D1C321343A3650120AD
:1013D00054230022E25403B0F0BD4B68022B00D12D
:1013E000D6E080221206954226D08B4A954223D021
:1013F0001F221340103A9A40256E95432A000D682B
:101400006F032FD1AD0E1F262E409E401643266639
:101410004D68AB080133E269934213D8826A1F23F7
:101420001D40103B1E00AE40B2430E68B60E334066
:10143000AB401343836205E0826A0B685B035B0B7E
:1014400013438362206842690B681B029A438D68CC
:101450002B40724D2B40134343610B68002B4FDB35
:101460000020B5E7EF07D0D4AE0727D46E0727D406
:101470002E0727D4EE0627D4AE0627D46E0627D42F
:101480002E0627D4EE0527D4AE0527D46E0527D423
:101490002E0527D4EE0427D4AE0427D46E0427D417
:1014A0002E0427D4EE0327D4AE0327D48027FF02CF
:1014B0002E003E403D42A8D01226A6E70126A4E712
:1014C0000226A2E70326A0E704269EE705269CE75E
:1014D00006269AE7072698E7082696E7092694E75E
:1014E0000A2692E70B2690E70C268EE70D268CE75E
:1014F0000E268AE70F2688E7102686E7112684E75E
:10150000474A1168E02252040A404648834207D005
:101510004548834222D0454883422CD0002057E7DB
:101520000802F5D480231B041A433D490B68404848
:1015300003401A430A603F4B18683F49FEF7E4FD39
:10154000013043001B189B00019302E0019B013B0B
:101550000193019B002BF9D1002039E7C801DAD4AF
:1015600080235B041A432E490B68314803401A4319
:101570000A6000202CE74B024AD48023DB031A4385
:1015800027490B682A4803401A430A6000201FE7D6
:1015900080231B069D4202D01F4B9D4205D1826ACB
:1015A0000B685B035B0B9A4382620B68002B01DBC9
:1015B00000200DE71A4A12681A498B4207D01A49CF
:1015C0008B420FD019498B4217D0002000E7A0238F
:1015D0005B041A4012490B68154803401A430A601D
:1015E0000020F5E6C0231B041A400D490B68104883
:1015F00003401A430A600020EAE6C0235B041A4055
:1016000007490B680A4803401A430A600020DFE6D6
:101610000020DDE60220DEE60400008000FFFF0778
:1016200008270140001000B0004000B8002000B4BE
:10163000FFFF3FFE00000020400D030070B50028B2
:1016400011DB8308134EC0339B009D5903242040B7
:10165000C000FF2214008440A54389010A40824053
:101660002A439A5170BD0F230340083B9B08063361
:101670009B00094A944663445C6803221040C00002
:10168000FC3215008540AC4389010A408240224368
:101690005A60E7E700E100E000ED00E0002805DB2C
:1016A0001F2318401E3B8340014A13607047C04609
:1016B00000E100E010B50400036C9B08094A944661
:1016C00063449B004364FF202368184008381421BA
:1016D000FEF71AFD044BA3641F2318401E3B8340F2
:1016E000E36410BD00820010800802403F2342687E
:1016F0001340064A9A1892000265054A4265013B6A
:1017000003221A4001239340836570473F820010F3
:101710004009024070B5041E4DD00568274BE818FB
:101720001421FEF7F1FC8000206425230222E254FC
:101730002B68234A13402B6021680A68A368E0687D
:1017400003432069034360690343A0690343E069DD
:101750000343206A034313430B602000FFF7AAFFF3
:101760008023DB01A2689A4218D0626C3F23616833
:101770000B401360A36CE26C5A606368013B032B5F
:101780000FD9002323656365A3650023E363252246
:101790000121A154013AA354002070BD00236360CD
:1017A000E3E72000FFF7A2FF236D00221A60636DBC
:1017B000A26D5A60E9E70120EFE7C046F8FFFDBFE0
:1017C0000F80FFFF30B5002836D02523C35C022BE5
:1017D00006D00423C36320330022C254012030BD4D
:1017E000026813680E218B431360426C136813491F
:1017F0000B40136001680A6801239A430A60104C89
:1018000062681C21056C29408B4013436360836C24
:10181000C26C5A60036D002B06D01A6807490A4053
:101820001A60436D826D5A6025230122C254013B28
:101830000022C2540020D2E70120D0E7FFFEFFFFC4
:101840000000024070B52523C35C022B03D00423A3
:10185000C363012070BD026813680E218B431360BF
:1018600001680A6801239A430A60416C0A68134CB4
:1018700022400A60124C62681C21056C29408B4092
:1018800013436360836CC26C5A60036D002B06D0F7
:101890001A680A490A401A60436D826D5A6025230E
:1018A0000122C254013B0022C254836B002B02D0A0
:1018B00098470020CEE70020CCE7C046FFFEFFFFA0
:1018C0000000024070B5314B1968046825681C237C
:1018D000026C134004229A40114216D06A0714D5B4
:1018E00023689B0603D42368042293432360274C78
:1018F00063681C21026C114004228A401343636018
:10190000036B002B00D0984770BD02229A40114211
:101910001CD0AA071AD523689B0606D423680A227E
:10192000934323602523093AC254184C63681C2151
:10193000026C114002228A40134363602423002278
:10194000C254C36A002BDFD09847DDE708229A40D3
:101950001142D9D02B07D7D523680E229343236099
:101960000A4C62681C21036C194001231D008D4044
:101970002A436260C3632522835423330022C25466
:10198000436B002BC0D09847BEE7C0460000024022
:101990002523C05CC0B27047F0B500235AE08468CC
:1019A0005F000326BE40B4432600CC68BC403443ED
:1019B0008460446894434A681609012232409A4080
:1019C0002243426056E0DC080834A4002658053261
:1019D0001A4092000F279740BE430F6997403A0084
:1019E000324322505AE0032600E00026A64034008D
:1019F0003C43434E1832920094513468EA43260027
:101A0000AE434F68FF0201D52C4326003C4C2660B4
:101A10006468260016404F68BF0201D52C4326009B
:101A2000374C66608426A459260016404F68BF03D1
:101A300001D52C432600324C8427E6518026A45938
:101A400022404E68F60301D52A0022432C4D802403
:101A50002A5101330C682200DA404FD001229A400B
:101A6000250015401442F4D003244E683440013C54
:101A7000012C94D903224C682240032A09D0C26861
:101A80005E000324B440A24314008A68B24022439B
:101A9000C26003224C682240022A94D004685E008F
:101AA00003221700B740BC434F683A40B24022437C
:101AB0000260C02292024C681442CAD09A081400F4
:101AC0001834A4000E4EA75903241C40E4000F262E
:101AD000A640B743A026F605B04286D0094EB042D4
:101AE00008D0094EB04207D0084EB04200D17AE784
:101AF00005267BE7012679E7022677E7F0BDC04699
:101B0000001802400004005000080050000C005073
:101B1000002A01D0816170478162FCE770477047FD
:101B200010B50400094BDB68184204D1074B1B6950
:101B3000234205D110BD054BD860FFF7EFFFF5E755
:101B4000024B1C612000FFF7EAFFF3E70018024098
:101B500003689A69920701D500229A6203689A691C
:101B6000D20703D49A6901210A439A61704730B5BC
:101B7000CB0709D54123C35C28221340282B01D071
:101B8000F22302E01A3300E000238A0709D5442437
:101B90001C434122825C28252A40282A0FD0F422A7
:101BA00013430AB2002A0CDB10290DD020290ED0D5
:101BB00040290FD001680A689A430A6030BD2300AB
:101BC000EFE7B8221343EFE790221343EEE720221A
:101BD0001343EDE740221343ECE7000010B5041E69
:101BE00060D04123C35C002B48D041232422E2541F
:101BF0002268136801218B43136022682A4B6168B5
:101C00000B4013612268936828490B409360E36896
:101C1000012B39D0226884231B02A1680B439360F7
:101C2000E368022B37D02268536821490B40536088
:101C3000226851681F4B0B4353602268D3681B49CD
:101C40000B40D360236962691343A26912022168C1
:101C50001343CB602268E369216A0B431360226857
:101C6000136801210B4313600023636441221F3179
:101C7000A15423630132A354002010BD403300223D
:101C8000C254FEF74BFCB0E7226880231B02A16818
:101C90000B439360C4E72268516880231B010B4308
:101CA0005360C5E70120E8E7FFFFFFF0FF7FFFFF7C
:101CB000FFF7FFFF0080000210B5036899691A68FA
:101CC000436B002B00D0984710BD70477047000051
:101CD00010B5040003681A684221002060545104C2
:101CE0000CD51A6819490A401A604123E35C292B74
:101CF0000BD04123E35C2A2B17D010BD1204F4D57E
:101D00001A6813490A401A60EFE718332822E25490
:101D1000203B236301212000FFF729FF40230022FD
:101D2000E2542000FFF7D1FFE7E717332822E254FF
:101D30001F3B236302212000FFF719FF40230022ED
:101D4000E2542000FFF7C2FFD7E7C046FFBFFFFF06
:101D5000FF7FFFFF7047F8B504004123C35C2822D2
:101D60001340282B06D003680822DA6140230022A2
:101D7000C254F8BD01688E69360C273B1E408D6940
:101D80002D0CFE273D408B689B059B0DCA681740B4
:101D9000C268022A24D1DA096A400620104211D111
:101DA000A26C0132A264A26C022AE2D10022A264D7
:101DB0000230C861402162541A0031002000FFF750
:101DC000C9FFD6E7802109022000FFF7D0FE40239B
:101DD0000022E2543A0031002000FFF7BBFFC8E7C1
:101DE00080210902FFF7C3FE40230022E2542A00AB
:101DF00031002000FFF7AEFFBBE7704710B50400CD
:101E0000164BC3620023036341222020A0540132F9
:101E1000A35463634B0713D523685B6A626A13702C
:101E2000636A01336362238D002B09D0013B238554
:101E3000638D013B9BB26385636C0422134363642F
:101E400007492000FFF793FE23681022DA61402340
:101E50000022E2542000FFF7D0FF10BD0000FFFF7A
:101E6000038000007047704710B54123C35C602BAE
:101E700006D00023036340228354FFF7F3FF10BD15
:101E80001F3B2022C2540023036320328354FFF7F8
:101E9000EAFFF4E710B504004123C35C00204222AE
:101EA000A054434AE2626085626C0A436264283B44
:101EB000DBB2022B1BD803212000FFF758FE412381
:101EC0002822E2543B4B6363236BA26B002A03D0AE
:101ED000112B2DD0212B2BD0E26B002A03D0122BFB
:101EE00046D0222B44D02000FFF7BEFF10BD324960
:101EF0002000FFF73CFE2000FFF72AFE4123E35CB1
:101F0000602B12D020234122A354226891690B42F6
:101F10000BD09369DB0605D51023D361636C0422D3
:101F20001343636423682022DA6100236363CBE7F1
:101F300023681A68520403D51A6820490A401A60B7
:101F4000A06BFFF725FD01280ED0A36B1C4A9A63F6
:101F500040230022E254A06BFFF774FC0028C5D098
:101F6000A06B836B9847C1E72000FFF77DFFBDE7BB
:101F700023681A68120403D51A6812490A401A60C5
:101F8000E06BFFF705FD01280ED0E36B0C4A9A6366
:101F900040230022E254E06BFFF754FC0028A5D058
:101FA000E06B836B9847A1E72000FFF75DFF9DE79B
:101FB0000000FFFFC121000803800000FFBFFFFFFA
:101FC00063230008FF7FFFFFF8B504000D000168E0
:101FD0000E68C76A4123C25CD3B22020C861212A9F
:101FE0000ED0292B0CD0222B75D02A2B73D0282B66
:101FF0000CD16C492000FFF7BAFD0023236305E0F4
:1020000069492000FFF7B3FD21232363226851684B
:1020100080231B020B4353602268536863490B40C3
:1020200053602000FFF794FD73045BD522681368AA
:102030005F490B401360A36B002B03D01B685B68E8
:102040009BB263856B0711D504239D4323685B6AAC
:10205000626A1370636A01336362238D002B05D0BB
:10206000013B2385638D013B9BB26385638D9BB2EE
:10207000002B03D0636C042213436364EB0610D57A
:10208000F3060ED5638D9BB2002B50D14133E35C38
:10209000282B36D04123E35C292B3BD02368102228
:1020A000DA6100234222A3546363636C002B50D196
:1020B000E26A404B9A4259D14123E35C222B65D01E
:1020C00041232022E254002323632032A354200022
:1020D000FFF7FBFD59E038492000FFF748FD2223B8
:1020E000236393E73304ADD52268136833490B406B
:1020F0001360E36B002BA5D01B685B689BB2638504
:10210000A0E780239B049F42C4D129002000FFF751
:1021100075FEC6E7274B9F42C0D023681022DA61C4
:102120002000FFF715FD2000FFF7D2FDB9E7236877
:102130001022DA61636C0C3A13436364002F03D0FE
:1021400080235B049F42ACD1616C2000FFF7A2FEAC
:10215000A7E7616C2000FFF79DFE4123E35C282B7D
:1021600013D129002000FFF749FE0EE02000FFF701
:10217000AFFD104BE36241232022E254002323638E
:102180002032A3542000FFF738FEF8BD1F33202271
:10219000E254002323632032A3542000FFF796FD6E
:1021A000F3E7C046038000000180000000E800FE65
:1021B000FFBFFFFF0000FFFF02800000FF7FFFFF67
:1021C00070B50400C56A4023C35C012B00D195E0C3
:1021D0000123402023544809034201D0930613D41D
:1021E000CB0640D5D3063ED5638D9BB2002B28D1BC
:1021F0004133E35C282B0FD04123E35C292B13D020
:1022000023681022DA6102E02000FFF7DDFE4023A0
:102210000022E254002070BD80239B049D42EBD13C
:102220002000FFF7EBFDF2E7354B9D42E8D0236835
:102230001022DA612000FFF78BFC2000FFF748FD39
:10224000E5E723681022DA61636C0C3A1343636498
:10225000002D03D080235B049D42D8D1616C200007
:10226000FFF718FED3E74B071ED553071CD5638D28
:102270009BB2002B0DD023685B6A626A1370636A9D
:1022800001336362238D013B2385638D013B9BB248
:102290006385638D9BB2002BB9D1194B9D42B6D09B
:1022A0002000FFF715FDB2E70B0701D5130716D481
:1022B0008B07ACD59307AAD5638D9BB2002B12D0A8
:1022C0002368626A12789A62636A01336362638D7B
:1022D000013B9BB26385238D013B238597E720005B
:1022E000FFF739FD93E780235B049D4202D0002D68
:1022F00000D08CE72000FFF7EBFC88E702208AE79C
:102300000000FFFF70B5026893691168DC0508D50D
:102310000C0606D5446C01252C43446480246400DB
:10232000D4615A0509D50A0607D5426C0824224310
:10233000426402688024E400D4619B0509D50B0641
:1023400007D5436C0222134343640368FF32FF3214
:10235000DA61416C0B230B4200D170BDFFF79AFD8F
:10236000FBE710B5806A836B002B01D000229A63D3
:10237000C36B002B01D000229A63FFF775FD10BDDF
:10238000F0B54123C35C202B20D12033C35C012B4B
:102390001ED04024012202554125242343550668BE
:1023A000336893433360066833680A4F3B403360B9
:1023B000066833681943316001680B6813430B608A
:1023C00020234355002303550020F0BD0220FCE7E5
:1023D0000220FAE7FFEFFFFFF0B54123C35C202B9B
:1023E0001ED12033C35C012B1CD040240122025596
:1023F00041252423435506683368934333600668B8
:102400003368094F3B4009021943316001680B688A
:1024100013430B6020234355002303550020F0BDD8
:102420000220FCE70220FAE7FFF0FFFF034A1168F1
:1024300080235B000B4313607047C0460070004070
:1024400010B5104A136810490B40034313608023F2
:102450009B00984201D0002010BD0C4B1B68580017
:10246000C01840000A49FDF74FFE0130054B5B697B
:102470005B0503D5002803D00138F7E70020EBE720
:102480000320E9E700700040FFF9FFFF0000002093
:1024900040420F0070B582B0041E00D129E20368EB
:1024A000DB0739D5C14A916838230B40D168032234
:1024B0000A40102B26D0082B26D0636880225202B7
:1024C00093427FD0A022D202934200D181E0B74B49
:1024D0001A68B7490A401A601A68B6490A401A6071
:1024E0006368002B00D180E0FEF730FE0500AF4BA3
:1024F0001B689B0310D4FEF729FE401B6428F6D905
:102500000320F7E1032AD6D1A84B1B689B0303D510
:102510006368002B00D1EFE123689B0731D5A34A04
:10252000936838210B40D16803220A40102B6AD0EF
:10253000002B6BD19D4A1268520503D5E268002A30
:1025400000D1DBE1994842689B490A406169090270
:102550000A434260002B0DD1036898490B40216962
:102560000B4303600368DB0A07221A40944BD340F5
:10257000944A1360944B1868FEF7A8F9002800D01D
:10258000BEE123681B0700D481E0884B9A6838239A
:102590001340182B73D0A369002B00D1B4E0834AF9
:1025A000136E01210B431366FEF7D0FD05007F4B30
:1025B0001B6E9B076BD4FEF7C9FD401B0228F6D9A2
:1025C000032097E1794A116880235B020B43136073
:1025D00086E7764B19688022D2020A431A6019688E
:1025E000802252020A431A607AE7FEF7AFFD050027
:1025F0006E4B1B689B038FD5FEF7A8FD401B64281C
:10260000F6D9032076E1022A92D193E7E368002B02
:1026100022D0664A136869490B4021690B43136055
:10262000116880235B000B431360FEF78FFD0500EC
:102630005E4B1B685B0506D4FEF788FD401B022835
:10264000F6D9032056E159494B685B4A1340626949
:10265000120213434B6094E7544A13685B490B40E2
:102660001360FEF773FD0500504B1B685B0588D5B2
:10267000FEF76CFD401B0228F6D903203AE14B4BD4
:102680001B6E9B0703D5A369002B00D13AE1236899
:102690005B0700D4A2E0454B9A6838231340202BF7
:1026A00045D0424BDB6BDB004AD4404AD16B8020E3
:1026B00040050143D163D36B03400193019B012586
:1026C000434B1B68DB053DD5A368012B4ED0052B82
:1026D00052D0364BDA6D01218A43DA65DA6D033167
:1026E0008A43DA65A368002B50D0FEF72FFD060061
:1026F0002E4BDB6D9B076FD4FEF728FD801B354BFF
:102700009842F5D90320F5E0284A136E01218B4346
:102710001366FEF71BFD0500244B1B6E9B07B6D509
:10272000FEF714FD401B0228F6D90320E2E01F4B00
:10273000DB6D9B0752D5A368002B4FD10120D9E058
:102740000025BDE7224A116880235B000B4313601C
:10275000FEF7FCFC06001E4B1B68DB05B4D4FEF73D
:10276000F5FC801B0228F6D90320C3E00F4AD36D85
:1027700001210B43D365B5E70C4BDA6D04210A4305
:10278000DA65DA6D03390A43DA65ABE7FEF7DEFC9A
:102790000600064BDB6D9B071ED5FEF7D7FC801BA2
:1027A0000C4B9842F5D90320A4E0C046001002402B
:1027B000FFFFFEFFFFFFFBFFFF80FFFFFFC7FFFFE5
:1027C0000024F4000000002008000020FFFEFFFFAE
:1027D0000070004088130000012D1ED0E369002B1B
:1027E00000D191E04F4A916838220A40102A5ED009
:1027F000022B18D04B4A13684B490B401360FEF76D
:10280000A5FC0400474B1B689B0149D5FEF79EFCC5
:10281000001B0228F6D903206CE0424AD36B4349DF
:102820000B40D363DAE73F4A13683F490B4013601C
:10283000FEF78CFC05003B4B1B689B0106D5FEF7A1
:1028400085FC401B0228F6D9032053E0354AD368A3
:1028500037491940236A606A0343A06A00020343B0
:10286000E06A0343206B03430B43D360116880236A
:102870005B040B431360D16880235B050B43D3607B
:10288000FEF764FC0400274B1B689B0106D4FEF78F
:102890005DFC001B0228F6D903202BE0002029E074
:1028A000204AD36823490B40D360002022E0012B4B
:1028B0002CD01C4BDA6803231340216A8B4227D1AA
:1028C00070231340616A8B4224D1FE21C90111405B
:1028D000A36A1B0299421FD1F8239B031340E16AAC
:1028E0008B421BD1520F5207236B9A4218D1002002
:1028F00000E0012002B070BD0120FBE70120F9E7F4
:102900000120F7E70120F5E70020F3E70120F1E7D8
:102910000120EFE70120EDE70120EBE70120E9E7E7
:102920000120E7E700100240FFFFFFFEFFFFFFEF7F
:102930008C80C11FFCFFFEEF10B52A4B9B6838222C
:102940001A4207D1274B1A68D20A07231340264898
:10295000D84010BD234B9A6838231340082B3BD036
:10296000204B9A6838231340102B0DD01D4B9A68CA
:1029700038231340202B31D01A4B9A683823134048
:10298000182B26D00020E4E7164AD1680D3B0B40F7
:10299000D2681209072111400131032B0FD01248D0
:1029A000FDF7B2FB0F4BDA68120A7F23134058433E
:1029B0000C4BD968490F0131FDF7A6FBC9E70B485D
:1029C000FDF7A2FB074BDA68120A7F231340584336
:1029D000EEE7FA20C001BCE70448BAE78020000215
:1029E000B7E7C046001002400024F40000127A004D
:1029F00070B504000D00002800D1AAE0574B1A68FA
:102A0000072313408B4221D323689A070ED55B0717
:102A100005D5534A9168E023DB010B439360504A8C
:102A2000936850490B40A1680B4393602368DB0710
:102A300054D56368012B20D0022B3BD0002B3FD113
:102A4000474A126852051CD401206AE0434A1368C1
:102A500007218B432B431360FEF778FB06003F4BA7
:102A60001A6807231340AB42CED0FEF76FFB801BE2
:102A70003D4A9042F3D9032053E0394A1268920349
:102A800069D537498A680720824313438B60FEF774
:102A90005DFB0600324B9B6838221A406368DB00FE
:102AA0009A421BD0FEF752FB801B2F4B9842F1D964
:102AB000032036E02A4A12689201E2D4012030E075
:102AC000032B05D0264AD26D9207DAD4012028E0E4
:102AD000234A126E9207D4D4012022E01F4B1A68B9
:102AE00007231340AB421DD823685B0706D51C4A59
:102AF00093681E490B40E1680B439360FFF71CFF8E
:102B0000174B9A68120A0F2313409B00184A9A58D1
:102B10001F231340D840174B1860174B1868FDF758
:102B2000D5FE70BD0D4A136807218B432B431360FC
:102B3000FEF70CFB0600094B1A6807231340AB4253
:102B4000D2D0FEF703FB801B074B9842F3D903203A
:102B5000E7E70120E5E70120E3E7C0460020024067
:102B600000100240FFF0FFFF88130000FF8FFFFFFF
:102B7000B85D00080000002008000020014B186824
:102B80007047C0460000002010B5FFF7F7FF064B66
:102B90009A68120B072313409B00044A9A581F237C
:102BA0001340D84010BDC04600100240F85D000838
:102BB00030B507230360094A94681C404460946858
:102BC000F0252D012C4084609268E024E40122402D
:102BD000C260034A126813400B6030BD001002400F
:102BE00000200240F0B583B0040003689B0362D567
:102BF000584BDB6BDB001ED4564AD16B802040055E
:102C00000143D163D36B03400193019B0126524AD8
:102C1000116880235B000B431360FEF797FA0500F1
:102C20004D4B1B68DB0508D4FEF790FA401B0228C9
:102C3000F6D9032502E00026E9E70025002D23D17F
:102C4000444BD96DC02292000B001340114210D0AA
:102C5000A2699A420DD03F4AD36D40490B40D06DD6
:102C6000802149020143D165D16D3D480140D165C4
:102C7000D365DB0710D4002D06D1364AD36D374912
:102C80000B40A1690B43D365012E15D1314AD36B9B
:102C900034490B40D3630FE0FEF758FA07002D4B81
:102CA000DB6D9B07E7D4FEF751FAC01B2E4B984211
:102CB000F5D90325DFE700252368DB0706D5254A7C
:102CC000536D03218B4361680B43536523689B0756
:102CD00006D5204A536D0C218B43A1680B435365E5
:102CE00023689B0606D51B4A536D20490B40E168BB
:102CF0000B43536523685B040BD5164A536D9B0049
:102D00009B0861690B4353658023DB0562699A4226
:102D100011D023681B050BD50E4A536D14490B4087
:102D200021690B43536522698023DB019A4209D054
:102D3000280003B0F0BD074AD16880235B020B4333
:102D4000D360E6E7034AD16880235B020B43D3607C
:102D5000EEE7C0460010024000700040FFFCFFFF9D
:102D6000FFFFFEFFFFFFFFEF88130000FFCFFFFF15
:102D7000FF3FFFFF70B5040003680A4ADA60FEF700
:102D8000E5F905002368DB689B0608D4FEF7DEF949
:102D9000401BFA239B009842F4D9032000E0002056
:102DA00070BDC0465F00010070B504000368DA68BA
:102DB000520602D50025280070BDDA6880210A433A
:102DC000DA60FEF7C3F9060000252368DB685B06BE
:102DD000F1D4032DEFD0FEF7B9F9801BFA2292004F
:102DE0009042F2D929230322E2540325EDE70000A3
:102DF00010B50400114BDA6880218A43DA609B69C0
:102E00009B0608D4FFF7B6FF002816D0292303221B
:102E1000E254032011E0094A936920218B43936116
:102E2000FFF7A8FF002803D029230322E254032040
:102E3000024A936920210B43936110BD0028004092
:102E400070B5041E53D02923C35C002B0BD029235B
:102E50000222E2542368DA68D2060DD50020292325
:102E60000122E25470BD28330022C25488231B0281
:102E70004360FDF761FCEAE7CA225A622368773AA9
:102E80005A622000FFF790FF002815D000280DD1CE
:102E900022689369DB00DB08936121688A69636AB1
:102EA000256A2B43A5692B4313438B612368FF22BB
:102EB0005A620028D6D1D2E7226893690D490B40A7
:102EC000936121688A69A36860690343E0690343E9
:102ED00013438B61236822691A6121680B69E268D8
:102EE000120413430B612000FFF782FFCEE701209D
:102EF000B8E7C046BFFF8FFB70B5041E00D178E075
:102F0000436A002B07D10533FF3342689A4205D04C
:102F10000023C36102E00023036143610023A36235
:102F20005D33E35C002B5AD05D230222E254226819
:102F3000136840218B431360E368E022D200934280
:102F400054D90022F02109018B4205D0E021C900AB
:102F50008B4201D00023A36282235B0061680B4097
:102F600084210902A06801400B430221206901402D
:102F70000B43012160690840034380208000A5695C
:102F8000284003433820E569284003438020256A10
:102F90002840034380208001A56A2840034320681D
:102FA0000360608B042303401020656A28400343BC
:102FB0000820656B28400343F0200001E5682840A5
:102FC00003432068134343602268D3690A480340DF
:102FD000D361002323665D33E154002070BD5C3370
:102FE0000022E2542000FDF7FFFB9DE78022520102
:102FF000A8E70120F2E7C046FFF7FFFF7047000097
:10300000F0B585B0040002685568936899090120FD
:1030100006000E40084203D1D90701D569066AD4DB
:10302000990701D529066AD45909012007000F40E4
:10303000084203D1002E01D1D90563D5A90661D577
:10304000002E0ED05D21615C03295DD0216E04202D
:103050000143216600210091D1680091916800919F
:103060000099002F0CD0216E012001432166002120
:1030700002919168029111683F3081431160029A78
:10308000DB0509D5236E082213432366002303932F
:1030900023689B680393039B236E002B32D0226826
:1030A0005368E0218B4353605D230122E254AB0758
:1030B00032D022685368DD398B435360A36D002BF7
:1030C0000AD0174A9A63A06DFEF7BCFB002803D014
:1030D000236E402213432366636D002B12D0104AE7
:1030E0009A63606DFEF7AEFB00280BD0236E402282
:1030F0001343236606E0E36C2000984702E0236D4B
:103100002000984705B0F0BD00230193D3680193D8
:1031100093680193019BF5E72000FFF76FFFF1E74C
:103120002531000810B5806A002346228352C387E8
:10313000FFF764FF10BD000030B5036A026A012486
:10314000A243026242688469184D2C400D682C43EA
:103150000225AB438D682B43154DA84208D0154D71
:10316000A84205D0144DA84202D0144DA84205D162
:103170000825AB43CD682B430425AB430C4DA84237
:1031800008D00C4DA84205D00B4DA84202D00B4DE3
:10319000A84205D10A4D2A404D692A438D692A4328
:1031A000426084614A684263036230BD8CFFFEFF67
:1031B000002C014000400140004401400048014013
:1031C000FFFCFFFF70B5036A026A194C22400262DD
:1031D0004268C469174D2C400E682643164C2340A4
:1031E0008C6824022343154CA04219D0134CA042F2
:1031F00008D0134CA04205D0124CA04202D0124C71
:10320000A04207D1114C14404A69120122438C6933
:1032100025012A434260C6614A68C263036270BDE9
:103220000B4C1C40CB681B0223430A4C2340DDE7B8
:10323000FFFEFFFF8CFFFEFFFFFDFFFF002C0140A4
:10324000004001400044014000480140FFCFFFFF23
:10325000FFF7FFFFFFFBFFFF30B5026A036A134C65
:10326000234003624368C469114D2C400D682D0250
:103270002C43104D15408A6812032A430E4DA84274
:1032800008D00E4DA84205D00D4DA84202D00D4DDC
:10329000A84204D10C4D2B404D69AD012B43436036
:1032A000C4614B680364026230BDC046FFEFFFFF9C
:1032B000FF8CFFFEFFDFFFFF002C014000400140BC
:1032C0000044014000480140FFBFFFFF30B5026AE3
:1032D000036A124C234003624368446D104D2C4036
:1032E0000D682C430F4D15408A6812042A430E4D79
:1032F000A84208D00D4DA84205D00D4DA84202D0DD
:103300000C4DA84204D1054D2B404D692D022B4395
:10331000436044654B688365026230BDFFFFFEFF7A
:103320008FFFFEFFFFFFFDFF002C0140004001402A
:10333000004401400048014030B5026A036A134C62
:10334000234003624368446D114D2C400D682D02EB
:103350002C43104D15408A6812052A430E4DA84291
:1033600008D00E4DA84205D00D4DA84202D00D4DFB
:10337000A84204D10C4D2B404D69AD022B43436054
:1033800044654B68C365026230BDC046FFFFEFFF76
:10339000FF8FFFFEFFFFDFFF002C014000400140D8
:1033A0000044014000480140FFFFFBFF30B5036AC5
:1033B000046A0125AC4304628469EF35AC43120111
:1033C00022430A24A3430B438261036230BD000001
:1033D00070B5046A056A1026B54305628569084E12
:1033E000354012022A43074D2A401B071B0C13438A
:1033F000A022944309010A4022438361026270BD06
:10340000FFFCFFFFFF0FFFFF30B5036A046A1025C2
:10341000AC4304628469054D2C4012032243A0246E
:10342000A343090119438261016230BDFF0FFFFF11
:1034300070B5056A066A0B4C26400662C46903260D
:10344000B4431443F02294431A01FF2313401C4356
:10345000054B1D400902A0231B0119402943C461EB
:10346000016270BDFFFEFFFFFFF5FFFF70B5046A4C
:10347000056A0B4E35400562C5690A4E3540120299
:103480002A43094D2A401B071B0C1343074A1440CB
:103490000903A022120211402143C361016270BDE1
:1034A000FFEFFFFFFFFCFFFFFF0FFFFFFF5FFFFFCF
:1034B0008368034A13400B4307210B438360704723
:1034C0008FFFCFFF3D23C35C012B25D13C3302226C
:1034D000C2540268D36801210B43D3600368114AC8
:1034E00093420BD0104A934208D0104A934205D021
:1034F0001A6801210A431A6000200EE09A680C49FC
:103500000A40062A0AD007398A4209D01A680121DE
:103510000A431A60002000E0012070470020FCE709
:103520000020FAE7002C0140000400400040014068
:103530000700010070477047704770477047704739
:1035400070B504000368DE681D69AA070ED5B207CE
:103550000CD5032252421A610123037703689B6949
:103560009B0757D0FFF7E9FF002323776B0712D59E
:10357000730710D52368052252421A61022323776C
:1035800023689A69C0239B001A4249D02000FFF7A4
:10359000D4FF002323772B0710D533070ED52368DC
:1035A000092252421A61042323772368DB699B07AF
:1035B0003DD02000FFF7C1FF00232377EB0612D593
:1035C000F30610D52368112252421A61082323778B
:1035D0002368DA69C0239B001A422FD02000FFF72E
:1035E000ACFF00232377EB0701D5F3072DD482230B
:1035F0009B011D4201D033062FD4EB0501D53306C4
:1036000032D46B0601D5730635D4AB0601D5B306AB
:1036100039D470BDFFF790FF2000FFF78FFFA3E7BD
:103620002000FFF789FF2000FFF788FFB1E72000A7
:10363000FFF782FF2000FFF781FFBDE72000FFF7C3
:103640007BFF2000FFF77AFFCBE72368022252427C
:103650001A612000FCF7DAFFC9E723680E4A1A61F5
:10366000200000F00AFCC8E723680C4A1A61200019
:1036700000F004FCC5E72368412252421A61200091
:10368000FFF75DFFC1E72368212252421A61200043
:1036900000F0F2FBBDE7C0467FDFFFFFFFFEFFFF4C
:1036A0000368204A904202D01F4A904203D1702200
:1036B00093434A6813431B4A90420ED01A4A9042E1
:1036C0000BD01A4A904208D0194A904205D0194AA4
:1036D000904202D0184A904203D1184A1340CA6857
:1036E0001343802293434A69134303608B68C36288
:1036F0000B6883620B4B984208D00D4B984205D063
:103700000C4B984202D00C4B984201D10B690363D9
:10371000012343610269134203D0036901229343E9
:1037200003617047002C014000040040002000406D
:10373000004001400044014000480140FFFCFFFF01
:1037400070B5041E2AD03D23C35C002B20D03D253C
:1037500002236355210001C9FFF7A2FF012348227C
:10376000A3540A3AA3540132A3540132A3540132A0
:10377000A3540132A3540132A3540132A3540132A1
:10378000A3540132A3540132A3546355002070BDE9
:103790003C330022C254FDF711FAD8E70120F6E7C6
:1037A00070B5041E2AD03D23C35C002B20D03D25DC
:1037B00002236355210001C9FFF772FF012348224C
:1037C000A3540A3AA3540132A3540132A354013240
:1037D000A3540132A3540132A3540132A354013241
:1037E000A3540132A3540132A3546355002070BD89
:1037F0003C330022C254FFF79DFED8E70120F6E7D4
:1038000070B5041E2AD03D23C35C002B20D03D257B
:1038100002236355210001C9FFF742FF012348221B
:10382000A3540A3AA3540132A3540132A3540132DF
:10383000A3540132A3540132A3540132A3540132E0
:10384000A3540132A3540132A3546355002070BD28
:103850003C330022C254FFF76EFED8E70120F6E7A2
:1038600070B5041E2AD03D23C35C002B20D03D251B
:1038700002236355210001C9FFF712FF01234822EB
:10388000A3540A3AA3540132A3540132A35401327F
:10389000A3540132A3540132A3540132A354013280
:1038A000A3540132A3540132A3546355002070BDC8
:1038B0003C330022C254FDF711FAD8E70120F6E7A5
:1038C00070B5036A026A1024A243026242688469E6
:1038D000174D2C400D682D0225432024A3438C68EE
:1038E00024012343134CA04219D0124CA04208D00B
:1038F000114CA04205D0114CA04202D0104CA04265
:1039000007D1104C14404A69920022438C69A600EA
:103910003243426085614A688263036270BD8024DD
:10392000A3431C00CB681B0123434024A343DCE7D3
:10393000FF8CFFFE002C014000400140004401408C
:1039400000480140FFF3FFFF10B504003C23C35CB7
:10395000012B2BD03C230120E054142A21D89200C3
:10396000134B9B589F462068FFF7E6FB002019E0A9
:103970002068FFF7A5FF002014E02068FFF722FC75
:1039800000200FE02068FFF767FC00200AE02068B5
:10399000FFF79CFC002005E02068FFF7CDFC00202D
:1039A00000E001203C230022E25410BD0220FCE78D
:1039B000245E000870B504000D003C23C35C012B9D
:1039C00000D192E03C230121C154142A00D987E0A0
:1039D0009200474B9B589F4629000068FFF7ACFBBD
:1039E0002268936908210B43936122689369043923
:1039F0008B4393612268936929690B43936100208B
:103A00006FE029000068FFF75BFF2268916980235F
:103A10001B010B4393612268936936490B40936104
:103A200021688B692A69120213438B61002058E0D8
:103A300029000068FFF7C6FB2268D36908210B4301
:103A4000D3612268D36904398B43D3612268D36977
:103A500029690B43D361002043E029000068FFF788
:103A6000FBFB2268D16980231B010B43D3612268D1
:103A7000D36920490B40D3612168CB692A691202BE
:103A80001343CB6100202CE029000068FFF71EFCE7
:103A90002268536D08210B4353652268536D043926
:103AA0008B4353652268536D29690B43536500208E
:103AB00017E029000068FFF73FFC2268516D802362
:103AC0001B010B4353652268536D0A490B40536534
:103AD00021684B6D2A69120213434B65002000E0F8
:103AE00001203C230022E25470BD0220FCE7C046C6
:103AF000785E0008FFFBFFFFF0B517001D00066AA7
:103B0000036A01229343036282690E4B984208D0F4
:103B10000D4B984205D00D4B984202D001231A4319
:103B200002E003239A433A43F0239A432D01FF24F2
:103B30002C402243E63B9E430B40334382610362A9
:103B4000F0BDC046002C0140000400400040014090
:103B500070B504000D003C23C35C012B59D03C23FD
:103B60000121C154002A0AD0042A1AD0082A2BD0D5
:103B70000C2A3BD001203C230022E25470BDEB68AC
:103B80006A6829680068FFF7B7FF226893690C210B
:103B90008B43936122689369A9680B43936100206A
:103BA000E9E7EB686A6829680068FFF711FC22689A
:103BB000936919490B40936121688B69AA681202C5
:103BC00013438B610020D6E7EB686A6829680068B8
:103BD000FFF72EFC2268D3690C218B43D361226846
:103BE000D369A9680B43D3610020C4E7EB686A6816
:103BF00029680068FFF73AFC2268D36906490B4040
:103C0000D3612168CB69AA6812021343CB610020FB
:103C1000B1E70220B2E7C046FFF3FFFF30B584688A
:103C2000034D2C401B0213430B432343836030BDE1
:103C3000FF00FFFF10B504003C23C35C012B00D143
:103C400078E03C230122C25401330132C25402689D
:103C500093683948034093600B68602B50D02AD892
:103C6000402B58D00CD9502B23D1CA684968206802
:103C7000FFF79CFB50212068FFF71AFC002005E0AD
:103C8000202B0ED009D9302B0BD001203D2301224F
:103C9000E254013B0022E25410BD002B01D0102B56
:103CA00005D119002068FFF703FC0020EEE7012092
:103CB000ECE70120EAE780225201934236D08022CD
:103CC000920193420DD1CB684A6889682068FFF75A
:103CD000A5FF226891688023DB010B4393600020DD
:103CE000D4E7702B24D1CB684A6889682068FFF735
:103CF00095FF2268936877210B4393600020C5E706
:103D0000CA6849682068FFF77FFB60212068FFF7D9
:103D1000CFFB0020BAE7CA6849682068FFF746FB76
:103D200040212068FFF7C4FB0020AFE70020ADE78B
:103D30000120ABE70220AFE78800CEFF30B53C237F
:103D4000C35C012B2CD03C230122C254013301322D
:103D5000C254026853689468124DAA421BD0702561
:103D6000AB430D682B43536003680E4A934205D062
:103D70000D4A934202D00D4A934204D180229443CB
:103D80008A6814439C603D230122C254013B0022F7
:103D9000C254002030BD064D2B404D682B43DEE75A
:103DA0000220F7E7002C01400004004000400140E1
:103DB000FFFF0FFF10B53C23C35C012B40D03C2319
:103DC0000122C2541F4BCA6813408A6813431E4A1B
:103DD00013404A6813431D4A13400A6813431C4AA0
:103DE00013400A6913431B4A13404A6913431A4A92
:103DF00013400A6B1343194A13408A691204134390
:103E0000174A1340CA6913430268164CA24205D0F0
:103E100053643C230022C254002010BD124C2340A6
:103E20008C6A24052343114C23400C6A2343104C15
:103E300023404C6A23430F4C2340C96A0B43E7E7F6
:103E40000220EAE7FFFCFFFFFFFBFFFFFFF7FFFF9A
:103E5000FFEFFFFFFFDFFFFFFFBFFFFFFFFFF0FFF1
:103E6000FFFFFFEF002C0140FFFF0FFFFFFFFFFEF2
:103E7000FFFFFFFDFFFFFFDF704770477047000047
:103E800030B5EFF31084012282F3108801680B68CB
:103E9000124D2B400B6084F31088EFF3108182F3F6
:103EA0001088026893680E4C2340936081F3108859
:103EB000C36E012B06D08C232022C2500023C36680
:103EC000436730BDEFF3108183F3108802681368F5
:103ED0001024A343136081F31088ECE7DFFEFFFF9B
:103EE000FEFFFFEF704710B5EFF31081012383F35E
:103EF0001088026813684024A343136081F310887C
:103F000088232022C25000238367FFF7EBFF10BDF8
:103F1000704710B5806A00235E228352083A8352AC
:103F2000FFF7F6FF10BD7047F8B504000268D369CB
:103F300010689568BD491E000E400B4205D19906D8
:103F400003D581062CD4E9002AD4002E07D0B84925
:103F50002E000E400D4229D1B649084226D1E16E0D
:103F6000012900D1AAE0D90202D5690200D543E1B6
:103F70001A0605D5020600D545E12A0200D542E120
:103F80005A0602D5420600D544E11A0202D5420083
:103F900000D543E1DB0102D5002800DA42E1F8BD9B
:103FA000636F002BFBD020009847F8E7D90707D5AF
:103FB000C10505D501271762902162583A43625026
:103FC0009A0709D5EA0707D52268022111628E31C6
:103FD000625804273A4362505A0709D5EA0707D5C1
:103FE0002268042111628C31625802273A436250E0
:103FF0001A070AD5820601D4002E06D022680826A8
:10400000166290216258324362501A050AD5420165
:1040100008D522688021090111629021625820266A
:10402000324362509022A258002AB8D09B0608D58D
:10403000830601D4EB0004D5636F002B01D0200070
:1040400098479023E25823689B685B0602D4282394
:1040500013422CD02000FFF713FF23689B685B06F8
:1040600021D5EFF31081012383F310882268936830
:1040700040208343936081F310888023E358002B12
:104080000DD06D4A9A638023E058FDF7DBFB0028D2
:1040900000D184E78023E058836B98477FE72000B6
:1040A000FFF736FF7BE72000FFF732FF77E72000BE
:1040B000FFF72EFF90230022E25070E7D90600D4CC
:1040C00051E7C10600D44EE71023136223689B68B2
:1040D0005B0655D58023E25813685B689BB2002BC2
:1040E00000D15CE75C21615A994200D857E75E2114
:1040F000635213681B689B060BD5022323675A3350
:10410000E15A0233E35AC91A89B22000FFF70BFFC4
:1041100045E7EFF31080012383F3108821680A68D4
:10412000464D2A400A6080F31088EFF3108083F335
:10413000108821688A689A438A6080F31088EFF3B8
:10414000108083F3108821688A684235FF35AA43BE
:104150008A6080F310888C222021A1500022E26620
:10416000EFF3108183F310882268136810208343D3
:10417000136081F310888023E058FDF723FBBCE730
:104180005C23E15A0233E25A891A89B2E35A9BB29C
:10419000002B00D103E7002900D100E7EFF31085E1
:1041A000012383F3108820680268254E32400260A4
:1041B00085F31088EFF3108583F3108820688268F8
:1041C000204E3240826085F310888C222020A0503F
:1041D0000022E2666267EFF3108083F310882268A2
:1041E00013681025AB43136080F310880223236704
:1041F0002000FFF798FED2E680235B0313622000C5
:1042000000F07CFACBE6A36F002B00D1C7E62000BC
:104210009847C4E62000FFF766FEC0E6200000F0E5
:104220006FFABCE6200000F06AFAB8E60F0800005A
:104230000100001020010004133F0008FFFEFFFFF3
:10424000DFFEFFFFFEFFFFEF10B504008368026989
:10425000134342691343C269134301680A686B48F8
:10426000024013430B602268536869490B40E168C0
:104270000B435360226AA3691A4321688B6865481F
:10428000034013438B602268D36A0F218B43616A1A
:104290000B43D3622368604A93420AD05F4A934239
:1042A0003ED05F4A93425CD05E4A934249D010238D
:1042B0000BE05D4B5A6D03231340022B43D02BD8E8
:1042C000002B42D0012B42D10333E069802212023D
:1042D000904248D0042B00D191E07AD8002B00D135
:1042E00086E0022B73D15148636A5B00504A995AA9
:1042F000FBF70AFF63685B08C0186168FBF704FFFF
:104300000200103A4B4B9A4200D97DE0236800042A
:10431000000CD860002062E0032B1AD10533D4E7EB
:10432000414B5A6D0C231340082B14D005D8002B99
:1043300013D0042BC9D01023C7E70C2B0FD1043B9B
:10434000C3E70023C1E70223BFE70023BDE7102333
:10435000BBE71023B9E70223B7E70023B5E7102333
:10436000B3E70023B1E7042B2ED023D8002B25D0B0
:10437000022B1DD12D48636A5B002D4A995AFBF729
:10438000C3FE400063685B08C0186168FBF7BCFEB1
:104390000200103A274B9A4234D882B20F239A4334
:1043A0004008083B184010432368D860002016E0FE
:1043B000012014E0082BDED0012010E0FEF7E4FB22
:1043C0000028D8D100200AE0FEF7B6FAF8E701206D
:1043D00005E0082B02D18020000285E7012001239F
:1043E0006A22A352023AA35200236367A36710BD57
:1043F000FEF7CAFB002800D076E70020EFE7FEF7C3
:104400009BFAF7E70120EAE70120E8E7F369FFCF2D
:10441000FFCFFFFFFFF4FF110038014000440040D0
:1044200000480040004C0040001002400024F4000E
:10443000CC5E0008EFFF0000836A1B0706D5026808
:1044400053682C490B40816B0B435360836ADB0735
:1044500006D50268536828490B40C16A0B43536074
:10446000836A9B0706D50268536824490B40016B99
:104470000B435360836A5B0706D502685368204983
:104480000B40416B0B435360836ADB0606D5026821
:1044900093681C490B40C16B0B439360836A9B0676
:1044A00006D50268936818490B40016C0B43936072
:1044B000836A5B060BD50268536814490B40416C54
:1044C0000B43536080235B03426C9A420AD0836A99
:1044D0001B0606D5026853680D490B40C16C0B439F
:1044E00053607047026853680A490B40816C0B4364
:1044F0005360ECE7FF7FFFFFFFFFFDFFFFFFFEFFC5
:10450000FFFFFBFFFFEFFFFFFFDFFFFFFFFFEFFFFF
:10451000FFFFF7FFFFFF9FFFF8B5CE46474680B588
:1045200006000D0017009946089B98463368DC6921
:104530002C40641B63425C41BC4233D1434601338F
:10454000F4D0FCF703FE4B46C01A40452FD8434633
:10455000002B2ED033681A685207E7D5802DE5D09E
:10456000402DE3D0DA69120710D4DA691205DDD5DF
:10457000802212011A623000FFF782FC9023202271
:10458000F2500C3B0022F25403200CE008241C6281
:104590003000FFF775FC9023F4500C3B0022F254DE
:1045A000012000E00020C0BCB946B046F8BD0320A1
:1045B000F9E70320F7E7000030B583B0040090234B
:1045C0000022C250FCF7C2FD0500226812681307E2
:1045D00010D423681B685B072BD420238822A350A8
:1045E0000432A3500023E3662367083AA354002053
:1045F00003B030BD8021234B0093030000228903C8
:104600002000FFF789FF0028E3D0EFF3108101239A
:1046100083F310882268136880208343136081F33A
:10462000108888232022E250043B0022E2547D3887
:10463000DEE78021134B00932B000022C9032000EA
:10464000FFF76AFF0028C8D0EFF31080012282F341
:10465000108821680B680C4D2B400B6080F310888C
:10466000EFF3108082F3108821688B6893438B608E
:1046700080F310888C231F32E250083B0022E25462
:104680000320B5E7FFFFFF01DFFEFFFF10B5041EAB
:1046900030D08823C358002B22D088232422E25014
:1046A0002268136801218B431360A36A002B1DD17C
:1046B0002000FFF7C9FD012811D0226853680E4978
:1046C0000B405360226893682A218B4393602268D1
:1046D000136829390B4313602000FFF76DFF10BDED
:1046E00084330022C254FCF7B9FCD6E72000FFF760
:1046F000A3FEDDE70120F2E7FFB7FFFF7047704739
:104700007047030008334360012252428260C36055
:10471000036100230360704700230361704743680F
:104720004B609A688A605160996008610368013340
:104730000360704730B50C68631C10D00300083369
:104740001A005B681D68A542FAD953684B609960EE
:104750008A605160086103680133036030BD0269FB
:10476000F3E70369416882688A60416851605A686A
:10477000824206D0002202611A68013A1A60186863
:10478000704782685A60F5E782B000230193064BB8
:104790001B68013301D072B6FEE772B6019B002B95
:1047A000FCD002B07047C0460C00002000000000A2
:1047B0000B4A13681868203080F30988022080F3C0
:1047C0001488BFF36F8F3FBCAE4608BC04BC62B612
:1047D0001847C046C046C046C046C046C046C04650
:1047E0003411002010B5031F802464041C60043BB6
:1047F0001960043B02491960143B1A60403810BD2F
:104800008947000870470000044B802252051A6057
:10481000BFF34F8FBFF36F8F7047C04604ED00E0CA
:1048200072B6044A136801331360BFF34F8FBFF3AE
:104830006F8F70470C000020064B1B68002B01D1C6
:1048400072B6FEE7013B034A1360002B00D162B64B
:104850007047C0460C000020EFF3108072B670471E
:1048600080F3108870470000000000000000000086
:10487000EFF309800E4B1A6820381060F0C04446F0
:104880004D4656465F46F0C008B572B600F0F4FEDD
:1048900062B60CBC116808681030F0C8A046A94682
:1048A000B246BB4680F309882038F0C81847C04696
:1048B0003411002010B5FFF7CFFF040000F0C6FD53
:1048C000002803D0034B802252051A602000FFF716
:1048D000C7FF10BD04ED00E010B5084C00232360B5
:1048E000074A1360074B1868FA218900FBF70CFC94
:1048F0000138054B18600723236010BD10E000E06D
:1049000018E000E00000002014E000E010B50C4BBF
:104910001968FF2212040A431A601968FF2212065E
:104920000A431A60FFF7D8FF064B00221A60FFF710
:104930003FFF00F0A1FEFFF727FF002010BDC0469B
:1049400020ED00E00C000020124A53071FD0D11DBB
:1049500007239943C0231B015B1A9B180A000E48CA
:10496000026000214160D318083B072083430B48B5
:10497000036059601960991A51601360084B1960FF
:10498000084B1960084B802212061A607047C0233A
:104990001B01E4E7D8040020EC100020D404002020
:1049A000E0100020DC100020D810002010B5124BC1
:1049B0001A001B688342FBD351685418844208D004
:1049C00041684418A34209D00360904200D01060AF
:1049D00010BD4068091851601000F1E7074C2468C9
:1049E000A34206D05B68C918416013681B68036066
:1049F000EBE70460E9E7C046EC100020D404002097
:104A000070B5050000F014FD2E4B1B68002B14D070
:104A10002D4B1B682B4246D1002D05D008356B0766
:104A200002D007239D430835002D3ED0274B1B683D
:104A3000AB4241D3264A146804E0FFF785FFE7E75D
:104A400022001C006368AB4202D22368002BF7D11E
:104A50001C4B1B68A34231D01668083623681360CC
:104A600063685B1B102B08D96019420701D072B62E
:104A7000FEE743606560FFF799FF626813490B68C2
:104A80009B1A0B60134909688B4201D211490B60D4
:104A90000D4B1B6813436360002323600E4A1368A9
:104AA0000133136002E0002600E0002600F058FD0C
:104AB000730705D072B6FEE70026F7E70026F5E794
:104AC000300070BDD4040020D8100020DC1000207D
:104AD000EC100020E0100020E410002070B5002849
:104AE00024D00500083D6B68114A12681A4201D1B2
:104AF00072B6FEE7010008390968002901D072B6D4
:104B0000FEE7083804009343436000F091FC6368BB
:104B1000084A11688C46634413602800FFF746FF7B
:104B2000054A13680133136000F01AFD70BDC046DA
:104B3000D8100020DC100020E810002010B5040080
:104B4000FFF76EFEA26BE36B9A4204D00024FFF7DE
:104B500073FE200010BD0124F9E710B50400FFF733
:104B60005FFEA36B002B04D10124FFF765FE20003C
:104B700010BD0024F9E770B504001500866B026CC7
:104B8000002A0CD10368002B03D000200136A66355
:104B900070BD806800F078FE0023A360F6E7002D6A
:104BA0000ED1406801F0EAF86368226C94466344D1
:104BB0006360A26893421BD3236863602800E5E723
:104BC000C06801F0DBF8236C5A42E168CB1AE3605D
:104BD00021688B4203D2A3689C466244E260022DA6
:104BE00001D00020D2E7002E04D0013E0020CDE706
:104BF0002800CBE70020C9E710B5030008001A6CB5
:104C0000002A0AD0D9688918D9609C68A14201D3CA
:104C10001968D960D96801F0B1F810BD70B5050008
:104C2000FFF7FEFD4523EC5C64B201E0013C64B299
:104C3000002C0BDD6B6A002B08D02800243000F01C
:104C400089FD0028F2D000F007FEEFE74523FF22A0
:104C5000EA54FFF7F1FDFFF7E3FD4423EC5C64B297
:104C600001E0013C64B2002C0BDD2B69002B08D065
:104C70002800103000F06EFD0028F2D000F0ECFDAE
:104C8000EFE74423FF22EA54FFF7D6FD70BD70B56D
:104C900004000D0000281DD0FFF7C2FD2268E36B61
:104CA000206C010059435118A1600021A16362608A
:104CB000013B4343D318E360FF234422A354013252
:104CC000A354002D11D12369002B05D1FFF7B4FDAA
:104CD000012070BD72B6FEE72000103000F03AFDF2
:104CE0000028F3D0FFF790FDF0E720001030FFF729
:104CF00008FD20002430FFF704FDE7E710B50300AE
:104D00000298002906D10060C36301640121FFF706
:104D1000BEFF10BD0260F7E7F0B583B004000D00E0
:104D20001600002801D172B6FEE708006043483043
:104D3000FFF766FE071E07D00200483200903300DE
:104D400029002000FFF7DAFF380003B0F0BDF0B50E
:104D500085B004000F0001921D00002808D0002932
:104D600008D0022D0BD1E36B012B08D072B6FEE701
:104D700072B6FEE7036C002BF3D072B6FEE700F0CC
:104D800071FD061E04D1019B002B34D072B6FEE7E4
:104D9000002630E02A0039002000FFF7ECFE636AAD
:104DA000002B06D100280DD1FFF746FD012005B0EC
:104DB000F0BD2000243000F0CDFC0028F4D0FFF737
:104DC00023FDF1E7FFF720FDEEE7FFF735FD0020BB
:104DD000EDE702A800F000FD013619E044230022AF
:104DE000E25420E045230022E25421E02000FFF7B6
:104DF00015FF00F0B5FBFFF713FDA36BE26B9342C9
:104E0000C8D3022DC6D0019B002BDED0002EE0D0EF
:104E1000FFF712FD00F00CFBFFF702FD4423E25CFC
:104E200052B2531CDAD04523E25C52B2531CD9D0A3
:104E3000FFF702FD01A902A800F0DAFC002813D157
:104E40002000FFF77BFE0028D0D020001030019911
:104E500000F056FC2000FFF7E1FE00F081FB002887
:104E6000C9D1FFF7D1FCC6E72000FFF7D7FE00F05D
:104E700077FB00209BE7F0B5C64600B582B0040082
:104E80000F0001921D00002808D0002908D0022D33
:104E90000BD1E36B012B08D072B6FEE772B6FEE7CA
:104EA000036C002BF3D072B6FEE7FFF7D5FC0600CB
:104EB000A36BE26B93420AD3022D08D0002430008A
:104EC000FFF7CEFC200002B080BCB846F0BD452301
:104ED000E35C5BB29846A36B2A0039002000FFF721
:104EE0004AFE4346013306D0434601335BB24522B6
:104EF000A3540124E3E7636A002B01D10124DEE718
:104F00002000243000F026FC002806D0019A002A58
:104F100005D0012313600124D1E70124CFE7012448
:104F2000CDE7F0B585B004000F00019200280AD04B
:104F300000290AD000F096FC061E0BD1019B002B25
:104F400042D072B6FEE772B6FEE7036C002BF1D0DA
:104F500072B6FEE7002637E039002000FFF74CFE6E
:104F6000013DA5632369002B04D1FFF765FC0120F7
:104F700005B0F0BD2000103000F0ECFB0028F4D0AC
:104F8000FFF742FCF1E7FFF757FC0020F0E702A82B
:104F900000F022FC013621E044230022E25428E004
:104FA00045230022E25429E02000FFF737FE00F0FD
:104FB000D7FA09E02000FFF731FE00F0D1FA200017
:104FC000FFF7CBFD002835D1FFF72AFCA56B002D9C
:104FD000C2D1019B002BD6D0002ED8D0FFF72CFCDD
:104FE00000F026FAFFF71CFC4423E35C5BB20133BC
:104FF000D2D04523E35C5BB20133D1D0FFF71CFC78
:1050000001A902A800F0F4FB0028D3D12000FFF78B
:10501000A4FD0028C8D020002430019900F070FBC6
:105020002000FFF7FBFD00F09BFA0028CCD1FFF732
:10503000EBFBC9E700209BE710B50023072B0AD83C
:10504000DA00054C1259002A01D00133F6E7DB00E3
:105050001951E318586010BDF410002070B5040019
:105060000D001600FFF7DCFB4423E35C5BB2013369
:105070000DD04523E35C5BB201330CD0FFF7DCFBC2
:10508000A36B002B0BD02000FFF7C8FD70BD44239D
:105090000022E254EDE745230022E254EEE720002F
:1050A00024303200290000F03DFBECE7084B1B6880
:1050B0001B68002B04D1074B012252421A60704733
:1050C000034B1B68DB68DB685A68024B1A60F6E723
:1050D000381100200C12002010B50400006BFFF7FF
:1050E000FDFC2000FFF7FAFC10BD0000F0B5DE4625
:1050F00057464E46C0B582469B46089E0A9F224BA5
:105100009C46624492003B6B9C46624407239A4350
:105110009146002933D000240F2C08D80B5D3D198F
:1051200034352B700B5D002B01D00134F4E74323A1
:105130000022FA54062E00D90626FE627E64002460
:10514000BC64381DFFF7E8FA38001830FFF7E4FABE
:105150003F6107239E1BBE617F62FC644933FC54A0
:105160005A4651464846FFF73DFB3860099B002BE5
:1051700000D01F60E0BCBB46B246A946F0BD342358
:105180000022FA54D6E7C046FFFFFF3F70B5002467
:1051900007E0A3001B1998000E4BC018FFF7B1FAE7
:1051A0000134062CF5D90C4D2800FFF7AAFA0B4C58
:1051B0002000FFF7A6FA0A48FFF7A3FA0948FFF70D
:1051C000A0FA0948FFF79DFA084B1D60084B1C60C8
:1051D00070BDC04640110020E0110020F4110020F5
:1051E0001812002044120020301200203811002034
:1051F0003C11002010B50400FFF712FB1F4A136892
:10520000013313601E4B1B68002B0CD01D4B1B6819
:10521000002B0DD11A4B1B68DB6AE26A934207D858
:10522000174B1C6004E0164B1C601368012B1FD049
:10523000154A136801331360E36A144A12689342F3
:1052400001D9124A1360211D9800C0188000104B2C
:10525000C018FFF764FAFFF7EFFA0A4B1B68002B40
:1052600005D0074B1B68DA6AE36A9A4203D310BD84
:10527000FFF78CFFDCE7FFF7C7FAF8E7CC11002057
:10528000341100202C120020D8110020DC11002045
:105290004011002010B514E0FFF7C2FA0B4BDB6899
:1052A000DC68201DFFF75DFA094A1368013B1360B3
:1052B000084A1368013B1360FFF7BEFA2000FFF7AE
:1052C0000BFF044B1B68002BE6D110BD44120020DD
:1052D000CC110020D011002010B5FFF7DBFF034BED
:1052E0001B68012BF9D9FFF78FFAF6E74011002070
:1052F00070B504000D00174B1E68174B186804307A
:10530000FFF72FFA631C0DD03419134B1B685C6038
:10531000A64210D9114B18680F4B19680431FFF7DA
:1053200009FA70BD002DEFD00B4B196804310C4801
:10533000FFF7F5F9F5E70B4B1868074B19680431CF
:10534000FFF7F8F9084B1B68A342EAD9064B1C602B
:10535000E7E7C04658120020341100203C1100201D
:1053600030120020381100200C120020F0B587B058
:105370000490059116001F009000FFF741FB041EEA
:105380001DD05420FFF73CFB051E14D00463002DF4
:1053900019D00023039302950D9B01930C9B00935E
:1053A0003B00320005990498FFF7A0FE2800FFF7A4
:1053B00021FF012005E02000FFF790FBE7E7012037
:1053C000404207B0F0BD01204042FAE700B583B08B
:1053D000114B019300230093802210491048FFF7DE
:1053E000C5FF012805D0012806D0431C12D003B008
:1053F00000BD00F0EBFAF6E772B60A4B012252420A
:105400001A60094B02321A60084B00221A60FFF73B
:105410007DFAECE772B6FEE708120020E45E0008B1
:10542000D95200080C1200202C1200205812002023
:10543000024A1368013313607047C046D41100203C
:10544000014B18687047C04658120020F8B5394B18
:105450001B68002B66D1384B1D6801351D60002D7F
:1054600012D1364B1B681B68002B01D072B6FEE7C9
:10547000324A1168324B186810601960314A13685B
:1054800001331360FFF712FE2F4B1B68AB423FD96D
:1054900000272E4B1B68DA6A93009B189A002C4B4E
:1054A000D358012B00D901272A4B1B68002B3ED073
:1054B00001273CE00127214B1B681B68002B29D0EA
:1054C0001E4B1B68DB68DC6863689D4227D3261D82
:1054D0003000FFF746F9A36A002B03D020001830F4
:1054E000FFF73FF9E26A1C4B1B689A4201D91A4B3D
:1054F0001A6093009B189800154BC0183100FFF7F5
:105500000EF9E26A114B1B68DB6A9A42D2D2D2E7EB
:105510000027D0E70C4B012252421A60B9E70A4A31
:105520001360B6E70D4A1368013313600027380093
:10553000F8BDC046D41100205812002038110020B8
:105540003C110020101200200C1200203411002009
:10555000401100205C120020DC11002014120020F9
:1055600070B5314B1B68002B01D172B6FEE7FFF717
:1055700057F92D4B1A68013A1A601B68002B4DD160
:105580002A4B1B68002B01D1002448E00024284B43
:105590001B68002B23D0264BDB68DC68200018300A
:1055A000FFF7DFF8251D2800FFF7DBF8E36A214A43
:1055B0001268934201D91F4A13609800C0188000F6
:1055C0001D4BC0182900FFF7AAF81C4B1B68DB6AAB
:1055D000E26A9A42DBD31A4B01221A60D7E7002C09
:1055E00001D0FFF763FD174B1C68002C0AD1144B48
:1055F0001C68002C13D0FFF707F901240FE0013CD1
:10560000002C07D0FFF722FF0028F8D00C4B012216
:105610001A60F4E70B4B00221A60E8E70024FFF75A
:105620000BF9200070BDC046D4110020CC11002021
:1056300018120020DC11002040110020341100203D
:105640005C1200201412002010B5041E0FD0094B6C
:105650001B68002B01D072B6FEE7FFF7E9FE0021C0
:105660002000FFF745FEFFF77BFF002801D1FFF781
:10567000CBF810BDD411002030B51C4B1B68002B9B
:1056800003D01B4B01221A6030BD194B00221A6057
:10569000184B1B689A00D2189100174A8A58002AA2
:1056A00005D1002B01D0013BF4E772B6FEE7124DA5
:1056B0009900CA1890002818426854684460C918B4
:1056C0008A000832521994420BD09A00D2189100E5
:1056D000094A52185268D168084A1160054A136095
:1056E000D2E7606889006A185060EEE7D4110020A4
:1056F0005C120020DC110020401100203411002039
:1057000010B50C00002809D0054B19681831FFF7B7
:1057100011F801212000FFF7EBFD10BD72B6FEE786
:105720003411002070B50D00140000280DD0084B76
:1057300019681831FEF7F3FF002C01D001256D42E6
:1057400021002800FFF7D4FD70BD72B6FEE7C04609
:105750003411002070B5C368DC68002C26D0250009
:1057600018352800FEF7FDFF154B1B68002B1FD1D5
:10577000251D2800FEF7F5FFE36A124A12689342DE
:1057800001D9104A13609800C01880000E4BC01851
:105790002900FEF7C4FFE26A0C4B1B68DB6A9A42E1
:1057A0000BD90B4B01221A60012070BD72B6FEE7C7
:1057B00029000848FEF7B3FFEDE70020F5E7C046F3
:1057C000D4110020DC1100204011002034110020F1
:1057D0005C12002018120020034B1B680360034B6F
:1057E0001B6843607047C04610120020581200200A
:1057F000F8B504000D00002817D0002917D0FFF7D6
:105800000FF8134B19686368C81A2A68561C18D019
:10581000104E36682768B74201D08B4216D98242B3
:1058200007D800232B6001240CE072B6FEE772B6A5
:10583000FEE75B1A9B182B602000FFF7CDFF0024CA
:1058400000E00024FEF7F8FF2000F8BD0124F9E78E
:105850005812002010120020014B01221A607047DC
:105860005C120020064B1B68002B07D0054B1B6801
:10587000002B01D0002002E0022000E00120704750
:105880002C120020D411002070B5041E2DD0194B0D
:105890001B68834201D072B6FEE7836C002B01D1F6
:1058A00072B6FEE7013B8364C26A416C8A421ED035
:1058B000002B01D0002019E0051D2800FEF751FF44
:1058C000636CE3620722D21AA2610B4A1268934208
:1058D00001D9094A13609800C0188000074BC0180E
:1058E0002900FEF71CFF012000E0002070BD002011
:1058F000FCE7C04634110020DC11002040110020DC
:10590000074B1A681368002B06D101330360002B84
:1059100004D1D368186870470023F7E70020FAE73E
:105920006012002010B54160006191420CD8D21A7B
:1059300083699A4201D3012010BD011D094B1868EB
:10594000FEF7F8FE0020F7E79A4201D2994206D20C
:10595000011D054B1868FEF7EDFE0020ECE7012065
:10596000EAE7C046641200206012002070B5FEF71E
:1059700057FF104B1B68002B02D0FEF75DFF70BD78
:105980000D4D2800FEF7BDFE0C4C2000FEF7B9FEC1
:105990000B4B1D600B4B1C60002210210A20FFF7EF
:1059A000BBF9044B18600028E7D00749FFF744FB18
:1059B000E3E7C04694120020681200207C12002009
:1059C0006012002064120020EC5E000800B583B075
:1059D000FFF7CCFF0A4B1B68002B0CD08022094B31
:1059E0000193022300930023520007490748FFF761
:1059F000BDFC002801D172B6FEE703B000BDC04671
:105A00009412002098120020F45E0008C95C00087F
:105A100030B585B01C00002814D0144B1D68002D33
:105A200022D0009101920290052915DCFFF71AFFA0
:105A3000022809D00D4B1868002300226946FFF7A1
:105A400086F90FE072B6FEE7084B18680023089A43
:105A50006946FFF77CF905E000232200694628002B
:105A6000FFF709FA05B030BD0020FBE794120020D3
:105A700070B582B0184B1B681A68002A24D0DB6806
:105A80001E68DC68251D2800FEF76BFE2000236AD7
:105A900098472423E35C5B07ECD5A3699B199E42DE
:105AA00007D2636024610C4B18682900FEF742FEA0
:105AB000E0E700230093320000212000FFF7A8FF59
:105AC0000028D7D172B6FEE7044A0349106808607F
:105AD000136002B070BDC046601200206412002046
