:020000040800F2
:1000000000900020359A0008D90C0008DF0C000889
:1000100000000000000000000000000000000000E0
:10002000000000000000000000000000157B000838
:100030000000000000000000317C0008797C00080E
:10004000859A000800000000859A0008859A00083B
:10005000859A0008859A0008E50C0008FB0C00084A
:1000600000000000859A0008110D0008859A00081C
:10007000859A0008859A0008859A0008000000000B
:10008000290D0008410D0008590D0008710D0008E8
:10009000859A0008890D0008A10D0008B90D000817
:1000A000E90D0008190E0008859A0008859A0008D5
:0800B000859A0008310E0008DA
:1000C00010B5064C2378002B07D1054B002B02D02E
:1000D000044800E000BF0123237010BD740000201D
:1000E00000000000D8A40008044B10B5002B03D07A
:1000F0000349044800E000BF10BDC04600000000F6
:1001000078000020D8A400080023C25C0133002A34
:10011000FBD1581E7047000003B4714649084000E7
:100120004900095E49008E4403BC70470022430821
:100130008B4274D303098B425FD3030A8B4244D3AF
:10014000030B8B4228D3030C8B420DD3FF220902F1
:1001500012BA030C8B4202D31212090265D0030BB0
:100160008B4219D300E0090AC30B8B4201D3CB03A6
:10017000C01A5241830B8B4201D38B03C01A5241E8
:10018000430B8B4201D34B03C01A5241030B8B42EA
:1001900001D30B03C01A5241C30A8B4201D3CB02D5
:1001A000C01A5241830A8B4201D38B02C01A5241BA
:1001B000430A8B4201D34B02C01A5241030A8B42BD
:1001C00001D30B02C01A5241CDD2C3098B4201D3D5
:1001D000CB01C01A524183098B4201D38B01C01A53
:1001E000524143098B4201D34B01C01A52410309CA
:1001F0008B4201D30B01C01A5241C3088B4201D379
:10020000CB00C01A524183088B4201D38B00C01A25
:10021000524143088B4201D34B00C01A5241411A4C
:1002200000D20146524110467047FFE701B5002059
:1002300000F006F802BDC0460029F7D076E7704707
:100240007047C04680B584B000AF3B1D18000C233A
:100250001A00002109F04DFC2D4B2E4A1A602C4B40
:100260008022D2025A602A4B00229A60284B002238
:10027000DA60274B00221A61254B04225A61244B75
:1002800000221A76224B00225A76214B00229A76BF
:100290001F4B0122DA611E4B2022002199541C4B76
:1002A00000225A621A4B00229A62194B2C2200211A
:1002B0009954174B00221A63154B00225A63144BB2
:1002C00000229A63124B3C2200219954104B0022C9
:1002D000DA640F4B180001F039FD031E01D000F065
:1002E0001DFB3B1D0C4A1A603B1D00225A603B1D42
:1002F00000229A603A1D064B1100180001F0CEFE54
:10030000031E01D000F00AFBC046BD4604B080BD0C
:1003100090000020002401400004002890B591B016
:1003200000AF78602C23FB18180014231A0000215A
:1003300009F0DFFB10243B1918001C231A000021D0
:1003400009F0D7FB7B681B681F4A934238D13B19E1
:100350008022D2011A603B1900225A613B19180011
:1003600004F040FA031E01D000F0D8FA174B1A6CC3
:10037000164B802149030A431A64144B1A6C8023DC
:100380005B031340FB60FB68104B5A6B0F4B022161
:100390000A435A630D4B5B6B02221340BB60BB6880
:1003A0002C217B1804221A607B1803225A607B18C8
:1003B00000229A607B18064A1900100002F058FBD0
:1003C000C046BD4611B090BD00240140001002405F
:1003D0000004005080B582B000AF0C4B9A6B0B4B01
:1003E00001210A439A63094B9B6B012213407B60F6
:1003F0007B68002203210A2002F0B0F80A2002F0F4
:10040000C2F8C046BD4602B080BDC04600100240E2
:1004100090B58BB000AF14243B19180014231A00B8
:10042000002109F066FB5A4B5A6B594B04210A43D1
:100430005A63574B5B6B042213403B613B69544B3F
:100440005A6B534B01210A435A63514B5B6B012298
:100450001340FB60FB684E4B5A6B4D4B02210A4325
:100460005A634B4B5B6B02221340BB60BB68484B2B
:100470005A6B474B08210A435A63454B5B6B082272
:1004800013407B607B68434B00220121180002F07F
:1004900053FCC6239B0040480022190002F04CFC8C
:1004A0003D4B01228021180002F046FC3B19382206
:1004B0001A603B19842292035A603B1900229A6009
:1004C0003A19A023DB051100180002F0D1FA3B19FC
:1004D00001221A603B1901225A603B1900229A60DE
:1004E0003B190022DA603B192A4A1900100002F079
:1004F000BFFA21007B1804221A607B18C4229203E1
:100500005A607B1800229A600C007B18214A19005F
:10051000100002F0ADFA21007B18E22292001A606E
:100520000C003B1901225A603B1900229A603B19CA
:100530000222DA603B19184A1900100002F098FAFA
:1005400021007B1810221A607B1801225A607B1848
:1005500000229A607B180022DA607B180E4A19008C
:10056000100002F085FA00220321062001F0F6FFB8
:10057000062002F008F800220321072001F0EEFF18
:10058000072002F000F8C046BD460BB090BDC04643
:1005900000100240000C00500004005080B500AF75
:1005A0001B4B1C4A1A601A4B1B4A5A60184B0022FC
:1005B0009A60174B0122DA60154B00221A61144B26
:1005C00000225A61124B00229A61114B0022DA611B
:1005D0000F4B00221A620E4B180002F009FC031E9A
:1005E00001D000F09BF90A4B0021180003F032FB08
:1005F000031E01D000F092F9054B0021180003F012
:1006000075FB031E01D000F089F9C046BD4680BDD0
:10061000F400002000540040885D801080B500AFD9
:100620001B4B1C4A1A601A4B1B4A5A60184B00227B
:100630009A60174B0122DA60154B00221A61144BA5
:1006400000225A61124B00229A61114B0022DA619A
:100650000F4B00221A620E4B180002F0C9FB031E5A
:1006600001D000F05BF90A4B0021180003F0F2FA08
:10067000031E01D000F052F9054B0021180003F0D1
:1006800035FB031E01D000F049F9C046BD4680BDD0
:100690004801002000580040885D801090B593B05C
:1006A00000AF78603423FB18180014231A000021CF
:1006B00009F01FFA18243B1918001C231A00002106
:1006C00009F017FA7B681B68474A934248D13B19E7
:1006D00020221A603B190022DA603B19180004F04E
:1006E00081F8031E01D000F019F9404B5A6B3F4BC3
:1006F00001210A435A633D4B5B6B012213407B612E
:100700007B6934217B18C022D2001A607B18122228
:100710005A607B1800229A607B180022DA607B18EE
:1007200006221A617A18A023DB051100180002F0D6
:100730009FF92E4BDA6B2D4B802189030A43DA6334
:100740002A4BDA6B80239B0313403B613B690022F9
:100750000321172001F002FF172001F014FF3EE0F3
:100760007B681B68224A934239D1204B5A6B1F4B3E
:1007700001210A435A631D4B5B6B01221340FB604E
:10078000FB6834217B18C02252011A607B181222A8
:100790005A607B1800229A607B180022DA607B186E
:1007A00006221A617A18A023DB051100180002F056
:1007B0005FF90E4BDA6B0D4B8021C9030A43DA63F4
:1007C0000A4BDA6B8023DB031340BB60BB6800225B
:1007D0000321182001F0C2FE182001F0D4FEC0460B
:1007E000BD4613B090BDC04600540040001002400A
:1007F0000058004080B500AF01F06EF900F01FF81E
:10080000FFF706FEFFF7E6FD00F0FAF8FFF71AFD26
:10081000FFF7C4FEFFF702FF00F086F800F050FB80
:1008200000F01AFC00F0B2FC00F000FD00F084FDC6
:1008300000F076FF00F06EFC01F008F9FEE790B5DD
:1008400093B000AF14243B19180034231A00002180
:1008500009F04FF93B1D180010231A00002109F080
:1008600048F980239B00180003F08CFA3B190A22F8
:100870001A603B1980225200DA6021007B180022A6
:100880001A617B1840225A617B1801229A617B18F9
:100890000222DA617B1802221A627B1800225A6255
:1008A0007B180C229A627B18E0221203DA627B1812
:1008B000C022D2051A637B18180003F0AFFA031E9A
:1008C00001D000F02BF83B1D07221A603B1D0222CD
:1008D0005A603B1D00229A603B1D0022DA603B1DDE
:1008E0000121180003F0AAFD031E01D000F016F844
:1008F000C046BD4613B090BD80B582B000AF7860F1
:100900007B681B68044A934201D101F005F9C04697
:10091000BD4602B080BDC0460014004080B500AFA7
:1009200072B6C046FEE7000080B500AF134B144A14
:100930001A60124B00229A60104B7F22DA600F4B34
:10094000FF221A610D4B00225A610C4B00229A6162
:100950000A4B0022DA61094B8022D2051A62074B4A
:1009600000225A62054B180004F070F8031E01D0F3
:10097000FFF7D4FFC046BD4680BDC0469C010020A5
:100980000028004090B58BB000AF78600C243B1974
:1009900018001C231A00002109F0ABF87B681B68C3
:1009A000154A934224D13B19802292021A603B19C6
:1009B000802292009A613B19180003F013FF031E76
:1009C00001D0FFF7ABFF0D4BDA6D0C4B8021090214
:1009D0000A43DA65094BDA6B084B8021C9000A43E8
:1009E000DA63064BDA6B8023DB001340BB60BB6825
:1009F000C046BD460BB090BD00280040001002402C
:100A000080B500AF1B4B1C4A1A601A4B8222520061
:100A10005A60184B00229A60164BE022D200DA602E
:100A2000144B00221A61134B00225A61114B802291
:100A300092009A610F4B1822DA610E4B00221A6263
:100A40000C4B00225A620B4B00229A62094B072280
:100A5000DA62084B00221A63064B08225A63054BE0
:100A6000180004F041F9031E01D0FFF757FFC046FC
:100A7000BD4680BDC80100200030014090B58BB05C
:100A800000AF786014243B19180014231A000021C9
:100A900009F02FF87B681B68344A934262D1344BCB
:100AA0001A6C334B802149010A431A64304B1A6C8B
:100AB00080235B0113403B613B692D4B5A6B2C4BF0
:100AC00001210A435A632A4B5B6B01221340FB60EE
:100AD000FB6821007B1806221A607B1802225A60EC
:100AE0007B1800229A607B180022DA607B180022B3
:100AF0001A617A18A023DB051100180001F0B8FF75
:100B00001C4B1D4A1A601B4B11225A60194B1022B4
:100B10009A60184B0022DA60164B80221A61154B3E
:100B200000225A61134B00229A61124B0022DA61B3
:100B3000104B802252011A620E4B180001F034FD56
:100B4000031E01D0FFF7EAFE7B680A4A5A65094B8B
:100B50007A689A6200220321192001F0FFFC192013
:100B600001F011FDC046BD460BB090BD0030014004
:100B7000001002402C0200203000024080B582B0FC
:100B800000AF124B1A6C114B01210A431A640F4B30
:100B90001B6C012213407B607B680C4BDA6B0B4BA8
:100BA000802149050A43DA63084BDA6B80235B0531
:100BB00013403B603B6802235B4200220321180084
:100BC00001F0CCFCC046BD4602B080BD0010024022
:100BD000B0B58CB000AF78602B23FB1800221A70E0
:100BE000374BDA6B364B20210A43DA63344BDB6B2D
:100BF00020221340BB60BB680C23FA1810243B1959
:100C00001100180003F0C4FD3B19DB687B627B6AAE
:100C1000002B04D103F0A6FD0300FB6204E003F007
:100C2000A1FD03005B00FB62FB6A26491800FFF789
:100C30007DFA0300013B3B62234B244A1A60224B9E
:100C4000234ADA60204B3A6A5A601F4B00221A612D
:100C50001D4B00229A601C4B00229A612B257C19A7
:100C6000194B180004F014FA030023707B191B7849
:100C7000002B1ED17C19144B180004F061FA0300FC
:100C800023707B191B78002B13D1122001F07BFC01
:100C90007B68032B09D87B6800221900122001F021
:100CA0005DFC0C4B7A681A6003E02B23FB180122D1
:100CB0001A702B23FB181B781800BD460CB0B0BD72
:100CC0000010024040420F00880200200014004043
:100CD000E70300000400002080B500AFFEE780B508
:100CE00000AFFEE780B500AF042002F043F8082013
:100CF00002F040F8C046BD4680BD80B500AF102070
:100D000002F038F8202002F035F8C046BD4680BD1C
:100D100080B500AF034B180001F09CFDC046BD46F6
:100D200080BDC0462C02002080B500AF034B1800E8
:100D300004F074FBC046BD4680BDC04624030020BD
:100D400080B500AF034B180004F068FBC046BD46F9
:100D500080BDC0467003002080B500AF034B180073
:100D600004F05CFBC046BD4680BDC0468802002042
:100D700080B500AF034B180004F050FBC046BD46E1
:100D800080BDC046BC03002080B500AF034B1800F7
:100D900004F044FBC046BD4680BDC04608040020A8
:100DA00080B500AF034B180004F038FBC046BD46C9
:100DB00080BDC0465404002080B500AF094B1B68BD
:100DC0009A69E023DB00134004D0064B180002F0C0
:100DD000CFF803E0034B180002F0B0F8C046BD4660
:100DE00080BDC046F400002080B500AF094B1B68F1
:100DF0009A69E023DB00134004D0064B180002F090
:100E0000B7F803E0034B180002F098F8C046BD465F
:100E100080BDC0464801002080B500AF034B1800DC
:100E200004F01AF8C046BD4680BDC046C801002087
:100E300080B500AF034B180005F00CFEC046BD4660
:100E400080BDC046A004002080B586B000AF7860A9
:100E5000144A154BD31A7B617B693B61134B1B68AA
:100E6000002B02D1114B124A1A60104B1A687B6892
:100E7000D3183A699A4207D208F006FE03000C2202
:100E80001A6001235B4209E0084B1B68FB60074BBB
:100E90001A687B68D218054B1A60FB681800BD46BB
:100EA00006B080BD0090002000040000D4020020A5
:100EB000301F002080B500AFC046BD4680BD000099
:100EC00080B59CB000AF6023FB18180010231A00F7
:100ED000002108F00EFE5423FB1818000C231A0002
:100EE000002108F006FE3823FB1818001C231A0006
:100EF000002108F0FEFD3B1D180034231A000021DC
:100F000008F0F7FD514B524A1A60504B00225A60CC
:100F10004E4B00229A604D4B4E4ADA604B4B0022FA
:100F20001A614A4B00225A61484B00229A61474B92
:100F3000180004F0ADF8031E01D0FFF7EFFC6021AC
:100F40007B18802252011A607A18404B1100180059
:100F500004F070FD031E01D0FFF7E0FC3B4B1800CE
:100F600004F044F9031E01D0FFF7D8FC54217B188C
:100F700000221A607B1800225A607B1800229A60B7
:100F80007A18324B1100180005F04EFB031E01D0F9
:100F9000FFF7C4FC38217B1830221A607B1800222E
:100FA0005A607B1802229A607B180022DA607B1854
:100FB00000221A617B1800225A617B1800229A6174
:100FC0007918224B0822180004F030FB031E01D0D0
:100FD000FFF7A4FC3B1D00221A603B1D00225A6053
:100FE0003B1D00229A603B1D0022DA603B1D00225F
:100FF0001A613B1D802292015A613B1D00229A61B9
:101000003B1D0022DA613B1D00221A623B1D80223B
:1010100092045A623B1D00229A623B1D0022DA6252
:101020003B1D00221A633A1D084B1100180005F001
:1010300063FB031E01D0FFF771FC044B180000F0A6
:10104000DDFAC046BD461CB080BDC046D8020020B7
:10105000002C0140FFFF000080B588B000AF1423D2
:10106000FB1818000C231A00002108F042FD3B1D5C
:10107000180010231A00002108F03BFD224B234AE0
:101080001A60214B00225A601F4B00229A601E4BAF
:101090001F4ADA601C4B00221A611B4B80229A61A6
:1010A000194B180004F062F9031E01D0FFF736FC5B
:1010B00014217B1800221A607B1800229A607A188B
:1010C000114B1100180005F0AFFA031E01D0FFF715
:1010D00025FC3B1D00221A603B1D01225A603B1D6E
:1010E00000229A603B1D0022DA60391D064B08225F
:1010F000180004F0FBFA031E01D0FFF70FFCC046F6
:10110000BD4608B080BDC046240300200004004056
:10111000FFFF000080B584B000AF3B1D18000C231A
:101120001A00002108F0E5FC154B164A1A60144B12
:1011300000225A60124B00229A60114B124ADA6068
:101140000F4B00229A610E4B180003F0A1FF031E03
:1011500001D0FFF7E3FB3B1D00221A603B1D00227C
:101160009A603A1D064B1100180005F05DFA031E47
:1011700001D0FFF7D3FBC046BD4604B080BDC046DA
:101180007003002000100040FFFF000080B588B011
:1011900000AF3B1D18001C231A00002108F0A9FC19
:1011A0001F4B204A1A601E4B00225A601C4B002223
:1011B0009A601B4B1C4ADA60194B00221A61184BCB
:1011C00000229A61164B180003F062FF031E01D043
:1011D000FFF7A4FB124B180004F068F8031E01D0BF
:1011E000FFF79CFB3B1D60221A603B1D00225A60EA
:1011F0003B1D00229A603B1D00221A61391D084BDD
:101200000022180004F016FB031E01D0FFF786FB36
:10121000034B180000F0F2F9C046BD4608B080BD8F
:10122000BC03002000200040FFFF000080B594B008
:1012300000AF3423FB1818001C231A00002108F00B
:1012400058FC3B00180034231A00002108F051FC20
:10125000374B384A1A60364B00225A60344B002212
:101260009A60334B0122DA60314B00221A61304B15
:1012700000225A612E4B00229A612D4B180003F078
:1012800007FF031E01D0FFF749FB294B180004F0AC
:101290000DF8031E01D0FFF741FB34217B186022BB
:1012A0001A607B1800225A607B1800229A607B1813
:1012B0000022DA607B1800221A617B1800225A6132
:1012C0007B1800229A617918194B0022180004F04B
:1012D000B1FA031E01D0FFF721FB3B0000221A6088
:1012E0003B0000225A603B0000229A603B00002233
:1012F000DA603B0000221A613B00802292015A61B1
:101300003B0000229A613B0000221A633A00084B1E
:101310001100180005F0F0F9031E01D0FFF7FEFAE6
:10132000034B180000F06AF9C046BD4614B080BDFA
:10133000080400200044014080B584B000AF3B00A9
:10134000180010231A00002108F0D3FB1F4B204A7D
:101350001A601E4B00225A601C4B00229A601B4BE5
:101360001C4ADA60194B00221A61184B00225A619C
:10137000164B80229A61154B180003F089FE031E5C
:1013800001D0FFF7CBFA114B180003F0EFFF031E5B
:1013900001D0FFF7C3FA3B0000221A603B00012294
:1013A0005A603B0000229A603B000022DA6039005C
:1013B000064B0022180004F099F9031E01D0FFF734
:1013C000ADFAC046BD4604B080BDC04654040020FE
:1013D00000480140FFFF000080B58EB000AF78608C
:1013E0002423FB18180014231A00002108F081FBA5
:1013F0007B681B68524A93420ED1524B1A6C514B78
:10140000802109010A431A644E4B1A6C80231B0188
:1014100013403B623B6A8FE07B681B684A4A9342F9
:1014200014D1484BDA6B474B10210A43DA63454B22
:10143000DB6B10221340FB61FB69002203211120AA
:1014400001F08CF8112001F09EF875E07B681B68B4
:101450003E4A934216D13B4B1A6C3A4B802109020B
:101460000A431A64374B1A6C80231B021340BB617A
:10147000BB6900220321132001F070F8132001F052
:1014800082F859E07B681B68314A934216D12D4B94
:101490001A6C2C4B802189020A431A64294B1A6C5E
:1014A00080239B0213407B617B690022032115206E
:1014B00001F054F8152001F066F83DE07B681B68E8
:1014C000244A934238D11F4B1A6C1E4B8021C9020B
:1014D0000A431A641B4B1A6C8023DB0213403B61E6
:1014E0003B69184B5A6B174B01210A435A63154B42
:1014F0005B6B01221340FB60FB6824217B18802278
:101500001A607B1802225A607B1800229A607B18AE
:101510000022DA607B1805221A617A18A023DB0505
:101520001100180001F0A4FA00220321162001F096
:1015300015F8162001F027F8C046BD460EB080BD54
:10154000002C01400010024000100040002000402C
:10155000004401400048014090B58BB000AF786076
:1015600014243B19180014231A00002108F0C1FAB2
:101570007B681B681E4A934235D11E4BDA6B1D4BAC
:1015800002210A43DA631B4BDB6B022213403B61EF
:101590003B69184B5A6B174B02210A435A63154B90
:1015A0005B6B02221340FB60FB6821007B18012269
:1015B0001A607B1802225A607B1800229A607B18FE
:1015C0000022DA607B1801221A617B180A4A19008E
:1015D000100001F04DFA00220321102000F0BEFFA0
:1015E000102000F0D0FFC046BD460BB090BDC046F5
:1015F00000040040001002400004005090B58BB081
:1016000000AF786014243B19180014231A0000213D
:1016100008F06FFA7B681B683C4A934222D13C4B2E
:101620005A6B3B4B02210A435A63394B5B6B0222D4
:1016300013403B613B6921007B1840221A607B18F4
:1016400002225A607B1800229A607B180022DA601E
:101650007B1801221A617B182E4A1900100001F034
:1016600007FA4FE07B681B682B4A934222D1284B34
:101670005A6B274B02210A435A63254B5B6B0222AC
:101680001340FB60FB6814217B1802221A607B1850
:1016900002225A607B1800229A607B180022DA60CE
:1016A0007B1800221A617B181A4A1900100001F0F9
:1016B000DFF927E07B681B68184A934222D1144B5C
:1016C0005A6B134B01210A435A63114B5B6B012286
:1016D0001340BB60BB6814217B1840221A607B1842
:1016E00002225A607B1800229A607B180022DA607E
:1016F0007B1805221A617A18A023DB051100180057
:1017000001F0B6F9C046BD460BB090BD002C0140BB
:10171000001002400004005000200040004401403E
:1017200080B500AF164B174A1A60154BE1225202E2
:101730005A60134B00229A60114B0022DA60104B62
:1017400000221A610E4B0C225A610D4B00229A6145
:101750000B4B0022DA610A4B00221A62084B00226E
:101760005A62074B00229A62054B180005F078F880
:10177000031E01D0FFF7D2F8C046BD4680BDC0466B
:10178000A00400200048004090B58BB000AF786006
:1017900014243B19180014231A00002108F0A9F999
:1017A0007B681B681F4A934238D11F4BDA6B1E4B74
:1017B0008021C9020A43DA631B4BDA6B8023DB0208
:1017C00013403B613B69184B5A6B174B02210A438C
:1017D0005A63154B5B6B02221340FB60FB683B199D
:1017E000C02212011A6021007B1802225A607B1865
:1017F00000229A607B180022DA607B1804221A61AA
:101800007B180A4A1900100001F032F90022032166
:101810001D2000F0A3FE1D2000F0B5FEC046BD4611
:101820000BB090BD00480040001002400004005082
:1018300080B584B002AF7860114B7A681A600022DC
:101840006421052006F05AFC02000E4B1A6080232A
:101850005A000D490D480E4B0193012300930023BC
:1018600007F001F80300013B5A1E9341DBB2002B45
:1018700001D0002300E001231800BD4602B080BD66
:101880003C05002038050020F0A40008ED190008F0
:10189000340500200EB490B59EB000AF786076237A
:1018A000FB1800221A801023FB1800221A60043350
:1018B00060220021180008F01CF9474B1B68012228
:1018C00013400AD17B681800FEF71EFC03009AB291
:1018D000424B1A80404B01221A60414B1B68012287
:1018E00013400CD17B681800FEF70EFC03009BB27E
:1018F00002339AB23B4B1A80394B01221A60394BA2
:101900001B88622B01D900235EE0344B1B881A0030
:10191000796810243B19180008F0E2F82F4B1B8857
:101920001A0020003B183A2199542C4B1B88013394
:101930003A182021D1548823FB18FB60294B1B88BF
:101940001A003B189818FB688422BA1812686421A0
:1019500008F022FA020076217B181A807B180022F8
:101960009A5E204B1B88190062235B1A9A4201DBA6
:10197000002329E01B4B1B881A0076243B19002109
:101980005B5ED318013310203A180A21D154154B4D
:101990001B881A003B1900215B5ED3180233040038
:1019A0003A180021D154104B18683919002300222D
:1019B00006F0F4FB0300013B5A1E9341DBB2002BFF
:1019C00001D0002300E001231800BD461EB090BCEA
:1019D00008BC03B01847C04644050020400500205D
:1019E0004C0500204805002038050020B0B59CB00B
:1019F00000AF78600C23FB1800221A6004336022C9
:101A00000021180008F075F80E4B1B6801225242A5
:101A10000C257919180006F0F9FC03005A1E9341B1
:101A2000DBB2002BF0D0084B1C687B191800FEF7C6
:101A30006BFB03009AB279196423200004F066FF5F
:101A4000E2E7C046380500203C05002080B582B0A2
:101A500002AF0F4B1800FFF7EBFE03001A00012343
:101A60005340DBB2002B01D000230DE080235A004D
:101A700008490948094B019301230093002306F00C
:101A8000F2FE07F05BF800231800BD4680BDC0469B
:101A9000A004002000A50008A11A0008500500209D
:101AA00080B584B000AF7860094BBB600023FB6059
:101AB000FA680849064B1800FFF7ECFEFB68013393
:101AC000FB60FA239B00180007F012F8F0E7C0460D
:101AD00000A500080CA5000880B582B000AFFB1D72
:101AE00000221A700B4B1A680A4B802149000A43E6
:101AF0001A600320FFF76CF8031E03D0FB1D0122C0
:101B00001A7001E0FFF73AF8FB1D1B781800BD467C
:101B100002B080BD0020024080B500AF054B1B78AD
:101B20001A00054B1B68D218034B1A60C046BD460D
:101B300080BDC046080000205405002080B500AFDD
:101B4000024B1B681800BD4680BDC04654050020EE
:101B500080B582B000AF786039607B681B68054A49
:101B60001A403B681A437B681A60C046BD4602B003
:101B700080BDC046FFFF3FFE80B582B000AF7860F9
:101B80007B681A68E0235B0413401800BD4602B06E
:101B900080BD80B584B000AFF860B9607A60FB6842
:101BA0005B69BA6804210A40072191400A00D243C8
:101BB0001A40BB6804210B40796899400B001A4316
:101BC000FB685A61C046BD4604B080BD80B582B096
:101BD00000AF786039607B685B693A6804210A402D
:101BE000072191400A001A403B6804210B40DA406B
:101BF00013001800BD4602B080BD80B584B000AFB0
:101C0000F860B9607A60FB689B6ABA681F210A4075
:101C10000F2191400A00D2431A407B689B0E0F218E
:101C20001940BB681F20034099400B001A43FB6812
:101C30009A62C046BD4604B080BD80B582B000AF98
:101C4000786039607B689A6A3B685B035B0B1A4378
:101C50007B689A62C046BD4602B080BD80B582B046
:101C600000AF786039607B689B6A3A685203520B18
:101C7000D2431A407B689A62C046BD4602B080BD1E
:101C800080B584B000AFF860B9607A60FB685B69CA
:101C9000BA681202D2431A40BB681B0279680B4033
:101CA00004490B401A43FB685A61C046BD4604B064
:101CB00080BDC04600FFFF0780B582B000AF7860EE
:101CC0007B689B68054A1340802252051A437B6853
:101CD0009A60C046BD4602B080BDC046E8FFFF6FB7
:101CE00080B582B000AF78607B689A6880235B051E
:101CF0001A4080235B059A4201D1012300E00023B2
:101D00001800BD4602B080BD80B582B000AF7860DB
:101D10007B689B6801221340012B01D1012300E065
:101D200000231800BD4602B080BD80B582B000AF70
:101D300078607B689B6804221340042B01D1012347
:101D400000E000231800BD4602B080BD80B588B019
:101D500000AF78601F23FB1800221A700023BB61BC
:101D600000237B610023FB607B68002B01D10123F2
:101D70007FE17B689B6D002B0AD17B681800FEF722
:101D8000CDFA7B680022DA657B68542200219954E1
:101D90007B681B681800FFF7A3FF031E15D17B6843
:101DA0001B681800FFF788FFB44B1B68B449180084
:101DB000FEF7BCF9030001335B00FB6002E0FB6847
:101DC000013BFB60FB68002BF9D17B681B681800A6
:101DD000FFF786FF031E0FD17B689B6D10221A430D
:101DE0007B689A657B68DB6D01221A437B68DA6544
:101DF0001F23FB1801221A707B681B681800FFF76D
:101E000094FF03003B617B689B6D1022134000D060
:101E100022E13B69002B00D01EE17B689B6D994A53
:101E2000134002221A437B689A657B681B6818007E
:101E3000FFF76AFF031E00D0ADE07B689A687B68FD
:101E40001B7E9B031A437B685B7EDB031A437B6824
:101E50009B7E5B031A437B681B6B002B02D08023A5
:101E60005B0100E000231A437B68DB681A437B6850
:101E70001B69002B04DA7B681B695B005B0801E0CF
:101E800080239B031A437B682C215B5C5B0013431C
:101E9000BA691343BB617B6820229B5C012B15D17F
:101EA0007B689B7E002B05D1BB69802252021343C5
:101EB000BB610BE07B689B6D20221A437B689A65AF
:101EC0007B68DB6D01221A437B68DA657B685B6A9D
:101ED000002B0AD07B685A6AE0235B001A407B68BB
:101EE0009B6A1343BA691343BB617B681B68DB6859
:101EF000654A134019007B681B68BA690A43DA60B7
:101F00007B685B689B0F9A077B68DB6C13437A697D
:101F100013437B617B683C229B5C012B11D17B6866
:101F20005B689B0F9A077B681B6C1A437B685B6C32
:101F30001A437B689B6C1A437B691343012213434A
:101F40007B617B681B681B69504A134019007B68E2
:101F50001B687A690A431A617B685A68C0231B06AA
:101F60009A4218D07B685A688023DB059A4212D0C7
:101F70007B685A6880231B069A420CD0444B1B682E
:101F8000444A134019007B685A68F0239B031A40A7
:101F90003F4B0A431A607B6818687B685B6B1A00CA
:101FA0000021FFF7F6FD7B6818687B689B6B3A4958
:101FB0001A00FFF7EEFD7B681B69002B09D17B68D7
:101FC0001B689A6A7B681B68102149420A439A621F
:101FD00018E07B681A6980239B039A4212D17B68C0
:101FE0001B689B6A7B68DB69013B9B001C221340DA
:101FF000102252429A4011007B681A6E7B681B685F
:102000000A439A627B681B6800211800FFF7DEFD17
:1020100002007B685B6B9A420BD17B680022DA6519
:102020007B689B6D0322934301221A437B689A6568
:102030001CE07B689B6D1222934310221A437B683D
:102040009A657B68DB6D01221A437B68DA651F2382
:10205000FB1801221A7009E07B689B6D10221A435D
:102060007B689A651F23FB1801221A701F23FB1837
:102070001B781800BD4608B080BDC0460000002097
:10208000400D0300FDFEFFFF0102DEFF02FCFF1F0B
:1020900008270140FFFFC3FF04FFFF0780B586B09C
:1020A00000AF786039601723FB1800221A700023F4
:1020B000FB607B6854229B5C012B01D10223C0E1B1
:1020C0007B685422012199547B681B681800FFF734
:1020D0002CFE031E00D0A3E13B685B68022B00D1FD
:1020E00043E17B681A6980231B069A4204D07B680F
:1020F0001B69C14A934208D17B681A683B681B6818
:1021000019001000FFF799FDC9E07B681A6E3B6863
:102110005B681F210B400F2199400B00DB431340EC
:1021200019003B681B685B035B0B05D13B681B68B0
:102130009B0E1F22134098E03B681B68012213404E
:1021400000D091E03B681B680222134000D089E078
:102150003B681B680422134000D081E03B681B6889
:102160000822134000D079E03B681B68102213401E
:1021700000D071E03B681B682022134000D069E06A
:102180003B681B684022134000D061E03B681B683D
:102190008022134000D059E03B681A6880235B001E
:1021A000134051D13B681A6880239B00134049D1EA
:1021B0003B681A688023DB00134041D13B681A68F2
:1021C00080231B01134039D13B681A6880235B01CF
:1021D000134031D13B681A6880239B01134029D1F9
:1021E0003B681A688023DB01134021D13B681A68E1
:1021F00080231B02134019D13B681A6880235B02BD
:10220000134011D13B681A6880239B02134009D107
:102210003B681A688023DB02134001D0122324E0BC
:10222000002322E0112320E010231EE00F231CE0F6
:102230000E231AE00D2318E00C2316E00B2314E004
:102240000A2312E0092310E008230EE007230CE024
:1022500006230AE0052308E0042306E0032304E044
:10226000022302E0012300E000233A6852681F20A5
:10227000024093400A001A437B681A663B685B6819
:102280009B085A1C7B68DB699A4208D87B681868EF
:102290003B6859683B681B681A00FFF7AEFC7B6817
:1022A00018683B6819683B689B681A00FFF7E8FCF0
:1022B0003B681B68002B00DBBCE0504B1800FFF7AD
:1022C0005BFC03003B613B681B684D4A934222D193
:1022D0003A6980231B0413401DD13B6980221204FC
:1022E0001343464A19001000FFF732FC454B1B68A8
:1022F00045491800FDF71AFF03005A1C13005B0044
:102300009B189B00FB6002E0FB68013BFB60FB68E5
:10231000002BF9D18EE03B681B683C4A93420ED1FA
:102320003A6980235B04134009D13B69802252043F
:102330001343324A19001000FFF70AFC7AE03B68A9
:102340001B68334A934200D074E03A698023DB0370
:10235000134000D06EE03B698022D2031343274A2A
:1023600019001000FFF7F4FB64E07B681A69802312
:102370001B069A4204D07B681B691F4A934207D10F
:102380007B681A683B681B6819001000FFF766FC41
:102390003B681B68002B4DDA184B1800FFF7ECFB6D
:1023A00003003B613B681B68154A934208D13B69B7
:1023B000184A1340114A19001000FFF7C9FB39E011
:1023C0003B681B68114A934208D13B69124A13408B
:1023D0000A4A19001000FFF7BBFB2BE03B681B68A3
:1023E0000B4A934226D13B690C4A1340034A190019
:1023F0001000FFF7ADFB1DE004000080082701403E
:10240000001000B000000020400D0300004000B8A4
:10241000002000B4FFFF7FFFFFFFFFFEFFFFBFFFB5
:102420007B689B6D20221A437B689A651723FB18F3
:1024300001221A707B685422002199541723FB183B
:102440001B781800BD4606B080BDC04680B582B07E
:1024500000AF0200FB1D1A70FB1D1B787F2B09D8F3
:10246000FB1D1B781A001F231A40044B01219140C9
:102470000A001A60C046BD4602B080BD00E100E01F
:1024800090B583B000AF02003960FB1D1A70FB1DD0
:102490001B787F2B28D82F4AFB1D1B785BB29B082B
:1024A000C0339B009B58FA1D1278110003220A408A
:1024B000D200FF2191400A00D2431A4011003B682C
:1024C0009B01FF221A40FB1D1B78180003230340C9
:1024D000DB009A401F48FB1D1B785BB29B080A4338
:1024E000C0339B001A5031E01B4AFB1D1B781900BA
:1024F0000F230B40083B9B0806339B00D318043383
:102500001B68FA1D1278110003220A40D200FF2135
:1025100091400A00D2431A4011003B689B01FF2200
:102520001A40FB1D1B78180003230340DB009A4070
:102530000948FB1D1B781C000F232340083B9B0808
:102540000A4306339B00C31804331A60C046BD46D5
:1025500003B090BD00E100E000ED00E080B584B084
:1025600000AFB9607A600F217B18021C1A70BA683C
:102570007B181B785BB211001800FFF781FFC04683
:10258000BD4604B080BD80B582B000AF0200FB1D27
:102590001A70FB1D1B785BB21800FFF757FFC0468F
:1025A000BD4602B080BD000080B582B000AF78604B
:1025B0007B68002B01D1012377E07B681B683D4AD3
:1025C0009446634414211800FDF7B0FD03009A00FF
:1025D0007B681A647B682522022199547B681B68FA
:1025E0001A687B681B6834490A401A607B681B685C
:1025F00019687B689A687B68DB681A437B681B698B
:102600001A437B685B691A437B689B691A437B6842
:10261000DB691A437B681B6A1A437B681B680A43A1
:102620001A607B68180000F0D3F97B689A688023F1
:10263000DB019A4202D17B6800225A607B685A68AB
:102640007B685B6C3F210A401A607B689B6C7A68F0
:10265000D26C5A607B685B68002B11D07B685B682A
:10266000042B0DD87B68180000F0DEF97B681B6D29
:1026700000221A607B685B6D7A68926D5A6008E090
:102680007B6800221A657B6800225A657B680022FD
:102690009A657B680022DA637B68252201219954C0
:1026A0007B6824220021995400231800BD4602B003
:1026B00080BDC046F8FFFDBF0F80FFFF80B582B030
:1026C00000AF78607B68002B01D1012350E07B686C
:1026D00025229B5CDBB2022B08D07B680422DA63E4
:1026E0007B68242200219954012341E07B681B6808
:1026F0001A687B681B680E218A431A607B685B6CD2
:102700001A687B685B6C1C490A401A607B681B680E
:102710001A687B681B6801218A431A60174B596845
:102720007B681B6C1C22134001229A40134B0A4306
:102730005A607B689B6C7A68D26C5A607B681B6DB0
:10274000002B0CD07B681B6D1A687B681B6D0A49D7
:102750000A401A607B685B6D7A68926D5A607B688C
:102760002522012199547B682422002199540023B9
:102770001800BD4602B080BDFFFEFFFF0000024012
:1027800080B584B000AF78600F217B1800221A70EA
:102790007B6825229B5CDBB2022B06D07B6804227F
:1027A000DA637B1801221A7049E07B681B681A689B
:1027B0007B681B680E218A431A607B681B681A6855
:1027C0007B681B6801218A431A607B685B6C1A680E
:1027D0007B685B6C1D490A401A601D4B59687B6819
:1027E0001B6C1C22134001229A40194B0A435A6069
:1027F0007B689B6C7A68D26C5A607B681B6D002B7F
:102800000CD07B681B6D1A687B681B6D0F490A40F2
:102810001A607B685B6D7A68926D5A607B682522CE
:10282000012199547B682422002199547B689B6B79
:10283000002B04D07B689B6B7A68100098470F23AD
:10284000FB181B781800BD4604B080BDFFFEFFFFDB
:102850000000024080B584B000AF7860554B1B6823
:10286000FB607B681B681B68BB607B681B6C1C2261
:10287000134004229A401300FA68134027D0BB6823
:102880000422134023D07B681B681B68202213405E
:1028900007D17B681B681A687B681B6804218A4320
:1028A0001A60444B59687B681B6C1C22134004223D
:1028B0009A40404B0A435A607B681B6B002B00D147
:1028C00073E07B681B6B7A68100098476DE07B684B
:1028D0001B6C1C22134002229A401300FA6813401A
:1028E0002ED0BB68022213402AD07B681B681B686D
:1028F000202213400BD17B681B681A687B681B6819
:102900000A218A431A607B68252201219954294BA8
:1029100059687B681B6C1C22134002229A40254B8D
:102920000A435A607B682422002199547B68DB6A41
:10293000002B3AD07B68DB6A7A681000984734E055
:102940007B681B6C1C22134008229A401300FA6813
:1029500013402BD0BB680822134027D07B681B682C
:102960001A687B681B680E218A431A60114B5968EC
:102970007B681B6C1C22134001229A400D4B0A43BA
:102980005A607B680122DA637B6825220121995411
:102990007B682422002199547B685B6B002B05D057
:1029A0007B685B6B7A6810009847C046C046BD469E
:1029B00004B080BD0000024080B582B000AF7860F6
:1029C0007B6825229B5CDBB21800BD4602B080BD4F
:1029D00080B584B000AF78607B681B6C9B08104AA0
:1029E000944663449B001A007B685A647B681B68AA
:1029F0001A00FF231340083B14211800FDF796FB33
:102A00000300FB607B68074A9A64FB681F2213403F
:102A100001229A407B68DA64C046BD4604B080BD9E
:102A2000008200108008024080B584B000AF78605A
:102A30007B685B683F221340FB60FB680A4A944650
:102A400063449B001A007B681A657B68074A5A65D5
:102A5000FB68013B0322134001229A407B689A6580
:102A6000C046BD4604B080BD3F8200104009024010
:102A700080B586B000AF7860396000237B6147E1A4
:102A80003B681B6801217A6991400A001340FB6092
:102A9000FB68002B00D138E13B685B6803221340E0
:102AA000012B05D03B685B6803221340022B30D119
:102AB0007B689B683B617B695B0003229A40130043
:102AC000DA433B6913403B613B68DA687B695B0032
:102AD0009A4013003A6913433B617B683A699A60F4
:102AE0007B685B683B6101227B699A401300DA4393
:102AF0003B6913403B613B685B681B0901221A403C
:102B00007B699A4013003A6913433B617B683A69D9
:102B10005A603B685B6803221340032B17D07B6825
:102B2000DB683B617B695B0003229A401300DA4358
:102B30003B6913403B613B689A687B695B009A4044
:102B400013003A6913433B617B683A69DA603B687A
:102B50005B6803221340022B23D17B69DA087B6870
:102B600008329200D3583B617B69072213409B00D7
:102B70000F229A401300DA433B6913403B613B68E4
:102B80001A697B6907210B409B009A4013003A6940
:102B900013433B617B69DA087B680832920039692C
:102BA000D1507B681B683B617B695B0003229A40C4
:102BB0001300DA433B6913403B613B685B680322C7
:102BC0001A407B695B009A4013003A6913433B61EA
:102BD0007B683A691A603B685A68C0239B021340BD
:102BE00000D192E0504A7B699B0818339B009B58A8
:102BF0003B617B6903221340DB000F229A401300E4
:102C0000DA433B6913403B617A68A023DB059A42B3
:102C100013D07B68454A93420DD07B68444A934267
:102C200007D07B68434A934201D1032306E0052382
:102C300004E0022302E0012300E000237A6903217B
:102C40000A40D20093403A6913433B6136497B699D
:102C50009B0818339B003A695A50334B1B683B6101
:102C6000FB68DA433B6913403B613B685A68802349
:102C70005B03134003D03A69FB6813433B612A4B63
:102C80003A691A60284B5B683B61FB68DA433B6931
:102C900013403B613B685A6880239B03134003D079
:102CA0003A69FB6813433B611F4B3A695A601E4AFD
:102CB0008423D3583B61FB68DA433B6913403B6193
:102CC0003B685A6880239B02134003D03A69FB6833
:102CD00013433B61144984223B698B50124A802381
:102CE000D3583B61FB68DA433B6913403B613B6867
:102CF0005A6880235B02134003D03A69FB68134390
:102D00003B61094980223B698B507B6901337B61C0
:102D10003B681A687B69DA40131E00D0B0E6C046F3
:102D2000C046BD4606B080BD0018024000040050F9
:102D300000080050000C005080B582B000AF7860F1
:102D400008001100BB1C021C1A807B1C0A1C1A7094
:102D50007B1C1B78002B04D0BB1C1A887B689A61F3
:102D600003E0BB1C1A887B689A62C046BD4602B06D
:102D700080BD000080B582B000AF0200BB1D1A808C
:102D8000104BDB68BA1D1288134008D00D4BBA1DDA
:102D90001288DA60BB1D1B88180000F015F8094B7B
:102DA0001B69BA1D1288134008D0064BBA1D128841
:102DB0001A61BB1D1B88180000F010F8C046BD4604
:102DC00002B080BD0018024080B582B000AF0200A2
:102DD000BB1D1A80C046BD4602B080BD80B582B022
:102DE00000AF0200BB1D1A80C046BD4602B080BDC8
:102DF00080B582B000AF78607B68002B01D10123E1
:102E00008FE07B6841229B5CDBB2002B07D17B68A3
:102E10004022002199547B681800FDF73FFC7B6835
:102E20004122242199547B681B681A687B681B68BF
:102E300001218A431A607B685A687B681B683B499A
:102E40000A401A617B681B689A687B681B6838496E
:102E50000A409A607B68DB68012B08D17B689A681E
:102E60007B681B68802109020A439A6007E07B683F
:102E70009A687B681B68842109020A439A607B6810
:102E8000DB68022B09D17B681B685A687B681B686A
:102E9000802109010A435A6007E07B681B685A6871
:102EA0007B681B6823490A405A607B681B685A6824
:102EB0007B681B6820490A435A607B681B68DA6894
:102EC0007B681B681A490A40DA607B681A697B686C
:102ED0005B691A4311007B689B691A027B681B6857
:102EE0000A43DA607B68D9697B681A6A7B681B6869
:102EF0000A431A607B681B681A687B681B6801219B
:102F00000A431A607B6800225A647B6841222021B0
:102F100099547B6800221A637B68422200219954ED
:102F200000231800BD4602B080BDC046FFFFFFF081
:102F3000FF7FFFFFFFF7FFFF0080000280B584B036
:102F400000AF78607B681B689B69FB607B681B68CF
:102F50001B68BB607B685B6B002B05D07B685B6B81
:102F6000BA68F96878689847C046BD4604B080BD25
:102F700080B586B000AF78607B681B689B697B6119
:102F80007B681B681B683B617B691B0A1A00012375
:102F9000134010D03B69DB091A00012313400AD00B
:102FA0007B685B6C01221A437B685A647B681B68F0
:102FB00080225200DA617B699B0A1A0001231340C8
:102FC00010D03B69DB091A00012313400AD07B684B
:102FD0005B6C08221A437B685A647B681B688022FA
:102FE000D200DA617B695B0A1A000123134010D01A
:102FF0003B69DB091A00012313400AD07B685B6C34
:1030000002221A437B685A647B681B688022920004
:10301000DA617B685B6CFB60FB680B22134005D0B8
:10302000FA687B681100180000F044FCC046BD46F9
:1030300006B080BD80B582B000AF7860C046BD46A6
:1030400002B080BD80B582B000AF7860C046BD469A
:1030500002B080BD80B582B000AF7860080011007A
:10306000FB1C021C1A703B000A1C1A80C046BD469D
:1030700002B080BD80B582B000AF7860C046BD466A
:1030800002B080BD80B582B000AF7860C046BD465A
:1030900002B080BD80B582B000AF7860C046BD464A
:1030A00002B080BD80B586B000AFF860B9607A60CC
:1030B000FB68DB6A7B61BB683B61FB6840229B5C11
:1030C000012B01D10223FBE0FB684022012199542E
:1030D0003B695B091A00012313400CD07B685B0934
:1030E0001A000123134006D03A69FB68110018004A
:1030F00000F0F6F9DFE03B691B091A0001231340D9
:1031000054D07B681B091A00012313404ED0FB6882
:103110005B8D9BB2002B2DD1FB6841229B5CDBB207
:10312000282B0BD17A6980239B049A4206D13A69F5
:10313000FB681100180000F063FB36E0FB684122D9
:103140009B5CDBB2292B10D17B695F4A93420CD088
:10315000FB681B681022DA61FB68180000F0D5FCE0
:10316000FB68180000F056F91FE0FB681B6810228E
:10317000DA619DE0FB681B681022DA61FB685B6C1A
:1031800004221A43FB685A647B69002B05D07A69D4
:1031900080235B049A4200D08AE0FB685A6CFB688B
:1031A0001100180000F086FB82E081E03B699B087B
:1031B0001A000123134031D07B689B081A000123B9
:1031C00013402BD0FB685B8D9BB2002B18D0FB68A3
:1031D0001B685A6AFB685B6AD2B21A70FB685B6A4A
:1031E0005A1CFB685A62FB681B8D013B9AB2FB6854
:1031F0001A85FB685B8D9BB2013B9AB2FB685A85CE
:10320000FB685B8D9BB2002B54D17B692E4A9342A5
:1032100050D0FB68180000F0FDF84BE03B69DB087C
:103220001A00012313400CD07B68DB081A0001232D
:10323000134006D03A69FB681100180000F046F808
:1032400039E03B695B081A000123134033D07B68E7
:103250005B081A00012313402DD0FB685B8D9BB2E5
:10326000002B18D0FB685B6A1A78FB681B689A62AF
:10327000FB685B6A5A1CFB685A62FB685B8D9BB2F9
:10328000013B9AB2FB685A85FB681B8D013B9AB2E1
:10329000FB681A850FE07A6980235B049A4202D0AA
:1032A0007B69002B07D1FB68180000F0B3F802E03F
:1032B000C04600E0C046FB6840220021995400232C
:1032C0001800BD4606B080BD0000FFFFB0B584B059
:1032D00000AF786039607B6841229B5CDBB21A00EA
:1032E00028231340282B00D088E07B681B689B694B
:1032F0001B0CDAB20F257B1901210A401A707B687A
:103300001B689B691B0C9AB20C203B18FE210A40DB
:103310001A807B681B689B689AB20A243B19920545
:10332000920D1A807B681B68DB689AB20823FB1831
:10333000FE210A401A807B68DB68022B48D12100FD
:103340007B181B88DB099AB23B181B8853409BB241
:103350001A000623134020D13B187A1812881A80CD
:103360007B689B6C5A1C7B689A647B689B6C022B05
:103370004CD17B6800229A647B681B680822DA6162
:103380007B684022002199543B181A887B191978D0
:103390007B681800FFF75EFE38E00C243B1908221A
:1033A000BA1812881A8080231A027B68110018004C
:1033B00000F0ECFB7B684022002199543B191A88ED
:1033C0000F23FB1819787B681800FFF743FE1DE0F8
:1033D00080231A027B681100180000F0D7FB7B687D
:1033E0004022002199540C23FB181A880F23FB1844
:1033F00019787B681800FFF72DFE07E07B681B68D3
:103400000822DA617B68402200219954C046BD46FB
:1034100004B0B0BD80B584B000AF78607B681B6835
:103420001B68FB607B68422200219954FB689B0B60
:103430001A000123134008D07B681B681A687B6858
:103440001B6825490A401A600DE0FB68DB0B1A0077
:103450000123134007D07B681B681A687B681B68D0
:103460001E490A401A607B6841229B5CDBB2292B13
:1034700014D17B684122282199547B6821221A6348
:103480007B680121180000F081FB7B68402200214D
:1034900099547B681800FFF7CDFD19E07B68412245
:1034A0009B5CDBB22A2B13D17B68412228219954E3
:1034B0007B6822221A637B680221180000F066FBF9
:1034C0007B684022002199547B681800FFF7BAFD01
:1034D000C046BD4604B080BDFFBFFFFFFF7FFFFFBA
:1034E00080B586B000AF786039607B681B681B6868
:1034F0003B613B687B617B68DB6AFB600B203B18B0
:103500007A684121525C1A707B681B682022DA615C
:103510003B181B78212B03D03B181B78292B09D192
:10352000B04A7B681100180000F030FB7B68212254
:103530001A6320E00B22BB181B78222B03D0BB1888
:103540001B782A2B09D1A84A7B681100180000F0CB
:103550001DFB7B6822221A630DE00B23FB181B78EE
:10356000282B08D1A14A7B681100180000F00EFB3F
:103570007B6800221A637B681B685A687B681B683B
:10358000802109020A435A607B681B685A687B687D
:103590001B6897490A405A607B68180000F0B5FA2A
:1035A0003B699B0B1A000123134013D07B681B68F7
:1035B0001A687B681B688F490A401A607B689B6B9E
:1035C000002B20D07B689B6B1B685B689AB27B6882
:1035D0005A8518E03B69DB0B1A000123134012D017
:1035E0007B681B681A687B681B6883490A401A60FD
:1035F0007B68DB6B002B06D07B68DB6B1B685B6832
:103600009AB27B685A857B699B081A000123134094
:1036100020D07B69042293437B617B681B685A6AD4
:103620007B685B6AD2B21A707B685B6A5A1C7B68E3
:103630005A627B681B8D002B0CD07B681B8D013B75
:103640009AB27B681A857B685B8D9BB2013B9AB20C
:103650007B685A857B685B8D9BB2002B05D07B68AD
:103660005B6C04221A437B685A647B691B091A004D
:103670000123134051D03B691B091A000123134059
:103680004BD07B685B8D9BB2002B2DD17B68412298
:103690009B5CDBB2282B0BD1FA6880239B049A42F7
:1036A00006D17A697B681100180000F0A9F834E0AF
:1036B0007B6841229B5CDBB2292B10D1FB684F4A0F
:1036C00093420CD07B681B681022DA617B6818007B
:1036D00000F01BFA7B681800FFF79CFE1DE07B687A
:1036E0001B681022DA6118E07B681B681022DA611F
:1036F0007B685B6C04221A437B685A64FB68002B6E
:1037000004D0FA6880235B049A4206D17B685A6C25
:103710007B681100180000F0CDF87B684222002180
:1037200099547B6800225A637B685B6C002B13D032
:103730007B685A6C7B681100180000F0BBF87B684E
:1037400041229B5CDBB2282B47D17A697B68110050
:10375000180000F055F840E07B68DB6A274A934286
:1037600016D07B681800FFF755FE7B68234ADA62A3
:103770007B684122202199547B6800221A637B6870
:103780004022002199547B681800FFF773FC24E065
:103790007B6841229B5CDBB2222B0FD17B684122EC
:1037A000202199547B6800221A637B684022002103
:1037B00099547B681800FFF745FC0EE07B684122B6
:1037C000202199547B6800221A637B6840220021E3
:1037D00099547B681800FFF72DFCC046BD4606B023
:1037E00080BDC04601800000028000000380000010
:1037F00000E800FEFFBFFFFFFF7FFFFF0000FFFFAD
:1038000080B582B000AF786039607B68274ADA62A1
:103810007B6800221A637B684122202199547B68CF
:103820004222002199547B6800225A633B689B081E
:103830001A000123134022D07B681B685A6A7B68F8
:103840005B6AD2B21A707B685B6A5A1C7B685A62E8
:103850007B681B8D002B12D07B681B8D013B9AB2BD
:103860007B681A857B685B8D9BB2013B9AB27B6853
:103870005A857B685B6C04221A437B685A640C4A45
:103880007B681100180000F081F97B681B6810222A
:10389000DA617B684022002199547B681800FFF7A9
:1038A000E9FBC046BD4602B080BDC0460000FFFF38
:1038B0000380000080B584B000AF786039600F20CD
:1038C0003B187A684121525C1A707B6842220021C1
:1038D00099547B68724ADA627B6800225A857B6859
:1038E0005A6C3B681A437B685A643B181B78282B38
:1038F00007D03B181B78292B03D03B181B782A2BA9
:103900000CD17B680321180000F040F97B6841224C
:10391000282199547B68634A5A6332E0624A7B6883
:103920001100180000F032F97B68180000F0EDF883
:103930007B6841229B5CDBB2602B1FD07B684122FD
:10394000202199547B681B689B6920221340202BFF
:1039500014D17B681B689B6910221340102B09D17E
:103960007B681B681022DA617B685B6C04221A4357
:103970007B685A647B681B682022DA617B680022BE
:103980005A637B681B6BBB607B689B6B002B3BD0D7
:10399000BB68112B02D0BB68212B35D17B681B681B
:1039A0001A688023DB011A408023DB019A4207D189
:1039B0007B681B681A687B681B683C490A401A6070
:1039C0007B689B6B1800FEF7F7FF0300012B16D0F6
:1039D0007B689B6B364A9A637B684022002199542E
:1039E0007B689B6B1800FEF7CBFE031E51D07B68F3
:1039F0009B6B9A6B7B689B6B1800904749E07B68D8
:103A0000180000F059F844E07B68DB6B002B3BD0DA
:103A1000BB68122B02D0BB68222B35D17B681B6898
:103A20001A6880231B021A4080231B029A4207D186
:103A30007B681B681A687B681B681E490A401A600D
:103A40007B68DB6B1800FEF7B7FF0300012B16D075
:103A50007B68DB6B164A9A637B684022002199548D
:103A60007B68DB6B1800FEF78BFE031E13D07B68B0
:103A7000DB6B9A6B7B68DB6B180090470BE07B6815
:103A8000180000F019F806E07B68180000F014F840
:103A900002E0C04600E0C046C046BD4604B080BD5E
:103AA0000000FFFFA530000803800000FFBFFFFFFC
:103AB0004F3B0008FF7FFFFF80B582B000AF78600A
:103AC0007B6841229B5CDBB2602B0FD17B6841227B
:103AD000202199547B6800221A637B6840220021D0
:103AE00099547B681800FFF7D5FA0AE07B6800223A
:103AF0001A637B684022002199547B681800FFF705
:103B0000C1FAC046BD4602B080BD80B582B000AFEC
:103B100078607B681B689B6902221340022B03D1EB
:103B20007B681B6800229A627B681B689B69012284
:103B30001340012B07D07B681B689A697B681B6860
:103B400001210A439A61C046BD4602B080BD80B5DE
:103B500084B000AF78607B689B6AFB60FB689B6BFE
:103B6000002B03D0FB689B6B00229A63FB68DB6B26
:103B7000002B03D0FB68DB6B00229A63FB68180004
:103B8000FFF79AFFC046BD4604B080BD80B584B043
:103B900000AF78600A00BB1C1A800023FB60BB1CCE
:103BA0001B880122134010D0FB6842221343FB60A4
:103BB0007B6841229B5CDBB21A0028231340282B30
:103BC00003D0FB68B0221343FB60BB1C1B8802229E
:103BD000134010D0FB6844221343FB607B684122F2
:103BE0009B5CDBB21A0028231340282B03D0FB6810
:103BF000B0221343FB60BB1C00229B5E002B03DA48
:103C0000FB68B8221343FB60BB1C1B88102B03D13D
:103C1000FB6890221343FB60BB1C1B88202B03D145
:103C2000FB6820221343FB60BB1C1B88402B03D185
:103C3000FB6840221343FB607B681B681A68FB68C3
:103C4000D9437B681B680A401A60C046BD4604B071
:103C500080BD000080B582B000AF786039607B68BD
:103C600041229B5CDBB2202B38D17B6840229B5CDD
:103C7000012B01D1022332E07B68402201219954BB
:103C80007B684122242199547B681B681A687B68F1
:103C90001B6801218A431A607B681B681A687B686D
:103CA0001B6811490A401A607B681B6819687B68A9
:103CB0001B683A680A431A607B681B681A687B684D
:103CC0001B6801210A431A607B6841222021995414
:103CD0007B68402200219954002300E00223180051
:103CE000BD4602B080BDC046FFEFFFFF80B584B087
:103CF00000AF786039607B6841229B5CDBB2202B8F
:103D000039D17B6840229B5C012B01D1022333E037
:103D10007B684022012199547B68412224219954D7
:103D20007B681B681A687B681B6801218A431A60DC
:103D30007B681B681B68FB60FB68114A1340FB60D3
:103D40003B681B02FA681343FB607B681B68FA68D8
:103D50001A607B681B681A687B681B6801210A432C
:103D60001A607B684122202199547B6840220021FF
:103D70009954002300E002231800BD4604B080BD22
:103D8000FFF0FFFF80B584B000AF7860194B1B686F
:103D9000194A13401900174B7A680A431A607A6867
:103DA00080239B009A421FD1144B1A6813005B00BA
:103DB0009B185B0012491800FCF7B8F903000133A7
:103DC000FB6008E0FB68002B03D0FB68013BFB6055
:103DD00001E0032309E0074B5A698023DB001A4006
:103DE0008023DB009A42EDD000231800BD4604B0CA
:103DF00080BDC04600700040FFF9FFFF00000020BA
:103E000040420F0080B500AF034B9A68E023DB010E
:103E100013401800BD4680BD0010024080B588B038
:103E200000AF78607B68002B01D10123F3E27B684F
:103E30001B680122134000D17CE0C34B9B683822F1
:103E40001340BB61C04BDB68032213407B61BB693D
:103E5000102B02D17B69032B02D0BB69082B0BD13D
:103E6000B94B1A6880239B02134062D07B685B6861
:103E7000002B5ED10123CEE27B685A6880235B026F
:103E80009A4207D1B04B1A68AF4B802149020A43CE
:103E90001A6020E07B685A68A023DB029A420ED1A8
:103EA000A94B1A68A84B8021C9020A431A60A64B85
:103EB0001A68A54B802149020A431A600BE0A24B05
:103EC0001A68A14BA1490A401A609F4B1A689E4B81
:103ED0009F490A401A607B685B68002B14D0FDF78D
:103EE0002DFE03003B6108E0FDF728FE02003B6960
:103EF000D31A642B01D903238DE2934B1A688023D4
:103F00009B021340F0D015E0FDF718FE03003B6163
:103F100008E0FDF713FE02003B69D31A642B01D9B8
:103F2000032378E2884B1A6880239B021340F0D168
:103F300000E0C0467B681B680222134000D199E074
:103F4000814B9B6838221340BB617F4BDB680322A7
:103F500013407B61BB69102B02D17B69022B02D01D
:103F6000BB69002B35D1784B1A688023DB001340E6
:103F700005D07B68DB68002B01D101234BE2724B3B
:103F80005B68744A134019007B685B691A026E4BC8
:103F90000A435A60BB69002B12D16B4B1B686E4AF7
:103FA000134019007B681A69674B0A431A60664B15
:103FB0001B68DB0A07221340684ADA40684B1A6024
:103FC000684B1B681800FCF703FE031E51D0012349
:103FD00021E27B68DB68002B30D05B4B1B685E4ABC
:103FE000134019007B681A69574B0A431A60564BF5
:103FF0001A68554B802149000A431A60FDF79EFD5F
:1040000003003B6108E0FDF799FD02003B69D31A0C
:10401000022B01D90323FEE14B4B1A688023DB00FE
:104020001340F0D0484B5B684A4A134019007B6844
:104030005B691A02444B0A435A601BE0424B1A6800
:10404000414B49490A401A60FDF778FD03003B6186
:1040500008E0FDF773FD02003B69D31A022B01D97A
:104060000323D8E1384B1A688023DB001340F0D1DA
:1040700000E0C0467B681B680822134047D0324BE3
:104080009B6838221340182B0AD12F4B1B6E02223B
:1040900013403CD07B689B69002B38D10123BAE1E7
:1040A0007B689B69002B19D0274B1A6E264B012188
:1040B0000A431A66FDF742FD03003B6108E0FDF785
:1040C0003DFD02003B69D31A022B01D90323A2E173
:1040D0001D4B1B6E02221340F1D018E01A4B1A6ED2
:1040E000194B01218A431A66FDF728FD03003B6145
:1040F00008E0FDF723FD02003B69D31A022B01D92A
:10410000032388E1104B1B6E02221340F1D17B6820
:104110001B680422134000D1C6E01F23FB180022B5
:104120001A70094B9B6838221340202B1ED1064B76
:10413000DB6D0222134000D1B6E07B689B68002B48
:1041400000D0B1E0012366E100100240FFFFFEFF56
:10415000FFFFFBFFFF80FFFFFFC7FFFF0024F4000E
:104160000000002004000020FFFEFFFFAC4BDA6BD4
:1041700080235B05134001D1012300E00023002BC5
:1041800011D0A74BDA6BA64B802149050A43DA63AD
:10419000A34BDA6B80235B051340FB60FB681F2396
:1041A000FB1801221A709F4B1A6880235B00134092
:1041B0001AD19C4B1A689B4B802149000A431A6014
:1041C000FDF7BCFC03003B6108E0FDF7B7FC020013
:1041D0003B69D31A022B01D903231CE1914B1A68C6
:1041E00080235B001340F0D07B689B68012B06D1D5
:1041F0008B4BDA6D8A4B01210A43DA651CE07B6840
:104200009B68052B0CD1864BDA6D854B04210A4344
:10421000DA65834BDA6D824B01210A43DA650BE0E4
:104220007F4BDA6D7E4B01218A43DA657C4BDA6D78
:104230007B4B04218A43DA657B689B68002B14D092
:10424000FDF77CFC03003B6109E0FDF777FC020011
:104250003B69D31A744A934201D90323DBE0704BC4
:10426000DB6D02221340F0D013E0FDF767FC030082
:104270003B6109E0FDF762FC02003B69D31A6A4A20
:10428000934201D90323C6E0654BDB6D0222134044
:10429000F0D11F23FB181B78012B05D1604BDA6B83
:1042A0005F4B62490A40DA637B68DB69002B00D10F
:1042B000B0E05B4B9B6838221340102B00D178E0B4
:1042C0007B68DB69022B53D1554B1A68544B584914
:1042D0000A401A60FDF732FC03003B6108E0FDF77D
:1042E0002DFC02003B69D31A022B01D9032392E073
:1042F0004B4B1A6880239B041340F0D1484BDB687A
:104300004C4A134019007B681A6A7B685B6A1A433F
:104310007B689B6A1B021A437B68DB6A1A437B68D3
:104320001B6B1A433E4B0A43DA603D4B1A683C4B09
:10433000802149040A431A60394BDA68384B8021DE
:1043400049050A43DA60FDF7F9FB03003B6108E029
:10435000FDF7F4FB02003B69D31A022B01D90323BA
:1043600059E02F4B1A6880239B041340F0D051E092
:104370002B4B1A682A4B2E490A401A60FDF7DEFBC8
:1043800003003B6108E0FDF7D9FB02003B69D31A4B
:10439000022B01D903233EE0214B1A6880239B04A2
:1043A0001340F0D11E4BDA681D4B23490A40DA60F6
:1043B00030E07B68DB69012B01D101232BE0184B36
:1043C000DB687B617B6903221A407B681B6A9A4227
:1043D0001ED17B6970221A407B685B6A9A4217D1B2
:1043E0007A69FE23DB011A407B689B6A1B029A42B2
:1043F0000ED17A69F8239B031A407B68DB6A9A42E4
:1044000006D17B695B0F5A077B681B6B9A4201D010
:10441000012300E000231800BD4608B080BDC0465F
:10442000001002400070004088130000FFFFFFEF03
:10443000FFFFFFFE8C80C11FFCFFFEEF80B584B044
:1044400000AF786039607B68002B01D10123E9E07F
:10445000764B1B68072213403A689A421ED9734B69
:104460001B68072293431900704B3A680A431A608D
:10447000FDF764FB0300FB6009E0FDF75FFB020052
:10448000FB68D31A6A4A934201D90323CAE0674BF7
:104490001B68072213403A689A42EED17B681B687A
:1044A0000222134015D07B681B680422134006D0FB
:1044B000604B9A685F4BE021C9010A439A605D4BEB
:1044C0009B685D4A134019007B689A68594B0A4300
:1044D0009A607B681B680122134057D07B685B6839
:1044E000012B07D1534B1A6880239B0213402BD119
:1044F000012397E07B685B68022B07D14D4B1A685C
:1045000080239B0413401FD101238BE07B685B68F1
:10451000002B07D1474B1A688023DB00134013D1CF
:1045200001237FE07B685B68032B06D1414B1B6E48
:104530000222134008D1012374E03E4BDB6D0222BE
:10454000134001D101236DE03A4B9B68072293434E
:1045500019007B685A68374B0A439A60FDF7EEFAF8
:104560000300FB6009E0FDF7E9FA0200FB68D31ADB
:104570002F4A934201D9032354E02E4B9B683822E3
:104580001A407B685B68DB009A42ECD1274B1B68C2
:10459000072213403A689A421ED2244B1B68072216
:1045A00093431900214B3A680A431A60FDF7C6FA93
:1045B0000300FB6009E0FDF7C1FA0200FB68D31AB3
:1045C0001B4A934201D903232CE0184B1B68072296
:1045D00013403A689A42EED17B681B68042213406C
:1045E00009D0144B9B68154A134019007B68DA68A0
:1045F000104B0A439A6000F029F801000D4B9B68AC
:104600001B0A0F221A400E4B9200D3581F22134050
:104610000A00DA400B4B1A600B4B1B681800FCF7C2
:10462000D7FA03001800BD4604B080BD0020024048
:104630008813000000100240FFF0FFFFFF8FFFFF14
:104640003CA50008000000200400002080B586B0D2
:1046500000AF3C4B9B68382213400FD1394B1B688D
:10466000DB0A0722134001229A4013003B6039689D
:104670003548FBF75BFD03003B615DE0314B9B6818
:1046800038221340082B02D1304B3B6154E02D4BB4
:104690009B6838221340102B38D12A4BDB68032249
:1046A0001340FB60274BDB681B09072213400133D3
:1046B000BB60FB68032B0DD1B9682448FBF736FDBE
:1046C000030019001F4BDB681B0A7F2213404B437A
:1046D0007B610DE0B9681C48FBF728FD0300190059
:1046E000184BDB681B0A7F2213404B437B61C0469B
:1046F000144BDB685B0F0722134001337B60796842
:104700007869FBF713FD03003B6115E00D4B9B68D7
:1047100038221340202B03D180231B023B610BE086
:10472000084B9B6838221340182B03D1FA23DB0176
:104730003B6101E000233B613B691800BD4606B0C8
:1047400080BDC046001002400024F40000127A0030
:1047500080B500AF024B1B681800BD4680BDC04647
:1047600000000020B0B500AFFFF7F2FF0400FFF734
:1047700049FB03001A0B054B9200D3581F2213402C
:10478000DC4023001800BD46B0BDC0467CA5000833
:1047900080B582B000AF786039607B6807221A600C
:1047A0000E4B9B6807221A407B685A600B4B9A6835
:1047B000F0231B011A407B689A60084B9A68E0233B
:1047C000DB011A407B68DA60054B1B6807221A4040
:1047D0003B681A60C046BD4602B080BD0010024072
:1047E0000020024080B586B000AF78601323FB182C
:1047F00000221A701223FB1800221A707B681A68B4
:1048000080239B02134000D1A3E011203B1800221B
:104810001A70864BDA6B80235B05134010D1834BF3
:10482000DA6B824B802149050A43DA637F4BDA6BEE
:1048300080235B051340BB60BB683B1801221A70E4
:104840007B4B1A687A4B802149000A431A60FDF7B6
:1048500075F90300FB600BE0FDF770F90200FB68DF
:10486000D31A022B04D91323FB1803221A7005E074
:104870006F4B1A6880235B001340EDD01323FB18A5
:104880001B78002B54D1694BDA6DC0239B00134079
:104890007B617B69002B19D07B689B697A699A429E
:1048A00014D0624BDB6D634A13407B615F4BDA6D62
:1048B0005E4B802149020A43DA655C4BDA6D5B4B43
:1048C0005D490A40DA65594B7A69DA657B690122EC
:1048D000134016D0FDF732F90300FB600CE0FDF742
:1048E0002DF90200FB68D31A544A934204D91323CA
:1048F000FB1803221A7004E04C4BDB6D02221340BC
:10490000EDD01323FB181B78002B0AD1474BDB6D2E
:10491000484A134019007B689A69444B0A43DA6598
:104920000CE01223FB181322BA1812781A7005E053
:104930001223FB181322BA1812781A701123FB18CD
:104940001B78012B05D1394BDA6B384B3C490A40B7
:10495000DA637B681B680122134009D0334B5B6D1F
:104960000322934319007B685A68304B0A435A6507
:104970007B681B680222134009D02C4B5B6D0C2214
:10498000934319007B689A68284B0A435A657B68F1
:104990001B682022134009D0244B5B6D294A134029
:1049A00019007B68DA68214B0A435A657B681A68EC
:1049B0008023DB01134015D01C4B5B6D9B009908D5
:1049C0007B685A69194B0A435A657B685A69802388
:1049D000DB059A4206D1154BDA68144B8021490257
:1049E0000A43DA607B681A6880231B01134016D0E3
:1049F0000E4B5B6D144A134019007B681A690B4B10
:104A00000A435A657B681A698023DB019A4206D102
:104A1000064BDA68054B802149020A43DA6012230B
:104A2000FB181B781800BD4606B080BD0010024080
:104A300000700040FFFCFFFFFFFFFEFF8813000037
:104A4000FFFFFFEFFFCFFFFFFF3FFFFFB0B584B0D9
:104A500000AF78600F23FB1801221A707B68002BCF
:104A600000D18CE07B6829229B5CDBB2002B0BD150
:104A70007B682822002199547B68882212025A60A0
:104A80007B681800FBF77EFF7B682922022199547E
:104A90007B681B68DB6810221340102B62D07B6898
:104AA0001B68CA225A627B681B6853225A620F2510
:104AB0007C197B68180000F091F80300237028002F
:104AC0003B181B78002B2CD17B681B689A697B688C
:104AD0001B682E490A409A617B681B6899697B684C
:104AE0009A687B685B691A437B68DB691A437B6859
:104AF0001B680A439A617B681B687A6812691A61AD
:104B00007B681B6819697B68DB681A047B681B6813
:104B10000A431A613C187B68180000F0A1F80300F2
:104B200023700F23FB181B78002B16D17B681B68A2
:104B30009A697B681B68D200D2089A617B681B68FF
:104B400099697B685A6A7B681B6A1A437B689B6910
:104B50001A437B681B680A439A617B681B68FF22C3
:104B60005A6203E00F23FB1800221A700F23FB1870
:104B70001B78002B03D17B682922012199540F2334
:104B8000FB181B781800BD4604B0B0BDBFFF8FFBFB
:104B900080B584B000AF78607B681B680E4ADA602D
:104BA000FCF7CCFF0300FB600AE0FCF7C7FF020044
:104BB000FB68D21AFA239B009A4201D9032306E02C
:104BC0007B681B68DB6820221340EED000231800AE
:104BD000BD4604B080BDC0465F00010080B584B012
:104BE00000AF78600F23FB1800221A707B681B68E7
:104BF000DB68402213402CD17B681B68DA687B6835
:104C00001B6880210A43DA60FCF798FF0300BB6051
:104C100014E0FCF793FF0200BB68D21A0F203B1888
:104C2000391809781970FA239B009A4206D93B1863
:104C300003221A707B682922032199547B681B6820
:104C4000DB684022134004D10F23FB181B78032B91
:104C5000DFD10F23FB181B781800BD4604B080BDC0
:104C600090B585B000AF78600F243B1900221A7010
:104C70001C4BDA681B4B80218A43DA60194B9B6915
:104C8000202213400DD17B681800FFF781FF031E1F
:104C900021D07B682922032199543B1903221A70E1
:104CA00019E0104B9A690F4B20218A439A617B6867
:104CB0001800FFF76DFF031E07D07B682922032130
:104CC00099540F23FB1803221A70064B9A69054B5F
:104CD00020210A439A610F23FB181B781800BD4658
:104CE00005B090BD0028004080B584B000AF78606A
:104CF0007B68002B01D10123A8E07B685B6A002B55
:104D000009D17B685A6882235B009A4209D07B688C
:104D10000022DA6105E07B6800221A617B680022CC
:104D20005A617B6800229A627B685D229B5CDBB2E1
:104D3000002B07D17B685C22002199547B68180006
:104D4000FBF79CFE7B685D22022199547B681B68FF
:104D50001A687B681B6840218A431A607B68DA689E
:104D6000E023DB009A4202D90023FB6002E08023AB
:104D70005B01FB607B68DA68F0231B019A4208D074
:104D80007B68DA68E023DB009A4202D07B6800226D
:104D90009A627B685A6882235B001A407B68996834
:104DA00084231B020B401A437B681B6902210B40C2
:104DB0001A437B685B6901210B401A437B68996940
:104DC00080239B000B401A437B68DB6938210B4032
:104DD0001A437B681B6A80210B401A4311007B68D1
:104DE0009A6A80239B011A407B681B680A431A60F9
:104DF0007B689B691B0C04221A407B685B6A10214C
:104E00000B401A437B685B6B08210B401A437B689D
:104E1000D968F0231B010B401A431100FA68802364
:104E20005B011A407B681B680A435A607B681B68F9
:104E3000DA697B681B6807490A40DA617B680022EF
:104E40001A667B685D220121995400231800BD4633
:104E500004B080BDFFF7FFFF80B588B000AF786079
:104E60007B681B685B68FB617B681B689B68BB6138
:104E7000BB699B091A00012313400FD1BB690122B2
:104E800013400BD0FB699B091A000123134005D086
:104E90007B68DB6C7A6810009847D5E0BB695B08DB
:104EA0001A00012313400BD0FB69DB091A00012310
:104EB000134005D07B681B6D7A6810009847C3E0EB
:104EC000BB695B091A00012313400CD1BB699B0924
:104ED0001A000123134006D1BB691B0A1A000123E3
:104EE000134000D1B0E0FB695B091A0001231340B5
:104EF00000D1A9E0BB699B091A000123134023D00C
:104F00007B685D229B5CDBB2032B11D07B681B6E40
:104F100004221A437B681A6600237B617B681B6846
:104F2000DB687B617B681B689B687B617B690BE04E
:104F300000233B617B681B68DB683B617B681B6807
:104F40009B683B613B697FE0BB695B091A000123F9
:104F5000134014D07B681B6E01221A437B681A66CB
:104F60000023FB607B681B689B68FB607B681B6899
:104F70001A687B681B6840218A431A60FB68BB691A
:104F80001B0A1A00012313400CD07B681B6E0822F9
:104F90001A437B681A660023BB607B681B689B68AA
:104FA000BB60BB687B681B6E002B4CD07B681B68AA
:104FB0005A687B681B68E0218A435A607B685D22DF
:104FC00001219954FB690222134003D1FB6901229C
:104FD000134032D07B681B685A687B681B680321CA
:104FE0008A435A607B689B6D002B10D07B689B6D59
:104FF000174A9A637B689B6D1800FDF7C1FB031E7F
:1050000005D07B681B6E40221A437B681A667B685A
:105010005B6D002B16D07B685B6D0D4A9A637B68D5
:105020005B6D1800FDF7ACFB031E0BD07B681B6E9D
:1050300040221A437B681A6604E07B68180000F07F
:1050400009F800E0C046C046BD4608B080BDC04675
:105050006550000880B582B000AF7860C046BD469C
:1050600002B080BD80B584B000AF78607B689B6A79
:10507000FB60FB68462200219952FB680022DA8718
:10508000FB681800FFF7E6FFC046BD4604B080BDD0
:1050900080B582B000AF78607B68002B01D101231E
:1050A0004AE07B683D229B5CDBB2002B07D17B682A
:1050B0003C22002199547B681800FCF78DF97B682D
:1050C0003D22022199547B681A687B6804331900D9
:1050D000100000F0A5FD7B684822012199547B68EF
:1050E0003E22012199547B683F22012199547B681B
:1050F0004022012199547B684122012199547B6807
:105100004222012199547B684322012199547B68F2
:105110004422012199547B684522012199547B68DE
:105120004622012199547B684722012199547B68CA
:105130003D220121995400231800BD4602B080BDD4
:1051400080B584B000AF78607B683D229B5CDBB2A9
:10515000012B01D001233CE07B683D2202219954C0
:105160007B681B68DA687B681B6801210A43DA6088
:105170007B681B68194A934209D07B681B68184AF0
:10518000934204D07B681B68164A934216D17B6811
:105190001B689B68144A1340FB60FB68062B16D003
:1051A000FA6880235B029A4211D07B681B681A68F8
:1051B0007B681B6801210A431A6008E07B681B6852
:1051C0001A687B681B6801210A431A6000E0C04628
:1051D00000231800BD4604B080BDC046002C01402D
:1051E00000040040004001400700010080B582B08B
:1051F00000AF78607B68002B01D101234AE07B6817
:105200003D229B5CDBB2002B07D17B683C22002156
:1052100099547B68180000F041F87B683D22022118
:1052200099547B681A687B6804331900100000F0F9
:10523000F7FC7B684822012199547B683E220121BA
:1052400099547B683F22012199547B6840220121B7
:1052500099547B684122012199547B6842220121A3
:1052600099547B684322012199547B68442201218F
:1052700099547B684522012199547B68462201217B
:1052800099547B684722012199547B683D22012172
:10529000995400231800BD4602B080BD80B582B08D
:1052A00000AF7860C046BD4602B080BD80B582B018
:1052B00000AF78607B68002B01D101234AE07B6856
:1052C0003D229B5CDBB2002B07D17B683C22002196
:1052D00099547B68180000F041F87B683D22022158
:1052E00099547B681A687B6804331900100000F039
:1052F00097FC7B684822012199547B683E2201215A
:1053000099547B683F22012199547B6840220121F6
:1053100099547B684122012199547B6842220121E2
:1053200099547B684322012199547B6844220121CE
:1053300099547B684522012199547B6846220121BA
:1053400099547B684722012199547B683D220121B1
:10535000995400231800BD4602B080BD80B582B0CC
:1053600000AF7860C046BD4602B080BD80B582B057
:1053700000AF78607B68002B01D101234AE07B6895
:105380003D229B5CDBB2002B07D17B683C220021D5
:1053900099547B681800FCF7DFF87B683D220221F6
:1053A00099547B681A687B6804331900100000F078
:1053B00037FC7B684822012199547B683E220121F9
:1053C00099547B683F22012199547B684022012136
:1053D00099547B684122012199547B684222012122
:1053E00099547B684322012199547B68442201210E
:1053F00099547B684522012199547B6846220121FA
:1054000099547B684722012199547B683D220121F0
:10541000995400231800BD4602B080BD80B584B009
:1054200000AF78607B681B68DB68FB607B681B688B
:105430001B69BB60BB680222134021D0FB680222BB
:1054400013401DD07B681B68032252421A617B689F
:1054500001221A777B681B689B690322134004D0E2
:105460007B68180000F0C4FB07E07B68180000F0C0
:10547000B7FB7B68180000F0C3FB7B6800221A773B
:10548000BB680422134022D0FB68042213401ED0C4
:105490007B681B68052252421A617B6802221A77D8
:1054A0007B681B689A69C0239B00134004D07B680B
:1054B000180000F09DFB07E07B68180000F090FBEF
:1054C0007B68180000F09CFB7B6800221A77BB68A1
:1054D0000822134021D0FB68082213401DD07B68AE
:1054E0001B68092252421A617B6804221A777B6882
:1054F0001B68DB690322134004D07B68180000F0AE
:1055000077FB07E07B68180000F06AFB7B681800F7
:1055100000F076FB7B6800221A77BB6810221340EC
:1055200022D0FB68102213401ED07B681B6811221A
:1055300052421A617B6808221A777B681B68DA6915
:10554000C0239B00134004D07B68180000F050FB80
:1055500007E07B68180000F043FB7B68180000F050
:105560004FFB7B6800221A77BB68012213400CD0E6
:10557000FB680122134008D07B681B68022252425C
:105580001A617B681800FBF7B7F9BB6880221340EB
:1055900004D1BA6880239B0113400BD0FB688022A2
:1055A000134007D07B681B681E4A1A617B6818008D
:1055B00001F046F9BA6880235B0013400BD0FB680A
:1055C0008022134007D07B681B68174A1A617B68EA
:1055D000180001F03DF9BB68402213400CD0FB6875
:1055E0004022134008D07B681B68412252421A6156
:1055F0007B68180000F00CFBBB68202213400CD025
:10560000FB682022134008D07B681B68212252428D
:105610001A617B68180001F00BF9C046BD4604B062
:1056200080BDC0467FDFFFFFFFFEFFFF80B586B075
:1056300000AFF860B9607A601723FB1800221A7077
:10564000FB683C229B5C012B01D1022348E0FB68F4
:105650003C22012199547B68142B35D87B689A0031
:10566000214BD3181B689F46FB681B68BA68110062
:10567000180000F059FB2CE0FB681B68BA681100A9
:10568000180000F0DBFB24E0FB681B68BA6811001F
:10569000180000F057FC1CE0FB681B68BA6811009A
:1056A000180000F0D7FC14E0FB681B68BA68110012
:1056B000180000F039FD0CE0FB681B68BA681100A7
:1056C000180000F091FD04E01723FB1801221A7066
:1056D000C046FB683C22002199541723FB181B7815
:1056E0001800BD4606B080BD9CA5000880B586B0F8
:1056F00000AFF860B9607A601723FB1800221A70B7
:10570000FB683C229B5C012B01D102238CE0FB68EF
:105710003C22012199547B68002B1BD1FB6818683F
:10572000BB681968BB685A68BB68DB6800F0C0FDDD
:10573000FB681B689A69FB681B680C218A439A61A5
:10574000FB681B689969BB689A68FB681B680A4319
:105750009A6162E07B68042B1CD1FB681868BB6807
:105760001968BB685A68BB68DB6800F027FEFB68F5
:105770001B689A69FB681B682D490A409A61FB689F
:105780001B689969BB689B681A02FB681B680A431F
:105790009A6142E07B68082B1BD1FB681868BB68E4
:1057A0001968BB685A68BB68DB6800F07BFEFB6861
:1057B0001B68DA69FB681B680C218A43DA61FB68A5
:1057C0001B68D969BB689A68FB681B680A43DA6181
:1057D00023E07B680C2B1CD1FB681868BB68196838
:1057E000BB685A68BB68DB6800F09CFEFB681B68FE
:1057F000DA69FB681B680E490A40DA61FB681B68BE
:10580000D969BB689B681A02FB681B680A43DA61A6
:1058100003E01723FB1801221A70FB683C220021C9
:1058200099541723FB181B781800BD4606B080BD9D
:10583000FFF3FFFF80B586B000AFF860B9607A6013
:105840001723FB1800221A70FB683C229B5C012B7B
:1058500001D10223E5E0FB683C22012199547B68D9
:10586000142B00D9D1E07B689A00704BD3181B68C9
:105870009F46FB681B68BA681100180000F054FAD4
:10588000FB681B689A69FB681B6808210A439A61D8
:10589000FB681B689A69FB681B6804218A439A614C
:1058A000FB681B689969BB681A69FB681B680A4337
:1058B0009A61AFE0FB681B68BA681100180000F03D
:1058C000BDFAFB681B689A69FB681B6880210901A7
:1058D0000A439A61FB681B689A69FB681B68544914
:1058E0000A409A61FB681B689969BB681B691A02C8
:1058F000FB681B680A439A618CE0FB681B68BA6806
:105900001100180000F01EFBFB681B68DA69FB68D9
:105910001B6808210A43DA61FB681B68DA69FB68C7
:105920001B6804218A43DA61FB681B68D969BB687C
:105930001A69FB681B680A43DA616BE0FB681B6845
:10594000BA681100180000F085FBFB681B68DA6973
:10595000FB681B68802109010A43DA61FB681B6848
:10596000DA69FB681B6832490A40DA61FB681B6828
:10597000D969BB681B691A02FB681B680A43DA61B4
:1059800048E0FB681B68BA681100180000F0CCFB07
:10599000FB681B685A6DFB681B6808210A435A653F
:1059A000FB681B685A6DFB681B6804218A435A65B3
:1059B000FB681B68596DBB681A69FB681B680A4362
:1059C0005A6527E0FB681B68BA681100180000F0F0
:1059D0000BFCFB681B685A6DFB681B688021090182
:1059E0000A435A65FB681B685A6DFB681B681049BF
:1059F0000A405A65FB681B68596DBB681B691A022F
:105A0000FB681B680A435A6504E01723FB18012250
:105A10001A70C046FB683C22002199541723FB18DA
:105A20001B781800BD4606B080BDC046F0A5000832
:105A3000FFFBFFFF80B584B000AF786039600F23B3
:105A4000FB1800221A707B683C229B5C012B01D161
:105A50000223BCE07B683C22012199547B683D22F3
:105A6000022199547B681B689B68BB60BB685A4ADB
:105A70001340BB60BB68594A1340BB607B681B681E
:105A8000BA689A603B681B6880229201934240D0BA
:105A900080229201934200D988E0802252019342F1
:105AA00000D188E080225201934200D97EE0702B21
:105AB00018D000D97AE0602B4FD000D976E0502B77
:105AC0003BD000D972E0402B57D000D96EE0302B8C
:105AD00063D06BD8202B60D068D8002B5DD0102B02
