:020000040800F2
:1000000000000820F5400008CD070008CF070008D1
:10001000D1070008D3070008D5070008000000003A
:100020000000000000000000000000006125000842
:10003000D707000800000000012600086526000818
:100040004541000845410008454100084541000878
:100050004541000845410008454100084541000868
:100060004541000845410008454100084541000858
:100070004541000845410008454100084541000848
:100080004541000845410008454100084541000838
:10009000454100084541000845410008D9070008CE
:1000A000454100082D080008454100084541000869
:1000B0004541000845410008454100084541000808
:1000C00045410008454100084541000845410008F8
:1000D00045410008454100084541000845410008E8
:1000E00045410008454100084541000845410008D8
:1000F00045410008454100084541000845410008C8
:1001000045410008454100084541000845410008B7
:1001100045410008454100084541000845410008A7
:100120004541000845410008454100084541000897
:100130004541000845410008454100084541000887
:100140004541000845410008454100084541000877
:100150004541000845410008454100084541000867
:100160004541000845410008454100084541000857
:1001700045410008454100084541000800000000D5
:100180004541000845410008454100084541000837
:100190004541000845410008454100084541000827
:1001A0004541000845410008454100084541000817
:1001B0004541000845410008454100084541000807
:1001C0004541000845410008000000004541000885
:1001D00045410008454100084541000845410008E7
:1001E00045410008454100084541000845410008D7
:0801F0004541000845410008EB
:1002000010B5054C237833B9044B13B10448AFF350
:1002100000800123237010BD280000200000000092
:10022000BC41000808B5034B1BB103490348AFF3B9
:10023000008008BD000000002C000020BC41000828
:10024000034613F8012B002AFBD1181A0138704716
:1002500053B94AB9002908BF00281CBF4FF0FF312D
:100260004FF0FF3000F074B9ADF1080C6DE904CE29
:1002700000F006F8DDF804E0DDE9022304B0704781
:100280002DE9F047089D04468E46002B4DD18A4249
:10029000944669D9B2FA82F252B101FA02F3C2F17C
:1002A000200120FA01F10CFA02FC41EA030E94400D
:1002B0004FEA1C48210CBEFBF8F61FFA8CF708FB2E
:1002C00016E341EA034306FB07F199420AD91CEB06
:1002D000030306F1FF3080F01F81994240F21C8138
:1002E000023E63445B1AA4B2B3FBF8F008FB103380
:1002F00044EA034400FB07F7A7420AD91CEB0404B5
:1003000000F1FF3380F00A81A74240F20781644484
:10031000023840EA0640E41B00261DB1D440002309
:10032000C5E900433146BDE8F0878B4209D9002D6D
:1003300000F0EF800026C5E9000130463146BDE8F7
:10034000F087B3FA83F6002E4AD18B4202D3824261
:1003500000F2F980841A61EB030301209E46002D10
:10036000E0D0C5E9004EDDE702B9FFDEB2FA82F265
:10037000002A40F09280A1EB0C014FEA1C471FFAC3
:100380008CFE0126200CB1FBF7F307FB131140EAAA
:1003900001410EFB03F0884208D91CEB010103F177
:1003A000FF3802D2884200F2CB804346091AA4B239
:1003B000B1FBF7F007FB101144EA01440EFB00FE0D
:1003C000A64508D91CEB040400F1FF3102D2A64572
:1003D00000F2BB800846A4EB0E0440EA03409CE711
:1003E000C6F12007B34022FA07FC4CEA030C20FABE
:1003F00007F401FA06F31C43F9404FEA1C4900FADE
:1004000006F3B1FBF9F8200C1FFA8CFE09FB18115A
:1004100040EA014108FB0EF0884202FA06F20BD9CD
:100420001CEB010108F1FF3A80F08880884240F21D
:100430008580A8F102086144091AA4B2B1FBF9F061
:1004400009FB101144EA014100FB0EFE8E4508D95C
:100450001CEB010100F1FF346CD28E456AD90238E1
:10046000614440EA0840A0FB0294A1EB0E01A142C6
:10047000C846A64656D353D05DB1B3EB080261EB34
:100480000E0101FA07F722FA06F3F1401F43C5E90E
:10049000007100263146BDE8F087C2F12003D84044
:1004A0000CFA02FC21FA03F3914001434FEA1C4786
:1004B0001FFA8CFEB3FBF7F007FB10360B0C43EA78
:1004C000064300FB0EF69E4204FA02F408D91CEB28
:1004D000030300F1FF382FD29E422DD90238634426
:1004E0009B1B89B2B3FBF7F607FB163341EA0341C6
:1004F00006FB0EF38B4208D91CEB010106F1FF3815
:1005000016D28B4214D9023E6144C91A46EA00460B
:1005100038E72E46284605E70646E3E61846F8E69D
:100520004B45A9D2B9EB020864EB0C0E0138A3E7E6
:100530004646EAE7204694E74046D1E7D0467BE7C7
:10054000023B614432E7304609E76444023842E73F
:10055000704700BF70B588B00024039404940594DC
:10056000069407941C4B1A6B42F001021A631A6B33
:1005700002F001020192019A1A6B42F002021A6320
:100580001B6B03F002030293029B144D22464FF4AF
:100590008141284600F076FB202303934FF4441357
:1005A00004930126059603A90D4800F06FFA4FF455
:1005B0008143039304960594069403A9284600F00A
:1005C00065FA22460521172000F0D2F9172000F025
:1005D00005FA08B070BD00BF0038024000040240B8
:1005E0000000024010B584B00024009401940294ED
:1005F000039400F001FA01238DF800308DF80140DA
:1006000001941F228DF8082087228DF809208DF88B
:100610000A408DF80B408DF80C308DF80D308DF8B8
:100620000E408DF80F40684600F004FA042000F0F8
:10063000F1F904B010BD000008B50268034B9A42FE
:1006400000D008BD00F070F9FBE700BF00000140DA
:1006500072B6FEE700B595B03422002107A803F07A
:10066000A5FD002302930393049305930693194A6F
:10067000116C41F080511164126C02F080520092B2
:10068000009A15490A6822F4404242F480420A6006
:100690000A6802F440420192019A02220792012262
:1006A0000A9210220B920D9307A800F009FB68B97B
:1006B0000F2302930021039104910591069102A852
:1006C00000F072FD20B915B05DF804FBFFF7C0FF24
:1006D000FFF7BEFF003802400070004008B5FFF78A
:1006E00081FF00F015F9FFF7B5FFFFF733FF00F0CA
:1006F000AFF803F0AFFCFEE700B583B00D4B1A6C0A
:1007000042F080521A641A6C02F080520092009AF1
:100710005A6C42F480425A645B6C03F48043019348
:10072000019B00220F216FF0010000F021F903B0BE
:100730005DF804FB0038024030B589B004461E4B1A
:100740005A6C42F001025A645B6C03F0010301939E
:10075000019B02A903A800F003FE00F0F1FD03468F
:100760001648A0FB03239B0C013B1548154A026069
:1007700040F2E732C260436000230361836083611B
:1007800001F0A8FA054610B1284609B030BD0C4862
:1007900001F006F905460028F6D1192000F01EF9EF
:1007A0000F2C01D90125EFE700222146192000F086
:1007B000DFF8054B1C60E7E70038024083DE1B438F
:1007C000440000200000014008000020FEE7FEE792
:1007D000FEE7FEE7FEE7704710B582B00F4B1B78CF
:1007E00023B1202000F05EFA02B010BD0C490B7856
:1007F00083F001030B7000231A460A48006802F0D8
:10080000F9FA094B1C6802F05FFE024600230093D0
:1008100001230621204603F0FBF9E2E7E53E002034
:10082000E43E0020EC3E0020E83E002008B50248EF
:1008300001F002F908BD00BF44000020034AD2F8CD
:10084000883043F47003C2F88830704700ED00E050
:1008500008B50B480B4B03604FF4E13343600023B2
:100860008360C36003610C2242618361C3610362E0
:10087000436201F0A3FD00B908BDFFF7E9FEFBE705
:1008800090000020004C004010B5ACB004460021A0
:100890002791289129912A912B91902203A803F066
:1008A00085FC2268174B9A4201D02CB010BD4FF442
:1008B0000073039303A800F071FD00BB124B1A6C88
:1008C00042F400221A641A6C02F400220192019A86
:1008D0001A6B42F001021A631B6B03F001030293CF
:1008E000029B0323279302222892002229922A9313
:1008F00008232B9327A9054800F0C8F8D5E7FFF790
:10090000A7FEDBE7004C0040003802400000024038
:1009100008B5032000F01AF80F20FFF70DFFFFF7CE
:10092000EBFE002008BD0000034A1168034B1B7852
:100930000B441360704700BF180100200400002022
:10094000014B1868704700BF180100200649CB68AA
:1009500023F4E0631B041B0C000200F4E06003437B
:10096000024A1A43CA60704700ED00E00000FA0531
:1009700000B5174BDB68C3F30223C3F1070CBCF1CE
:10098000040F28BF4FF0040C03F1040EBEF1060F54
:1009900014D9033B4FF0FF3E0EFA0CFC21EA0C0188
:1009A00099400EFA03F322EA03031943002807DBF8
:1009B0000901C9B2074B19545DF804FB0023E9E7AC
:1009C00000F00F000901C9B2034B1954F4E700BF4E
:1009D00000ED00E000E400E014ED00E0002807DB9B
:1009E00000F01F02400901239340024A42F82030E0
:1009F000704700BF00E100E0BFF35F8F044B5A6A0D
:100A000022F480325A620022C3F89420704700BF5B
:100A100000ED00E040F00100054BC3F894005A6A75
:100A200042F480325A62BFF34F8FBFF36F8F70472B
:100A300000ED00E04378144AC2F89830D2F8A030B4
:100A400023F00103C2F8A0304368C2F89C30017B58
:100A5000C37A1B0643EA0173817A43EAC143417BAF
:100A600043EA8143817B43EA4143C17B43EA01433B
:100A7000417A43EA0123017A43EA410301780B43B7
:100A8000C2F8A030704700BF00ED00E000230F2B3C
:100A900000F2EF8070B582B061E085685E000324EB
:100AA000B44025EA0405CC68B4402C438460456812
:100AB00025EA02054C68C4F300129A402A434260BA
:100AC0005BE0DC08083450F8246003F0070295006E
:100AD0000F22AA4026EA020E0A69AA4042EA0E0242
:100AE00040F824205DE0092200E0002202FA0EF224
:100AF0002A4302345F4D45F824205F4A94686FEA28
:100B00000C0224EA0C054E6816F4801F01D04CEA52
:100B10000405594CA560E46802EA04054E6816F421
:100B2000001F01D04CEA0405534CE560646802EAFA
:100B300004054E6816F4003F01D04CEA04054E4C03
:100B40006560246822404D6815F4803F01D04CEA6E
:100B50000402494C226001330F2B00F288800122ED
:100B60009A400C6804EA020C32EA0404F3D14C689F
:100B700004F00304013C012C8FD94A6802F00302FF
:100B8000032A09D0C4685D000322AA4024EA0204B3
:100B90008A68AA402243C2604A6802F00302022A1D
:100BA0008FD004684FEA430E032202FA0EF224EAC1
:100BB00002044A6802F0030202FA0EF222430260C3
:100BC0004A6812F4403FC6D02C4A546C44F4804426
:100BD0005464526C02F480420192019A9C08A51C54
:100BE000244A52F8255003F003024FEA820E0F22E6
:100BF00002FA0EF225EA0205214A90423FF475AF4F
:100C000002F58062904222D002F58062904220D0AC
:100C100002F5806290421ED002F5806290421CD0A4
:100C200002F5806290421AD002F58062904218D09C
:100C300002F58062904216D002F58062904214D094
:100C400002F5806290423FF44EAF0A224EE7012245
:100C50004CE702224AE7032248E7042246E705223E
:100C600044E7062242E7072240E708223EE702B0B7
:100C700070BD704700380140003C01400038024020
:100C8000000002400AB18161704709048161704728
:100C9000436901EA030221EA030141EA0241816159
:100CA0007047704708B5054B5B69034200D108BD2A
:100CB000024B5861FFF7F5FFF9E700BF003C014028
:100CC000002800F0068270B582B00446036813F075
:100CD000010F29D0954B9B6803F00C03042B1AD00D
:100CE000924B9B6803F00C03082B0FD06368B3F59D
:100CF000803F40D0002B54D18C4B1A6822F48032B4
:100D00001A601A6822F480221A6039E0874B5B6807
:100D100013F4800FEAD0854B1B6813F4003F03D017
:100D20006368002B00F0D781236813F0020F74D0A2
:100D30007E4B9B6813F00C0F5ED07C4B9B6803F0DE
:100D40000C03082B53D0E368002B00F08980774A0E
:100D5000136843F001031360FFF7F2FD0546734B80
:100D60001B6813F0020F72D1FFF7EAFD401B022847
:100D7000F5D90320B4E16D4A136843F4803313605E
:100D800063682BB3FFF7DCFD0546684B1B6813F463
:100D9000003FC9D1FFF7D4FD401B6428F5D90320DB
:100DA0009EE1B3F5A02F09D0604B1A6822F480327F
:100DB0001A601A6822F480221A60E1E75B4B1A6815
:100DC00042F480221A601A6842F480321A60D7E72F
:100DD000FFF7B6FD0546554B1B6813F4003FA3D043
:100DE000FFF7AEFD401B6428F5D9032078E14F4B97
:100DF0005B6813F4800FA6D14C4B1B6813F0020FF5
:100E000003D0E368012B40F06881484A136823F05F
:100E1000F803216943EAC1031360236813F0080F44
:100E200046D0636983B3414A536F43F0010353676C
:100E3000FFF786FD05463D4B5B6F13F0020F37D180
:100E4000FFF77EFD401B0228F5D9032048E1374A11
:100E5000136823F0F803216943EAC1031360DCE758
:100E6000324A136823F001031360FFF769FD05465A
:100E70002E4B1B6813F0020FCFD0FFF761FD401B14
:100E80000228F5D903202BE1284A536F23F00103F0
:100E90005367FFF755FD0546244B5B6F13F0020FB8
:100EA00006D0FFF74DFD401B0228F5D9032017E1BE
:100EB000236813F0040F7DD01C4B1B6C13F0805F74
:100EC0001ED11A4B1A6C42F080521A641B6C03F04C
:100ED00080530193019B0125154B1B6813F4807F00
:100EE00010D0A368012B25D0002B3BD10F4B1A6FDC
:100EF00022F001021A671A6F22F004021A671EE03C
:100F00000025E9E70A4A136843F480731360FFF78A
:100F100017FD0646064B1B6813F4807FE1D1FFF7EF
:100F20000FFD801B6428F5D90320D9E0003802406A
:100F300000700040724A136F43F001031367A36807
:100F400033B3FFF7FDFC06466D4B1B6F13F0020F2A
:100F50002FD1FFF7F5FC801B41F288339842F3D97B
:100F60000320BDE0052B09D0654B1A6F22F001026A
:100F70001A671A6F22F004021A67E0E7604B1A6FD3
:100F800042F004021A671A6F42F001021A67D6E7AC
:100F9000FFF7D6FC06465A4B1B6F13F0020F08D022
:100FA000FFF7CEFC801B41F288339842F3D903202F
:100FB00096E0FDB9A369002B00F09180504A926839
:100FC00002F00C02082A59D0022B19D04C4A13689F
:100FD00023F080731360FFF7B3FC0446484B1B6893
:100FE00013F0007F48D0FFF7ABFC001B0228F5D9B7
:100FF000032075E0424A136C23F080531364D9E751
:101000003F4A136823F080731360FFF799FC05468D
:101010003B4B1B6813F0007F06D0FFF791FC401B91
:101020000228F5D903205BE0E369226A1343626A70
:1010300043EA8213A26A5208013A43EA0243E26A8F
:1010400043EA0263226B43EA02732D4A536013683A
:1010500043F080731360FFF773FC0446284B1B6852
:1010600013F0007F06D1FFF76BFC001B0228F5D9B7
:10107000032035E0002033E0002031E0204A5268B0
:10108000012B2FD002F48003E1698B422CD102F0B6
:101090003F03216A8B4229D1616A47F6C07313402E
:1010A000B3EB811F24D102F44031A36A5B08013BFA
:1010B000B1EB034F1ED102F07063E16AB3EB016F35
:1010C0001AD102F0E042236BB2EB037F16D100206D
:1010D00006E001207047012002E0012000E000202E
:1010E00002B070BD0120FBE70120F9E70120F7E71E
:1010F0000120F5E70120F3E70120F1E70120EFE708
:101100000038024008B5254B9B6803F00C03042B04
:101110003FD0082B3FD1214B5A6802F03F025B6859
:1011200013F4800F12D01D4B5968C1F388111C486D
:101130000023A1FB0001FFF78BF8184B5B68C3F39A
:10114000014301335B00B0FBF3F025E0134B59681A
:10115000C1F3881C4FEA4C11B1EB0C006EEB0E0E84
:101160004FEA8E1343EA90638101091A63EB0E0381
:10117000DB0043EA5173C90011EB0C0C43F100038F
:10118000990200234FEA8C2041EA9C51FFF760F856
:10119000D3E7034800E0034808BD00BF0038024021
:1011A00040787D010024F400002800F0A08070B594
:1011B0000D460446524B1B6803F00F038B420BD2C3
:1011C0004F4A136823F00F030B431360136803F0B7
:1011D0000F038B4240F08D80236813F0020F17D06D
:1011E00013F0040F04D0474A936843F4E05393602C
:1011F000236813F0080F04D0424A936843F4604315
:101200009360404A936823F0F003A1680B43936016
:10121000236813F0010F31D06368012B20D0022B1B
:1012200025D0384A126812F0020F64D035498A6816
:1012300022F0030213438B60FFF782FB0646314B1B
:101240009B6803F00C036268B3EB820F16D0FFF7C4
:1012500077FB801B41F288339842F0D9032045E0A8
:10126000284A126812F4003FE0D101203EE0254AEE
:10127000126812F0007FD9D1012037E0204B1B68A3
:1012800003F00F03AB420AD91D4A136823F00F0382
:101290002B431360136803F00F03AB422DD1236877
:1012A00013F0040F06D0174A936823F4E053E16863
:1012B0000B439360236813F0080F07D0114A93681B
:1012C00023F46043216943EAC1039360FFF71AFFE7
:1012D0000C4B9B68C3F303130B4AD35CD8400B4BF6
:1012E00018600B4B1868FFF727FA002070BD01202B
:1012F00070470120FAE70120F8E70120F6E700BF78
:10130000003C024000380240D441000800000020A8
:1013100008000020014B1868704700BF0000002043
:1013200008B5FFF7F7FF044B9B68C3F38223034A1A
:10133000D35CD84008BD00BF00380240E44100083B
:1013400008B5FFF7E7FF044B9B68C3F34233034A3A
:10135000D35CD84008BD00BF00380240E44100081B
:101360000F2303600B4B9A6802F0030242609A68F5
:1013700002F0F00282609A6802F4E052C2609B6858
:10138000DB0803F4E0530361034B1B6803F00F0316
:101390000B60704700380240003C0240F0B583B05B
:1013A0000446066816F001060DD0B54B9A6822F483
:1013B00000029A609A68416B0A439A60436B002B63
:1013C00000F067810026256815F4002511D0AC4A8D
:1013D000D2F88C3023F44013E16B0B43C2F88C300D
:1013E000E36BB3F5801F00F05681002B00F05581B0
:1013F0000025236813F4801F0FD0A14AD2F88C3047
:1014000023F44003216C0B43C2F88C30236CB3F5FA
:10141000800F00F0448103B90125236813F0807F19
:1014200000D0012613F0200F40F03B81236813F019
:10143000100F0CD0924BD3F88C2022F08072C3F89E
:101440008C20D3F88C20A16B0A43C3F88C2023682E
:1014500013F4804F08D08A4AD2F8903023F44033F6
:10146000616E0B43C2F89030236813F4004F08D02C
:10147000834AD2F8903023F44023A16E0B43C2F884
:101480009030236813F4803F08D07D4AD2F8903022
:1014900023F44013E16E0B43C2F89030236813F439
:1014A000003F08D0764AD2F8903023F44003216FF1
:1014B0000B43C2F89030236813F0400F08D0704AF5
:1014C000D2F8903023F00303616C0B43C2F89030E4
:1014D000236813F0800F08D0694AD2F8903023F0C7
:1014E0000C03A16C0B43C2F89030236813F4807F87
:1014F00008D0634AD2F8903023F03003E16C0B43FC
:10150000C2F89030236813F4007F08D05C4AD2F808
:10151000903023F0C003216D0B43C2F89030236854
:1015200013F4806F08D0564AD2F8903023F44073F9
:10153000616D0B43C2F89030236813F4006F08D03C
:101540004F4AD2F8903023F44063A16D0B43C2F8A8
:101550009030236813F4805F08D0494AD2F8903065
:1015600023F44053E16D0B43C2F89030236813F429
:10157000005F08D0424AD2F8903023F44043216EF5
:101580000B43C2F89030236813F4800F08D03C4A14
:10159000D2F8903023F08063A16F0B43C2F89030F3
:1015A000236813F4001F0DD0354AD2F8903023F091
:1015B0000063E16F0B43C2F89030E36FB3F1006F4B
:1015C00000F0D580236813F0080F00D0012513F434
:1015D000802F08D02A4AD2F8903023F04073616FF0
:1015E0000B43C2F89030236813F4000F09D0244A4B
:1015F000D2F8903023F08053D4F880100B43C2F817
:101600009030236813F0806F09D01D4AD2F89030D3
:1016100023F00053D4F884100B43C2F890302368B1
:1016200013F0006F09D0164AD2F88C3023F0007303
:10163000D4F888100B43C2F88C30236813F0805F15
:1016400009D00F4AD2F88C3023F08063D4F88C1084
:101650000B43C2F88C3026B9236813F0007F00F0EA
:101660000681074A136823F080631360FFF768F967
:101670000646034B1B6813F0006F7AD002E000BFF0
:1016800000380240FFF75CF9801B6428F1D9032081
:10169000F0E0012697E60126A7E60125A9E6012646
:1016A000B9E67F4B1A6C42F080521A641B6C03F04F
:1016B00080530193019B7B4A136843F4807313604A
:1016C000FFF73EF90746774B1B6813F4807F06D17E
:1016D000FFF736F9C01B6428F5D90320CAE0704B28
:1016E0001B6F13F4407315D0226B02F440729A42C0
:1016F00010D06B4B1A6F22F44072196F41F4803195
:101700001967196F21F4803119671A671B6F13F07D
:10171000010F12D1236B03F44072B2F5407F1DD04C
:101720005F4A936823F4F81393605D490B6F226B53
:10173000C2F30B0213430B6778E6FFF701F9074684
:10174000574B1B6F13F0020FE4D1FFF7F9F8C01BE2
:1017500041F288339842F3D903208BE050488268E5
:1017600022F4F812504919400A438260DDE701254E
:1017700028E7236813F0010F13D0636B8BB9484A35
:10178000D2F88430D2F88410606803F4403343EA1E
:10179000801301F070610B43A16843EA0173C2F842
:1017A0008430236813F4002F03D0E26BB2F5801F5E
:1017B00006D013F4801F1ED0236CB3F5800F1AD10E
:1017C000374AD2F88430D2F88410606803F440338A
:1017D00043EA8013E06843EA006301F0E0410B4311
:1017E000C2F88430D2F88C3023F01F03616A0139CB
:1017F0000B43C2F88C30236813F0807F11D0284A45
:10180000D2F88400D2F88410666823691B0443EA86
:10181000861300F07060034301F0E0410B43C2F80F
:101820008430236813F0007F0DD0626823691B04A5
:1018300043EA8213E26843EA0263A26843EA02735E
:10184000174AC2F88430164A136843F08063136065
:10185000FFF776F80646124B1B6813F0006F06D1AF
:10186000FFF76EF8801B6428F5D9032002E0012DF4
:1018700002D0002003B0F0BD094A136823F0805362
:101880001360FFF75DF80546054B1B6813F0005F1A
:101890000CD0FFF755F8401B6428F5D90320E9E781
:1018A0000038024000700040FFFCFF0F236813F473
:1018B000002F01D0E26B22B113F4801F1DD0236CE6
:1018C000DBB9354AD2F88830D2F88810606903F461
:1018D000403343EA8013A06943EA006301F0E0412A
:1018E0000B43C2F88830D2F88C3023F4F853A16A45
:1018F000013943EA0123C2F88C30236813F4001F36
:1019000003D0E36FB3F1006F31D0236813F0080FF9
:1019100019D0214AD2F88810D2F88830606903F4CF
:10192000403343EA801301F070610B43E16943EAFD
:101930000173C2F88830D2F88C3023F44033E16A66
:101940000B43C2F88C30144A136843F08053136081
:10195000FEF7F6FF0446104B1B6813F0005F19D129
:10196000FEF7EEFF001B6428F5D9032082E70A4A40
:10197000D2F88800D2F888106569236A1B0443EA0C
:10198000851300F07060034301F0E0410B43C2F89F
:101990008830BAE700206DE7003802407047000049
:1019A00090F83D30DBB2012B3AD1022380F83D3074
:1019B0000268D36843F00103D36003681A4AB3F1A5
:1019C000804F18BF93421DD0A2F57C42934219D09C
:1019D00002F58062934215D002F58062934211D0E5
:1019E00002F5784293420DD002F57052934209D02D
:1019F000A2F59432934205D01A6842F001021A60AF
:101A0000002070479968094A0A40062A18BFB2F5B3
:101A1000803F07D01A6842F001021A600020704728
:101A200001207047002070470000014007000100BE
:101A3000704770477047704770B504460368DE68AA
:101A40001D6915F0020F10D016F0020F0DD06FF0C7
:101A500002021A610123037703689B6913F0030FE5
:101A600064D0FFF7E6FF0023237715F0040F12D0B0
:101A700016F0040F0FD023686FF004021A610223DE
:101A8000237723689B6913F4407F55D02046FFF7E6
:101A9000D0FF0023237715F0080F12D016F0080F9F
:101AA0000FD023686FF008021A610423237723689C
:101AB000DB6913F0030F46D02046FFF7BAFF00237F
:101AC000237715F0100F12D016F0100F0FD02368E7
:101AD0006FF010021A61082323772368DB6913F47F
:101AE000407F37D02046FFF7A4FF0023237715F06F
:101AF000010F02D016F0010F33D115F4025F02D0AE
:101B000016F0800F35D115F4807F02D016F0800FCB
:101B100037D115F0400F02D016F0400F39D115F033
:101B2000200F02D016F0200F3BD170BDFFF780FFD1
:101B30002046FFF77FFF96E72046FFF779FF204614
:101B4000FFF778FFA5E72046FFF772FF2046FFF773
:101B500071FFB4E72046FFF76BFF2046FFF76AFFEF
:101B6000C3E723686FF001021A612046FEF764FDA7
:101B7000C3E723686FF402521A61204600F0DBF8D5
:101B8000C1E723686FF480721A61204600F0D4F830
:101B9000BFE723686FF040021A612046FFF74BFF52
:101BA000BDE723686FF020021A61204600F0C2F8FA
:101BB000BBE7000030B503683F4A904214BF4FF0C6
:101BC000000E4FF0010EB0F1804F14BF72464EF080
:101BD0000102AAB9394CA04214BF00240124384D97
:101BE000A8420DD064B904F1804404F58234A042C7
:101BF00014BF0024012405F50065A84200D01CB1E3
:101C000023F070034C682343002A33D12B4A9042BF
:101C100014BF002201222A4CA0422BD052BB02F159
:101C2000804202F58232904214BF0022012204F564
:101C30000064A0421ED0EAB9224A904214BF00229A
:101C4000012204F59A34A04214D09AB91E4A904257
:101C500014BF0022012204F50064A0420AD04AB950
:101C60001A4A904214BF00220122A4F59634A042E1
:101C700000D022B123F4407CCB6843EA0C0323F06C
:101C800080034A69134303608A68C2620A688262F9
:101C90000F4A904214BF73464EF001030BB10B691B
:101CA000036301234361036913F0010F03D0036948
:101CB00023F00103036130BD000001400008004033
:101CC0000004004000440140001800400020004093
:101CD0000004014060B310B5044690F83D3013B3E2
:101CE000022384F83D30214651F8040BFFF762FFD0
:101CF000012384F8483084F83E3084F83F3084F87B
:101D0000403084F8413084F8423084F8433084F81D
:101D1000443084F8453084F8463084F8473084F8FD
:101D20003D30002010BD80F83C30FFF737FED7E78C
:101D300001207047704770477047026852E8003FC3
:101D400023F4907342E800310029F6D1026802F1D1
:101D5000080353E8003F23F00103083242E8003152
:101D60000029F3D1036E012B06D02023C0F8803068
:101D70000023036683667047026852E8003F23F041
:101D8000100342E800310029F6D1EEE710B5044611
:101D900083680269134342691343C26913430168AC
:101DA0000868934A024013430B602268536823F487
:101DB0004053E1680B435360A269236A1A432168C8
:101DC0008B6823F4306313438B602368894A934202
:101DD00019D0894A934229D0884A93423ED0884AF2
:101DE000934262D0874A934271D0874A934200F06F
:101DF0008380864A934200F09480854A934200F0A3
:101E0000A58010233AE0834BD3F8903003F003030E
:101E1000032B09D8DFE803F00204AE0601232DE00E
:101E200004232BE0082329E0102327E0794BD3F883
:101E3000903003F00C030C2B0ED8DFE803F0070DF5
:101E40000D0D090D0D0D9D0D0D0D0B00002315E061
:101E5000042313E0082311E010230FE06D4BD3F8A7
:101E6000903003F03003202B00F0888019D8002B2D
:101E700000F08680102B40F085800423E069B0F5E7
:101E8000004F00F0AB80082B00F20C81DFE813F06C
:101E9000E800FB00E6000A01FE000A010A010A014F
:101EA0000101302B70D10823E8E75A4BD3F890306A
:101EB00003F0C003802B69D005D8002B68D0402BDD
:101EC00068D10423DAE7C02B66D10823D6E7514B4B
:101ED000D3F8903003F44073B3F5007F5ED006D89A
:101EE000002B5DD0B3F5807F5CD10423C6E7B3F54A
:101EF000407F59D10823C1E7464BD3F8903003F413
:101F00004063B3F5006F51D006D8002B50D0B3F525
:101F1000806F4FD10423B1E7B3F5406F4CD1082354
:101F2000ACE73C4BD3F8903003F44053B3F5005F7B
:101F300044D006D8002B43D0B3F5805F42D10423B0
:101F40009CE7B3F5405F3FD1082397E7314BD3F8C7
:101F5000903003F44043B3F5004F37D005D8BBB3FE
:101F6000B3F5804F36D1042388E7B3F5404F33D122
:101F7000082383E7022381E702237FE702237DE72B
:101F800000237BE7102379E7102377E7022375E727
:101F9000002373E7102371E710236FE702236DE737
:101FA00000236BE7102369E7102367E7022365E747
:101FB000012363E7102361E710235FE702235DE756
:101FC00000235BE7102359E7102357E7022355E767
:101FD000002353E7102351E710234FE7082B5BD86A
:101FE000DFE803F01A343A5A375A5A5A1E0000BF33
:101FF000F369FFEF0010014000440040004800403A
:10200000004C0040005000400014014000780040A7
:10201000007C004000380240FFF782F900283DD0E4
:102020006268530803EB4000B0FBF2F0A0F110022D
:102030004FF6EF739A4233D883B223F00F03C0F305
:10204000420018432368D860002030E0FFF778F999
:10205000E4E7FFF757F8E1E71748E1E7164802E041
:10206000FFF75EF900B3636800EB5300B0FBF3F0D9
:10207000A0F110024FF6EF739A4217D8236880B28E
:10208000D860002013E0FFF75BF9EBE7FFF73AF8C1
:10209000E8E74FF40040E6E7012008E0002006E012
:1020A000012004E0012002E0002000E001200023E4
:1020B000A366E36610BD00BF0024F400436A13F07A
:1020C000080F06D00268536823F40043416B0B43AA
:1020D0005360436A13F0010F06D00268536823F47B
:1020E0000033816A0B435360436A13F0020F06D03A
:1020F0000268536823F48033C16A0B435360436A18
:1021000013F0040F06D00268536823F48023016B98
:102110000B435360436A13F0100F06D002689368B4
:1021200023F48053816B0B439360436A13F0200FB9
:1021300006D00268936823F40053C16B0B4393608D
:10214000436A13F0400F0AD00268536823F48013E7
:10215000016C0B435360036CB3F5801F0BD0436AD3
:1021600013F0800F06D00268536823F40023816CBB
:102170000B43536070470268536823F4C003416CFB
:102180000B435360EBE72DE9F84305460E4617462F
:102190009946DDF820802C68E46936EA04030CBF18
:1021A0004FF0010C4FF0000CBC453AD1B8F1FF3FA5
:1021B000F1D0FEF7C5FBA0EB0900404534D8B8F1DB
:1021C000000F33D02B681A6812F0040FE3D0B6F179
:1021D000400218BF0122802EDDD0002ADBD0DA6950
:1021E00012F0080F11D1DA6912F4006FD3D04FF456
:1021F00000621A622846FFF7A0FD2023C5F884304C
:10220000002385F8783003200CE008241C6228465F
:10221000FFF793FDC5F88440002385F8783001204E
:1022200000E00020BDE8F8830320FBE70320F9E786
:102230002DE9F04182B01E46C36F202B57D10446D2
:102240000D469046002A18BF002901D101204FE019
:102250000023C0F884302123C367FEF771FB0746D3
:10226000A4F85080A4F85280A368B3F5805F02D030
:102270004FF0000815E023693BB34FF0000810E071
:102280002023E367032033E038F8023B2268C3F3DE
:1022900008039362B4F8522092B2013A92B2A4F8C1
:1022A0005220B4F852309BB293B100963B460022C4
:1022B00080212046FFF767FF0028E1D1002DE3D001
:1022C00015F8012B23689A62E4E7A8460025E8E7A1
:1022D00000963B46002240212046FFF754FF10B9EC
:1022E0002023E36704E02023E367032000E00220CB
:1022F00002B0BDE8F08130B583B004460023C0F8D9
:102300008430FEF71DFB05462268126812F0080FA4
:102310000FD123681B6813F0040F26D12023E36735
:10232000C4F8803000202066606684F8780003B02E
:1023300030BD6FF07E430093034600224FF400113E
:102340002046FFF720FF0028E3D0226852E8003F34
:1023500023F0800342E800310029F6D12023E3670F
:10236000002384F878300320E1E76FF07E43009388
:102370002B4600224FF480012046FFF704FF00287F
:10238000CCD0226852E8003F23F4907342E8003139
:102390000029F6D1226802F1080353E8003F23F038
:1023A0000103083242E800310029F3D12023C4F8A8
:1023B0008030002384F878300320B8E768B310B584
:1023C0000446C36F03B32423E3672268136823F032
:1023D00001031360636AE3B92046FFF7D7FC0128C5
:1023E00011D02268536823F49043536022689368A5
:1023F00023F02A0393602268136843F001031360FB
:102400002046FFF778FF10BD80F87830FEF73CFAE1
:10241000D9E72046FFF752FEDEE70120704700F1C2
:10242000080343604FF0FF328260C3600361002302
:102430000360704700230361704743684B609A68EC
:102440008A605160996008610368013303607047D6
:1024500030B40D68B5F1FF3F11D000F108031C4600
:102460005B681A68AA42FAD963684B6099608C600D
:102470006160086103680133036030BC7047046920
:10248000F2E70369416882688A60416851605A686E
:10249000824206D0002202611A68013A1A60186866
:1024A000704782685A60F5E782B0002301930F4BB2
:1024B0001B68B3F1FF3F0AD04FF0500372B683F3AD
:1024C0001188BFF36F8FBFF34F8F62B6FEE74FF0F7
:1024D000500372B683F31188BFF36F8FBFF34F8F32
:1024E00062B6019B002BFCD002B070470C000020AC
:1024F00008480068006880F308884FF0000080F307
:10250000148862B661B6BFF34F8FBFF36F8F00DFE1
:1025100000BF000008ED00E0DFF80C00016841F4A6
:10252000700101607047000088ED00E04FF080739B
:1025300040F8043C21F0010140F8081C054B40F82C
:102540000C3C40F8202C6FF0020340F8243C443847
:10255000704700BFA9240008000000000000000030
:10256000074B19680868B0E8F04F80F30988BFF39B
:102570006F8F4FF0000080F311887047AFF3008039
:102580007C3D00204FF0500372B683F31188BFF3F7
:102590006F8FBFF34F8F62B60C4A1368013313601D
:1025A000012B00D070474FF0E023D3F8043D13F027
:1025B000FF0FF7D04FF0500372B683F31188BFF3CB
:1025C0006F8FBFF34F8F62B6FEE700BF0C00002095
:1025D0000A4B1B6853B94FF0500372B683F311884E
:1025E000BFF36F8FBFF34F8F62B6FEE7013B034A25
:1025F00013600BB983F31188704700BF0C000020F3
:10260000EFF30980BFF36F8F154B1A681EF0100FA0
:1026100008BF20ED108A20E9F04F10602DE9090075
:102620004FF0500072B680F31188BFF34F8FBFF3A5
:102630006F8F62B601F084F84FF0000080F31188CC
:1026400009BC19680868B0E8F04F1EF0100F08BF09
:10265000B0EC108A80F30988BFF36F8F704700BF1A
:102660007C3D002008B54FF0500372B683F311880B
:10267000BFF36F8FBFF34F8F62B600F02DFF28B10D
:102680004FF0E0234FF08052C3F8042D002383F372
:10269000118808BD4FF0E022002313619361054BC0
:1026A0001B680549A1FB03139B09013B53610723E9
:1026B0001361704700000020D34D621030B583B025
:1026C0002F4B1A78D2B20192FF221A701B78DBB21C
:1026D0008DF803309DF8033003F05003294A13703E
:1026E000294B07221A6009E0274A1368013B13604F
:1026F0009DF803305B00DBB28DF803309DF80330AA
:1027000013F0800FF0D1204B1B68032B0AD04FF041
:10271000500372B683F31188BFF36F8FBFF34F8FEF
:1027200062B6FEE71B02184A136003F4E06313600D
:10273000019BDBB2124A13704FF0E024D4F8203D25
:1027400043F47003C4F8203DD4F8203D43F07043B7
:10275000C4F8203DFFF79EFF00250C4B1D60FFF7DE
:10276000DBFED4F8343F43F04043C4F8343FFFF776
:10277000BFFE00F0E5FFFFF797FE284603B030BD2F
:1027800000E400E01C010020200100200C000020DB
:10279000EFF305830F2B11D9134A9B5CDBB2134A6D
:1027A00012789A420AD94FF0500372B683F3118817
:1027B000BFF36F8FBFF34F8F62B6FEE74FF0E0239A
:1027C000D3F80C3D03F4E063094A126893420AD936
:1027D0004FF0500372B683F31188BFF36F8FBFF3CE
:1027E0004F8F62B6FEE77047F0E300E01C01002067
:1027F00020010020124A12F0070F1ED0D11D21F037
:102800000701C1F5705313440A460E4802600021C7
:1028100041601344083B23F007030B4803605960F1
:102820001960991A51601360084B1960084B1960C0
:10283000084B4FF000421A6070474FF47053E4E7C2
:1028400028010020343D002024010020303D0020DC
:102850002C3D0020283D0020164B1A461B68834261
:10286000FBD3516802EB010C844509D0416800EBB1
:10287000010C634509D00360904219D01060704785
:102880004068014451601046F0E710B40A4C2468D7
:10289000A3420BD05B681944416013681B68036056
:1028A000904200D010605DF8044B70470460F7E779
:1028B000704700BF343D00202401002070B505465C
:1028C00000F0F4FD364B1B68A3B1364B1B681D426C
:1028D0004CD135B1083515F0070F02D025F00705AA
:1028E0000835002D44D0304B1B68AB4251D32F4AE2
:1028F000146804E0FFF77EFFE7E722461C466368A2
:10290000AB4202D22368002BF7D1254B1B68A342B0
:1029100041D0166808362368136063685B1B102B70
:1029200012D9601910F0070F0AD04FF0500372B699
:1029300083F31188BFF36F8FBFF34F8F62B6FEE74B
:1029400043606560FFF788FF626817490B689B1A50
:102950000B60174909688B4201D215490B60114B76
:102960001B68134363600023236002E0002600E03D
:10297000002600F03FFE16F0070F0ED04FF0500378
:1029800072B683F31188BFF36F8FBFF34F8F62B6B8
:10299000FEE70026EDE70026EBE7304670BD00BFFE
:1029A00024010020283D00202C3D0020343D002043
:1029B000303D0020002834D038B50446A0F1080589
:1029C00050F8043C174A126813420AD14FF05003E2
:1029D00072B683F31188BFF36F8FBFF34F8F62B668
:1029E000FEE750F8081C51B14FF0500372B683F364
:1029F0001188BFF36F8FBFF34F8F62B6FEE723EAF4
:102A0000020340F8043C00F051FD54F8041C064A4F
:102A100013680B4413602846FFF71EFF00F0EAFD21
:102A200038BD7047283D00202C3D002010B50446DD
:102A3000FFF7A8FDA26BE36B9A4204D00024FFF7D6
:102A4000C7FD204610BD0124F9E710B50446FFF785
:102A500099FDA36B23B90124FFF7BAFD204610BDF1
:102A60000024F9E770B504461546866B026C5AB926
:102A700003681BB100200136A66370BD806800F0BA
:102A800095FF0023A360F6E76DB9406801F080FB75
:102A9000226C636813446360A268934219D323686D
:102AA00063602846E7E7C06801F072FB226C514280
:102AB000E3689B1AE3602268934202D2A3680B4446
:102AC000E360022D01D00020D5E726B1013E0020B1
:102AD000D1E72846CFE70020CDE70346026C6AB174
:102AE00010B50846D9681144D9609C68A14201D349
:102AF0001968D960D96801F04BFB10BD704738B533
:102B00000546FFF73FFD95F8454064B201E0013C02
:102B100064B2002C0ADD6B6A43B105F1240000F0B9
:102B200095FE0028F3D000F02BFFF0E7FF2385F897
:102B30004530FFF74DFDFFF725FD95F8444064B2A1
:102B400001E0013C64B2002C0ADD2B6943B105F1C0
:102B5000100000F07BFE0028F3D000F011FFF0E73A
:102B6000FF2385F84430FFF733FD38BD38B5E0B1B9
:102B70000D460446FFF706FD2368E26B216C01FB5E
:102B80000230A0600020A0636360013A02FB0133C1
:102B9000E360FF2384F8443084F845300DBB23699B
:102BA00073B9FFF715FD012038BD4FF0500372B621
:102BB00083F31188BFF36F8FBFF34F8F62B6FEE7C9
:102BC00004F1100000F042FE0028EAD04FF0E023AC
:102BD0004FF08052C3F8042DBFF34F8FBFF36F8FB8
:102BE000DFE704F11000FFF71AFC04F12400FFF7FF
:102BF00016FCD6E710B5034602980C4631B90060C2
:102C0000C36304640121FFF7B1FF10BD0260F7E761
:102C100050B94FF0500372B683F31188BFF36F8F32
:102C2000BFF34F8F62B6FEE7F0B583B00C46154692
:102C3000064689B101FB00F04830FFF73FFE07462A
:102C400038B100902B4600F1480221463046FFF78C
:102C5000D1FF384603B0F0BD0846EDE7F0B585B0CA
:102C6000019298B10F461D460446D1B1022D26D1DE
:102C7000E36B012B23D04FF0500372B683F311881E
:102C8000BFF36F8FBFF34F8F62B6FEE74FF0500375
:102C900072B683F31188BFF36F8FBFF34F8F62B6A5
:102CA000FEE7036C002BE1D04FF0500372B683F3C4
:102CB0001188BFF36F8FBFF34F8F62B6FEE700F04E
:102CC00065FE064668B9019B002B4AD04FF05003C1
:102CD00072B683F31188BFF36F8FBFF34F8F62B665
:102CE000FEE700263DE02A4639462046FFF7BAFEB9
:102CF000636A7BB948B14FF0E0234FF08052C3F8CC
:102D0000042DBFF34F8FBFF36F8FFFF761FC0120DE
:102D100005B0F0BD04F1240000F098FD0028F4D0C7
:102D20004FF0E0234FF08052C3F8042DBFF34F8FD4
:102D3000BFF36F8FE9E7FFF74BFC0020E8E702A83D
:102D400000F0CCFD012619E0002384F8443021E096
:102D5000002384F8453023E02046FFF7D0FE00F042
:102D600049FCFFF70FFCA26BE36B9A42BBD3022D29
:102D7000B9D0019B002BDED0002EE0D0FFF728FC5D
:102D800000F094FBFFF7FEFB94F8442052B2B2F13E
:102D9000FF3FD9D094F8452052B2B2F1FF3FD7D0CF
:102DA000FFF716FC01A902A800F0A4FDD8B920463F
:102DB000FFF73CFE0028CFD0019904F1100000F08D
:102DC0000DFD2046FFF79BFE00F014FC0028C8D143
:102DD0004FF0E0234FF08052C3F8042DBFF34F8F24
:102DE000BFF36F8FBDE72046FFF789FE00F002FCBE
:102DF00000208DE72DE9F843A0B10F4616461C468A
:102E00000546D1B1022C26D1EB6B012B23D04FF01C
:102E1000500372B683F31188BFF36F8FBFF34F8FE8
:102E200062B6FEE74FF0500372B683F31188BFF32A
:102E30006F8FBFF34F8F62B6FEE7036C002BE1D0BC
:102E40004FF0500372B683F31188BFF36F8FBFF357
:102E50004F8F62B6FEE7FFF79BFCEFF311894FF04F
:102E6000500372B683F31188BFF36F8FBFF34F8F98
:102E700062B6AA6BEB6B9A4206D3022C04D00020F8
:102E800089F31188BDE8F88395F845804FFA88F8F2
:102E9000224639462846FFF7E5FDB8F1FF3F06D048
:102EA00008F101035BB285F845300120E8E76B6A61
:102EB0000BB90120E4E705F1240000F0C7FC18B1CC
:102EC00026B101203060DBE70120D9E70120D7E7F8
:102ED000F0B585B00192A0B10F460446E1B100F013
:102EE00055FD064630BB019B002B64D04FF05003CC
:102EF00072B683F31188BFF36F8FBFF34F8F62B643
:102F0000FEE74FF0500372B683F31188BFF36F8F63
:102F1000BFF34F8F62B6FEE7036C002BDFD04FF09C
:102F2000500372B683F31188BFF36F8FBFF34F8FD7
:102F300062B6FEE700263EE039462046FFF7CDFDAB
:102F4000013DA563236923B9FFF742FB012005B0CA
:102F5000F0BD04F1100000F079FC0028F4D04FF02F
:102F6000E0234FF08052C3F8042DBFF34F8FBFF31F
:102F70006F8FE9E7FFF72CFB0020E8E702A800F0DD
:102F8000ADFC012621E0002384F8443029E0002331
:102F900084F845302BE02046FFF7B1FD00F02AFB16
:102FA00009E02046FFF7ABFD00F024FB2046FFF7C9
:102FB0004CFD00283FD1FFF7E5FAA56B002DBBD1F2
:102FC000019B002BD6D0002ED8D0FFF701FB00F0DC
:102FD0006DFAFFF7D7FA94F844305BB2B3F1FF3FD4
:102FE000D1D094F845305BB2B3F1FF3FCFD0FFF7BB
:102FF000EFFA01A902A800F07DFC0028D1D12046FB
:10300000FFF723FD0028C6D0019904F1240000F049
:10301000E5FB2046FFF773FD00F0ECFA0028CAD16B
:103020004FF0E0234FF08052C3F8042DBFF34F8FD1
:10303000BFF36F8FBFE7002089E700000023072B55
:103040000CD8074A52F833200AB10133F7E7044A93
:1030500042F8331002EBC30358607047704700BF5B
:103060003C3D002070B504460D461646FFF78AFA2F
:1030700094F844305BB2B3F1FF3F0DD094F8453083
:103080005BB2B3F1FF3F0BD0FFF7A2FAA36B5BB1CA
:103090002046FFF734FD70BD002384F84430EDE78F
:1030A000002384F84530EFE73246294604F1240036
:1030B00000F0AEFBECE70000084B1B681B6823B96F
:1030C000074B4FF0FF321A607047044B1B68DB68F8
:1030D000DB685A68024B1A60704700BF803D0020D1
:1030E000583E002010B50446006BFFF763FC2046F5
:1030F000FFF760FC10BD2DE9F04707469846089D94
:10310000DDF824900A9C266B6FF04043134406EBD5
:10311000830626F0070600293AD08E464FF0000CB1
:10312000BCF10F0F0BD81EF80C2004EB0C0383F836
:1031300034201EF80C3013B10CF1010CF0E7002321
:1031400084F84330062D00D90625E56265644FF00A
:10315000000AC4F848A0201DFFF76CF904F118001C
:10316000FFF768F92461C5F10705A5616462C4F839
:103170004CA084F850A0424639463046FFF7D6F9B5
:103180002060B9F1000F01D0C9F80040BDE8F08718
:10319000002384F83430D5E738B5002407E004EB89
:1031A000840293000E481844FFF739F90134062CC5
:1031B000F5D90C4D2846FFF732F90B4C2046FFF7A6
:1031C0002EF90A48FFF72BF90948FFF728F90948B3
:1031D000FFF725F9084B1D60084B1C6038BD00BF88
:1031E000883D00202C3E0020403E0020603E002014
:1031F0008C3E0020783E0020803D0020843D002051
:1032000010B50446FFF7BEF9214A13680133136075
:10321000204B1B685BB1204B1B686BB91D4B1B68B7
:10322000DA6AE36A9A4207D81A4B1C6004E0194B29
:103230001C601368012B28D0184A136801331360EF
:10324000E06A01238340164A11680B43136000EBC8
:103250008000211D134B03EB8000FFF7EEF8FFF712
:10326000B7F90D4B1B687BB10A4B1B68DA6AE36A3E
:103270009A4209D24FF0E0234FF08052C3F8042D58
:10328000BFF34F8FBFF36F8F10BDFFF785FFD3E7FD
:10329000143E00207C3D0020743E0020243E00208F
:1032A000283E0020883D00200F4B1B68D3B110B58D
:1032B000FFF768F90D4BDB68DC68201DFFF7E1F8CC
:1032C0000B4A1368013B1360074A1368013B136004
:1032D000FFF77EF92046FFF705FF034B1B68002B25
:1032E000E6D110BD704700BF183E00208C3E002084
:1032F000143E002008B5FFF7D7FF074B1B68012BD2
:10330000F9D94FF0E0234FF08052C3F8042DBFF3FA
:103310004F8FBFF36F8FEEE7883D002070B50446F6
:103320000D461F4B1E681F4B18680430FFF7A9F8A5
:1033300050B91C4B1B68DA6A012303FA02F21A49DE
:103340000B6823EA02030B60B4F1FF3F14BF0023B4
:103350000123002D08BF00236BB93444114B1B68B7
:103360005C60A6420ED9114B18680E4B19680431E7
:10337000FFF76EF870BD0B4B196804310C48FFF76E
:103380005CF8F7E70B4B1868064B19680431FFF738
:103390005FF8094B1B68A342ECD9074B1C60E9E7B7
:1033A000A03E00207C3D0020283E0020843D0020DF
:1033B000783E0020803D0020583E00202DE9F0435B
:1033C00085B00746884614461E469000FFF776FAF9
:1033D000F0B181465420FFF771FA0546A0B1C0F85C
:1033E0003090D5B10023039302950D9B01930C9B64
:1033F00000933346224641463846FFF77CFE284676
:10340000FFF7FEFE012005E04846FFF7D3FAE8E7A4
:103410004FF0FF3005B0BDE8F0834FF0FF30F9E723
:1034200000B583B01B4B01930023009380221A49FF
:103430001A48FFF7C3FF012807D0012808D0B0F1D0
:10344000FF3F1CD003B05DF804FB00F09BFBF4E7EA
:103450004FF0500372B683F31188BFF36F8FBFF341
:103460004F8F62B60E4B4FF0FF321A600D4B0122A8
:103470001A600D4B00221A60FFF720F9E2E74FF0C7
:10348000500372B683F31188BFF36F8FBFF34F8F72
:1034900062B6FEE7543E0020EC410008F532000819
:1034A000583E0020743E0020A03E0020024A1368CF
:1034B00001331360704700BF203E0020014B1868A5
:1034C000704700BFA03E002008B5FFF761F9014B2F
:1034D000186808BDA03E0020F8B53B4B1B68002BC8
:1034E00066D13A4B1D6801351D60D5B9384B1B6854
:1034F0001B6853B14FF0500372B683F31188BFF3CA
:103500006F8FBFF34F8F62B6FEE7314A1168314BC0
:10351000186810601960304A136801331360FFF7B0
:10352000CBFD2E4B1B68AB4238D900272C4B1B68B8
:10353000DB6A03EB83039A002A4B9B58012B3CD98F
:1035400001273AE00127224B1B681B6843B3204B3D
:103550001B68DB68DC6863689D4226D3261D304605
:10356000FEF78FFFA36A1BB104F11800FEF789FF75
:10357000E36A01229A401C49086802430A6003EB8F
:1035800083039A00314617481044FEF756FFE26A5B
:10359000134B1B68DB6A9A42D4D2D4E70027D2E7E8
:1035A0000E4B4FF0FF321A60C0E70C4A1360BDE7C4
:1035B0000E4A13680133136000270D4B1B6803B1DB
:1035C00001273846F8BD00BF203E0020A03E002065
:1035D000803D0020843D00205C3E0020583E0020BD
:1035E0007C3D0020883D0020283E00201C3E00201D
:1035F000A43E002038B5364B1B6853B94FF050033A
:1036000072B683F31188BFF36F8FBFF34F8F62B62B
:10361000FEE7FEF7B7FF2E4B1A68013A1A601B68E7
:10362000002B4FD12B4B1B680BB900244BE000241F
:10363000294B1B681BB3284BDB68DC6804F11800BE
:10364000FEF71FFF251D2846FEF71BFFE06A01233A
:103650008340224A11680B43136000EB8000294627
:103660001F4B03EB8000FEF7E8FEE26A1D4B1B6870
:10367000DB6A9A42DCD31C4B01221A60D8E70CB1FA
:10368000FFF71AFD194B1C6884B9174B1C68D4B19D
:103690004FF0E0234FF08052C3F8042DBFF34F8F5B
:1036A000BFF36F8F01240EE0013C07D0FFF714FF3A
:1036B0000028F9D00C4B01221A60F5E70B4B0022D1
:1036C0001A60E2E70024FEF783FF204638BD00BF02
:1036D000203E0020143E0020603E0020283E0020B6
:1036E000883D00207C3D0020A43E00201C3E0020A0
:1036F00010B5B8B10446114B1B6853B14FF05003DD
:1037000072B683F31188BFF36F8FBFF34F8F62B62A
:10371000FEE7FFF7CBFE00212046FFF7FFFDFFF796
:1037200069FF48B94FF0E0234FF08052C3F8042DF1
:10373000BFF34F8FBFF36F8F10BD00BF203E00203F
:10374000214B1B681BB1214B01221A6070471F4B94
:1037500000221A601E4B1B68B3FA83F3DBB2C3F17D
:103760001F0303EB83018A001A498A5852B94FF0AC
:10377000500372B683F31188BFF36F8FBFF34F8F7F
:1037800062B6FEE7134903EB830082000A445068E7
:103790004068506003EB830C4FEA8C0208321144FE
:1037A000884209D003EB83039A000A4B13445B68F9
:1037B000DA68094B1A607047406862469100054A12
:1037C0000A445060EEE700BF203E0020A43E0020E7
:1037D000283E0020883D00207C3D002058B110B5D7
:1037E0000C460A4A11681831FEF732FE01212046C4
:1037F000FFF794FD10BD4FF0500372B683F31188AC
:10380000BFF36F8FBFF34F8F62B6FEE77C3D0020A2
:1038100038B570B10D4614460B4A11681831FEF7E1
:103820000CFE0CB14FF0FF3521462846FFF776FD20
:1038300038BD4FF0500372B683F31188BFF36F8F1A
:10384000BFF34F8F62B6FEE77C3D002038B5C368FA
:10385000DC6824B304F118052846FEF712FE194B64
:103860001B683BBB251D2846FEF70BFEE06A0123C3
:103870008340154A11680B43136000EB8000294612
:10388000124B03EB8000FEF7D8FDE26A104B1B6879
:10389000DB6A9A4213D901200E4B186038BD4FF0F5
:1038A000500372B683F31188BFF36F8FBFF34F8F4E
:1038B00062B6FEE729460848FEF7BFFDE5E70020AF
:1038C000ECE700BF203E0020283E0020883D00207D
:1038D0007C3D0020A43E0020603E0020034B1B687E
:1038E0000360034B1B684360704700BF5C3E0020D1
:1038F000A03E0020F8B5C8B10C46054609B3FEF756
:1039000041FE1D4B19686B68C81A2268B2F1FF3F6F
:103910002AD01A4E36682F68B74201D08B4228D978
:10392000824219D80023236001241EE04FF0500387
:1039300072B683F31188BFF36F8FBFF34F8F62B6F8
:10394000FEE74FF0500372B683F31188BFF36F8F19
:10395000BFF34F8F62B6FEE75B1A1344236028461D
:10396000FFF7BCFF002400E00024FEF731FE2046F4
:10397000F8BD0124F9E700BFA03E00205C3E002016
:10398000014B01221A607047A43E0020054B1B68C2
:1039900033B1054B1B680BB1002070470220704704
:1039A00001207047743E0020203E0020002850D0A7
:1039B00038B50446294B1B6883420AD04FF05003A8
:1039C00072B683F31188BFF36F8FBFF34F8F62B668
:1039D000FEE7836C53B94FF0500372B683F311883E
:1039E000BFF36F8FBFF34F8F62B6FEE7013B836477
:1039F000C16A426C91422ED00BB1002038BD051D2A
:103A00002846FEF73EFD70B9E26A02EB82039B0096
:103A10001349CB583BB9012303FA02F211490B6851
:103A200023EA02030B60606CE062C0F10703A3614C
:103A3000012404FA00F30B4A11680B43136000EBF6
:103A400080002946064B03EB8000FEF7F6FC20467B
:103A5000D4E7002070470020D0E700BF7C3D002065
:103A6000883D0020283E0020064B1A6813682BB9B9
:103A70000123036023B9D368186870470023F8E76F
:103A800000207047A83E002008B5416000619142C7
:103A90000CD8D21A83699A4201D3012008BD011DB6
:103AA0000B4B1868FEF7D4FC0020F7E79A422CBFB6
:103AB00000220122994238BF00220AB10120EDE71D
:103AC000011D044B1868FEF7C3FC0020E6E700BFA9
:103AD000AC3E0020A83E002038B5FEF753FD0F4B4A
:103AE0001B6813B1FEF774FD38BD0D4D2846FEF777
:103AF00096FC0C4C2046FEF792FC0B4B1D600B4BCA
:103B00001C6000220C210A20FFF782F8034B18608A
:103B10000028E7D00649FFF791FAE3E7DC3E0020F2
:103B2000B03E0020C43E0020A83E0020AC3E002055
:103B3000F44100082DE9F041079F51B94FF05003BF
:103B400072B683F31188BFF36F8FBFF34F8F62B6E6
:103B5000FEE7064614461D4688468FB1FFF7BCFFB8
:103B60003E60C7F81880FD61069B3B62381DFEF77A
:103B700061FC2CB197F8243043F0040387F824301B
:103B8000BDE8F08100B583B0FFF7A6FF0E4B1B68C0
:103B90005BB10E4B01930223009300234FF480721C
:103BA0000B490C48FFF70AFC50B94FF0500372B6AE
:103BB00083F31188BFF36F8FBFF34F8F62B6FEE7B9
:103BC00003B05DF804FB00BFDC3E0020E03E0020B7
:103BD000FC410008193F00082DE9F04182B004467D
:103BE000884617461D462820FEF768FE064658B14F
:103BF000002380F824300190089B00932B463A461E
:103C000041462046FFF796FF304602B0BDE8F081FE
:103C1000B8B19C4603461948006868B300B585B042
:103C200001910292039305291EDCFFF7AFFE0228E3
:103C300012D000231A4601A910480068FFF70EF8B9
:103C400017E04FF0500372B683F31188BFF36F8F04
:103C5000BFF34F8F62B6FEE70023069A01A907481B
:103C60000068FEF7FBFF04E00023624601A9FFF7AE
:103C7000C1F805B05DF804FB00207047DC3E002071
:103C800070B582B01C4B1B681A6872B3DB681E6883
:103C9000DC68251D2846FEF7F4FB236A204698477A
:103CA00094F8243013F0040FECD0A36933449E42FF
:103CB00007D26360246129460F4B1868FEF7C8FBE2
:103CC000E0E7002100910B4632462046FFF7A0FFB7
:103CD0000028D7D14FF0500372B683F31188BFF399
:103CE0006F8FBFF34F8F62B6FEE7044A1068024938
:103CF0000860136002B070BDA83E0020AC3E0020FA
:103D000038B50546FFF7DAFB0446074B1B688342CC
:103D100005D800232B60044B1C60204638BDFFF7FC
:103D2000AFFF01232B60F6E7D83E002070B582B0CC
:103D300006460D4618490968C968CC68201DFEF77B
:103D4000A0FB94F824C01CF0040F08D12CF0010C47
:103D500084F824C0236A2046984702B070BDA16948
:103D600033462A4631442046FFF78EFE0028F1D024
:103D7000002100910B4632462046FFF749FF0028FC
:103D8000E8D14FF0500372B683F31188BFF36F8F01
:103D9000BFF34F8F62B6FEE7A83E002070B582B039
:103DA00006460C46FFF782FB01A8FFF7A9FF019B1F
:103DB0003BBB0546B04228BF002C19D024B1134AA2
:103DC00012681268DAB901242246711B104B186878
:103DD000FFF748F9FFF70EFCA8B94FF0E0234FF0CA
:103DE0008052C3F8042DBFF34F8FBFF36F8F0AE0EB
:103DF000FFF700FC29463046FFF798FF03E01C461A
:103E0000E2E7FFF7F7FB02B070BD00BFAC3E002059
:103E1000DC3E002010B586B0002203A93D4B186897
:103E2000FFF756F8002872D0039B002BF4DB059CAB
:103E3000636913B1201DFEF724FB02A8FFF760FFA2
:103E4000039B092BE8D8DFE803F005050532395458
:103E50000505323994F8243043F0010384F8243006
:103E6000049BA169024619442046FFF70DFE002875
:103E7000D2D0236A2046984794F8243013F0040FD8
:103E8000CAD0A269002100910B4604980244204642
:103E9000FFF7BEFE0028BFD14FF0500372B683F388
:103EA0001188BFF36F8FBFF34F8F62B6FEE794F8B0
:103EB000243023F0010384F82430ADE794F8243053
:103EC00043F0010384F824300499A16131B1034621
:103ED000024601442046FFF7D7FD9DE74FF050030F
:103EE00072B683F31188BFF36F8FBFF34F8F62B643
:103EF000FEE794F8243013F0020F04D023F00103FE
:103F000084F8243088E72046FEF754FD84E706B0A5
:103F100010BD00BFDC3E002000B583B001A8FFF754
:103F2000A3FD0199FFF73AFFFFF774FFF6E70000E2
:103F3000014B00221A707047E53E002038B5044658
:103F400001E0002323734FF4FA60FFF7D1FB237BDA
:103F500054F823502846FCF773F94FF0FF3382B230
:103F600029460548FEF764F9237B0133DBB223734E
:103F7000022BE8D9E5E700BF9000002008B506E075
:103F80004FF0FF331E2210491048FEF751F94FF051
:103F9000FF320F490F4B1868FEF79AFF0128EFD147
:103FA0000B4B1B7853B10C4B01221A704FF0FF33AF
:103FB00022220A490548FEF73BF9E8E74FF4804121
:103FC0000748FCF765FEEEE7044200089000002079
:103FD000E43E0020EC3E0020E53E002024420008A4
:103FE0000004024010B5044606E080210848FCF7B2
:103FF0004FFE6088FFF77CFB064B1B78002BF4D04C
:1040000080210348FCF744FEA088FFF771FBF3E72B
:1040100000040240E43E002038B5002201210520C2
:10402000FEF7F6FD054660B1074C2046FCF708F99F
:104030004FF0FF3382B221460448FEF7F9F82846D4
:1040400038BD034CF1E700BF484200089000002053
:104050006842000870B582B0FFF7DEFF174B1860AA
:10406000174E184D019501240094334680221649BD
:104070001648FFF7A3F901950094334680221449AE
:104080001448FFF79BF901950094134B80221349C4
:104090001348FFF793F9134B009300231A46962118
:1040A0001148FFF799FD114B18600024104B1C704C
:1040B000FFF7B6F9204602B070BD00BFEC3E00200D
:1040C00020000020F03E002084420008E53F000868
:1040D000944200087D3F000810000020A442000820
:1040E0003D3F0008313F0008BC420008E83E002088
:1040F000E53E0020DFF834D0FCF7A0FB0C480D496A
:104100000D4A002302E0D458C4500433C4188C4232
:10411000F9D30A4A0A4C002301E013600432A24298
:10412000FBD300F011F8FCF7D9FA70470000082023
:104130000000002028000020F8420008280000208D
:10414000F43E0020FEE7000070B50D4D0D4C641BE1
:10415000A4100026A64209D10B4D0C4C00F02EF8FD
:10416000641BA4100026A64205D170BD55F8043B7F
:1041700098470136EEE755F8043B98470136F2E7D9
:10418000F0420008F0420008F0420008F442000843
:104190000A44914200F1FF3300D1704710B511F885
:1041A000014B03F8014F9142F9D110BD024403467F
:1041B000934200D1704703F8011BF9E7F8B500BF3F
:1041C000F8BC08BC9E467047F8B500BFF8BC08BCF8
:0441D0009E46704750
:1041D40000000000000000000102030406070809B3
:1041E400000000000102030449444C4500000000A3
:1041F400546D725100000000546D722053766300B8
:104204006661696C20696E20726563656976696EA2
:10421400672066726F6D2071756575650A0D000003
:104224005375636365737366756C6C79207265632B
:1042340065697665642066726F6D20717565756554
:104244000A0D0000517565756520637265617465BA
:1042540064207375636365737366756C6C790A0D9A
:10426400000000006661696C656420696E206372F9
:10427400656174696E672071756575650A0D000066
:10428400426C7565204C4544205461736B000000FA
:10429400526564204C4544205461736B0000000057
:1042A40055415254207472616E736D697373696FF2
:1042B4006E205461736B00006465626F756E636594
:1042C4002074696D6572000066697273740A0D006A
:1042D4007365636F6E640A0D000000007468697290
:0442E400640A0D005B
:0842E80098BFFF7F01000000F8
:0442F000250200089B
:0442F40001020008BB
:1042F8000024F4000100000010000000AAAAAAAAE5
:10430800CC420008D4420008E04200080000000047
:084318008000E80364000000CE
:04000005080040F5BA
:00000001FF
