:020000040800F2
:100000000000082015200008250700082707000821
:10001000290700082B0700082D0700080000000032
:100020000000000000000000000000007114000843
:100030002F070008000000001115000875150008C2
:10004000652000086520000865200008652000087C
:10005000652000086520000865200008652000086C
:10006000652000086520000865200008652000085C
:10007000652000086520000865200008652000084C
:10008000652000086520000865200008652000083C
:10009000652000086520000865200008652000082C
:1000A0006520000831070008652000086520000869
:1000B000652000086520000865200008652000080C
:1000C00065200008652000086520000865200008FC
:1000D00065200008652000086520000865200008EC
:1000E00065200008652000086520000865200008DC
:1000F00065200008652000086520000865200008CC
:1001000065200008652000086520000865200008BB
:1001100065200008652000086520000865200008AB
:10012000652000086520000865200008652000089B
:10013000652000086520000865200008652000088B
:10014000652000086520000865200008652000087B
:10015000652000086520000865200008652000086B
:10016000652000086520000865200008652000085B
:1001700065200008652000086520000800000000D8
:10018000652000086520000865200008652000083B
:10019000652000086520000865200008652000082B
:1001A000652000086520000865200008652000081B
:1001B000652000086520000865200008652000080B
:1001C0006520000865200008000000006520000888
:1001D00065200008652000086520000865200008EB
:1001E00065200008652000086520000865200008DB
:0801F0006520000865200008ED
:1002000010B5054C237833B9044B13B10448AFF350
:1002100000800123237010BD1000002000000000AA
:10022000C020000808B5034B1BB103490348AFF3D6
:10023000008008BD0000000014000020C02000085D
:1002400053B94AB9002908BF00281CBF4FF0FF313D
:100250004FF0FF3000F074B9ADF1080C6DE904CE39
:1002600000F006F8DDF804E0DDE9022304B0704791
:100270002DE9F047089D04468E46002B4DD18A4259
:10028000944669D9B2FA82F252B101FA02F3C2F18C
:10029000200120FA01F10CFA02FC41EA030E94401D
:1002A0004FEA1C48210CBEFBF8F61FFA8CF708FB3E
:1002B00016E341EA034306FB07F199420AD91CEB16
:1002C000030306F1FF3080F01F81994240F21C8148
:1002D000023E63445B1AA4B2B3FBF8F008FB103390
:1002E00044EA034400FB07F7A7420AD91CEB0404C5
:1002F00000F1FF3380F00A81A74240F20781644495
:10030000023840EA0640E41B00261DB1D440002319
:10031000C5E900433146BDE8F0878B4209D9002D7D
:1003200000F0EF800026C5E9000130463146BDE807
:10033000F087B3FA83F6002E4AD18B4202D3824271
:1003400000F2F980841A61EB030301209E46002D20
:10035000E0D0C5E9004EDDE702B9FFDEB2FA82F275
:10036000002A40F09280A1EB0C014FEA1C471FFAD3
:100370008CFE0126200CB1FBF7F307FB131140EABA
:1003800001410EFB03F0884208D91CEB010103F187
:10039000FF3802D2884200F2CB804346091AA4B249
:1003A000B1FBF7F007FB101144EA01440EFB00FE1D
:1003B000A64508D91CEB040400F1FF3102D2A64582
:1003C00000F2BB800846A4EB0E0440EA03409CE721
:1003D000C6F12007B34022FA07FC4CEA030C20FACE
:1003E00007F401FA06F31C43F9404FEA1C4900FAEE
:1003F00006F3B1FBF9F8200C1FFA8CFE09FB18116B
:1004000040EA014108FB0EF0884202FA06F20BD9DD
:100410001CEB010108F1FF3A80F08880884240F22D
:100420008580A8F102086144091AA4B2B1FBF9F071
:1004300009FB101144EA014100FB0EFE8E4508D96C
:100440001CEB010100F1FF346CD28E456AD90238F1
:10045000614440EA0840A0FB0294A1EB0E01A142D6
:10046000C846A64656D353D05DB1B3EB080261EB44
:100470000E0101FA07F722FA06F3F1401F43C5E91E
:10048000007100263146BDE8F087C2F12003D84054
:100490000CFA02FC21FA03F3914001434FEA1C4796
:1004A0001FFA8CFEB3FBF7F007FB10360B0C43EA88
:1004B000064300FB0EF69E4204FA02F408D91CEB38
:1004C000030300F1FF382FD29E422DD90238634436
:1004D0009B1B89B2B3FBF7F607FB163341EA0341D6
:1004E00006FB0EF38B4208D91CEB010106F1FF3825
:1004F00016D28B4214D9023E6144C91A46EA00461C
:1005000038E72E46284605E70646E3E61846F8E6AD
:100510004B45A9D2B9EB020864EB0C0E0138A3E7F6
:100520004646EAE7204694E74046D1E7D0467BE7D7
:10053000023B614432E7304609E76444023842E74F
:10054000704700BF10B584B0002400940194029459
:10055000039400F073F901238DF800308DF8014009
:1005600001941F228DF8082087228DF809208DF82C
:100570000A408DF80B408DF80C308DF80D308DF859
:100580000E408DF80F40684600F076F9042000F028
:1005900063F904B010BD000008B50268034B9A422D
:1005A00000D008BD00F0E2F8FBE700BF000001400A
:1005B00072B6FEE700B595B03422002107A801F01D
:1005C00077FD002302930393049305930693194A3E
:1005D000116C41F080511164126C02F08052009253
:1005E000009A15490A6822F4404242F480420A60A7
:1005F0000A6802F440420192019A02220792012203
:100600000A9210220B920D9307A800F061F968B9C5
:100610000F2302930021039104910591069102A8F2
:1006200000F0CAFB20B915B05DF804FBFFF7C0FF6E
:10063000FFF7BEFF003802400070004008B5FFF72A
:1006400081FF00F087F8FFF7B5FF01F0CBFCFEE774
:1006500000B583B00D4B1A6C42F080521A641A6CCC
:1006600002F080520092009A5A6C42F480425A641E
:100670005B6C03F480430193019B00220F216FF018
:10068000010000F097F803B05DF804FB0038024069
:1006900030B589B004461E4B5A6C42F001025A64D0
:1006A0005B6C03F001030193019B02A903A800F016
:1006B0004FFC00F03DFC03461648A0FB03239B0CB7
:1006C000013B1548154A026040F2E732C2604360C0
:1006D000002303618360836100F0F4FD054610B1DF
:1006E000284609B030BD0C4800F052FC05460028F1
:1006F000F6D1192000F094F80F2C01D90125EFE76D
:1007000000222146192000F055F8054B1C60E7E750
:100710000038024083DE1B432C0000200000014013
:1007200008000020FEE7FEE7FEE7FEE7FEE7704771
:1007300008B5024800F078FC08BD00BF2C0000207E
:10074000034AD2F8883043F47003C2F88830704707
:1007500000ED00E008B5032000F01AF80F20FFF7C5
:1007600097FFFFF775FF002008BD0000034A1168DE
:10077000034B1B780B441360704700BF78000020C8
:1007800004000020014B1868704700BF780000206B
:100790000649CB6823F4E0631B041B0C000200F441
:1007A000E0600343024A1A43CA60704700ED00E06C
:1007B0000000FA0500B5174BDB68C3F30223C3F151
:1007C000070CBCF1040F28BF4FF0040C03F1040E1A
:1007D000BEF1060F14D9033B4FF0FF3E0EFA0CFC9E
:1007E00021EA0C0199400EFA03F322EA03031943AC
:1007F000002807DB0901C9B2074B19545DF804FB57
:100800000023E9E700F00F000901C9B2034B1954B6
:10081000F4E700BF00ED00E000E400E014ED00E0CC
:10082000002807DB00F01F02400901239340024A21
:1008300042F82030704700BF00E100E0BFF35F8F57
:10084000044B5A6A22F480325A620022C3F8942080
:10085000704700BF00ED00E040F00100054BC3F819
:1008600094005A6A42F480325A62BFF34F8FBFF34A
:100870006F8F704700ED00E04378144AC2F898305B
:10088000D2F8A03023F00103C2F8A0304368C2F8C8
:100890009C30017BC37A1B0643EA0173817A43EAE9
:1008A000C143417B43EA8143817B43EA4143C17BAE
:1008B00043EA0143417A43EA0123017A43EA4103CF
:1008C00001780B43C2F8A030704700BF00ED00E094
:1008D000002800F0068270B582B00446036813F069
:1008E000010F29D0954B9B6803F00C03042B1AD001
:1008F000924B9B6803F00C03082B0FD06368B3F591
:10090000803F40D0002B54D18C4B1A6822F48032A7
:100910001A601A6822F480221A6039E0874B5B68FB
:1009200013F4800FEAD0854B1B6813F4003F03D00B
:100930006368002B00F0D781236813F0020F74D096
:100940007E4B9B6813F00C0F5ED07C4B9B6803F0D2
:100950000C03082B53D0E368002B00F08980774A02
:10096000136843F001031360FFF70CFF0546734B58
:100970001B6813F0020F72D1FFF704FF401B02281F
:10098000F5D90320B4E16D4A136843F48033136052
:1009900063682BB3FFF7F6FE0546684B1B6813F43C
:1009A000003FC9D1FFF7EEFE401B6428F5D90320B4
:1009B0009EE1B3F5A02F09D0604B1A6822F4803273
:1009C0001A601A6822F480221A60E1E75B4B1A6809
:1009D00042F480221A601A6842F480321A60D7E723
:1009E000FFF7D0FE0546554B1B6813F4003FA3D01C
:1009F000FFF7C8FE401B6428F5D9032078E14F4B70
:100A00005B6813F4800FA6D14C4B1B6813F0020FE8
:100A100003D0E368012B40F06881484A136823F053
:100A2000F803216943EAC1031360236813F0080F38
:100A300046D0636983B3414A536F43F00103536760
:100A4000FFF7A0FE05463D4B5B6F13F0020F37D159
:100A5000FFF798FE401B0228F5D9032048E1374AEA
:100A6000136823F0F803216943EAC1031360DCE74C
:100A7000324A136823F001031360FFF783FE054633
:100A80002E4B1B6813F0020FCFD0FFF77BFE401BED
:100A90000228F5D903202BE1284A536F23F00103E4
:100AA0005367FFF76FFE0546244B5B6F13F0020F91
:100AB00006D0FFF767FE401B0228F5D9032017E197
:100AC000236813F0040F7DD01C4B1B6C13F0805F68
:100AD0001ED11A4B1A6C42F080521A641B6C03F040
:100AE00080530193019B0125154B1B6813F4807FF4
:100AF00010D0A368012B25D0002B3BD10F4B1A6FD0
:100B000022F001021A671A6F22F004021A671EE02F
:100B10000025E9E70A4A136843F480731360FFF77E
:100B200031FE0646064B1B6813F4807FE1D1FFF7C8
:100B300029FE801B6428F5D90320D9E00038024043
:100B400000700040724A136F43F001031367A368FB
:100B500033B3FFF717FE06466D4B1B6F13F0020F02
:100B60002FD1FFF70FFE801B41F288339842F3D953
:100B70000320BDE0052B09D0654B1A6F22F001025E
:100B80001A671A6F22F004021A67E0E7604B1A6FC7
:100B900042F004021A671A6F42F001021A67D6E7A0
:100BA000FFF7F0FD06465A4B1B6F13F0020F08D0FB
:100BB000FFF7E8FD801B41F288339842F3D9032008
:100BC00096E0FDB9A369002B00F09180504A92682D
:100BD00002F00C02082A59D0022B19D04C4A136893
:100BE00023F080731360FFF7CDFD0446484B1B686C
:100BF00013F0007F48D0FFF7C5FD001B0228F5D990
:100C0000032075E0424A136C23F080531364D9E744
:100C10003F4A136823F080731360FFF7B3FD054666
:100C20003B4B1B6813F0007F06D0FFF7ABFD401B6A
:100C30000228F5D903205BE0E369226A1343626A64
:100C400043EA8213A26A5208013A43EA0243E26A83
:100C500043EA0263226B43EA02732D4A536013682E
:100C600043F080731360FFF78DFD0446284B1B682B
:100C700013F0007F06D1FFF785FD001B0228F5D990
:100C8000032035E0002033E0002031E0204A5268A4
:100C9000012B2FD002F48003E1698B422CD102F0AA
:100CA0003F03216A8B4229D1616A47F6C073134022
:100CB000B3EB811F24D102F44031A36A5B08013BEE
:100CC000B1EB034F1ED102F07063E16AB3EB016F29
:100CD0001AD102F0E042236BB2EB037F16D1002061
:100CE00006E001207047012002E0012000E0002022
:100CF00002B070BD0120FBE70120F9E70120F7E712
:100D00000120F5E70120F3E70120F1E70120EFE7FB
:100D10000038024008B5254B9B6803F00C03042BF8
:100D20003FD0082B3FD1214B5A6802F03F025B684D
:100D300013F4800F12D01D4B5968C1F388111C4861
:100D40000023A1FB0001FFF77BFA184B5B68C3F39C
:100D5000014301335B00B0FBF3F025E0134B59680E
:100D6000C1F3881C4FEA4C11B1EB0C006EEB0E0E78
:100D70004FEA8E1343EA90638101091A63EB0E0375
:100D8000DB0043EA5173C90011EB0C0C43F1000383
:100D9000990200234FEA8C2041EA9C51FFF750FA58
:100DA000D3E7034800E0034808BD00BF0038024015
:100DB00040787D010024F400002800F0A08070B588
:100DC0000D460446524B1B6803F00F038B420BD2B7
:100DD0004F4A136823F00F030B431360136803F0AB
:100DE0000F038B4240F08D80236813F0020F17D061
:100DF00013F0040F04D0474A936843F4E053936020
:100E0000236813F0080F04D0424A936843F4604308
:100E10009360404A936823F0F003A1680B4393600A
:100E2000236813F0010F31D06368012B20D0022B0F
:100E300025D0384A126812F0020F64D035498A680A
:100E400022F0030213438B60FFF79CFC0646314BF4
:100E50009B6803F00C036268B3EB820F16D0FFF7B8
:100E600091FC801B41F288339842F0D9032045E081
:100E7000284A126812F4003FE0D101203EE0254AE2
:100E8000126812F0007FD9D1012037E0204B1B6897
:100E900003F00F03AB420AD91D4A136823F00F0376
:100EA0002B431360136803F00F03AB422DD123686B
:100EB00013F0040F06D0174A936823F4E053E16857
:100EC0000B439360236813F0080F07D0114A93680F
:100ED00023F46043216943EAC1039360FFF71AFFDB
:100EE0000C4B9B68C3F303130B4AD35CD8400B4BEA
:100EF00018600B4B1868FFF7CBFB002070BD01207A
:100F000070470120FAE70120F8E70120F6E700BF6B
:100F1000003C024000380240D820000800000020B9
:100F200008000020014B1868704700BF0000002037
:100F300008B5FFF7F7FF044B9B68C3F34233034A3E
:100F4000D35CD84008BD00BF00380240E82000084C
:100F50000F2303600B4B9A6802F0030242609A6809
:100F600002F0F00282609A6802F4E052C2609B686C
:100F7000DB0803F4E0530361034B1B6803F00F032A
:100F80000B60704700380240003C02407047000090
:100F900090F83D30DBB2012B3AD1022380F83D308E
:100FA0000268D36843F00103D36003681A4AB3F1BF
:100FB000804F18BF93421DD0A2F57C42934219D0B6
:100FC00002F58062934215D002F58062934211D0FF
:100FD00002F5784293420DD002F57052934209D047
:100FE000A2F59432934205D01A6842F001021A60C9
:100FF000002070479968094A0A40062A18BFB2F5CE
:10100000803F07D01A6842F001021A600020704742
:1010100001207047002070470000014007000100D8
:10102000704770477047704770B504460368DE68C4
:101030001D6915F0020F10D016F0020F0DD06FF0E1
:1010400002021A610123037703689B6913F0030FFF
:1010500064D0FFF7E6FF0023237715F0040F12D0CA
:1010600016F0040F0FD023686FF004021A610223F8
:10107000237723689B6913F4407F55D02046FFF700
:10108000D0FF0023237715F0080F12D016F0080FB9
:101090000FD023686FF008021A61042323772368B6
:1010A000DB6913F0030F46D02046FFF7BAFF002399
:1010B000237715F0100F12D016F0100F0FD0236801
:1010C0006FF010021A61082323772368DB6913F499
:1010D000407F37D02046FFF7A4FF0023237715F089
:1010E000010F02D016F0010F33D115F4025F02D0C8
:1010F00016F0800F35D115F4807F02D016F0800FE6
:1011000037D115F0400F02D016F0400F39D115F04D
:10111000200F02D016F0200F3BD170BDFFF780FFEB
:101120002046FFF77FFF96E72046FFF779FF20462E
:10113000FFF778FFA5E72046FFF772FF2046FFF78D
:1011400071FFB4E72046FFF76BFF2046FFF76AFF09
:10115000C3E723686FF001021A612046FFF71CFA0B
:10116000C3E723686FF402521A61204600F0DBF8EF
:10117000C1E723686FF480721A61204600F0D4F84A
:10118000BFE723686FF040021A612046FFF74BFF6C
:10119000BDE723686FF020021A61204600F0C2F814
:1011A000BBE7000030B503683F4A904214BF4FF0E0
:1011B000000E4FF0010EB0F1804F14BF72464EF09A
:1011C0000102AAB9394CA04214BF00240124384DB1
:1011D000A8420DD064B904F1804404F58234A042E1
:1011E00014BF0024012405F50065A84200D01CB1FD
:1011F00023F070034C682343002A33D12B4A9042DA
:1012000014BF002201222A4CA0422BD052BB02F173
:10121000804202F58232904214BF0022012204F57E
:101220000064A0421ED0EAB9224A904214BF0022B4
:10123000012204F59A34A04214D09AB91E4A904271
:1012400014BF0022012204F50064A0420AD04AB96A
:101250001A4A904214BF00220122A4F59634A042FB
:1012600000D022B123F4407CCB6843EA0C0323F086
:1012700080034A69134303608A68C2620A68826213
:101280000F4A904214BF73464EF001030BB10B6935
:10129000036301234361036913F0010F03D0036962
:1012A00023F00103036130BD00000140000800404D
:1012B00000040040004401400018004000200040AD
:1012C0000004014060B310B5044690F83D3013B3FC
:1012D000022384F83D30214651F8040BFFF762FFEA
:1012E000012384F8483084F83E3084F83F3084F895
:1012F000403084F8413084F8423084F8433084F838
:10130000443084F8453084F8463084F8473084F817
:101310003D30002010BD80F83C30FFF737FED7E7A6
:101320000120704770477047704700F10803436021
:101330004FF0FF328260C360036100230360704797
:1013400000230361704743684B609A688A6051606C
:1013500099600861036801330360704730B40D6819
:10136000B5F1FF3F11D000F108031C465B681A6815
:10137000AA42FAD963684B6099608C606160086129
:1013800003680133036030BC70470469F2E7036906
:10139000416882688A60416851605A68824206D01A
:1013A000002202611A68013A1A6018687047826860
:1013B0005A60F5E782B0002301930F4B1B68B3F12D
:1013C000FF3F0AD04FF0500372B683F31188BFF38A
:1013D0006F8FBFF34F8F62B6FEE74FF0500372B6C8
:1013E00083F31188BFF36F8FBFF34F8F62B6019BFA
:1013F000002BFCD002B070470C00002008480068A9
:10140000006880F308884FF0000080F3148862B60B
:1014100061B6BFF34F8FBFF36F8F00DF00BF0000D7
:1014200008ED00E0DFF80C00016841F47001016094
:101430007047000088ED00E04FF0807340F8043CF6
:1014400021F0010140F8081C054B40F80C3C40F825
:10145000202C6FF0020340F8243C4438704700BF52
:10146000B5130008000000000000000000000000AC
:10147000074B19680868B0E8F04F80F30988BFF39C
:101480006F8F4FF0000080F311887047AFF300803A
:101490009C3C00204FF0500372B683F31188BFF3D9
:1014A0006F8FBFF34F8F62B60C4A1368013313601E
:1014B000012B00D070474FF0E023D3F8043D13F028
:1014C000FF0FF7D04FF0500372B683F31188BFF3CC
:1014D0006F8FBFF34F8F62B6FEE700BF0C00002096
:1014E0000A4B1B6853B94FF0500372B683F311884F
:1014F000BFF36F8FBFF34F8F62B6FEE7013B034A26
:1015000013600BB983F31188704700BF0C000020F3
:10151000EFF30980BFF36F8F154B1A681EF0100FA1
:1015200008BF20ED108A20E9F04F10602DE9090076
:101530004FF0500072B680F31188BFF34F8FBFF3A6
:101540006F8F62B600F0FAFC4FF0000080F3118854
:1015500009BC19680868B0E8F04F1EF0100F08BF0A
:10156000B0EC108A80F30988BFF36F8F704700BF1B
:101570009C3C002008B54FF0500372B683F31188ED
:10158000BFF36F8FBFF34F8F62B600F0A3FB28B19C
:101590004FF0E0234FF08052C3F8042D002383F373
:1015A000118808BD4FF0E022002313619361054BC1
:1015B0001B680549A1FB03139B09013B53610723EA
:1015C0001361704700000020D34D621030B583B026
:1015D0002F4B1A78D2B20192FF221A701B78DBB21D
:1015E0008DF803309DF8033003F05003294A13703F
:1015F000294B07221A6009E0274A1368013B136050
:101600009DF803305B00DBB28DF803309DF80330AA
:1016100013F0800FF0D1204B1B68032B0AD04FF042
:10162000500372B683F31188BFF36F8FBFF34F8FF0
:1016300062B6FEE71B02184A136003F4E06313600E
:10164000019BDBB2124A13704FF0E024D4F8203D26
:1016500043F47003C4F8203DD4F8203D43F07043B8
:10166000C4F8203DFFF79EFF00250C4B1D60FFF7DF
:10167000D9FED4F8343F43F04043C4F8343FFFF779
:10168000BDFE00F05BFCFFF795FE284603B030BDC1
:1016900000E400E07C000020800000200C0000201E
:1016A000124A12F0070F1ED0D11D21F00701C1F51B
:1016B000705313440A460E480260002141601344EF
:1016C000083B23F007030B48036059601960991A1F
:1016D00051601360084B1960084B1960084B4FF0BC
:1016E00000421A6070474FF47053E4E7880000200E
:1016F000943C002084000020903C00208C3C002082
:10170000883C0020164B1A461B688342FBD3516865
:1017100002EB010C844509D0416800EB010C6345E4
:1017200009D00360904219D01060704740680144AE
:1017300051601046F0E710B40A4C2468A3420BD065
:101740005B681944416013681B680360904200D0D5
:1017500010605DF8044B70470460F7E7704700BF06
:10176000943C00208400002070B5054600F0AAFAE1
:10177000364B1B68A3B1364B1B681D424CD135B1AB
:10178000083515F0070F02D025F007050835002DA4
:1017900044D0304B1B68AB4251D32F4A146804E04D
:1017A000FFF77EFFE7E722461C466368AB4202D2A2
:1017B0002368002BF7D1254B1B68A34241D0166844
:1017C00008362368136063685B1B102B12D96019FD
:1017D00010F0070F0AD04FF0500372B683F3118850
:1017E000BFF36F8FBFF34F8F62B6FEE74360656054
:1017F000FFF788FF626817490B689B1A0B6017494F
:1018000009688B4201D215490B60114B1B681343C9
:1018100063600023236002E0002600E0002600F061
:10182000E7FA16F0070F0ED04FF0500372B683F3AD
:101830001188BFF36F8FBFF34F8F62B6FEE70026AC
:10184000EDE70026EBE7304670BD00BF84000020C6
:10185000883C00208C3C0020943C0020903C0020E0
:10186000002834D038B50446A0F1080550F8043CEF
:10187000174A126813420AD14FF0500372B683F32D
:101880001188BFF36F8FBFF34F8F62B6FEE750F83A
:10189000081C51B14FF0500372B683F31188BFF3A7
:1018A0006F8FBFF34F8F62B6FEE723EA020340F863
:1018B000043C00F007FA54F8041C064A13680B4471
:1018C00013602846FFF71EFF00F092FA38BD7047FC
:1018D000883C00208C3C0020084B1B681B6823B907
:1018E000074B4FF0FF321A607047044B1B68DB68F0
:1018F000DB685A68024B1A60704700BFA03C0020AA
:10190000783D002010B50446006BFFF7A9FF204684
:10191000FFF7A6FF10BD2DE9F04707469846089D42
:10192000DDF824900A9C266B6FF04043134406EBCD
:10193000830626F0070600293AD08E464FF0000CA9
:10194000BCF10F0F0BD81EF80C2004EB0C0383F82E
:1019500034201EF80C3013B10CF1010CF0E7002319
:1019600084F84330062D00D90625E56265644FF002
:10197000000AC4F848A0201DFFF7E2FC04F118009B
:10198000FFF7DEFC2461C5F10705A5616462C4F8B8
:101990004CA084F850A0424639463046FFF74CFD33
:1019A0002060B9F1000F01D0C9F80040BDE8F08710
:1019B000002384F83430D5E738B5002407E004EB81
:1019C000840293000E481844FFF7AFFC0134062C44
:1019D000F5D90C4D2846FFF7A8FC0B4C2046FFF725
:1019E000A4FC0A48FFF7A1FC0948FFF79EFC094840
:1019F000FFF79BFC084B1D60084B1C6038BD00BF07
:101A0000A83C00204C3D0020603D0020803D00208F
:101A1000AC3D0020983D0020A03C0020A43C0020CC
:101A200010B50446FFF736FD214A136801331360F1
:101A3000204B1B685BB1204B1B686BB91D4B1B68AF
:101A4000DA6AE36A9A4207D81A4B1C6004E0194B21
:101A50001C601368012B28D0184A136801331360E7
:101A6000E06A01238340164A11680B43136000EBC0
:101A70008000211D134B03EB8000FFF764FCFFF790
:101A80002FFD0D4B1B687BB10A4B1B68DA6AE36ABA
:101A90009A4209D24FF0E0234FF08052C3F8042D50
:101AA000BFF34F8FBFF36F8F10BDFFF785FFD3E7F5
:101AB000343D00209C3C0020943D0020443D00200B
:101AC000483D0020A83C00200F4B1B68D3B110B547
:101AD000FFF7E0FC0D4BDB68DC68201DFFF757FCCF
:101AE0000B4A1368013B1360074A1368013B1360FC
:101AF000FFF7F6FC2046FFF705FF034B1B68002BA2
:101B0000E6D110BD704700BF383D0020AC3D00203D
:101B1000343D002008B5FFF7D7FF074B1B68012BAA
:101B2000F9D94FF0E0234FF08052C3F8042DBFF3F2
:101B30004F8FBFF36F8FEEE7A83C002070B50446CF
:101B40000D461F4B1E681F4B18680430FFF71FFC23
:101B500050B91C4B1B68DA6A012303FA02F21A49D6
:101B60000B6823EA02030B60B4F1FF3F14BF0023AC
:101B70000123002D08BF00236BB93444114B1B68AF
:101B80005C60A6420ED9114B18680E4B19680431DF
:101B9000FFF7E4FB70BD0B4B196804310C48FFF7ED
:101BA000D2FBF7E70B4B1868064B19680431FFF7B7
:101BB000D5FB094B1B68A342ECD9074B1C60E9E736
:101BC000C03D00209C3C0020483D0020A43C00205B
:101BD000983D0020A03C0020783D00202DE9F043F6
:101BE00085B00746884614461E469000FFF7BCFDA8
:101BF000F0B181465420FFF7B7FD0546A0B1C0F80B
:101C00003090D5B10023039302950D9B01930C9B5B
:101C100000933346224641463846FFF77CFE28466D
:101C2000FFF7FEFE012005E04846FFF719FEE8E752
:101C30004FF0FF3005B0BDE8F0834FF0FF30F9E71B
:101C400000B583B0194B01930023009380221849FB
:101C50001848FFF7C3FF012805D0B0F1FF3F19D0A6
:101C600003B05DF804FB4FF0500372B683F31188A4
:101C7000BFF36F8FBFF34F8F62B60F4B4FF0FF3242
:101C80001A600E4B01221A600D4B00221A60FFF7FA
:101C90009DFCE5E74FF0500372B683F31188BFF364
:101CA0006F8FBFF34F8F62B6FEE700BF743D002019
:101CB000F0200008151B0008783D0020943D00200E
:101CC000C03D0020024A136801331360704700BF13
:101CD000403D0020F8B53B4B1B68002B66D13A4BCA
:101CE0001D6801351D60D5B9384B1B681B6853B1A1
:101CF0004FF0500372B683F31188BFF36F8FBFF3B9
:101D00004F8F62B6FEE7314A1168314B1868106098
:101D10001960304A136801331360FFF7DDFD2E4B65
:101D20001B68AB4238D900272C4B1B68DB6A03EBDE
:101D300083039A002A4B9B58012B3CD901273AE098
:101D40000127224B1B681B6843B3204B1B68DB68D1
:101D5000DC6863689D4226D3261D3046FFF717FBDB
:101D6000A36A1BB104F11800FFF711FBE36A01221B
:101D70009A401C49086802430A6003EB83039A00F7
:101D8000314617481044FFF7DEFAE26A134B1B682E
:101D9000DB6A9A42D4D2D4E70027D2E70E4B4FF049
:101DA000FF321A60C0E70C4A1360BDE70E4A1368A1
:101DB0000133136000270D4B1B6803B10127384620
:101DC000F8BD00BF403D0020C03D0020A03C0020E9
:101DD000A43C00207C3D0020783D00209C3C00205D
:101DE000A83C0020483D00203C3D0020C43D002090
:101DF00038B5364B1B6853B94FF0500372B683F3B6
:101E00001188BFF36F8FBFF34F8F62B6FEE7FFF706
:101E100041FB2E4B1A68013A1A601B68002B4FD108
:101E20002B4B1B680BB900244BE00024294B1B688B
:101E30001BB3284BDB68DC6804F11800FFF7A7FA36
:101E4000251D2846FFF7A3FAE06A01238340224AB2
:101E500011680B43136000EB800029461F4B03EB16
:101E60008000FFF770FAE26A1D4B1B68DB6A9A423A
:101E7000DCD31C4B01221A60D8E70CB1FFF72CFD14
:101E8000194B1C6884B9174B1C68D4B14FF0E02380
:101E90004FF08052C3F8042DBFF34F8FBFF36F8F05
:101EA00001240EE0013C07D0FFF714FF0028F9D011
:101EB0000C4B01221A60F5E70B4B00221A60E2E797
:101EC0000024FFF70DFB204638BD00BF403D002039
:101ED000343D0020803D0020483D0020A83C0020EB
:101EE0009C3C0020C43D00203C3D002010B5B8B112
:101EF0000446114B1B6853B14FF0500372B683F385
:101F00001188BFF36F8FBFF34F8F62B6FEE7FFF705
:101F1000D9FE00212046FFF711FEFFF769FF48B9FF
:101F20004FF0E0234FF08052C3F8042DBFF34F8FE2
:101F3000BFF36F8F10BD00BF403D0020214B1B68D9
:101F40001BB1214B01221A6070471F4B00221A60FF
:101F50001E4B1B68B3FA83F3DBB2C3F11F0303EB21
:101F600083018A001A498A5852B94FF0500372B659
:101F700083F31188BFF36F8FBFF34F8F62B6FEE715
:101F8000134903EB830082000A44506840685060A4
:101F900003EB830C4FEA8C0208321144884209D0CB
:101FA00003EB83039A000A4B13445B68DA68094B1E
:101FB0001A607047406862469100054A0A445060C2
:101FC000EEE700BF403D0020C43D0020483D00201A
:101FD000A83C00209C3C002008B54FF47A70FFF725
:101FE00085FFFAE700B583B0074B01930123009307
:101FF0000023802205490648FFF7F0FDFFF720FE89
:10200000002003B05DF804FBC83D0020F820000864
:10201000D91F0008DFF834D0FEF792FB0C480D49B9
:102020000D4A002302E0D458C4500433C4188C4233
:10203000F9D30A4A0A4C002301E013600432A24299
:10204000FBD300F011F8FEF7F9FA70470000082002
:1020500000000020100000201421000810000020C3
:10206000CC3D0020FEE7000070B50D4D0D4C641B0B
:10207000A4100026A64209D10B4D0C4C00F020F80C
:10208000641BA4100026A64205D170BD55F8043B80
:1020900098470136EEE755F8043B98470136F2E7DA
:1020A0000C2100080C2100080C2100081021000858
:1020B00002440346934200D1704703F8011BF9E73D
:1020C000F8B500BFF8BC08BC9E467047F8B500BF25
:0820D000F8BC08BC9E467047F5
:1020D80000000000000000000102030406070809D0
:1020E800000000000102030449444C4500000000C0
:0C20F8005461736B205465737400000089
:082104006CE1FF7F0100000007
:04210C0025020008A0
:0421100001020008C0
:102114000024F4000100000010000000AAAAAAAAEA
:0400000508002015BA
:00000001FF
