:020000040800F2
:10000000000008207D1C0008F9060008FB06000817
:10001000FD060008FF0600080107000800000000B8
:1000200000000000000000000000000003070008BE
:10003000050700080000000007070008090700087E
:10004000CD1C0008CD1C0008CD1C0008CD1C0008EC
:10005000CD1C0008CD1C0008CD1C0008CD1C0008DC
:10006000CD1C0008CD1C0008CD1C0008CD1C0008CC
:10007000CD1C0008CD1C0008CD1C0008CD1C0008BC
:10008000CD1C0008CD1C0008CD1C0008CD1C0008AC
:10009000CD1C0008CD1C0008CD1C0008CD1C00089C
:1000A000CD1C0008CD1C0008CD1C0008CD1C00088C
:1000B000CD1C0008CD1C0008CD1C0008CD1C00087C
:1000C000CD1C0008CD1C0008CD1C0008CD1C00086C
:1000D000CD1C0008CD1C0008CD1C0008CD1C00085C
:1000E000CD1C0008CD1C0008CD1C0008CD1C00084C
:1000F000CD1C0008CD1C0008CD1C0008CD1C00083C
:10010000CD1C0008CD1C0008CD1C0008CD1C00082B
:10011000CD1C0008CD1C0008CD1C0008CD1C00081B
:10012000CD1C0008CD1C0008CD1C0008CD1C00080B
:10013000CD1C0008CD1C0008CD1C0008CD1C0008FB
:10014000CD1C0008CD1C0008CD1C0008CD1C0008EB
:10015000CD1C0008CD1C0008CD1C0008CD1C0008DB
:10016000CD1C0008CD1C0008CD1C0008CD1C0008CB
:10017000CD1C0008CD1C0008CD1C000800000000AC
:10018000CD1C0008CD1C0008CD1C0008CD1C0008AB
:10019000CD1C0008CD1C0008CD1C0008CD1C00089B
:1001A000CD1C0008CD1C0008CD1C0008CD1C00088B
:1001B000CD1C0008CD1C0008CD1C0008CD1C00087B
:1001C000CD1C0008CD1C000800000000CD1C00085C
:1001D000CD1C0008CD1C0008CD1C0008CD1C00085B
:1001E000CD1C0008CD1C0008CD1C0008CD1C00084B
:0801F000CD1C0008CD1C000825
:1001F80010B5054C237833B9044B13B10448AFF359
:1002080000800123237010BD0C00002000000000B6
:10021800D01C000808B5034B1BB103490348AFF3D2
:10022800008008BD0000000010000020D01C00085D
:1002380053B94AB9002908BF00281CBF4FF0FF3145
:100248004FF0FF3000F074B9ADF1080C6DE904CE41
:1002580000F006F8DDF804E0DDE9022304B0704799
:100268002DE9F047089D04468E46002B4DD18A4261
:10027800944669D9B2FA82F252B101FA02F3C2F194
:10028800200120FA01F10CFA02FC41EA030E944025
:100298004FEA1C48210CBEFBF8F61FFA8CF708FB46
:1002A80016E341EA034306FB07F199420AD91CEB1E
:1002B800030306F1FF3080F01F81994240F21C8150
:1002C800023E63445B1AA4B2B3FBF8F008FB103398
:1002D80044EA034400FB07F7A7420AD91CEB0404CD
:1002E80000F1FF3380F00A81A74240F2078164449D
:1002F800023840EA0640E41B00261DB1D440002322
:10030800C5E900433146BDE8F0878B4209D9002D85
:1003180000F0EF800026C5E9000130463146BDE80F
:10032800F087B3FA83F6002E4AD18B4202D3824279
:1003380000F2F980841A61EB030301209E46002D28
:10034800E0D0C5E9004EDDE702B9FFDEB2FA82F27D
:10035800002A40F09280A1EB0C014FEA1C471FFADB
:100368008CFE0126200CB1FBF7F307FB131140EAC2
:1003780001410EFB03F0884208D91CEB010103F18F
:10038800FF3802D2884200F2CB804346091AA4B251
:10039800B1FBF7F007FB101144EA01440EFB00FE25
:1003A800A64508D91CEB040400F1FF3102D2A6458A
:1003B80000F2BB800846A4EB0E0440EA03409CE729
:1003C800C6F12007B34022FA07FC4CEA030C20FAD6
:1003D80007F401FA06F31C43F9404FEA1C4900FAF6
:1003E80006F3B1FBF9F8200C1FFA8CFE09FB181173
:1003F80040EA014108FB0EF0884202FA06F20BD9E6
:100408001CEB010108F1FF3A80F08880884240F235
:100418008580A8F102086144091AA4B2B1FBF9F079
:1004280009FB101144EA014100FB0EFE8E4508D974
:100438001CEB010100F1FF346CD28E456AD90238F9
:10044800614440EA0840A0FB0294A1EB0E01A142DE
:10045800C846A64656D353D05DB1B3EB080261EB4C
:100468000E0101FA07F722FA06F3F1401F43C5E926
:10047800007100263146BDE8F087C2F12003D8405C
:100488000CFA02FC21FA03F3914001434FEA1C479E
:100498001FFA8CFEB3FBF7F007FB10360B0C43EA90
:1004A800064300FB0EF69E4204FA02F408D91CEB40
:1004B800030300F1FF382FD29E422DD9023863443E
:1004C8009B1B89B2B3FBF7F607FB163341EA0341DE
:1004D80006FB0EF38B4208D91CEB010106F1FF382D
:1004E80016D28B4214D9023E6144C91A46EA004624
:1004F80038E72E46284605E70646E3E61846F8E6B6
:100508004B45A9D2B9EB020864EB0C0E0138A3E7FE
:100518004646EAE7204694E74046D1E7D0467BE7DF
:10052800023B614432E7304609E76444023842E757
:10053800704700BF70B50D4D0D4C641BA41000260C
:10054800A64209D10B4D0C4C01F0BEFB641BA41054
:100558000026A64205D170BD55F8043B98470136E0
:10056800EEE755F8043B98470136F2E7001D00080E
:10057800001D0008001D0008041D00080244034671
:10058800934200D1704703F8011BF9E782B0064B8C
:100598001A6B42F010021A631B6B03F010030193ED
:1005A800019B02B0704700BF0038024010B584B00C
:1005B8000024009401940294039400F021FA01238A
:1005C8008DF800308DF8014001941F228DF8082025
:1005D80087228DF809208DF80A408DF80B408DF898
:1005E8000C308DF80D308DF80E408DF80F406846B0
:1005F80000F024FA042000F011FA04B010BD72B61D
:10060800FEE7000000B595B03422002107A8FFF7E7
:10061800B5FF002302930393049305930693194AA5
:10062800116C41F080511164126C02F080520092FA
:10063800009A15490A6822F4404242F480420A604E
:100648000A6802F440420192019A022207920122AA
:100658000A9210220B920D9307A800F017FB68B9B5
:100668000F2302930021039104910591069102A89A
:1006780000F080FD20B915B05DF804FBFFF7BFFF5F
:10068800FFF7BDFF003802400070004010B5FFF7CB
:100698008DFF00F027F9FFF7B5FFFFF777FF00F0B0
:1006A8007DF8002400E000244FF47A7000F038F957
:1006B800204601F0D1FA0A34E4B2632CF3D8F3E708
:1006C80082B00A4B1A6C42F080521A641A6C02F01B
:1006D80080520092009A5A6C42F480425A645B6CD1
:1006E80003F480430193019B02B070470038024035
:1006F800FEE7FEE7FEE7FEE7FEE770477047704754
:1007080008B500F0FBF808BD034AD2F8883043F476
:100718007003C2F88830704700ED00E00268094BAA
:100728009A4200D0704782B003F59C335A6C42F06D
:1007380001025A645B6C03F001030193019B02B050
:10074800704700BF0000014000B587B00023019347
:10075800029303930493059302680E4B9A4202D0C6
:1007680007B05DF804FB03F59C331A6B42F01002E6
:100778001A631B6B03F010030093009B4FF4007384
:100788000193022302930123059301A9024800F073
:1007980081F9E5E7000001400010024010B59AB069
:1007A8000024169417941894199413941494159477
:1007B8000C940D940E940F941094119412942C226E
:1007C800214601A8FFF7DAFE3148324B03600F23B8
:1007D800436084606323C36004614461846100F002
:1007E80029FF002841D14FF48053169316A92848B1
:1007F80001F062F800283BD1254800F04BFF0028A3
:1008080039D1002313931493159313A9204801F0A9
:100818008BF9002832D160230C934FF4FA730D93AF
:1008280000220E920F921092119212920CA918485F
:1008380000F098FF28BB00230193029303930493CD
:1008480005934FF400520692079308934FF00072F5
:1008580009920A930B9301A90D4801F0B5F998B9CB
:100868000B48FFF771FF1AB010BDFFF7C8FEBAE7D3
:10087800FFF7C5FEC0E7FFF7C2FEC2E7FFF7BFFEFE
:10088800C9E7FFF7BCFED6E7FFF7B9FEE8E700BF08
:10089800280000200000014010B504460E4B1878CF
:1008A8004FF47A73B3FBF0F30C4A1068B0FBF3F023
:1008B80000F092F868B90F2C01D901200AE0002253
:1008C80021464FF0FF3000F051F8054B1C60002026
:1008D80000E0012010BD00BF04000020000000203F
:1008E8000800002008B5032000F02EF80F20FFF7BD
:1008F800D3FFFFF7E5FE002008BD0000034A11689A
:10090800034B1B780B441360704700BF7400002032
:1009180004000020014B1868704700BF74000020D5
:1009280038B50446FFF7F6FF0546B4F1FF3F02D09D
:10093800044B1B781C44FFF7EDFF401BA042FAD381
:1009480038BD00BF040000200649CB6823F4E063EB
:100958001B041B0C000200F4E0600343024A1A4324
:10096800CA60704700ED00E00000FA0500B5174BBB
:10097800DB68C3F30223C3F1070CBCF1040F28BFE3
:100988004FF0040C03F1040EBEF1060F14D9033B1B
:100998004FF0FF3E0EFA0CFC21EA0C0199400EFACA
:1009A80003F322EA03031943002807DB0901C9B24C
:1009B800074B19545DF804FB0023E9E700F00F002A
:1009C8000901C9B2034B1954F4E700BF00ED00E078
:1009D80000E400E014ED00E00138B0F1807F0BD2B4
:1009E8004FF0E0235861054AF02182F823100020D7
:1009F800986107221A6170470120704700ED00E0F6
:100A0800BFF35F8F044B5A6A22F480325A62002285
:100A1800C3F89420704700BF00ED00E040F00100EB
:100A2800054BC3F894005A6A42F480325A62BFF305
:100A38004F8FBFF36F8F704700ED00E04378144A83
:100A4800C2F89830D2F8A03023F00103C2F8A030E1
:100A58004368C2F89C30017BC37A1B0643EA0173E2
:100A6800817A43EAC143417B43EA8143817B43EA7C
:100A78004143C17B43EA0143417A43EA0123017AB6
:100A880043EA410301780B43C2F8A030704700BF26
:100A980000ED00E000230F2B00F2EF8070B582B06C
:100AA80061E085685E000324B44025EA0405CC684B
:100AB800B4402C438460456825EA02054C68C4F3B9
:100AC80000129A402A4342605BE0DC08083450F880
:100AD800246003F0070295000F22AA4026EA020EBE
:100AE8000A69AA4042EA0E0240F824205DE0092281
:100AF80000E0002202FA0EF22A4302345F4D45F864
:100B080024205F4A94686FEA0C0224EA0C054E68B8
:100B180016F4801F01D04CEA0405594CA560E4681E
:100B280002EA04054E6816F4001F01D04CEA0405D9
:100B3800534CE560646802EA04054E6816F4003F09
:100B480001D04CEA04054E4C6560246822404D688B
:100B580015F4803F01D04CEA0402494C226001336D
:100B68000F2B00F2888001229A400C6804EA020CDC
:100B780032EA0404F3D14C6804F00304013C012C6C
:100B88008FD94A6802F00302032A09D0C4685D00BD
:100B98000322AA4024EA02048A68AA402243C260C7
:100BA8004A6802F00302022A8FD004684FEA430E13
:100BB800032202FA0EF224EA02044A6802F003024F
:100BC80002FA0EF2224302604A6812F4403FC6D08D
:100BD8002C4A546C44F480445464526C02F48042AD
:100BE8000192019A9C08A51C244A52F8255003F04A
:100BF80003024FEA820E0F2202FA0EF225EA0205DC
:100C0800214A90423FF475AF02F58062904222D0AB
:100C180002F58062904220D002F5806290421ED098
:100C280002F5806290421CD002F5806290421AD090
:100C380002F58062904218D002F58062904216D088
:100C480002F58062904214D002F5806290423FF42F
:100C58004EAF0A224EE701224CE702224AE703225E
:100C680048E7042246E7052244E7062242E707222E
:100C780040E708223EE702B070BD704700380140E7
:100C8800003C01400038024000000240002800F00B
:100C9800068270B582B00446036813F0010F29D0AC
:100CA800954B9B6803F00C03042B1AD0924B9B685E
:100CB80003F00C03082B0FD06368B3F5803F40D0D6
:100CC800002B54D18C4B1A6822F480321A601A68AF
:100CD80022F480221A6039E0874B5B6813F4800F96
:100CE800EAD0854B1B6813F4003F03D06368002BE0
:100CF80000F0D781236813F0020F74D07E4B9B68F5
:100D080013F00C0F5ED07C4B9B6803F00C03082B90
:100D180053D0E368002B00F08980774A136843F0CA
:100D280001031360FFF7F6FD0546734B1B6813F0CC
:100D3800020F72D1FFF7EEFD401B0228F5D9032000
:100D4800B4E16D4A136843F48033136063682BB3CE
:100D5800FFF7E0FD0546684B1B6813F4003FC9D157
:100D6800FFF7D8FD401B6428F5D903209EE1B3F5B1
:100D7800A02F09D0604B1A6822F480321A601A68D2
:100D880022F480221A60E1E75B4B1A6842F4802261
:100D98001A601A6842F480321A60D7E7FFF7BAFD82
:100DA8000546554B1B6813F4003FA3D0FFF7B2FD6F
:100DB800401B6428F5D9032078E14F4B5B6813F496
:100DC800800FA6D14C4B1B6813F0020F03D0E368C9
:100DD800012B40F06881484A136823F0F803216921
:100DE80043EAC1031360236813F0080F46D0636910
:100DF80083B3414A536F43F001035367FFF78AFDFA
:100E080005463D4B5B6F13F0020F37D1FFF782FDAC
:100E1800401B0228F5D9032048E1374A136823F01C
:100E2800F803216943EAC1031360DCE7324A136817
:100E380023F001031360FFF76DFD05462E4B1B6879
:100E480013F0020FCFD0FFF765FD401B0228F5D93C
:100E580003202BE1284A536F23F001035367FFF760
:100E680059FD0546244B5B6F13F0020F06D0FFF7C0
:100E780051FD401B0228F5D9032017E1236813F020
:100E8800040F7DD01C4B1B6C13F0805F1ED11A4BD6
:100E98001A6C42F080521A641B6C03F08053019361
:100EA800019B0125154B1B6813F4807F10D0A368A4
:100EB800012B25D0002B3BD10F4B1A6F22F00102DA
:100EC8001A671A6F22F004021A671EE00025E9E784
:100ED8000A4A136843F480731360FFF71BFD064644
:100EE800064B1B6813F4807FE1D1FFF713FD801BCD
:100EF8006428F5D90320D9E000380240007000408A
:100F0800724A136F43F001031367A36833B3FFF703
:100F180001FD06466D4B1B6F13F0020F2FD1FFF733
:100F2800F9FC801B41F288339842F3D90320BDE0D5
:100F3800052B09D0654B1A6F22F001021A671A6F48
:100F480022F004021A67E0E7604B1A6F42F00402CD
:100F58001A671A6F42F001021A67D6E7FFF7DAFC40
:100F680006465A4B1B6F13F0020F08D0FFF7D2FC4E
:100F7800801B41F288339842F3D9032096E0FDB9EB
:100F8800A369002B00F09180504A926802F00C028D
:100F9800082A59D0022B19D04C4A136823F08073C1
:100FA8001360FFF7B7FC0446484B1B6813F0007F3B
:100FB80048D0FFF7AFFC001B0228F5D9032075E0E5
:100FC800424A136C23F080531364D9E73F4A1368ED
:100FD80023F080731360FFF79DFC05463B4B1B68AD
:100FE80013F0007F06D0FFF795FC401B0228F5D9C7
:100FF80003205BE0E369226A1343626A43EA8213CF
:10100800A26A5208013A43EA0243E26A43EA0263E7
:10101800226B43EA02732D4A5360136843F08073CE
:101028001360FFF777FC0446284B1B6813F0007F1A
:1010380006D1FFF76FFC001B0228F5D9032035E025
:10104800002033E0002031E0204A5268012B2FD0E5
:1010580002F48003E1698B422CD102F03F03216A3C
:101068008B4229D1616A47F6C0731340B3EB811FE5
:1010780024D102F44031A36A5B08013BB1EB034F72
:101088001ED102F07063E16AB3EB016F1AD102F06E
:10109800E042236BB2EB037F16D1002006E001206B
:1010A8007047012002E0012000E0002002B070BD7E
:1010B8000120FBE70120F9E70120F7E70120F5E728
:1010C8000120F3E70120F1E70120EFE700380240B3
:1010D80008B5254B9B6803F00C03042B3FD0082B65
:1010E8003FD1214B5A6802F03F025B6813F4800F2E
:1010F80012D01D4B5968C1F388111C480023A1FB6D
:101108000001FFF795F8184B5B68C3F301430133FF
:101118005B00B0FBF3F025E0134B5968C1F3881C62
:101128004FEA4C11B1EB0C006EEB0E0E4FEA8E132A
:1011380043EA90638101091A63EB0E03DB0043EA7B
:101148005173C90011EB0C0C43F100039902002301
:101158004FEA8C2041EA9C51FFF76AF8D3E703482D
:1011680000E0034808BD00BF0038024040787D0118
:101178000024F400002800F0A08070B50D46044655
:10118800524B1B6803F00F038B420BD24F4A136874
:1011980023F00F030B431360136803F00F038B4214
:1011A80040F08D80236813F0020F17D013F0040F5E
:1011B80004D0474A936843F4E0539360236813F0DC
:1011C800080F04D0424A936843F460439360404A4E
:1011D800936823F0F003A1680B439360236813F02E
:1011E800010F31D06368012B20D0022B25D0384A5B
:1011F800126812F0020F64D035498A6822F003029F
:1012080013438B60FFF786FB0646314B9B6803F060
:101218000C036268B3EB820F16D0FFF77BFB801BD1
:1012280041F288339842F0D9032045E0284A1268F1
:1012380012F4003FE0D101203EE0254A126812F086
:10124800007FD9D1012037E0204B1B6803F00F0342
:10125800AB420AD91D4A136823F00F032B431360CE
:10126800136803F00F03AB422DD1236813F0040F6A
:1012780006D0174A936823F4E053E1680B43936060
:10128800236813F0080F07D0114A936823F46043CA
:10129800216943EAC1039360FFF71AFF0C4B9B686F
:1012A800C3F303130B4AD35CD8400B4B18600B4BAA
:1012B8001868FFF7F1FA002070BD0120704701207F
:1012C800FAE70120F8E70120F6E700BF003C0240FA
:1012D80000380240E81C0008000000200800002038
:1012E80070B4036A026A22F00102026242688569E8
:1012F800124C2C400D68254323F002048B682343CD
:101308000F4C104EB04218BFA0420CBF012400245D
:1013180005D123F00803CE68334323F004032CB12E
:1013280022F440724C6914438A6922434260856101
:101338004A684263036270BC704700BF8CFFFEFFBF
:10134800000001400004014070B4036A026A22F4FC
:10135800807202624268C569144C2C400E682643AC
:1013680023F400738C6843EA0423114C114DA842FE
:1013780018BFA0420CBF0124002406D123F4006347
:10138800CD6843EA052323F480633CB122F440523C
:101398004C6942EA04128C6942EA04124260C6614E
:1013A8004A68C263036270BC704700BF8CFFFEFFCF
:1013B800000001400004014070B4036A026A22F48C
:1013C800805202624468C5690D4A2A400D6842EAA3
:1013D800052223F400538D6843EA0533094E0A4D6C
:1013E800A84218BFB04204D124F480444D6944EAAD
:1013F80085144460C2614A680264036270BC704725
:10140800FF8CFFFE000001400004014070B4036A35
:10141800026A22F4803202624468426D0D4D154022
:101428000A682A4323F400338D6843EA05430A4EC9
:101438000A4DA84218BFB04204D124F480344D6943
:1014480044EA0524446042654A688265036270BCC8
:10145800704700BF8FFFFEFF0000014000040140FD
:1014680070B4036A026A22F4801202624468456D0D
:101478000D4A2A400D6842EA052223F400138D68BC
:1014880043EA0553094E0A4DA84218BFB04204D199
:1014980024F480244D6944EA8524446042654A68FE
:1014A800C265036270BC7047FF8FFFFE00000140F9
:1014B8000004014010B4036A046A24F001040462C1
:1014C800846924F0F00C4CEA021223F00A030B435F
:1014D800826103625DF8044B704710B4036A046AC2
:1014E80024F010040462846924F4704C4CEA02323B
:1014F80023F0A00343EA0113826103625DF8044B01
:101508007047836823F070030B4343F0070383603D
:101518007047704730B503683F4A904214BF4FF098
:10152800000E4FF0010EB0F1804F14BF72464EF01E
:101538000102AAB9394CA04214BF00240124384D35
:10154800A8420DD064B904F1804404F58234A04265
:1015580014BF0024012405F50065A84200D01CB181
:1015680023F070034C682343002A33D12B4A90425E
:1015780014BF002201222A4CA0422BD052BB02F1F8
:10158800804202F58232904214BF0022012204F503
:101598000064A0421ED0EAB9224A904214BF002239
:1015A800012204F59A34A04214D09AB91E4A9042F6
:1015B80014BF0022012204F50064A0420AD04AB9EF
:1015C8001A4A904214BF00220122A4F59634A04280
:1015D80000D022B123F4407CCB6843EA0C0323F00B
:1015E80080034A69134303608A68C2620A68826298
:1015F8000F4A904214BF73464EF001030BB10B69BA
:10160800036301234361036913F0010F03D00369E6
:1016180023F00103036130BD0000014000080040D1
:101628000004004000440140001800400020004031
:101638000004014060B310B5044690F83D3013B380
:10164800022384F83D30214651F8040BFFF762FF6E
:10165800012384F8483084F83E3084F83F3084F819
:10166800403084F8413084F8423084F8433084F8BC
:10167800443084F8453084F8463084F8473084F89C
:101688003D30002010BD80F83C30FFF747F8D7E721
:101698000120704760B310B5044690F83D3013B38D
:1016A800022384F83D30214651F8040BFFF732FF3E
:1016B800012384F8483084F83E3084F83F3084F8B9
:1016C800403084F8413084F8423084F8433084F85C
:1016D800443084F8453084F8463084F8473084F83C
:1016E8003D30002010BD80F83C30FFF712FFD7E7EF
:1016F8000120704770B4036A026A22F01002026285
:1017080042688569144C2C400D6844EA052523F08D
:1017180020038C6843EA0413104C114EB04218BFE2
:10172800A0420CBF0124002406D123F08003CE6818
:1017380043EA061323F040033CB122F440624C69AB
:1017480042EA84028C6942EA8402426085614A68FE
:101758008263036270BC7047FF8CFFFE000001408B
:101768000004014038B590F83C30012B00F095801A
:1017780004460D46012380F83C30142A00F2888084
:10178800DFE802F00B8686861F8686863486868684
:10179800488686865D86868671000068FFF7A0FD0C
:1017A8002268936943F0080393612268936923F0E0
:1017B800040393612268936929690B4393610020AC
:1017C80067E00068FFF796FF2268936943F40063B7
:1017D80093612268936923F4806393612268936913
:1017E800296943EA01239361002052E00068FFF76A
:1017F800ABFD2268D36943F00803D3612268D3693B
:1018080023F00403D3612268D36929690B43D361A8
:1018180000203EE00068FFF7CFFD2268D36943F45B
:101828000063D3612268D36923F48063D36122689B
:10183800D369296943EA0123D361002029E00068BC
:10184800FFF7E4FD2268536D43F0080353652268EF
:10185800536D23F0040353652268536D29690B43C4
:101868005365002015E00068FFF7FAFD2268536D04
:1018780043F4006353652268536D23F48063536512
:101888002268536D296943EA01235365002000E06B
:101898000120002384F83C3038BD0220FCE710B456
:1018A800846824F47F4C42EA03220A4342EA0C0289
:1018B80082605DF8044B704790F83C30012B76D07D
:1018C80010B50446012380F83C30022380F83D30EF
:1018D80002689068374B034093600B68602B4CD0CC
:1018E80029D8402B54D00CD9502B22D1CA6849682A
:1018F8002068FFF7DFFD50212068FFF702FE002077
:1019080005E0202B0DD009D9302B0AD00120012366
:1019180084F83D30002384F83C3010BD0BB1102B07
:1019280005D119462068FFF7ECFD0020EFE70120FC
:10193800EDE70120EBE7B3F5805F34D0B3F5005F46
:101948000CD1CB684A6889682068FFF7A8FF22682D
:10195800936843F4804393600020D8E7702B24D128
:10196800CB684A6889682068FFF799FF22689368FE
:1019780043F0770393600020C9E7CA684968206884
:10198800FFF7ABFD60212068FFF7BBFD0020BEE735
:10199800CA6849682068FFF78DFD40212068FFF775
:1019A800B0FD0020B3E70020B1E70120AFE7022037
:1019B800704700BF8800FEFF01F01F01012303FAF2
:1019C80001FC036A23EA0C030362036A02FA01F1C9
:1019D8000B4303627047000010B50446084600290F
:1019E80042D194F83E30DBB2013B18BF0123002BF3
:1019F80040F08F80002862D1022384F83E30012213
:101A080001462068FFF7D8FF23684449444A9342B7
:101A180018BF8B4203D15A6C42F400425A642368BF
:101A28003E4AB3F1804F18BF934264D0A2F57C427E
:101A3800934260D002F5806293425CD002F58062E6
:101A4800934258D002F57842934254D002F570522E
:101A5800934250D0A2F5943293424CD01A6842F087
:101A680001021A60002055E004290CD0082911D081
:101A78000C2916D010291BD094F84330DBB2013B57
:101A880018BF0123B3E794F83F30DBB2013B18BF1E
:101A98000123ACE794F84030DBB2013B18BF0123C7
:101AA800A5E794F84130DBB2013B18BF01239EE75C
:101AB80094F84230DBB2013B18BF012397E70428B2
:101AC80009D008280BD00C280DD010280FD00223DD
:101AD80084F8433093E7022384F83F308FE70223EA
:101AE80084F840308BE7022384F8413087E70223EB
:101AF80084F8423083E799680A4A0A40062A18BFE0
:101B0800B2F5803F07D01A6842F001021A6000203F
:101B180000E0012010BD0020FCE700BF00000140EC
:101B2800000401400700010090F83C30012B45D02B
:101B380070B4012380F83C30022380F83D300368FC
:101B48005A689C681E4E1F4DAB4218BFB34203D162
:101B580022F470024D682A4322F070020D682A436D
:101B68005A600368164AB3F1804F18BF934217D0E2
:101B7800A2F57C42934213D002F5806293420FD0C3
:101B880002F5806293420BD002F57842934207D067
:101B980002F57052934203D0A2F59432934204D1D5
:101BA80024F080048A6814439C60012380F83D3047
:101BB800002380F83C30184670BC704702207047FC
:101BC800000001400004014090F83C30012B3CD05B
:101BD80030B4012380F83C30CB6823F440738A6822
:101BE800134323F480634A68134323F400630A68A9
:101BF800134323F480530A69134323F400534A69B7
:101C0800134323F480438A6A134323F470238A69B5
:101C180043EA024302680E4D0E4CA24218BFAA4284
:101C28000CD123F470034C6A43EA045323F0807305
:101C3800CC69234323F00073096A0B4353640023E0
:101C480080F83C30184630BC70470220704700BF0F
:101C5800000001400004014010B5044B58630448DB
:101C6800C4680021FFF7B8FE204610BD00000140FF
:101C780028000020DFF834D0FEF746FD0C480D4957
:101C88000D4A002302E0D458C4500433C4188C42CF
:101C9800F9D30A4A0A4C002301E013600432A24235
:101CA800FBD3FEF747FCFEF7F1FC70470000082065
:101CB800000000200C000020081D00080C00002077
:101CC80078000020FEE70000F8B500BFF8BC08BCAB
:101CD8009E467047F8B500BFF8BC08BC9E467047E2
:101CE80000000000000000000102030406070809C4
:081CF80070E5FF7F0100000010
:041D00001D020008B8
:041D0400F9010008D9
:0C1D08000024F4000100000010000000A6
:0400000508001C7D56
:00000001FF
